{
	"contracts/BaseLearn/BasicMath.sol": {
		"BasicMath": {
			"abi": [
				{
					"inputs": [
						{
							"internalType": "uint256",
							"name": "_a",
							"type": "uint256"
						},
						{
							"internalType": "uint256",
							"name": "_b",
							"type": "uint256"
						}
					],
					"name": "adder",
					"outputs": [
						{
							"internalType": "uint256",
							"name": "sum",
							"type": "uint256"
						},
						{
							"internalType": "bool",
							"name": "error",
							"type": "bool"
						}
					],
					"stateMutability": "pure",
					"type": "function"
				},
				{
					"inputs": [
						{
							"internalType": "uint256",
							"name": "_a",
							"type": "uint256"
						},
						{
							"internalType": "uint256",
							"name": "_b",
							"type": "uint256"
						}
					],
					"name": "subtractor",
					"outputs": [
						{
							"internalType": "uint256",
							"name": "difference",
							"type": "uint256"
						},
						{
							"internalType": "bool",
							"name": "error",
							"type": "bool"
						}
					],
					"stateMutability": "pure",
					"type": "function"
				}
			],
			"devdoc": {
				"kind": "dev",
				"methods": {},
				"version": 1
			},
			"evm": {
				"assembly": "    /* \"contracts/BaseLearn/BasicMath.sol\":68:600  contract BasicMath {... */\n  mstore(0x40, 0x80)\n  callvalue\n  dup1\n  iszero\n  tag_1\n  jumpi\n  0x00\n  dup1\n  revert\ntag_1:\n  pop\n  dataSize(sub_0)\n  dup1\n  dataOffset(sub_0)\n  0x00\n  codecopy\n  0x00\n  return\nstop\n\nsub_0: assembly {\n        /* \"contracts/BaseLearn/BasicMath.sol\":68:600  contract BasicMath {... */\n      mstore(0x40, 0x80)\n      callvalue\n      dup1\n      iszero\n      tag_1\n      jumpi\n      0x00\n      dup1\n      revert\n    tag_1:\n      pop\n      jumpi(tag_2, lt(calldatasize, 0x04))\n      shr(0xe0, calldataload(0x00))\n      dup1\n      0x06b034e9\n      eq\n      tag_3\n      jumpi\n      dup1\n      0x5270312a\n      eq\n      tag_4\n      jumpi\n    tag_2:\n      0x00\n      dup1\n      revert\n        /* \"contracts/BaseLearn/BasicMath.sol\":94:355  function adder(uint _a, uint _b) external pure returns (uint sum, bool error) {... */\n    tag_3:\n      tag_5\n      0x04\n      dup1\n      calldatasize\n      sub\n      dup2\n      add\n      swap1\n      tag_6\n      swap2\n      swap1\n      tag_7\n      jump\t// in\n    tag_6:\n      tag_8\n      jump\t// in\n    tag_5:\n      mload(0x40)\n      tag_9\n      swap3\n      swap2\n      swap1\n      tag_10\n      jump\t// in\n    tag_9:\n      mload(0x40)\n      dup1\n      swap2\n      sub\n      swap1\n      return\n        /* \"contracts/BaseLearn/BasicMath.sol\":363:597  function subtractor(uint _a, uint _b) external pure returns (uint difference, bool error) {... */\n    tag_4:\n      tag_11\n      0x04\n      dup1\n      calldatasize\n      sub\n      dup2\n      add\n      swap1\n      tag_12\n      swap2\n      swap1\n      tag_7\n      jump\t// in\n    tag_12:\n      tag_13\n      jump\t// in\n    tag_11:\n      mload(0x40)\n      tag_14\n      swap3\n      swap2\n      swap1\n      tag_10\n      jump\t// in\n    tag_14:\n      mload(0x40)\n      dup1\n      swap2\n      sub\n      swap1\n      return\n        /* \"contracts/BaseLearn/BasicMath.sol\":94:355  function adder(uint _a, uint _b) external pure returns (uint sum, bool error) {... */\n    tag_8:\n        /* \"contracts/BaseLearn/BasicMath.sol\":150:158  uint sum */\n      0x00\n        /* \"contracts/BaseLearn/BasicMath.sol\":160:170  bool error */\n      dup1\n        /* \"contracts/BaseLearn/BasicMath.sol\":208:215  uint _c */\n      0x00\n        /* \"contracts/BaseLearn/BasicMath.sol\":223:225  _b */\n      dup4\n        /* \"contracts/BaseLearn/BasicMath.sol\":218:220  _a */\n      dup6\n        /* \"contracts/BaseLearn/BasicMath.sol\":218:225  _a + _b */\n      add\n        /* \"contracts/BaseLearn/BasicMath.sol\":208:225  uint _c = _a + _b */\n      swap1\n      pop\n        /* \"contracts/BaseLearn/BasicMath.sol\":249:251  _a */\n      dup5\n        /* \"contracts/BaseLearn/BasicMath.sol\":244:246  _c */\n      dup2\n        /* \"contracts/BaseLearn/BasicMath.sol\":244:251  _c < _a */\n      lt\n        /* \"contracts/BaseLearn/BasicMath.sol\":240:304  if (_c < _a) {... */\n      iszero\n      tag_16\n      jumpi\n        /* \"contracts/BaseLearn/BasicMath.sol\":280:281  0 */\n      0x00\n        /* \"contracts/BaseLearn/BasicMath.sol\":283:287  true */\n      0x01\n        /* \"contracts/BaseLearn/BasicMath.sol\":272:288  return (0, true) */\n      swap3\n      pop\n      swap3\n      pop\n      pop\n      jump(tag_15)\n        /* \"contracts/BaseLearn/BasicMath.sol\":240:304  if (_c < _a) {... */\n    tag_16:\n        /* \"contracts/BaseLearn/BasicMath.sol\":326:328  _c */\n      dup1\n        /* \"contracts/BaseLearn/BasicMath.sol\":330:335  false */\n      0x00\n        /* \"contracts/BaseLearn/BasicMath.sol\":318:336  return (_c, false) */\n      swap3\n      pop\n      swap3\n      pop\n      pop\n        /* \"contracts/BaseLearn/BasicMath.sol\":94:355  function adder(uint _a, uint _b) external pure returns (uint sum, bool error) {... */\n    tag_15:\n      swap3\n      pop\n      swap3\n      swap1\n      pop\n      jump\t// out\n        /* \"contracts/BaseLearn/BasicMath.sol\":363:597  function subtractor(uint _a, uint _b) external pure returns (uint difference, bool error) {... */\n    tag_13:\n        /* \"contracts/BaseLearn/BasicMath.sol\":424:439  uint difference */\n      0x00\n        /* \"contracts/BaseLearn/BasicMath.sol\":441:451  bool error */\n      dup1\n        /* \"contracts/BaseLearn/BasicMath.sol\":473:475  _a */\n      dup4\n        /* \"contracts/BaseLearn/BasicMath.sol\":468:470  _b */\n      dup4\n        /* \"contracts/BaseLearn/BasicMath.sol\":468:475  _b > _a */\n      gt\n        /* \"contracts/BaseLearn/BasicMath.sol\":464:520  if (_b > _a) {... */\n      iszero\n      tag_18\n      jumpi\n        /* \"contracts/BaseLearn/BasicMath.sol\":500:501  0 */\n      0x00\n        /* \"contracts/BaseLearn/BasicMath.sol\":503:507  true */\n      0x01\n        /* \"contracts/BaseLearn/BasicMath.sol\":492:508  return (0, true) */\n      swap2\n      pop\n      swap2\n      pop\n      jump(tag_17)\n        /* \"contracts/BaseLearn/BasicMath.sol\":464:520  if (_b > _a) {... */\n    tag_18:\n        /* \"contracts/BaseLearn/BasicMath.sol\":568:570  _b */\n      dup3\n        /* \"contracts/BaseLearn/BasicMath.sol\":563:565  _a */\n      dup5\n        /* \"contracts/BaseLearn/BasicMath.sol\":563:570  _a - _b */\n      sub\n        /* \"contracts/BaseLearn/BasicMath.sol\":572:577  false */\n      0x00\n        /* \"contracts/BaseLearn/BasicMath.sol\":555:578  return (_a - _b, false) */\n      swap2\n      pop\n      swap2\n      pop\n        /* \"contracts/BaseLearn/BasicMath.sol\":363:597  function subtractor(uint _a, uint _b) external pure returns (uint difference, bool error) {... */\n    tag_17:\n      swap3\n      pop\n      swap3\n      swap1\n      pop\n      jump\t// out\n        /* \"#utility.yul\":88:205   */\n    tag_20:\n        /* \"#utility.yul\":197:198   */\n      0x00\n        /* \"#utility.yul\":194:195   */\n      dup1\n        /* \"#utility.yul\":187:199   */\n      revert\n        /* \"#utility.yul\":334:411   */\n    tag_22:\n        /* \"#utility.yul\":371:378   */\n      0x00\n        /* \"#utility.yul\":400:405   */\n      dup2\n        /* \"#utility.yul\":389:405   */\n      swap1\n      pop\n        /* \"#utility.yul\":334:411   */\n      swap2\n      swap1\n      pop\n      jump\t// out\n        /* \"#utility.yul\":417:539   */\n    tag_23:\n        /* \"#utility.yul\":490:514   */\n      tag_34\n        /* \"#utility.yul\":508:513   */\n      dup2\n        /* \"#utility.yul\":490:514   */\n      tag_22\n      jump\t// in\n    tag_34:\n        /* \"#utility.yul\":483:488   */\n      dup2\n        /* \"#utility.yul\":480:515   */\n      eq\n        /* \"#utility.yul\":470:533   */\n      tag_35\n      jumpi\n        /* \"#utility.yul\":529:530   */\n      0x00\n        /* \"#utility.yul\":526:527   */\n      dup1\n        /* \"#utility.yul\":519:531   */\n      revert\n        /* \"#utility.yul\":470:533   */\n    tag_35:\n        /* \"#utility.yul\":417:539   */\n      pop\n      jump\t// out\n        /* \"#utility.yul\":545:684   */\n    tag_24:\n        /* \"#utility.yul\":591:596   */\n      0x00\n        /* \"#utility.yul\":629:635   */\n      dup2\n        /* \"#utility.yul\":616:636   */\n      calldataload\n        /* \"#utility.yul\":607:636   */\n      swap1\n      pop\n        /* \"#utility.yul\":645:678   */\n      tag_37\n        /* \"#utility.yul\":672:677   */\n      dup2\n        /* \"#utility.yul\":645:678   */\n      tag_23\n      jump\t// in\n    tag_37:\n        /* \"#utility.yul\":545:684   */\n      swap3\n      swap2\n      pop\n      pop\n      jump\t// out\n        /* \"#utility.yul\":690:1164   */\n    tag_7:\n        /* \"#utility.yul\":758:764   */\n      0x00\n        /* \"#utility.yul\":766:772   */\n      dup1\n        /* \"#utility.yul\":815:817   */\n      0x40\n        /* \"#utility.yul\":803:812   */\n      dup4\n        /* \"#utility.yul\":794:801   */\n      dup6\n        /* \"#utility.yul\":790:813   */\n      sub\n        /* \"#utility.yul\":786:818   */\n      slt\n        /* \"#utility.yul\":783:902   */\n      iszero\n      tag_39\n      jumpi\n        /* \"#utility.yul\":821:900   */\n      tag_40\n      tag_20\n      jump\t// in\n    tag_40:\n        /* \"#utility.yul\":783:902   */\n    tag_39:\n        /* \"#utility.yul\":941:942   */\n      0x00\n        /* \"#utility.yul\":966:1019   */\n      tag_41\n        /* \"#utility.yul\":1011:1018   */\n      dup6\n        /* \"#utility.yul\":1002:1008   */\n      dup3\n        /* \"#utility.yul\":991:1000   */\n      dup7\n        /* \"#utility.yul\":987:1009   */\n      add\n        /* \"#utility.yul\":966:1019   */\n      tag_24\n      jump\t// in\n    tag_41:\n        /* \"#utility.yul\":956:1019   */\n      swap3\n      pop\n        /* \"#utility.yul\":912:1029   */\n      pop\n        /* \"#utility.yul\":1068:1070   */\n      0x20\n        /* \"#utility.yul\":1094:1147   */\n      tag_42\n        /* \"#utility.yul\":1139:1146   */\n      dup6\n        /* \"#utility.yul\":1130:1136   */\n      dup3\n        /* \"#utility.yul\":1119:1128   */\n      dup7\n        /* \"#utility.yul\":1115:1137   */\n      add\n        /* \"#utility.yul\":1094:1147   */\n      tag_24\n      jump\t// in\n    tag_42:\n        /* \"#utility.yul\":1084:1147   */\n      swap2\n      pop\n        /* \"#utility.yul\":1039:1157   */\n      pop\n        /* \"#utility.yul\":690:1164   */\n      swap3\n      pop\n      swap3\n      swap1\n      pop\n      jump\t// out\n        /* \"#utility.yul\":1170:1288   */\n    tag_25:\n        /* \"#utility.yul\":1257:1281   */\n      tag_44\n        /* \"#utility.yul\":1275:1280   */\n      dup2\n        /* \"#utility.yul\":1257:1281   */\n      tag_22\n      jump\t// in\n    tag_44:\n        /* \"#utility.yul\":1252:1255   */\n      dup3\n        /* \"#utility.yul\":1245:1282   */\n      mstore\n        /* \"#utility.yul\":1170:1288   */\n      pop\n      pop\n      jump\t// out\n        /* \"#utility.yul\":1294:1384   */\n    tag_26:\n        /* \"#utility.yul\":1328:1335   */\n      0x00\n        /* \"#utility.yul\":1371:1376   */\n      dup2\n        /* \"#utility.yul\":1364:1377   */\n      iszero\n        /* \"#utility.yul\":1357:1378   */\n      iszero\n        /* \"#utility.yul\":1346:1378   */\n      swap1\n      pop\n        /* \"#utility.yul\":1294:1384   */\n      swap2\n      swap1\n      pop\n      jump\t// out\n        /* \"#utility.yul\":1390:1499   */\n    tag_27:\n        /* \"#utility.yul\":1471:1492   */\n      tag_47\n        /* \"#utility.yul\":1486:1491   */\n      dup2\n        /* \"#utility.yul\":1471:1492   */\n      tag_26\n      jump\t// in\n    tag_47:\n        /* \"#utility.yul\":1466:1469   */\n      dup3\n        /* \"#utility.yul\":1459:1493   */\n      mstore\n        /* \"#utility.yul\":1390:1499   */\n      pop\n      pop\n      jump\t// out\n        /* \"#utility.yul\":1505:1825   */\n    tag_10:\n        /* \"#utility.yul\":1620:1624   */\n      0x00\n        /* \"#utility.yul\":1658:1660   */\n      0x40\n        /* \"#utility.yul\":1647:1656   */\n      dup3\n        /* \"#utility.yul\":1643:1661   */\n      add\n        /* \"#utility.yul\":1635:1661   */\n      swap1\n      pop\n        /* \"#utility.yul\":1671:1742   */\n      tag_49\n        /* \"#utility.yul\":1739:1740   */\n      0x00\n        /* \"#utility.yul\":1728:1737   */\n      dup4\n        /* \"#utility.yul\":1724:1741   */\n      add\n        /* \"#utility.yul\":1715:1721   */\n      dup6\n        /* \"#utility.yul\":1671:1742   */\n      tag_25\n      jump\t// in\n    tag_49:\n        /* \"#utility.yul\":1752:1818   */\n      tag_50\n        /* \"#utility.yul\":1814:1816   */\n      0x20\n        /* \"#utility.yul\":1803:1812   */\n      dup4\n        /* \"#utility.yul\":1799:1817   */\n      add\n        /* \"#utility.yul\":1790:1796   */\n      dup5\n        /* \"#utility.yul\":1752:1818   */\n      tag_27\n      jump\t// in\n    tag_50:\n        /* \"#utility.yul\":1505:1825   */\n      swap4\n      swap3\n      pop\n      pop\n      pop\n      jump\t// out\n\n    auxdata: 0xa2646970667358221220927a54c43c190505dbe40e2eb60f39c85567c4f20df37b03ee70f73142ae1aa964736f6c634300081a0033\n}\n",
				"bytecode": {
					"linkReferences": {},
					"object": "6080604052348015600e575f80fd5b506101e78061001c5f395ff3fe608060405234801561000f575f80fd5b5060043610610034575f3560e01c806306b034e9146100385780635270312a14610069575b5f80fd5b610052600480360381019061004d9190610123565b61009a565b60405161006092919061018a565b60405180910390f35b610083600480360381019061007e9190610123565b6100c6565b60405161009192919061018a565b60405180910390f35b5f805f8385019050848110156100b7575f600192509250506100bf565b805f92509250505b9250929050565b5f80838311156100dc575f6001915091506100e5565b8284035f915091505b9250929050565b5f80fd5b5f819050919050565b610102816100f0565b811461010c575f80fd5b50565b5f8135905061011d816100f9565b92915050565b5f8060408385031215610139576101386100ec565b5b5f6101468582860161010f565b92505060206101578582860161010f565b9150509250929050565b61016a816100f0565b82525050565b5f8115159050919050565b61018481610170565b82525050565b5f60408201905061019d5f830185610161565b6101aa602083018461017b565b939250505056fea2646970667358221220927a54c43c190505dbe40e2eb60f39c85567c4f20df37b03ee70f73142ae1aa964736f6c634300081a0033",
					"opcodes": "PUSH1 0x80 PUSH1 0x40 MSTORE CALLVALUE DUP1 ISZERO PUSH1 0xE JUMPI PUSH0 DUP1 REVERT JUMPDEST POP PUSH2 0x1E7 DUP1 PUSH2 0x1C PUSH0 CODECOPY PUSH0 RETURN INVALID PUSH1 0x80 PUSH1 0x40 MSTORE CALLVALUE DUP1 ISZERO PUSH2 0xF JUMPI PUSH0 DUP1 REVERT JUMPDEST POP PUSH1 0x4 CALLDATASIZE LT PUSH2 0x34 JUMPI PUSH0 CALLDATALOAD PUSH1 0xE0 SHR DUP1 PUSH4 0x6B034E9 EQ PUSH2 0x38 JUMPI DUP1 PUSH4 0x5270312A EQ PUSH2 0x69 JUMPI JUMPDEST PUSH0 DUP1 REVERT JUMPDEST PUSH2 0x52 PUSH1 0x4 DUP1 CALLDATASIZE SUB DUP2 ADD SWAP1 PUSH2 0x4D SWAP2 SWAP1 PUSH2 0x123 JUMP JUMPDEST PUSH2 0x9A JUMP JUMPDEST PUSH1 0x40 MLOAD PUSH2 0x60 SWAP3 SWAP2 SWAP1 PUSH2 0x18A JUMP JUMPDEST PUSH1 0x40 MLOAD DUP1 SWAP2 SUB SWAP1 RETURN JUMPDEST PUSH2 0x83 PUSH1 0x4 DUP1 CALLDATASIZE SUB DUP2 ADD SWAP1 PUSH2 0x7E SWAP2 SWAP1 PUSH2 0x123 JUMP JUMPDEST PUSH2 0xC6 JUMP JUMPDEST PUSH1 0x40 MLOAD PUSH2 0x91 SWAP3 SWAP2 SWAP1 PUSH2 0x18A JUMP JUMPDEST PUSH1 0x40 MLOAD DUP1 SWAP2 SUB SWAP1 RETURN JUMPDEST PUSH0 DUP1 PUSH0 DUP4 DUP6 ADD SWAP1 POP DUP5 DUP2 LT ISZERO PUSH2 0xB7 JUMPI PUSH0 PUSH1 0x1 SWAP3 POP SWAP3 POP POP PUSH2 0xBF JUMP JUMPDEST DUP1 PUSH0 SWAP3 POP SWAP3 POP POP JUMPDEST SWAP3 POP SWAP3 SWAP1 POP JUMP JUMPDEST PUSH0 DUP1 DUP4 DUP4 GT ISZERO PUSH2 0xDC JUMPI PUSH0 PUSH1 0x1 SWAP2 POP SWAP2 POP PUSH2 0xE5 JUMP JUMPDEST DUP3 DUP5 SUB PUSH0 SWAP2 POP SWAP2 POP JUMPDEST SWAP3 POP SWAP3 SWAP1 POP JUMP JUMPDEST PUSH0 DUP1 REVERT JUMPDEST PUSH0 DUP2 SWAP1 POP SWAP2 SWAP1 POP JUMP JUMPDEST PUSH2 0x102 DUP2 PUSH2 0xF0 JUMP JUMPDEST DUP2 EQ PUSH2 0x10C JUMPI PUSH0 DUP1 REVERT JUMPDEST POP JUMP JUMPDEST PUSH0 DUP2 CALLDATALOAD SWAP1 POP PUSH2 0x11D DUP2 PUSH2 0xF9 JUMP JUMPDEST SWAP3 SWAP2 POP POP JUMP JUMPDEST PUSH0 DUP1 PUSH1 0x40 DUP4 DUP6 SUB SLT ISZERO PUSH2 0x139 JUMPI PUSH2 0x138 PUSH2 0xEC JUMP JUMPDEST JUMPDEST PUSH0 PUSH2 0x146 DUP6 DUP3 DUP7 ADD PUSH2 0x10F JUMP JUMPDEST SWAP3 POP POP PUSH1 0x20 PUSH2 0x157 DUP6 DUP3 DUP7 ADD PUSH2 0x10F JUMP JUMPDEST SWAP2 POP POP SWAP3 POP SWAP3 SWAP1 POP JUMP JUMPDEST PUSH2 0x16A DUP2 PUSH2 0xF0 JUMP JUMPDEST DUP3 MSTORE POP POP JUMP JUMPDEST PUSH0 DUP2 ISZERO ISZERO SWAP1 POP SWAP2 SWAP1 POP JUMP JUMPDEST PUSH2 0x184 DUP2 PUSH2 0x170 JUMP JUMPDEST DUP3 MSTORE POP POP JUMP JUMPDEST PUSH0 PUSH1 0x40 DUP3 ADD SWAP1 POP PUSH2 0x19D PUSH0 DUP4 ADD DUP6 PUSH2 0x161 JUMP JUMPDEST PUSH2 0x1AA PUSH1 0x20 DUP4 ADD DUP5 PUSH2 0x17B JUMP JUMPDEST SWAP4 SWAP3 POP POP POP JUMP INVALID LOG2 PUSH5 0x6970667358 0x22 SLT KECCAK256 SWAP3 PUSH27 0x54C43C190505DBE40E2EB60F39C85567C4F20DF37B03EE70F73142 0xAE BYTE 0xA9 PUSH5 0x736F6C6343 STOP ADDMOD BYTE STOP CALLER "
				},
				"gasEstimates": {
					"creation": {
						"codeDepositCost": "97400",
						"executionCost": "145",
						"totalCost": "97545"
					},
					"external": {
						"adder(uint256,uint256)": "infinite",
						"subtractor(uint256,uint256)": "infinite"
					}
				},
				"methodIdentifiers": {
					"adder(uint256,uint256)": "06b034e9",
					"subtractor(uint256,uint256)": "5270312a"
				}
			},
			"storageLayout": {
				"storage": [],
				"types": null
			},
			"userdoc": {
				"kind": "user",
				"methods": {},
				"version": 1
			}
		}
	}
}