{
	"contracts/BaseLearn/Employee.sol": {
		"Manager": {
			"abi": [
				{
					"inputs": [
						{
							"internalType": "string",
							"name": "_idNumber",
							"type": "string"
						}
					],
					"name": "addReport",
					"outputs": [],
					"stateMutability": "nonpayable",
					"type": "function"
				},
				{
					"inputs": [
						{
							"internalType": "uint256",
							"name": "",
							"type": "uint256"
						}
					],
					"name": "employeeIds",
					"outputs": [
						{
							"internalType": "string",
							"name": "",
							"type": "string"
						}
					],
					"stateMutability": "view",
					"type": "function"
				},
				{
					"inputs": [],
					"name": "resetReports",
					"outputs": [],
					"stateMutability": "nonpayable",
					"type": "function"
				}
			],
			"devdoc": {
				"kind": "dev",
				"methods": {},
				"version": 1
			},
			"evm": {
				"assembly": "    /* \"contracts/BaseLearn/Employee.sol\":1483:1909  contract Manager {... */\n  mstore(0x40, 0x80)\n  callvalue\n  dup1\n  iszero\n  tag_1\n  jumpi\n  0x00\n  dup1\n  revert\ntag_1:\n  pop\n  dataSize(sub_0)\n  dup1\n  dataOffset(sub_0)\n  0x00\n  codecopy\n  0x00\n  return\nstop\n\nsub_0: assembly {\n        /* \"contracts/BaseLearn/Employee.sol\":1483:1909  contract Manager {... */\n      mstore(0x40, 0x80)\n      callvalue\n      dup1\n      iszero\n      tag_1\n      jumpi\n      0x00\n      dup1\n      revert\n    tag_1:\n      pop\n      jumpi(tag_2, lt(calldatasize, 0x04))\n      shr(0xe0, calldataload(0x00))\n      dup1\n      0x57ca4fe6\n      eq\n      tag_3\n      jumpi\n      dup1\n      0x7e397536\n      eq\n      tag_4\n      jumpi\n      dup1\n      0xa596d3c8\n      eq\n      tag_5\n      jumpi\n    tag_2:\n      0x00\n      dup1\n      revert\n        /* \"contracts/BaseLearn/Employee.sol\":1614:1709  function addReport(string memory _idNumber) public {... */\n    tag_3:\n      tag_6\n      0x04\n      dup1\n      calldatasize\n      sub\n      dup2\n      add\n      swap1\n      tag_7\n      swap2\n      swap1\n      tag_8\n      jump\t// in\n    tag_7:\n      tag_9\n      jump\t// in\n    tag_6:\n      stop\n        /* \"contracts/BaseLearn/Employee.sol\":1532:1559  string[] public employeeIds */\n    tag_4:\n      tag_10\n      0x04\n      dup1\n      calldatasize\n      sub\n      dup2\n      add\n      swap1\n      tag_11\n      swap2\n      swap1\n      tag_12\n      jump\t// in\n    tag_11:\n      tag_13\n      jump\t// in\n    tag_10:\n      mload(0x40)\n      tag_14\n      swap2\n      swap1\n      tag_15\n      jump\t// in\n    tag_14:\n      mload(0x40)\n      dup1\n      swap2\n      sub\n      swap1\n      return\n        /* \"contracts/BaseLearn/Employee.sol\":1765:1907  function resetReports() public {... */\n    tag_5:\n      tag_16\n      tag_17\n      jump\t// in\n    tag_16:\n      stop\n        /* \"contracts/BaseLearn/Employee.sol\":1614:1709  function addReport(string memory _idNumber) public {... */\n    tag_9:\n        /* \"contracts/BaseLearn/Employee.sol\":1675:1686  employeeIds */\n      0x00\n        /* \"contracts/BaseLearn/Employee.sol\":1692:1701  _idNumber */\n      dup2\n        /* \"contracts/BaseLearn/Employee.sol\":1675:1702  employeeIds.push(_idNumber) */\n      swap1\n      dup1\n      0x01\n      dup2\n      sload\n      add\n      dup1\n      dup3\n      sstore\n      dup1\n      swap2\n      pop\n      pop\n      0x01\n      swap1\n      sub\n      swap1\n      0x00\n      mstore\n      keccak256(0x00, 0x20)\n      add\n      0x00\n      swap1\n      swap2\n      swap1\n      swap2\n      swap1\n      swap2\n      pop\n      swap1\n      dup2\n      tag_20\n      swap2\n      swap1\n      tag_21\n      jump\t// in\n    tag_20:\n      pop\n        /* \"contracts/BaseLearn/Employee.sol\":1614:1709  function addReport(string memory _idNumber) public {... */\n      pop\n      jump\t// out\n        /* \"contracts/BaseLearn/Employee.sol\":1532:1559  string[] public employeeIds */\n    tag_13:\n      0x00\n      dup2\n      dup2\n      sload\n      dup2\n      lt\n      tag_22\n      jumpi\n      0x00\n      dup1\n      revert\n    tag_22:\n      swap1\n      0x00\n      mstore\n      keccak256(0x00, 0x20)\n      add\n      0x00\n      swap2\n      pop\n      swap1\n      pop\n      dup1\n      sload\n      tag_24\n      swap1\n      tag_25\n      jump\t// in\n    tag_24:\n      dup1\n      0x1f\n      add\n      0x20\n      dup1\n      swap2\n      div\n      mul\n      0x20\n      add\n      mload(0x40)\n      swap1\n      dup2\n      add\n      0x40\n      mstore\n      dup1\n      swap3\n      swap2\n      swap1\n      dup2\n      dup2\n      mstore\n      0x20\n      add\n      dup3\n      dup1\n      sload\n      tag_26\n      swap1\n      tag_25\n      jump\t// in\n    tag_26:\n      dup1\n      iszero\n      tag_27\n      jumpi\n      dup1\n      0x1f\n      lt\n      tag_28\n      jumpi\n      0x0100\n      dup1\n      dup4\n      sload\n      div\n      mul\n      dup4\n      mstore\n      swap2\n      0x20\n      add\n      swap2\n      jump(tag_27)\n    tag_28:\n      dup3\n      add\n      swap2\n      swap1\n      0x00\n      mstore\n      keccak256(0x00, 0x20)\n      swap1\n    tag_29:\n      dup2\n      sload\n      dup2\n      mstore\n      swap1\n      0x01\n      add\n      swap1\n      0x20\n      add\n      dup1\n      dup4\n      gt\n      tag_29\n      jumpi\n      dup3\n      swap1\n      sub\n      0x1f\n      and\n      dup3\n      add\n      swap2\n    tag_27:\n      pop\n      pop\n      pop\n      pop\n      pop\n      dup2\n      jump\t// out\n        /* \"contracts/BaseLearn/Employee.sol\":1765:1907  function resetReports() public {... */\n    tag_17:\n        /* \"contracts/BaseLearn/Employee.sol\":1811:1820  uint256 x */\n      0x00\n        /* \"contracts/BaseLearn/Employee.sol\":1806:1901  for (uint256 x = 0; x < employeeIds.length; x++) {... */\n    tag_31:\n        /* \"contracts/BaseLearn/Employee.sol\":1830:1841  employeeIds */\n      0x00\n        /* \"contracts/BaseLearn/Employee.sol\":1830:1848  employeeIds.length */\n      dup1\n      sload\n      swap1\n      pop\n        /* \"contracts/BaseLearn/Employee.sol\":1826:1827  x */\n      dup2\n        /* \"contracts/BaseLearn/Employee.sol\":1826:1848  x < employeeIds.length */\n      lt\n        /* \"contracts/BaseLearn/Employee.sol\":1806:1901  for (uint256 x = 0; x < employeeIds.length; x++) {... */\n      iszero\n      tag_32\n      jumpi\n        /* \"contracts/BaseLearn/Employee.sol\":1876:1887  employeeIds */\n      0x00\n        /* \"contracts/BaseLearn/Employee.sol\":1888:1889  x */\n      dup2\n        /* \"contracts/BaseLearn/Employee.sol\":1876:1890  employeeIds[x] */\n      dup2\n      sload\n      dup2\n      lt\n      tag_34\n      jumpi\n      tag_35\n      tag_36\n      jump\t// in\n    tag_35:\n    tag_34:\n      swap1\n      0x00\n      mstore\n      keccak256(0x00, 0x20)\n      add\n      0x00\n        /* \"contracts/BaseLearn/Employee.sol\":1869:1890  delete employeeIds[x] */\n      tag_38\n      swap2\n      swap1\n      tag_39\n      jump\t// in\n    tag_38:\n        /* \"contracts/BaseLearn/Employee.sol\":1850:1853  x++ */\n      dup1\n      dup1\n      0x01\n      add\n      swap2\n      pop\n      pop\n        /* \"contracts/BaseLearn/Employee.sol\":1806:1901  for (uint256 x = 0; x < employeeIds.length; x++) {... */\n      jump(tag_31)\n    tag_32:\n      pop\n        /* \"contracts/BaseLearn/Employee.sol\":1765:1907  function resetReports() public {... */\n      jump\t// out\n    tag_39:\n      pop\n      dup1\n      sload\n      tag_40\n      swap1\n      tag_25\n      jump\t// in\n    tag_40:\n      0x00\n      dup3\n      sstore\n      dup1\n      0x1f\n      lt\n      tag_42\n      jumpi\n      pop\n      jump(tag_41)\n    tag_42:\n      0x1f\n      add\n      0x20\n      swap1\n      div\n      swap1\n      0x00\n      mstore\n      keccak256(0x00, 0x20)\n      swap1\n      dup2\n      add\n      swap1\n      tag_43\n      swap2\n      swap1\n      tag_44\n      jump\t// in\n    tag_43:\n    tag_41:\n      pop\n      jump\t// out\n    tag_44:\n    tag_45:\n      dup1\n      dup3\n      gt\n      iszero\n      tag_46\n      jumpi\n      0x00\n      dup2\n      0x00\n      swap1\n      sstore\n      pop\n      0x01\n      add\n      jump(tag_45)\n    tag_46:\n      pop\n      swap1\n      jump\t// out\n        /* \"#utility.yul\":7:82   */\n    tag_47:\n        /* \"#utility.yul\":40:46   */\n      0x00\n        /* \"#utility.yul\":73:75   */\n      0x40\n        /* \"#utility.yul\":67:76   */\n      mload\n        /* \"#utility.yul\":57:76   */\n      swap1\n      pop\n        /* \"#utility.yul\":7:82   */\n      swap1\n      jump\t// out\n        /* \"#utility.yul\":88:205   */\n    tag_48:\n        /* \"#utility.yul\":197:198   */\n      0x00\n        /* \"#utility.yul\":194:195   */\n      dup1\n        /* \"#utility.yul\":187:199   */\n      revert\n        /* \"#utility.yul\":211:328   */\n    tag_49:\n        /* \"#utility.yul\":320:321   */\n      0x00\n        /* \"#utility.yul\":317:318   */\n      dup1\n        /* \"#utility.yul\":310:322   */\n      revert\n        /* \"#utility.yul\":334:451   */\n    tag_50:\n        /* \"#utility.yul\":443:444   */\n      0x00\n        /* \"#utility.yul\":440:441   */\n      dup1\n        /* \"#utility.yul\":433:445   */\n      revert\n        /* \"#utility.yul\":457:574   */\n    tag_51:\n        /* \"#utility.yul\":566:567   */\n      0x00\n        /* \"#utility.yul\":563:564   */\n      dup1\n        /* \"#utility.yul\":556:568   */\n      revert\n        /* \"#utility.yul\":580:682   */\n    tag_52:\n        /* \"#utility.yul\":621:627   */\n      0x00\n        /* \"#utility.yul\":672:674   */\n      0x1f\n        /* \"#utility.yul\":668:675   */\n      not\n        /* \"#utility.yul\":663:665   */\n      0x1f\n        /* \"#utility.yul\":656:661   */\n      dup4\n        /* \"#utility.yul\":652:666   */\n      add\n        /* \"#utility.yul\":648:676   */\n      and\n        /* \"#utility.yul\":638:676   */\n      swap1\n      pop\n        /* \"#utility.yul\":580:682   */\n      swap2\n      swap1\n      pop\n      jump\t// out\n        /* \"#utility.yul\":688:868   */\n    tag_53:\n        /* \"#utility.yul\":736:813   */\n      0x4e487b7100000000000000000000000000000000000000000000000000000000\n        /* \"#utility.yul\":733:734   */\n      0x00\n        /* \"#utility.yul\":726:814   */\n      mstore\n        /* \"#utility.yul\":833:837   */\n      0x41\n        /* \"#utility.yul\":830:831   */\n      0x04\n        /* \"#utility.yul\":823:838   */\n      mstore\n        /* \"#utility.yul\":857:861   */\n      0x24\n        /* \"#utility.yul\":854:855   */\n      0x00\n        /* \"#utility.yul\":847:862   */\n      revert\n        /* \"#utility.yul\":874:1155   */\n    tag_54:\n        /* \"#utility.yul\":957:984   */\n      tag_92\n        /* \"#utility.yul\":979:983   */\n      dup3\n        /* \"#utility.yul\":957:984   */\n      tag_52\n      jump\t// in\n    tag_92:\n        /* \"#utility.yul\":949:955   */\n      dup2\n        /* \"#utility.yul\":945:985   */\n      add\n        /* \"#utility.yul\":1087:1093   */\n      dup2\n        /* \"#utility.yul\":1075:1085   */\n      dup2\n        /* \"#utility.yul\":1072:1094   */\n      lt\n        /* \"#utility.yul\":1051:1069   */\n      0xffffffffffffffff\n        /* \"#utility.yul\":1039:1049   */\n      dup3\n        /* \"#utility.yul\":1036:1070   */\n      gt\n        /* \"#utility.yul\":1033:1095   */\n      or\n        /* \"#utility.yul\":1030:1118   */\n      iszero\n      tag_93\n      jumpi\n        /* \"#utility.yul\":1098:1116   */\n      tag_94\n      tag_53\n      jump\t// in\n    tag_94:\n        /* \"#utility.yul\":1030:1118   */\n    tag_93:\n        /* \"#utility.yul\":1138:1148   */\n      dup1\n        /* \"#utility.yul\":1134:1136   */\n      0x40\n        /* \"#utility.yul\":1127:1149   */\n      mstore\n        /* \"#utility.yul\":917:1155   */\n      pop\n        /* \"#utility.yul\":874:1155   */\n      pop\n      pop\n      jump\t// out\n        /* \"#utility.yul\":1161:1290   */\n    tag_55:\n        /* \"#utility.yul\":1195:1201   */\n      0x00\n        /* \"#utility.yul\":1222:1242   */\n      tag_96\n      tag_47\n      jump\t// in\n    tag_96:\n        /* \"#utility.yul\":1212:1242   */\n      swap1\n      pop\n        /* \"#utility.yul\":1251:1284   */\n      tag_97\n        /* \"#utility.yul\":1279:1283   */\n      dup3\n        /* \"#utility.yul\":1271:1277   */\n      dup3\n        /* \"#utility.yul\":1251:1284   */\n      tag_54\n      jump\t// in\n    tag_97:\n        /* \"#utility.yul\":1161:1290   */\n      swap2\n      swap1\n      pop\n      jump\t// out\n        /* \"#utility.yul\":1296:1604   */\n    tag_56:\n        /* \"#utility.yul\":1358:1362   */\n      0x00\n        /* \"#utility.yul\":1448:1466   */\n      0xffffffffffffffff\n        /* \"#utility.yul\":1440:1446   */\n      dup3\n        /* \"#utility.yul\":1437:1467   */\n      gt\n        /* \"#utility.yul\":1434:1490   */\n      iszero\n      tag_99\n      jumpi\n        /* \"#utility.yul\":1470:1488   */\n      tag_100\n      tag_53\n      jump\t// in\n    tag_100:\n        /* \"#utility.yul\":1434:1490   */\n    tag_99:\n        /* \"#utility.yul\":1508:1537   */\n      tag_101\n        /* \"#utility.yul\":1530:1536   */\n      dup3\n        /* \"#utility.yul\":1508:1537   */\n      tag_52\n      jump\t// in\n    tag_101:\n        /* \"#utility.yul\":1500:1537   */\n      swap1\n      pop\n        /* \"#utility.yul\":1592:1596   */\n      0x20\n        /* \"#utility.yul\":1586:1590   */\n      dup2\n        /* \"#utility.yul\":1582:1597   */\n      add\n        /* \"#utility.yul\":1574:1597   */\n      swap1\n      pop\n        /* \"#utility.yul\":1296:1604   */\n      swap2\n      swap1\n      pop\n      jump\t// out\n        /* \"#utility.yul\":1610:1758   */\n    tag_57:\n        /* \"#utility.yul\":1708:1714   */\n      dup3\n        /* \"#utility.yul\":1703:1706   */\n      dup2\n        /* \"#utility.yul\":1698:1701   */\n      dup4\n        /* \"#utility.yul\":1685:1715   */\n      calldatacopy\n        /* \"#utility.yul\":1749:1750   */\n      0x00\n        /* \"#utility.yul\":1740:1746   */\n      dup4\n        /* \"#utility.yul\":1735:1738   */\n      dup4\n        /* \"#utility.yul\":1731:1747   */\n      add\n        /* \"#utility.yul\":1724:1751   */\n      mstore\n        /* \"#utility.yul\":1610:1758   */\n      pop\n      pop\n      pop\n      jump\t// out\n        /* \"#utility.yul\":1764:2189   */\n    tag_58:\n        /* \"#utility.yul\":1842:1847   */\n      0x00\n        /* \"#utility.yul\":1867:1933   */\n      tag_104\n        /* \"#utility.yul\":1883:1932   */\n      tag_105\n        /* \"#utility.yul\":1925:1931   */\n      dup5\n        /* \"#utility.yul\":1883:1932   */\n      tag_56\n      jump\t// in\n    tag_105:\n        /* \"#utility.yul\":1867:1933   */\n      tag_55\n      jump\t// in\n    tag_104:\n        /* \"#utility.yul\":1858:1933   */\n      swap1\n      pop\n        /* \"#utility.yul\":1956:1962   */\n      dup3\n        /* \"#utility.yul\":1949:1954   */\n      dup2\n        /* \"#utility.yul\":1942:1963   */\n      mstore\n        /* \"#utility.yul\":1994:1998   */\n      0x20\n        /* \"#utility.yul\":1987:1992   */\n      dup2\n        /* \"#utility.yul\":1983:1999   */\n      add\n        /* \"#utility.yul\":2032:2035   */\n      dup5\n        /* \"#utility.yul\":2023:2029   */\n      dup5\n        /* \"#utility.yul\":2018:2021   */\n      dup5\n        /* \"#utility.yul\":2014:2030   */\n      add\n        /* \"#utility.yul\":2011:2036   */\n      gt\n        /* \"#utility.yul\":2008:2120   */\n      iszero\n      tag_106\n      jumpi\n        /* \"#utility.yul\":2039:2118   */\n      tag_107\n      tag_51\n      jump\t// in\n    tag_107:\n        /* \"#utility.yul\":2008:2120   */\n    tag_106:\n        /* \"#utility.yul\":2129:2183   */\n      tag_108\n        /* \"#utility.yul\":2176:2182   */\n      dup5\n        /* \"#utility.yul\":2171:2174   */\n      dup3\n        /* \"#utility.yul\":2166:2169   */\n      dup6\n        /* \"#utility.yul\":2129:2183   */\n      tag_57\n      jump\t// in\n    tag_108:\n        /* \"#utility.yul\":1848:2189   */\n      pop\n        /* \"#utility.yul\":1764:2189   */\n      swap4\n      swap3\n      pop\n      pop\n      pop\n      jump\t// out\n        /* \"#utility.yul\":2209:2549   */\n    tag_59:\n        /* \"#utility.yul\":2265:2270   */\n      0x00\n        /* \"#utility.yul\":2314:2317   */\n      dup3\n        /* \"#utility.yul\":2307:2311   */\n      0x1f\n        /* \"#utility.yul\":2299:2305   */\n      dup4\n        /* \"#utility.yul\":2295:2312   */\n      add\n        /* \"#utility.yul\":2291:2318   */\n      slt\n        /* \"#utility.yul\":2281:2403   */\n      tag_110\n      jumpi\n        /* \"#utility.yul\":2322:2401   */\n      tag_111\n      tag_50\n      jump\t// in\n    tag_111:\n        /* \"#utility.yul\":2281:2403   */\n    tag_110:\n        /* \"#utility.yul\":2439:2445   */\n      dup2\n        /* \"#utility.yul\":2426:2446   */\n      calldataload\n        /* \"#utility.yul\":2464:2543   */\n      tag_112\n        /* \"#utility.yul\":2539:2542   */\n      dup5\n        /* \"#utility.yul\":2531:2537   */\n      dup3\n        /* \"#utility.yul\":2524:2528   */\n      0x20\n        /* \"#utility.yul\":2516:2522   */\n      dup7\n        /* \"#utility.yul\":2512:2529   */\n      add\n        /* \"#utility.yul\":2464:2543   */\n      tag_58\n      jump\t// in\n    tag_112:\n        /* \"#utility.yul\":2455:2543   */\n      swap2\n      pop\n        /* \"#utility.yul\":2271:2549   */\n      pop\n        /* \"#utility.yul\":2209:2549   */\n      swap3\n      swap2\n      pop\n      pop\n      jump\t// out\n        /* \"#utility.yul\":2555:3064   */\n    tag_8:\n        /* \"#utility.yul\":2624:2630   */\n      0x00\n        /* \"#utility.yul\":2673:2675   */\n      0x20\n        /* \"#utility.yul\":2661:2670   */\n      dup3\n        /* \"#utility.yul\":2652:2659   */\n      dup5\n        /* \"#utility.yul\":2648:2671   */\n      sub\n        /* \"#utility.yul\":2644:2676   */\n      slt\n        /* \"#utility.yul\":2641:2760   */\n      iszero\n      tag_114\n      jumpi\n        /* \"#utility.yul\":2679:2758   */\n      tag_115\n      tag_48\n      jump\t// in\n    tag_115:\n        /* \"#utility.yul\":2641:2760   */\n    tag_114:\n        /* \"#utility.yul\":2827:2828   */\n      0x00\n        /* \"#utility.yul\":2816:2825   */\n      dup3\n        /* \"#utility.yul\":2812:2829   */\n      add\n        /* \"#utility.yul\":2799:2830   */\n      calldataload\n        /* \"#utility.yul\":2857:2875   */\n      0xffffffffffffffff\n        /* \"#utility.yul\":2849:2855   */\n      dup2\n        /* \"#utility.yul\":2846:2876   */\n      gt\n        /* \"#utility.yul\":2843:2960   */\n      iszero\n      tag_116\n      jumpi\n        /* \"#utility.yul\":2879:2958   */\n      tag_117\n      tag_49\n      jump\t// in\n    tag_117:\n        /* \"#utility.yul\":2843:2960   */\n    tag_116:\n        /* \"#utility.yul\":2984:3047   */\n      tag_118\n        /* \"#utility.yul\":3039:3046   */\n      dup5\n        /* \"#utility.yul\":3030:3036   */\n      dup3\n        /* \"#utility.yul\":3019:3028   */\n      dup6\n        /* \"#utility.yul\":3015:3037   */\n      add\n        /* \"#utility.yul\":2984:3047   */\n      tag_59\n      jump\t// in\n    tag_118:\n        /* \"#utility.yul\":2974:3047   */\n      swap2\n      pop\n        /* \"#utility.yul\":2770:3057   */\n      pop\n        /* \"#utility.yul\":2555:3064   */\n      swap3\n      swap2\n      pop\n      pop\n      jump\t// out\n        /* \"#utility.yul\":3070:3147   */\n    tag_60:\n        /* \"#utility.yul\":3107:3114   */\n      0x00\n        /* \"#utility.yul\":3136:3141   */\n      dup2\n        /* \"#utility.yul\":3125:3141   */\n      swap1\n      pop\n        /* \"#utility.yul\":3070:3147   */\n      swap2\n      swap1\n      pop\n      jump\t// out\n        /* \"#utility.yul\":3153:3275   */\n    tag_61:\n        /* \"#utility.yul\":3226:3250   */\n      tag_121\n        /* \"#utility.yul\":3244:3249   */\n      dup2\n        /* \"#utility.yul\":3226:3250   */\n      tag_60\n      jump\t// in\n    tag_121:\n        /* \"#utility.yul\":3219:3224   */\n      dup2\n        /* \"#utility.yul\":3216:3251   */\n      eq\n        /* \"#utility.yul\":3206:3269   */\n      tag_122\n      jumpi\n        /* \"#utility.yul\":3265:3266   */\n      0x00\n        /* \"#utility.yul\":3262:3263   */\n      dup1\n        /* \"#utility.yul\":3255:3267   */\n      revert\n        /* \"#utility.yul\":3206:3269   */\n    tag_122:\n        /* \"#utility.yul\":3153:3275   */\n      pop\n      jump\t// out\n        /* \"#utility.yul\":3281:3420   */\n    tag_62:\n        /* \"#utility.yul\":3327:3332   */\n      0x00\n        /* \"#utility.yul\":3365:3371   */\n      dup2\n        /* \"#utility.yul\":3352:3372   */\n      calldataload\n        /* \"#utility.yul\":3343:3372   */\n      swap1\n      pop\n        /* \"#utility.yul\":3381:3414   */\n      tag_124\n        /* \"#utility.yul\":3408:3413   */\n      dup2\n        /* \"#utility.yul\":3381:3414   */\n      tag_61\n      jump\t// in\n    tag_124:\n        /* \"#utility.yul\":3281:3420   */\n      swap3\n      swap2\n      pop\n      pop\n      jump\t// out\n        /* \"#utility.yul\":3426:3755   */\n    tag_12:\n        /* \"#utility.yul\":3485:3491   */\n      0x00\n        /* \"#utility.yul\":3534:3536   */\n      0x20\n        /* \"#utility.yul\":3522:3531   */\n      dup3\n        /* \"#utility.yul\":3513:3520   */\n      dup5\n        /* \"#utility.yul\":3509:3532   */\n      sub\n        /* \"#utility.yul\":3505:3537   */\n      slt\n        /* \"#utility.yul\":3502:3621   */\n      iszero\n      tag_126\n      jumpi\n        /* \"#utility.yul\":3540:3619   */\n      tag_127\n      tag_48\n      jump\t// in\n    tag_127:\n        /* \"#utility.yul\":3502:3621   */\n    tag_126:\n        /* \"#utility.yul\":3660:3661   */\n      0x00\n        /* \"#utility.yul\":3685:3738   */\n      tag_128\n        /* \"#utility.yul\":3730:3737   */\n      dup5\n        /* \"#utility.yul\":3721:3727   */\n      dup3\n        /* \"#utility.yul\":3710:3719   */\n      dup6\n        /* \"#utility.yul\":3706:3728   */\n      add\n        /* \"#utility.yul\":3685:3738   */\n      tag_62\n      jump\t// in\n    tag_128:\n        /* \"#utility.yul\":3675:3738   */\n      swap2\n      pop\n        /* \"#utility.yul\":3631:3748   */\n      pop\n        /* \"#utility.yul\":3426:3755   */\n      swap3\n      swap2\n      pop\n      pop\n      jump\t// out\n        /* \"#utility.yul\":3761:3860   */\n    tag_63:\n        /* \"#utility.yul\":3813:3819   */\n      0x00\n        /* \"#utility.yul\":3847:3852   */\n      dup2\n        /* \"#utility.yul\":3841:3853   */\n      mload\n        /* \"#utility.yul\":3831:3853   */\n      swap1\n      pop\n        /* \"#utility.yul\":3761:3860   */\n      swap2\n      swap1\n      pop\n      jump\t// out\n        /* \"#utility.yul\":3866:4035   */\n    tag_64:\n        /* \"#utility.yul\":3950:3961   */\n      0x00\n        /* \"#utility.yul\":3984:3990   */\n      dup3\n        /* \"#utility.yul\":3979:3982   */\n      dup3\n        /* \"#utility.yul\":3972:3991   */\n      mstore\n        /* \"#utility.yul\":4024:4028   */\n      0x20\n        /* \"#utility.yul\":4019:4022   */\n      dup3\n        /* \"#utility.yul\":4015:4029   */\n      add\n        /* \"#utility.yul\":4000:4029   */\n      swap1\n      pop\n        /* \"#utility.yul\":3866:4035   */\n      swap3\n      swap2\n      pop\n      pop\n      jump\t// out\n        /* \"#utility.yul\":4041:4180   */\n    tag_65:\n        /* \"#utility.yul\":4130:4136   */\n      dup3\n        /* \"#utility.yul\":4125:4128   */\n      dup2\n        /* \"#utility.yul\":4120:4123   */\n      dup4\n        /* \"#utility.yul\":4114:4137   */\n      mcopy\n        /* \"#utility.yul\":4171:4172   */\n      0x00\n        /* \"#utility.yul\":4162:4168   */\n      dup4\n        /* \"#utility.yul\":4157:4160   */\n      dup4\n        /* \"#utility.yul\":4153:4169   */\n      add\n        /* \"#utility.yul\":4146:4173   */\n      mstore\n        /* \"#utility.yul\":4041:4180   */\n      pop\n      pop\n      pop\n      jump\t// out\n        /* \"#utility.yul\":4186:4563   */\n    tag_66:\n        /* \"#utility.yul\":4274:4277   */\n      0x00\n        /* \"#utility.yul\":4302:4341   */\n      tag_133\n        /* \"#utility.yul\":4335:4340   */\n      dup3\n        /* \"#utility.yul\":4302:4341   */\n      tag_63\n      jump\t// in\n    tag_133:\n        /* \"#utility.yul\":4357:4428   */\n      tag_134\n        /* \"#utility.yul\":4421:4427   */\n      dup2\n        /* \"#utility.yul\":4416:4419   */\n      dup6\n        /* \"#utility.yul\":4357:4428   */\n      tag_64\n      jump\t// in\n    tag_134:\n        /* \"#utility.yul\":4350:4428   */\n      swap4\n      pop\n        /* \"#utility.yul\":4437:4502   */\n      tag_135\n        /* \"#utility.yul\":4495:4501   */\n      dup2\n        /* \"#utility.yul\":4490:4493   */\n      dup6\n        /* \"#utility.yul\":4483:4487   */\n      0x20\n        /* \"#utility.yul\":4476:4481   */\n      dup7\n        /* \"#utility.yul\":4472:4488   */\n      add\n        /* \"#utility.yul\":4437:4502   */\n      tag_65\n      jump\t// in\n    tag_135:\n        /* \"#utility.yul\":4527:4556   */\n      tag_136\n        /* \"#utility.yul\":4549:4555   */\n      dup2\n        /* \"#utility.yul\":4527:4556   */\n      tag_52\n      jump\t// in\n    tag_136:\n        /* \"#utility.yul\":4522:4525   */\n      dup5\n        /* \"#utility.yul\":4518:4557   */\n      add\n        /* \"#utility.yul\":4511:4557   */\n      swap2\n      pop\n        /* \"#utility.yul\":4278:4563   */\n      pop\n        /* \"#utility.yul\":4186:4563   */\n      swap3\n      swap2\n      pop\n      pop\n      jump\t// out\n        /* \"#utility.yul\":4569:4882   */\n    tag_15:\n        /* \"#utility.yul\":4682:4686   */\n      0x00\n        /* \"#utility.yul\":4720:4722   */\n      0x20\n        /* \"#utility.yul\":4709:4718   */\n      dup3\n        /* \"#utility.yul\":4705:4723   */\n      add\n        /* \"#utility.yul\":4697:4723   */\n      swap1\n      pop\n        /* \"#utility.yul\":4769:4778   */\n      dup2\n        /* \"#utility.yul\":4763:4767   */\n      dup2\n        /* \"#utility.yul\":4759:4779   */\n      sub\n        /* \"#utility.yul\":4755:4756   */\n      0x00\n        /* \"#utility.yul\":4744:4753   */\n      dup4\n        /* \"#utility.yul\":4740:4757   */\n      add\n        /* \"#utility.yul\":4733:4780   */\n      mstore\n        /* \"#utility.yul\":4797:4875   */\n      tag_138\n        /* \"#utility.yul\":4870:4874   */\n      dup2\n        /* \"#utility.yul\":4861:4867   */\n      dup5\n        /* \"#utility.yul\":4797:4875   */\n      tag_66\n      jump\t// in\n    tag_138:\n        /* \"#utility.yul\":4789:4875   */\n      swap1\n      pop\n        /* \"#utility.yul\":4569:4882   */\n      swap3\n      swap2\n      pop\n      pop\n      jump\t// out\n        /* \"#utility.yul\":4888:5068   */\n    tag_67:\n        /* \"#utility.yul\":4936:5013   */\n      0x4e487b7100000000000000000000000000000000000000000000000000000000\n        /* \"#utility.yul\":4933:4934   */\n      0x00\n        /* \"#utility.yul\":4926:5014   */\n      mstore\n        /* \"#utility.yul\":5033:5037   */\n      0x22\n        /* \"#utility.yul\":5030:5031   */\n      0x04\n        /* \"#utility.yul\":5023:5038   */\n      mstore\n        /* \"#utility.yul\":5057:5061   */\n      0x24\n        /* \"#utility.yul\":5054:5055   */\n      0x00\n        /* \"#utility.yul\":5047:5062   */\n      revert\n        /* \"#utility.yul\":5074:5394   */\n    tag_25:\n        /* \"#utility.yul\":5118:5124   */\n      0x00\n        /* \"#utility.yul\":5155:5156   */\n      0x02\n        /* \"#utility.yul\":5149:5153   */\n      dup3\n        /* \"#utility.yul\":5145:5157   */\n      div\n        /* \"#utility.yul\":5135:5157   */\n      swap1\n      pop\n        /* \"#utility.yul\":5202:5203   */\n      0x01\n        /* \"#utility.yul\":5196:5200   */\n      dup3\n        /* \"#utility.yul\":5192:5204   */\n      and\n        /* \"#utility.yul\":5223:5241   */\n      dup1\n        /* \"#utility.yul\":5213:5294   */\n      tag_141\n      jumpi\n        /* \"#utility.yul\":5279:5283   */\n      0x7f\n        /* \"#utility.yul\":5271:5277   */\n      dup3\n        /* \"#utility.yul\":5267:5284   */\n      and\n        /* \"#utility.yul\":5257:5284   */\n      swap2\n      pop\n        /* \"#utility.yul\":5213:5294   */\n    tag_141:\n        /* \"#utility.yul\":5341:5343   */\n      0x20\n        /* \"#utility.yul\":5333:5339   */\n      dup3\n        /* \"#utility.yul\":5330:5344   */\n      lt\n        /* \"#utility.yul\":5310:5328   */\n      dup2\n        /* \"#utility.yul\":5307:5345   */\n      sub\n        /* \"#utility.yul\":5304:5388   */\n      tag_142\n      jumpi\n        /* \"#utility.yul\":5360:5378   */\n      tag_143\n      tag_67\n      jump\t// in\n    tag_143:\n        /* \"#utility.yul\":5304:5388   */\n    tag_142:\n        /* \"#utility.yul\":5125:5394   */\n      pop\n        /* \"#utility.yul\":5074:5394   */\n      swap2\n      swap1\n      pop\n      jump\t// out\n        /* \"#utility.yul\":5400:5541   */\n    tag_68:\n        /* \"#utility.yul\":5449:5453   */\n      0x00\n        /* \"#utility.yul\":5472:5475   */\n      dup2\n        /* \"#utility.yul\":5464:5475   */\n      swap1\n      pop\n        /* \"#utility.yul\":5495:5498   */\n      dup2\n        /* \"#utility.yul\":5492:5493   */\n      0x00\n        /* \"#utility.yul\":5485:5499   */\n      mstore\n        /* \"#utility.yul\":5529:5533   */\n      0x20\n        /* \"#utility.yul\":5526:5527   */\n      0x00\n        /* \"#utility.yul\":5516:5534   */\n      keccak256\n        /* \"#utility.yul\":5508:5534   */\n      swap1\n      pop\n        /* \"#utility.yul\":5400:5541   */\n      swap2\n      swap1\n      pop\n      jump\t// out\n        /* \"#utility.yul\":5547:5640   */\n    tag_69:\n        /* \"#utility.yul\":5584:5590   */\n      0x00\n        /* \"#utility.yul\":5631:5633   */\n      0x20\n        /* \"#utility.yul\":5626:5628   */\n      0x1f\n        /* \"#utility.yul\":5619:5624   */\n      dup4\n        /* \"#utility.yul\":5615:5629   */\n      add\n        /* \"#utility.yul\":5611:5634   */\n      div\n        /* \"#utility.yul\":5601:5634   */\n      swap1\n      pop\n        /* \"#utility.yul\":5547:5640   */\n      swap2\n      swap1\n      pop\n      jump\t// out\n        /* \"#utility.yul\":5646:5753   */\n    tag_70:\n        /* \"#utility.yul\":5690:5698   */\n      0x00\n        /* \"#utility.yul\":5740:5745   */\n      dup3\n        /* \"#utility.yul\":5734:5738   */\n      dup3\n        /* \"#utility.yul\":5730:5746   */\n      shl\n        /* \"#utility.yul\":5709:5746   */\n      swap1\n      pop\n        /* \"#utility.yul\":5646:5753   */\n      swap3\n      swap2\n      pop\n      pop\n      jump\t// out\n        /* \"#utility.yul\":5759:6152   */\n    tag_71:\n        /* \"#utility.yul\":5828:5834   */\n      0x00\n        /* \"#utility.yul\":5878:5879   */\n      0x08\n        /* \"#utility.yul\":5866:5876   */\n      dup4\n        /* \"#utility.yul\":5862:5880   */\n      mul\n        /* \"#utility.yul\":5901:5998   */\n      tag_148\n        /* \"#utility.yul\":5931:5997   */\n      0xffffffffffffffffffffffffffffffffffffffffffffffffffffffffffffffff\n        /* \"#utility.yul\":5920:5929   */\n      dup3\n        /* \"#utility.yul\":5901:5998   */\n      tag_70\n      jump\t// in\n    tag_148:\n        /* \"#utility.yul\":6019:6058   */\n      tag_149\n        /* \"#utility.yul\":6049:6057   */\n      dup7\n        /* \"#utility.yul\":6038:6047   */\n      dup4\n        /* \"#utility.yul\":6019:6058   */\n      tag_70\n      jump\t// in\n    tag_149:\n        /* \"#utility.yul\":6007:6058   */\n      swap6\n      pop\n        /* \"#utility.yul\":6091:6095   */\n      dup1\n        /* \"#utility.yul\":6087:6096   */\n      not\n        /* \"#utility.yul\":6080:6085   */\n      dup5\n        /* \"#utility.yul\":6076:6097   */\n      and\n        /* \"#utility.yul\":6067:6097   */\n      swap4\n      pop\n        /* \"#utility.yul\":6140:6144   */\n      dup1\n        /* \"#utility.yul\":6130:6138   */\n      dup7\n        /* \"#utility.yul\":6126:6145   */\n      and\n        /* \"#utility.yul\":6119:6124   */\n      dup5\n        /* \"#utility.yul\":6116:6146   */\n      or\n        /* \"#utility.yul\":6106:6146   */\n      swap3\n      pop\n        /* \"#utility.yul\":5835:6152   */\n      pop\n      pop\n        /* \"#utility.yul\":5759:6152   */\n      swap4\n      swap3\n      pop\n      pop\n      pop\n      jump\t// out\n        /* \"#utility.yul\":6158:6218   */\n    tag_72:\n        /* \"#utility.yul\":6186:6189   */\n      0x00\n        /* \"#utility.yul\":6207:6212   */\n      dup2\n        /* \"#utility.yul\":6200:6212   */\n      swap1\n      pop\n        /* \"#utility.yul\":6158:6218   */\n      swap2\n      swap1\n      pop\n      jump\t// out\n        /* \"#utility.yul\":6224:6366   */\n    tag_73:\n        /* \"#utility.yul\":6274:6283   */\n      0x00\n        /* \"#utility.yul\":6307:6360   */\n      tag_152\n        /* \"#utility.yul\":6325:6359   */\n      tag_153\n        /* \"#utility.yul\":6334:6358   */\n      tag_154\n        /* \"#utility.yul\":6352:6357   */\n      dup5\n        /* \"#utility.yul\":6334:6358   */\n      tag_60\n      jump\t// in\n    tag_154:\n        /* \"#utility.yul\":6325:6359   */\n      tag_72\n      jump\t// in\n    tag_153:\n        /* \"#utility.yul\":6307:6360   */\n      tag_60\n      jump\t// in\n    tag_152:\n        /* \"#utility.yul\":6294:6360   */\n      swap1\n      pop\n        /* \"#utility.yul\":6224:6366   */\n      swap2\n      swap1\n      pop\n      jump\t// out\n        /* \"#utility.yul\":6372:6447   */\n    tag_74:\n        /* \"#utility.yul\":6415:6418   */\n      0x00\n        /* \"#utility.yul\":6436:6441   */\n      dup2\n        /* \"#utility.yul\":6429:6441   */\n      swap1\n      pop\n        /* \"#utility.yul\":6372:6447   */\n      swap2\n      swap1\n      pop\n      jump\t// out\n        /* \"#utility.yul\":6453:6722   */\n    tag_75:\n        /* \"#utility.yul\":6563:6602   */\n      tag_157\n        /* \"#utility.yul\":6594:6601   */\n      dup4\n        /* \"#utility.yul\":6563:6602   */\n      tag_73\n      jump\t// in\n    tag_157:\n        /* \"#utility.yul\":6624:6715   */\n      tag_158\n        /* \"#utility.yul\":6673:6714   */\n      tag_159\n        /* \"#utility.yul\":6697:6713   */\n      dup3\n        /* \"#utility.yul\":6673:6714   */\n      tag_74\n      jump\t// in\n    tag_159:\n        /* \"#utility.yul\":6665:6671   */\n      dup5\n        /* \"#utility.yul\":6658:6662   */\n      dup5\n        /* \"#utility.yul\":6652:6663   */\n      sload\n        /* \"#utility.yul\":6624:6715   */\n      tag_71\n      jump\t// in\n    tag_158:\n        /* \"#utility.yul\":6618:6622   */\n      dup3\n        /* \"#utility.yul\":6611:6716   */\n      sstore\n        /* \"#utility.yul\":6529:6722   */\n      pop\n        /* \"#utility.yul\":6453:6722   */\n      pop\n      pop\n      pop\n      jump\t// out\n        /* \"#utility.yul\":6728:6801   */\n    tag_76:\n        /* \"#utility.yul\":6773:6776   */\n      0x00\n        /* \"#utility.yul\":6728:6801   */\n      swap1\n      jump\t// out\n        /* \"#utility.yul\":6807:6996   */\n    tag_77:\n        /* \"#utility.yul\":6884:6916   */\n      tag_162\n      tag_76\n      jump\t// in\n    tag_162:\n        /* \"#utility.yul\":6925:6990   */\n      tag_163\n        /* \"#utility.yul\":6983:6989   */\n      dup2\n        /* \"#utility.yul\":6975:6981   */\n      dup5\n        /* \"#utility.yul\":6969:6973   */\n      dup5\n        /* \"#utility.yul\":6925:6990   */\n      tag_75\n      jump\t// in\n    tag_163:\n        /* \"#utility.yul\":6860:6996   */\n      pop\n        /* \"#utility.yul\":6807:6996   */\n      pop\n      pop\n      jump\t// out\n        /* \"#utility.yul\":7002:7188   */\n    tag_78:\n        /* \"#utility.yul\":7062:7182   */\n    tag_165:\n        /* \"#utility.yul\":7079:7082   */\n      dup2\n        /* \"#utility.yul\":7072:7077   */\n      dup2\n        /* \"#utility.yul\":7069:7083   */\n      lt\n        /* \"#utility.yul\":7062:7182   */\n      iszero\n      tag_167\n      jumpi\n        /* \"#utility.yul\":7133:7172   */\n      tag_168\n        /* \"#utility.yul\":7170:7171   */\n      0x00\n        /* \"#utility.yul\":7163:7168   */\n      dup3\n        /* \"#utility.yul\":7133:7172   */\n      tag_77\n      jump\t// in\n    tag_168:\n        /* \"#utility.yul\":7106:7107   */\n      0x01\n        /* \"#utility.yul\":7099:7104   */\n      dup2\n        /* \"#utility.yul\":7095:7108   */\n      add\n        /* \"#utility.yul\":7086:7108   */\n      swap1\n      pop\n        /* \"#utility.yul\":7062:7182   */\n      jump(tag_165)\n    tag_167:\n        /* \"#utility.yul\":7002:7188   */\n      pop\n      pop\n      jump\t// out\n        /* \"#utility.yul\":7194:7737   */\n    tag_79:\n        /* \"#utility.yul\":7295:7297   */\n      0x1f\n        /* \"#utility.yul\":7290:7293   */\n      dup3\n        /* \"#utility.yul\":7287:7298   */\n      gt\n        /* \"#utility.yul\":7284:7730   */\n      iszero\n      tag_170\n      jumpi\n        /* \"#utility.yul\":7329:7367   */\n      tag_171\n        /* \"#utility.yul\":7361:7366   */\n      dup2\n        /* \"#utility.yul\":7329:7367   */\n      tag_68\n      jump\t// in\n    tag_171:\n        /* \"#utility.yul\":7413:7442   */\n      tag_172\n        /* \"#utility.yul\":7431:7441   */\n      dup5\n        /* \"#utility.yul\":7413:7442   */\n      tag_69\n      jump\t// in\n    tag_172:\n        /* \"#utility.yul\":7403:7411   */\n      dup2\n        /* \"#utility.yul\":7399:7443   */\n      add\n        /* \"#utility.yul\":7596:7598   */\n      0x20\n        /* \"#utility.yul\":7584:7594   */\n      dup6\n        /* \"#utility.yul\":7581:7599   */\n      lt\n        /* \"#utility.yul\":7578:7627   */\n      iszero\n      tag_173\n      jumpi\n        /* \"#utility.yul\":7617:7625   */\n      dup2\n        /* \"#utility.yul\":7602:7625   */\n      swap1\n      pop\n        /* \"#utility.yul\":7578:7627   */\n    tag_173:\n        /* \"#utility.yul\":7640:7720   */\n      tag_174\n        /* \"#utility.yul\":7696:7718   */\n      tag_175\n        /* \"#utility.yul\":7714:7717   */\n      dup6\n        /* \"#utility.yul\":7696:7718   */\n      tag_69\n      jump\t// in\n    tag_175:\n        /* \"#utility.yul\":7686:7694   */\n      dup4\n        /* \"#utility.yul\":7682:7719   */\n      add\n        /* \"#utility.yul\":7669:7680   */\n      dup3\n        /* \"#utility.yul\":7640:7720   */\n      tag_78\n      jump\t// in\n    tag_174:\n        /* \"#utility.yul\":7299:7730   */\n      pop\n      pop\n        /* \"#utility.yul\":7284:7730   */\n    tag_170:\n        /* \"#utility.yul\":7194:7737   */\n      pop\n      pop\n      pop\n      jump\t// out\n        /* \"#utility.yul\":7743:7860   */\n    tag_80:\n        /* \"#utility.yul\":7797:7805   */\n      0x00\n        /* \"#utility.yul\":7847:7852   */\n      dup3\n        /* \"#utility.yul\":7841:7845   */\n      dup3\n        /* \"#utility.yul\":7837:7853   */\n      shr\n        /* \"#utility.yul\":7816:7853   */\n      swap1\n      pop\n        /* \"#utility.yul\":7743:7860   */\n      swap3\n      swap2\n      pop\n      pop\n      jump\t// out\n        /* \"#utility.yul\":7866:8035   */\n    tag_81:\n        /* \"#utility.yul\":7910:7916   */\n      0x00\n        /* \"#utility.yul\":7943:7994   */\n      tag_178\n        /* \"#utility.yul\":7991:7992   */\n      0x00\n        /* \"#utility.yul\":7987:7993   */\n      not\n        /* \"#utility.yul\":7979:7984   */\n      dup5\n        /* \"#utility.yul\":7976:7977   */\n      0x08\n        /* \"#utility.yul\":7972:7985   */\n      mul\n        /* \"#utility.yul\":7943:7994   */\n      tag_80\n      jump\t// in\n    tag_178:\n        /* \"#utility.yul\":7939:7995   */\n      not\n        /* \"#utility.yul\":8024:8028   */\n      dup1\n        /* \"#utility.yul\":8018:8022   */\n      dup4\n        /* \"#utility.yul\":8014:8029   */\n      and\n        /* \"#utility.yul\":8004:8029   */\n      swap2\n      pop\n        /* \"#utility.yul\":7917:8035   */\n      pop\n        /* \"#utility.yul\":7866:8035   */\n      swap3\n      swap2\n      pop\n      pop\n      jump\t// out\n        /* \"#utility.yul\":8040:8335   */\n    tag_82:\n        /* \"#utility.yul\":8116:8120   */\n      0x00\n        /* \"#utility.yul\":8262:8291   */\n      tag_180\n        /* \"#utility.yul\":8287:8290   */\n      dup4\n        /* \"#utility.yul\":8281:8285   */\n      dup4\n        /* \"#utility.yul\":8262:8291   */\n      tag_81\n      jump\t// in\n    tag_180:\n        /* \"#utility.yul\":8254:8291   */\n      swap2\n      pop\n        /* \"#utility.yul\":8324:8327   */\n      dup3\n        /* \"#utility.yul\":8321:8322   */\n      0x02\n        /* \"#utility.yul\":8317:8328   */\n      mul\n        /* \"#utility.yul\":8311:8315   */\n      dup3\n        /* \"#utility.yul\":8308:8329   */\n      or\n        /* \"#utility.yul\":8300:8329   */\n      swap1\n      pop\n        /* \"#utility.yul\":8040:8335   */\n      swap3\n      swap2\n      pop\n      pop\n      jump\t// out\n        /* \"#utility.yul\":8340:9735   */\n    tag_21:\n        /* \"#utility.yul\":8457:8494   */\n      tag_182\n        /* \"#utility.yul\":8490:8493   */\n      dup3\n        /* \"#utility.yul\":8457:8494   */\n      tag_63\n      jump\t// in\n    tag_182:\n        /* \"#utility.yul\":8559:8577   */\n      0xffffffffffffffff\n        /* \"#utility.yul\":8551:8557   */\n      dup2\n        /* \"#utility.yul\":8548:8578   */\n      gt\n        /* \"#utility.yul\":8545:8601   */\n      iszero\n      tag_183\n      jumpi\n        /* \"#utility.yul\":8581:8599   */\n      tag_184\n      tag_53\n      jump\t// in\n    tag_184:\n        /* \"#utility.yul\":8545:8601   */\n    tag_183:\n        /* \"#utility.yul\":8625:8663   */\n      tag_185\n        /* \"#utility.yul\":8657:8661   */\n      dup3\n        /* \"#utility.yul\":8651:8662   */\n      sload\n        /* \"#utility.yul\":8625:8663   */\n      tag_25\n      jump\t// in\n    tag_185:\n        /* \"#utility.yul\":8710:8777   */\n      tag_186\n        /* \"#utility.yul\":8770:8776   */\n      dup3\n        /* \"#utility.yul\":8762:8768   */\n      dup3\n        /* \"#utility.yul\":8756:8760   */\n      dup6\n        /* \"#utility.yul\":8710:8777   */\n      tag_79\n      jump\t// in\n    tag_186:\n        /* \"#utility.yul\":8804:8805   */\n      0x00\n        /* \"#utility.yul\":8828:8832   */\n      0x20\n        /* \"#utility.yul\":8815:8832   */\n      swap1\n      pop\n        /* \"#utility.yul\":8860:8862   */\n      0x1f\n        /* \"#utility.yul\":8852:8858   */\n      dup4\n        /* \"#utility.yul\":8849:8863   */\n      gt\n        /* \"#utility.yul\":8877:8878   */\n      0x01\n        /* \"#utility.yul\":8872:9490   */\n      dup2\n      eq\n      tag_188\n      jumpi\n        /* \"#utility.yul\":9534:9535   */\n      0x00\n        /* \"#utility.yul\":9551:9557   */\n      dup5\n        /* \"#utility.yul\":9548:9625   */\n      iszero\n      tag_189\n      jumpi\n        /* \"#utility.yul\":9600:9609   */\n      dup3\n        /* \"#utility.yul\":9595:9598   */\n      dup8\n        /* \"#utility.yul\":9591:9610   */\n      add\n        /* \"#utility.yul\":9585:9611   */\n      mload\n        /* \"#utility.yul\":9576:9611   */\n      swap1\n      pop\n        /* \"#utility.yul\":9548:9625   */\n    tag_189:\n        /* \"#utility.yul\":9651:9718   */\n      tag_190\n        /* \"#utility.yul\":9711:9717   */\n      dup6\n        /* \"#utility.yul\":9704:9709   */\n      dup3\n        /* \"#utility.yul\":9651:9718   */\n      tag_82\n      jump\t// in\n    tag_190:\n        /* \"#utility.yul\":9645:9649   */\n      dup7\n        /* \"#utility.yul\":9638:9719   */\n      sstore\n        /* \"#utility.yul\":9507:9729   */\n      pop\n        /* \"#utility.yul\":8842:9729   */\n      jump(tag_187)\n        /* \"#utility.yul\":8872:9490   */\n    tag_188:\n        /* \"#utility.yul\":8924:8928   */\n      0x1f\n        /* \"#utility.yul\":8920:8929   */\n      not\n        /* \"#utility.yul\":8912:8918   */\n      dup5\n        /* \"#utility.yul\":8908:8930   */\n      and\n        /* \"#utility.yul\":8958:8995   */\n      tag_191\n        /* \"#utility.yul\":8990:8994   */\n      dup7\n        /* \"#utility.yul\":8958:8995   */\n      tag_68\n      jump\t// in\n    tag_191:\n        /* \"#utility.yul\":9017:9018   */\n      0x00\n        /* \"#utility.yul\":9031:9239   */\n    tag_192:\n        /* \"#utility.yul\":9045:9052   */\n      dup3\n        /* \"#utility.yul\":9042:9043   */\n      dup2\n        /* \"#utility.yul\":9039:9053   */\n      lt\n        /* \"#utility.yul\":9031:9239   */\n      iszero\n      tag_194\n      jumpi\n        /* \"#utility.yul\":9124:9133   */\n      dup5\n        /* \"#utility.yul\":9119:9122   */\n      dup10\n        /* \"#utility.yul\":9115:9134   */\n      add\n        /* \"#utility.yul\":9109:9135   */\n      mload\n        /* \"#utility.yul\":9101:9107   */\n      dup3\n        /* \"#utility.yul\":9094:9136   */\n      sstore\n        /* \"#utility.yul\":9175:9176   */\n      0x01\n        /* \"#utility.yul\":9167:9173   */\n      dup3\n        /* \"#utility.yul\":9163:9177   */\n      add\n        /* \"#utility.yul\":9153:9177   */\n      swap2\n      pop\n        /* \"#utility.yul\":9222:9224   */\n      0x20\n        /* \"#utility.yul\":9211:9220   */\n      dup6\n        /* \"#utility.yul\":9207:9225   */\n      add\n        /* \"#utility.yul\":9194:9225   */\n      swap5\n      pop\n        /* \"#utility.yul\":9068:9072   */\n      0x20\n        /* \"#utility.yul\":9065:9066   */\n      dup2\n        /* \"#utility.yul\":9061:9073   */\n      add\n        /* \"#utility.yul\":9056:9073   */\n      swap1\n      pop\n        /* \"#utility.yul\":9031:9239   */\n      jump(tag_192)\n    tag_194:\n        /* \"#utility.yul\":9267:9273   */\n      dup7\n        /* \"#utility.yul\":9258:9265   */\n      dup4\n        /* \"#utility.yul\":9255:9274   */\n      lt\n        /* \"#utility.yul\":9252:9431   */\n      iszero\n      tag_195\n      jumpi\n        /* \"#utility.yul\":9325:9334   */\n      dup5\n        /* \"#utility.yul\":9320:9323   */\n      dup10\n        /* \"#utility.yul\":9316:9335   */\n      add\n        /* \"#utility.yul\":9310:9336   */\n      mload\n        /* \"#utility.yul\":9368:9416   */\n      tag_196\n        /* \"#utility.yul\":9410:9414   */\n      0x1f\n        /* \"#utility.yul\":9402:9408   */\n      dup10\n        /* \"#utility.yul\":9398:9415   */\n      and\n        /* \"#utility.yul\":9387:9396   */\n      dup3\n        /* \"#utility.yul\":9368:9416   */\n      tag_81\n      jump\t// in\n    tag_196:\n        /* \"#utility.yul\":9360:9366   */\n      dup4\n        /* \"#utility.yul\":9353:9417   */\n      sstore\n        /* \"#utility.yul\":9275:9431   */\n      pop\n        /* \"#utility.yul\":9252:9431   */\n    tag_195:\n        /* \"#utility.yul\":9477:9478   */\n      0x01\n        /* \"#utility.yul\":9473:9474   */\n      0x02\n        /* \"#utility.yul\":9465:9471   */\n      dup9\n        /* \"#utility.yul\":9461:9475   */\n      mul\n        /* \"#utility.yul\":9457:9479   */\n      add\n        /* \"#utility.yul\":9451:9455   */\n      dup9\n        /* \"#utility.yul\":9444:9480   */\n      sstore\n        /* \"#utility.yul\":8879:9490   */\n      pop\n      pop\n      pop\n        /* \"#utility.yul\":8842:9729   */\n    tag_187:\n      pop\n        /* \"#utility.yul\":8432:9735   */\n      pop\n      pop\n      pop\n        /* \"#utility.yul\":8340:9735   */\n      pop\n      pop\n      jump\t// out\n        /* \"#utility.yul\":9741:9921   */\n    tag_36:\n        /* \"#utility.yul\":9789:9866   */\n      0x4e487b7100000000000000000000000000000000000000000000000000000000\n        /* \"#utility.yul\":9786:9787   */\n      0x00\n        /* \"#utility.yul\":9779:9867   */\n      mstore\n        /* \"#utility.yul\":9886:9890   */\n      0x32\n        /* \"#utility.yul\":9883:9884   */\n      0x04\n        /* \"#utility.yul\":9876:9891   */\n      mstore\n        /* \"#utility.yul\":9910:9914   */\n      0x24\n        /* \"#utility.yul\":9907:9908   */\n      0x00\n        /* \"#utility.yul\":9900:9915   */\n      revert\n\n    auxdata: 0xa264697066735822122073d767a811a5608920311cbfa409891a94c298aea64f6be7464015aa7bad495064736f6c634300081a0033\n}\n",
				"bytecode": {
					"linkReferences": {},
					"object": "6080604052348015600e575f80fd5b506107ac8061001c5f395ff3fe608060405234801561000f575f80fd5b506004361061003f575f3560e01c806357ca4fe6146100435780637e3975361461005f578063a596d3c81461008f575b5f80fd5b61005d6004803603810190610058919061035b565b610099565b005b610079600480360381019061007491906103d5565b6100cd565b6040516100869190610460565b60405180910390f35b610097610172565b005b5f81908060018154018082558091505060019003905f5260205f20015f9091909190915090816100c9919061067a565b5050565b5f81815481106100db575f80fd5b905f5260205f20015f9150905080546100f3906104ad565b80601f016020809104026020016040519081016040528092919081815260200182805461011f906104ad565b801561016a5780601f106101415761010080835404028352916020019161016a565b820191905f5260205f20905b81548152906001019060200180831161014d57829003601f168201915b505050505081565b5f5b5f805490508110156101b3575f818154811061019357610192610749565b5b905f5260205f20015f6101a691906101b6565b8080600101915050610174565b50565b5080546101c2906104ad565b5f825580601f106101d357506101f0565b601f0160209004905f5260205f20908101906101ef91906101f3565b5b50565b5b8082111561020a575f815f9055506001016101f4565b5090565b5f604051905090565b5f80fd5b5f80fd5b5f80fd5b5f80fd5b5f601f19601f8301169050919050565b7f4e487b71000000000000000000000000000000000000000000000000000000005f52604160045260245ffd5b61026d82610227565b810181811067ffffffffffffffff8211171561028c5761028b610237565b5b80604052505050565b5f61029e61020e565b90506102aa8282610264565b919050565b5f67ffffffffffffffff8211156102c9576102c8610237565b5b6102d282610227565b9050602081019050919050565b828183375f83830152505050565b5f6102ff6102fa846102af565b610295565b90508281526020810184848401111561031b5761031a610223565b5b6103268482856102df565b509392505050565b5f82601f8301126103425761034161021f565b5b81356103528482602086016102ed565b91505092915050565b5f602082840312156103705761036f610217565b5b5f82013567ffffffffffffffff81111561038d5761038c61021b565b5b6103998482850161032e565b91505092915050565b5f819050919050565b6103b4816103a2565b81146103be575f80fd5b50565b5f813590506103cf816103ab565b92915050565b5f602082840312156103ea576103e9610217565b5b5f6103f7848285016103c1565b91505092915050565b5f81519050919050565b5f82825260208201905092915050565b8281835e5f83830152505050565b5f61043282610400565b61043c818561040a565b935061044c81856020860161041a565b61045581610227565b840191505092915050565b5f6020820190508181035f8301526104788184610428565b905092915050565b7f4e487b71000000000000000000000000000000000000000000000000000000005f52602260045260245ffd5b5f60028204905060018216806104c457607f821691505b6020821081036104d7576104d6610480565b5b50919050565b5f819050815f5260205f209050919050565b5f6020601f8301049050919050565b5f82821b905092915050565b5f600883026105397fffffffffffffffffffffffffffffffffffffffffffffffffffffffffffffffff826104fe565b61054386836104fe565b95508019841693508086168417925050509392505050565b5f819050919050565b5f61057e610579610574846103a2565b61055b565b6103a2565b9050919050565b5f819050919050565b61059783610564565b6105ab6105a382610585565b84845461050a565b825550505050565b5f90565b6105bf6105b3565b6105ca81848461058e565b505050565b5b818110156105ed576105e25f826105b7565b6001810190506105d0565b5050565b601f82111561063257610603816104dd565b61060c846104ef565b8101602085101561061b578190505b61062f610627856104ef565b8301826105cf565b50505b505050565b5f82821c905092915050565b5f6106525f1984600802610637565b1980831691505092915050565b5f61066a8383610643565b9150826002028217905092915050565b61068382610400565b67ffffffffffffffff81111561069c5761069b610237565b5b6106a682546104ad565b6106b18282856105f1565b5f60209050601f8311600181146106e2575f84156106d0578287015190505b6106da858261065f565b865550610741565b601f1984166106f0866104dd565b5f5b82811015610717578489015182556001820191506020850194506020810190506106f2565b868310156107345784890151610730601f891682610643565b8355505b6001600288020188555050505b505050505050565b7f4e487b71000000000000000000000000000000000000000000000000000000005f52603260045260245ffdfea264697066735822122073d767a811a5608920311cbfa409891a94c298aea64f6be7464015aa7bad495064736f6c634300081a0033",
					"opcodes": "PUSH1 0x80 PUSH1 0x40 MSTORE CALLVALUE DUP1 ISZERO PUSH1 0xE JUMPI PUSH0 DUP1 REVERT JUMPDEST POP PUSH2 0x7AC DUP1 PUSH2 0x1C PUSH0 CODECOPY PUSH0 RETURN INVALID PUSH1 0x80 PUSH1 0x40 MSTORE CALLVALUE DUP1 ISZERO PUSH2 0xF JUMPI PUSH0 DUP1 REVERT JUMPDEST POP PUSH1 0x4 CALLDATASIZE LT PUSH2 0x3F JUMPI PUSH0 CALLDATALOAD PUSH1 0xE0 SHR DUP1 PUSH4 0x57CA4FE6 EQ PUSH2 0x43 JUMPI DUP1 PUSH4 0x7E397536 EQ PUSH2 0x5F JUMPI DUP1 PUSH4 0xA596D3C8 EQ PUSH2 0x8F JUMPI JUMPDEST PUSH0 DUP1 REVERT JUMPDEST PUSH2 0x5D PUSH1 0x4 DUP1 CALLDATASIZE SUB DUP2 ADD SWAP1 PUSH2 0x58 SWAP2 SWAP1 PUSH2 0x35B JUMP JUMPDEST PUSH2 0x99 JUMP JUMPDEST STOP JUMPDEST PUSH2 0x79 PUSH1 0x4 DUP1 CALLDATASIZE SUB DUP2 ADD SWAP1 PUSH2 0x74 SWAP2 SWAP1 PUSH2 0x3D5 JUMP JUMPDEST PUSH2 0xCD JUMP JUMPDEST PUSH1 0x40 MLOAD PUSH2 0x86 SWAP2 SWAP1 PUSH2 0x460 JUMP JUMPDEST PUSH1 0x40 MLOAD DUP1 SWAP2 SUB SWAP1 RETURN JUMPDEST PUSH2 0x97 PUSH2 0x172 JUMP JUMPDEST STOP JUMPDEST PUSH0 DUP2 SWAP1 DUP1 PUSH1 0x1 DUP2 SLOAD ADD DUP1 DUP3 SSTORE DUP1 SWAP2 POP POP PUSH1 0x1 SWAP1 SUB SWAP1 PUSH0 MSTORE PUSH1 0x20 PUSH0 KECCAK256 ADD PUSH0 SWAP1 SWAP2 SWAP1 SWAP2 SWAP1 SWAP2 POP SWAP1 DUP2 PUSH2 0xC9 SWAP2 SWAP1 PUSH2 0x67A JUMP JUMPDEST POP POP JUMP JUMPDEST PUSH0 DUP2 DUP2 SLOAD DUP2 LT PUSH2 0xDB JUMPI PUSH0 DUP1 REVERT JUMPDEST SWAP1 PUSH0 MSTORE PUSH1 0x20 PUSH0 KECCAK256 ADD PUSH0 SWAP2 POP SWAP1 POP DUP1 SLOAD PUSH2 0xF3 SWAP1 PUSH2 0x4AD JUMP JUMPDEST DUP1 PUSH1 0x1F ADD PUSH1 0x20 DUP1 SWAP2 DIV MUL PUSH1 0x20 ADD PUSH1 0x40 MLOAD SWAP1 DUP2 ADD PUSH1 0x40 MSTORE DUP1 SWAP3 SWAP2 SWAP1 DUP2 DUP2 MSTORE PUSH1 0x20 ADD DUP3 DUP1 SLOAD PUSH2 0x11F SWAP1 PUSH2 0x4AD JUMP JUMPDEST DUP1 ISZERO PUSH2 0x16A JUMPI DUP1 PUSH1 0x1F LT PUSH2 0x141 JUMPI PUSH2 0x100 DUP1 DUP4 SLOAD DIV MUL DUP4 MSTORE SWAP2 PUSH1 0x20 ADD SWAP2 PUSH2 0x16A JUMP JUMPDEST DUP3 ADD SWAP2 SWAP1 PUSH0 MSTORE PUSH1 0x20 PUSH0 KECCAK256 SWAP1 JUMPDEST DUP2 SLOAD DUP2 MSTORE SWAP1 PUSH1 0x1 ADD SWAP1 PUSH1 0x20 ADD DUP1 DUP4 GT PUSH2 0x14D JUMPI DUP3 SWAP1 SUB PUSH1 0x1F AND DUP3 ADD SWAP2 JUMPDEST POP POP POP POP POP DUP2 JUMP JUMPDEST PUSH0 JUMPDEST PUSH0 DUP1 SLOAD SWAP1 POP DUP2 LT ISZERO PUSH2 0x1B3 JUMPI PUSH0 DUP2 DUP2 SLOAD DUP2 LT PUSH2 0x193 JUMPI PUSH2 0x192 PUSH2 0x749 JUMP JUMPDEST JUMPDEST SWAP1 PUSH0 MSTORE PUSH1 0x20 PUSH0 KECCAK256 ADD PUSH0 PUSH2 0x1A6 SWAP2 SWAP1 PUSH2 0x1B6 JUMP JUMPDEST DUP1 DUP1 PUSH1 0x1 ADD SWAP2 POP POP PUSH2 0x174 JUMP JUMPDEST POP JUMP JUMPDEST POP DUP1 SLOAD PUSH2 0x1C2 SWAP1 PUSH2 0x4AD JUMP JUMPDEST PUSH0 DUP3 SSTORE DUP1 PUSH1 0x1F LT PUSH2 0x1D3 JUMPI POP PUSH2 0x1F0 JUMP JUMPDEST PUSH1 0x1F ADD PUSH1 0x20 SWAP1 DIV SWAP1 PUSH0 MSTORE PUSH1 0x20 PUSH0 KECCAK256 SWAP1 DUP2 ADD SWAP1 PUSH2 0x1EF SWAP2 SWAP1 PUSH2 0x1F3 JUMP JUMPDEST JUMPDEST POP JUMP JUMPDEST JUMPDEST DUP1 DUP3 GT ISZERO PUSH2 0x20A JUMPI PUSH0 DUP2 PUSH0 SWAP1 SSTORE POP PUSH1 0x1 ADD PUSH2 0x1F4 JUMP JUMPDEST POP SWAP1 JUMP JUMPDEST PUSH0 PUSH1 0x40 MLOAD SWAP1 POP SWAP1 JUMP JUMPDEST PUSH0 DUP1 REVERT JUMPDEST PUSH0 DUP1 REVERT JUMPDEST PUSH0 DUP1 REVERT JUMPDEST PUSH0 DUP1 REVERT JUMPDEST PUSH0 PUSH1 0x1F NOT PUSH1 0x1F DUP4 ADD AND SWAP1 POP SWAP2 SWAP1 POP JUMP JUMPDEST PUSH32 0x4E487B7100000000000000000000000000000000000000000000000000000000 PUSH0 MSTORE PUSH1 0x41 PUSH1 0x4 MSTORE PUSH1 0x24 PUSH0 REVERT JUMPDEST PUSH2 0x26D DUP3 PUSH2 0x227 JUMP JUMPDEST DUP2 ADD DUP2 DUP2 LT PUSH8 0xFFFFFFFFFFFFFFFF DUP3 GT OR ISZERO PUSH2 0x28C JUMPI PUSH2 0x28B PUSH2 0x237 JUMP JUMPDEST JUMPDEST DUP1 PUSH1 0x40 MSTORE POP POP POP JUMP JUMPDEST PUSH0 PUSH2 0x29E PUSH2 0x20E JUMP JUMPDEST SWAP1 POP PUSH2 0x2AA DUP3 DUP3 PUSH2 0x264 JUMP JUMPDEST SWAP2 SWAP1 POP JUMP JUMPDEST PUSH0 PUSH8 0xFFFFFFFFFFFFFFFF DUP3 GT ISZERO PUSH2 0x2C9 JUMPI PUSH2 0x2C8 PUSH2 0x237 JUMP JUMPDEST JUMPDEST PUSH2 0x2D2 DUP3 PUSH2 0x227 JUMP JUMPDEST SWAP1 POP PUSH1 0x20 DUP2 ADD SWAP1 POP SWAP2 SWAP1 POP JUMP JUMPDEST DUP3 DUP2 DUP4 CALLDATACOPY PUSH0 DUP4 DUP4 ADD MSTORE POP POP POP JUMP JUMPDEST PUSH0 PUSH2 0x2FF PUSH2 0x2FA DUP5 PUSH2 0x2AF JUMP JUMPDEST PUSH2 0x295 JUMP JUMPDEST SWAP1 POP DUP3 DUP2 MSTORE PUSH1 0x20 DUP2 ADD DUP5 DUP5 DUP5 ADD GT ISZERO PUSH2 0x31B JUMPI PUSH2 0x31A PUSH2 0x223 JUMP JUMPDEST JUMPDEST PUSH2 0x326 DUP5 DUP3 DUP6 PUSH2 0x2DF JUMP JUMPDEST POP SWAP4 SWAP3 POP POP POP JUMP JUMPDEST PUSH0 DUP3 PUSH1 0x1F DUP4 ADD SLT PUSH2 0x342 JUMPI PUSH2 0x341 PUSH2 0x21F JUMP JUMPDEST JUMPDEST DUP2 CALLDATALOAD PUSH2 0x352 DUP5 DUP3 PUSH1 0x20 DUP7 ADD PUSH2 0x2ED JUMP JUMPDEST SWAP2 POP POP SWAP3 SWAP2 POP POP JUMP JUMPDEST PUSH0 PUSH1 0x20 DUP3 DUP5 SUB SLT ISZERO PUSH2 0x370 JUMPI PUSH2 0x36F PUSH2 0x217 JUMP JUMPDEST JUMPDEST PUSH0 DUP3 ADD CALLDATALOAD PUSH8 0xFFFFFFFFFFFFFFFF DUP2 GT ISZERO PUSH2 0x38D JUMPI PUSH2 0x38C PUSH2 0x21B JUMP JUMPDEST JUMPDEST PUSH2 0x399 DUP5 DUP3 DUP6 ADD PUSH2 0x32E JUMP JUMPDEST SWAP2 POP POP SWAP3 SWAP2 POP POP JUMP JUMPDEST PUSH0 DUP2 SWAP1 POP SWAP2 SWAP1 POP JUMP JUMPDEST PUSH2 0x3B4 DUP2 PUSH2 0x3A2 JUMP JUMPDEST DUP2 EQ PUSH2 0x3BE JUMPI PUSH0 DUP1 REVERT JUMPDEST POP JUMP JUMPDEST PUSH0 DUP2 CALLDATALOAD SWAP1 POP PUSH2 0x3CF DUP2 PUSH2 0x3AB JUMP JUMPDEST SWAP3 SWAP2 POP POP JUMP JUMPDEST PUSH0 PUSH1 0x20 DUP3 DUP5 SUB SLT ISZERO PUSH2 0x3EA JUMPI PUSH2 0x3E9 PUSH2 0x217 JUMP JUMPDEST JUMPDEST PUSH0 PUSH2 0x3F7 DUP5 DUP3 DUP6 ADD PUSH2 0x3C1 JUMP JUMPDEST SWAP2 POP POP SWAP3 SWAP2 POP POP JUMP JUMPDEST PUSH0 DUP2 MLOAD SWAP1 POP SWAP2 SWAP1 POP JUMP JUMPDEST PUSH0 DUP3 DUP3 MSTORE PUSH1 0x20 DUP3 ADD SWAP1 POP SWAP3 SWAP2 POP POP JUMP JUMPDEST DUP3 DUP2 DUP4 MCOPY PUSH0 DUP4 DUP4 ADD MSTORE POP POP POP JUMP JUMPDEST PUSH0 PUSH2 0x432 DUP3 PUSH2 0x400 JUMP JUMPDEST PUSH2 0x43C DUP2 DUP6 PUSH2 0x40A JUMP JUMPDEST SWAP4 POP PUSH2 0x44C DUP2 DUP6 PUSH1 0x20 DUP7 ADD PUSH2 0x41A JUMP JUMPDEST PUSH2 0x455 DUP2 PUSH2 0x227 JUMP JUMPDEST DUP5 ADD SWAP2 POP POP SWAP3 SWAP2 POP POP JUMP JUMPDEST PUSH0 PUSH1 0x20 DUP3 ADD SWAP1 POP DUP2 DUP2 SUB PUSH0 DUP4 ADD MSTORE PUSH2 0x478 DUP2 DUP5 PUSH2 0x428 JUMP JUMPDEST SWAP1 POP SWAP3 SWAP2 POP POP JUMP JUMPDEST PUSH32 0x4E487B7100000000000000000000000000000000000000000000000000000000 PUSH0 MSTORE PUSH1 0x22 PUSH1 0x4 MSTORE PUSH1 0x24 PUSH0 REVERT JUMPDEST PUSH0 PUSH1 0x2 DUP3 DIV SWAP1 POP PUSH1 0x1 DUP3 AND DUP1 PUSH2 0x4C4 JUMPI PUSH1 0x7F DUP3 AND SWAP2 POP JUMPDEST PUSH1 0x20 DUP3 LT DUP2 SUB PUSH2 0x4D7 JUMPI PUSH2 0x4D6 PUSH2 0x480 JUMP JUMPDEST JUMPDEST POP SWAP2 SWAP1 POP JUMP JUMPDEST PUSH0 DUP2 SWAP1 POP DUP2 PUSH0 MSTORE PUSH1 0x20 PUSH0 KECCAK256 SWAP1 POP SWAP2 SWAP1 POP JUMP JUMPDEST PUSH0 PUSH1 0x20 PUSH1 0x1F DUP4 ADD DIV SWAP1 POP SWAP2 SWAP1 POP JUMP JUMPDEST PUSH0 DUP3 DUP3 SHL SWAP1 POP SWAP3 SWAP2 POP POP JUMP JUMPDEST PUSH0 PUSH1 0x8 DUP4 MUL PUSH2 0x539 PUSH32 0xFFFFFFFFFFFFFFFFFFFFFFFFFFFFFFFFFFFFFFFFFFFFFFFFFFFFFFFFFFFFFFFF DUP3 PUSH2 0x4FE JUMP JUMPDEST PUSH2 0x543 DUP7 DUP4 PUSH2 0x4FE JUMP JUMPDEST SWAP6 POP DUP1 NOT DUP5 AND SWAP4 POP DUP1 DUP7 AND DUP5 OR SWAP3 POP POP POP SWAP4 SWAP3 POP POP POP JUMP JUMPDEST PUSH0 DUP2 SWAP1 POP SWAP2 SWAP1 POP JUMP JUMPDEST PUSH0 PUSH2 0x57E PUSH2 0x579 PUSH2 0x574 DUP5 PUSH2 0x3A2 JUMP JUMPDEST PUSH2 0x55B JUMP JUMPDEST PUSH2 0x3A2 JUMP JUMPDEST SWAP1 POP SWAP2 SWAP1 POP JUMP JUMPDEST PUSH0 DUP2 SWAP1 POP SWAP2 SWAP1 POP JUMP JUMPDEST PUSH2 0x597 DUP4 PUSH2 0x564 JUMP JUMPDEST PUSH2 0x5AB PUSH2 0x5A3 DUP3 PUSH2 0x585 JUMP JUMPDEST DUP5 DUP5 SLOAD PUSH2 0x50A JUMP JUMPDEST DUP3 SSTORE POP POP POP POP JUMP JUMPDEST PUSH0 SWAP1 JUMP JUMPDEST PUSH2 0x5BF PUSH2 0x5B3 JUMP JUMPDEST PUSH2 0x5CA DUP2 DUP5 DUP5 PUSH2 0x58E JUMP JUMPDEST POP POP POP JUMP JUMPDEST JUMPDEST DUP2 DUP2 LT ISZERO PUSH2 0x5ED JUMPI PUSH2 0x5E2 PUSH0 DUP3 PUSH2 0x5B7 JUMP JUMPDEST PUSH1 0x1 DUP2 ADD SWAP1 POP PUSH2 0x5D0 JUMP JUMPDEST POP POP JUMP JUMPDEST PUSH1 0x1F DUP3 GT ISZERO PUSH2 0x632 JUMPI PUSH2 0x603 DUP2 PUSH2 0x4DD JUMP JUMPDEST PUSH2 0x60C DUP5 PUSH2 0x4EF JUMP JUMPDEST DUP2 ADD PUSH1 0x20 DUP6 LT ISZERO PUSH2 0x61B JUMPI DUP2 SWAP1 POP JUMPDEST PUSH2 0x62F PUSH2 0x627 DUP6 PUSH2 0x4EF JUMP JUMPDEST DUP4 ADD DUP3 PUSH2 0x5CF JUMP JUMPDEST POP POP JUMPDEST POP POP POP JUMP JUMPDEST PUSH0 DUP3 DUP3 SHR SWAP1 POP SWAP3 SWAP2 POP POP JUMP JUMPDEST PUSH0 PUSH2 0x652 PUSH0 NOT DUP5 PUSH1 0x8 MUL PUSH2 0x637 JUMP JUMPDEST NOT DUP1 DUP4 AND SWAP2 POP POP SWAP3 SWAP2 POP POP JUMP JUMPDEST PUSH0 PUSH2 0x66A DUP4 DUP4 PUSH2 0x643 JUMP JUMPDEST SWAP2 POP DUP3 PUSH1 0x2 MUL DUP3 OR SWAP1 POP SWAP3 SWAP2 POP POP JUMP JUMPDEST PUSH2 0x683 DUP3 PUSH2 0x400 JUMP JUMPDEST PUSH8 0xFFFFFFFFFFFFFFFF DUP2 GT ISZERO PUSH2 0x69C JUMPI PUSH2 0x69B PUSH2 0x237 JUMP JUMPDEST JUMPDEST PUSH2 0x6A6 DUP3 SLOAD PUSH2 0x4AD JUMP JUMPDEST PUSH2 0x6B1 DUP3 DUP3 DUP6 PUSH2 0x5F1 JUMP JUMPDEST PUSH0 PUSH1 0x20 SWAP1 POP PUSH1 0x1F DUP4 GT PUSH1 0x1 DUP2 EQ PUSH2 0x6E2 JUMPI PUSH0 DUP5 ISZERO PUSH2 0x6D0 JUMPI DUP3 DUP8 ADD MLOAD SWAP1 POP JUMPDEST PUSH2 0x6DA DUP6 DUP3 PUSH2 0x65F JUMP JUMPDEST DUP7 SSTORE POP PUSH2 0x741 JUMP JUMPDEST PUSH1 0x1F NOT DUP5 AND PUSH2 0x6F0 DUP7 PUSH2 0x4DD JUMP JUMPDEST PUSH0 JUMPDEST DUP3 DUP2 LT ISZERO PUSH2 0x717 JUMPI DUP5 DUP10 ADD MLOAD DUP3 SSTORE PUSH1 0x1 DUP3 ADD SWAP2 POP PUSH1 0x20 DUP6 ADD SWAP5 POP PUSH1 0x20 DUP2 ADD SWAP1 POP PUSH2 0x6F2 JUMP JUMPDEST DUP7 DUP4 LT ISZERO PUSH2 0x734 JUMPI DUP5 DUP10 ADD MLOAD PUSH2 0x730 PUSH1 0x1F DUP10 AND DUP3 PUSH2 0x643 JUMP JUMPDEST DUP4 SSTORE POP JUMPDEST PUSH1 0x1 PUSH1 0x2 DUP9 MUL ADD DUP9 SSTORE POP POP POP JUMPDEST POP POP POP POP POP POP JUMP JUMPDEST PUSH32 0x4E487B7100000000000000000000000000000000000000000000000000000000 PUSH0 MSTORE PUSH1 0x32 PUSH1 0x4 MSTORE PUSH1 0x24 PUSH0 REVERT INVALID LOG2 PUSH5 0x6970667358 0x22 SLT KECCAK256 PUSH20 0xD767A811A5608920311CBFA409891A94C298AEA6 0x4F PUSH12 0xE7464015AA7BAD495064736F PUSH13 0x634300081A0033000000000000 "
				},
				"gasEstimates": {
					"creation": {
						"codeDepositCost": "392800",
						"executionCost": "428",
						"totalCost": "393228"
					},
					"external": {
						"addReport(string)": "infinite",
						"employeeIds(uint256)": "infinite",
						"resetReports()": "infinite"
					}
				},
				"methodIdentifiers": {
					"addReport(string)": "57ca4fe6",
					"employeeIds(uint256)": "7e397536",
					"resetReports()": "a596d3c8"
				}
			},
			"storageLayout": {
				"storage": [
					{
						"astId": 96,
						"contract": "contracts/BaseLearn/Employee.sol:Manager",
						"label": "employeeIds",
						"offset": 0,
						"slot": "0",
						"type": "t_array(t_string_storage)dyn_storage"
					}
				],
				"types": {
					"t_array(t_string_storage)dyn_storage": {
						"base": "t_string_storage",
						"encoding": "dynamic_array",
						"label": "string[]",
						"numberOfBytes": "32"
					},
					"t_string_storage": {
						"encoding": "bytes",
						"label": "string",
						"numberOfBytes": "32"
					}
				}
			},
			"userdoc": {
				"kind": "user",
				"methods": {},
				"version": 1
			}
		}
	}
}