{
	"contracts/BaseLearn/FavoriteRecords3.sol": {
		"FavoriteRecords": {
			"abi": [
				{
					"inputs": [],
					"stateMutability": "nonpayable",
					"type": "constructor"
				},
				{
					"inputs": [
						{
							"internalType": "string",
							"name": "_albumName",
							"type": "string"
						}
					],
					"name": "addRecord",
					"outputs": [],
					"stateMutability": "nonpayable",
					"type": "function"
				},
				{
					"inputs": [
						{
							"internalType": "string",
							"name": "_albumName",
							"type": "string"
						}
					],
					"name": "obtienevaloralbum",
					"outputs": [
						{
							"internalType": "bool",
							"name": "",
							"type": "bool"
						}
					],
					"stateMutability": "view",
					"type": "function"
				},
				{
					"inputs": [
						{
							"internalType": "address",
							"name": "",
							"type": "address"
						},
						{
							"internalType": "string",
							"name": "",
							"type": "string"
						}
					],
					"name": "userFavorites",
					"outputs": [
						{
							"internalType": "bool",
							"name": "",
							"type": "bool"
						}
					],
					"stateMutability": "view",
					"type": "function"
				}
			],
			"devdoc": {
				"kind": "dev",
				"methods": {},
				"version": 1
			},
			"evm": {
				"assembly": "    /* \"contracts/BaseLearn/FavoriteRecords3.sol\":68:1001  contract FavoriteRecords {... */\n  mstore(0x40, 0x80)\n    /* \"contracts/BaseLearn/FavoriteRecords3.sol\":417:534  constructor() {... */\n  callvalue\n  dup1\n  iszero\n  tag_1\n  jumpi\n  0x00\n  dup1\n  revert\ntag_1:\n  pop\n    /* \"contracts/BaseLearn/FavoriteRecords3.sol\":472:476  true */\n  0x01\n    /* \"contracts/BaseLearn/FavoriteRecords3.sol\":442:457  approvedRecords */\n  0x00\n    /* \"contracts/BaseLearn/FavoriteRecords3.sol\":442:469  approvedRecords[\"Thriller\"] */\n  mload(0x40)\n  tag_4\n  swap1\n  tag_5\n  jump\t// in\ntag_4:\n  swap1\n  dup2\n  mstore\n  0x20\n  add\n  mload(0x40)\n  dup1\n  swap2\n  sub\n  swap1\n  keccak256\n  0x00\n    /* \"contracts/BaseLearn/FavoriteRecords3.sol\":442:476  approvedRecords[\"Thriller\"] = true */\n  0x0100\n  exp\n  dup2\n  sload\n  dup2\n  0xff\n  mul\n  not\n  and\n  swap1\n  dup4\n  iszero\n  iszero\n  mul\n  or\n  swap1\n  sstore\n  pop\n    /* \"contracts/BaseLearn/FavoriteRecords3.sol\":522:526  true */\n  0x01\n    /* \"contracts/BaseLearn/FavoriteRecords3.sol\":487:502  approvedRecords */\n  0x00\n    /* \"contracts/BaseLearn/FavoriteRecords3.sol\":487:519  approvedRecords[\"Back in Black\"] */\n  mload(0x40)\n  tag_6\n  swap1\n  tag_7\n  jump\t// in\ntag_6:\n  swap1\n  dup2\n  mstore\n  0x20\n  add\n  mload(0x40)\n  dup1\n  swap2\n  sub\n  swap1\n  keccak256\n  0x00\n    /* \"contracts/BaseLearn/FavoriteRecords3.sol\":487:526  approvedRecords[\"Back in Black\"] = true */\n  0x0100\n  exp\n  dup2\n  sload\n  dup2\n  0xff\n  mul\n  not\n  and\n  swap1\n  dup4\n  iszero\n  iszero\n  mul\n  or\n  swap1\n  sstore\n  pop\n    /* \"contracts/BaseLearn/FavoriteRecords3.sol\":68:1001  contract FavoriteRecords {... */\n  jump(tag_8)\n    /* \"#utility.yul\":7:155   */\ntag_9:\n    /* \"#utility.yul\":109:120   */\n  0x00\n    /* \"#utility.yul\":146:149   */\n  dup2\n    /* \"#utility.yul\":131:149   */\n  swap1\n  pop\n    /* \"#utility.yul\":7:155   */\n  swap3\n  swap2\n  pop\n  pop\n  jump\t// out\n    /* \"#utility.yul\":161:319   */\ntag_10:\n    /* \"#utility.yul\":301:311   */\n  0x546872696c6c6572000000000000000000000000000000000000000000000000\n    /* \"#utility.yul\":297:298   */\n  0x00\n    /* \"#utility.yul\":289:295   */\n  dup3\n    /* \"#utility.yul\":285:299   */\n  add\n    /* \"#utility.yul\":278:312   */\n  mstore\n    /* \"#utility.yul\":161:319   */\n  pop\n  jump\t// out\n    /* \"#utility.yul\":325:725   */\ntag_11:\n    /* \"#utility.yul\":485:488   */\n  0x00\n    /* \"#utility.yul\":506:590   */\n  tag_18\n    /* \"#utility.yul\":588:589   */\n  0x08\n    /* \"#utility.yul\":583:586   */\n  dup4\n    /* \"#utility.yul\":506:590   */\n  tag_9\n  jump\t// in\ntag_18:\n    /* \"#utility.yul\":499:590   */\n  swap2\n  pop\n    /* \"#utility.yul\":599:692   */\n  tag_19\n    /* \"#utility.yul\":688:691   */\n  dup3\n    /* \"#utility.yul\":599:692   */\n  tag_10\n  jump\t// in\ntag_19:\n    /* \"#utility.yul\":717:718   */\n  0x08\n    /* \"#utility.yul\":712:715   */\n  dup3\n    /* \"#utility.yul\":708:719   */\n  add\n    /* \"#utility.yul\":701:719   */\n  swap1\n  pop\n    /* \"#utility.yul\":325:725   */\n  swap2\n  swap1\n  pop\n  jump\t// out\n    /* \"#utility.yul\":731:1112   */\ntag_5:\n    /* \"#utility.yul\":916:919   */\n  0x00\n    /* \"#utility.yul\":938:1086   */\n  tag_21\n    /* \"#utility.yul\":1082:1085   */\n  dup3\n    /* \"#utility.yul\":938:1086   */\n  tag_11\n  jump\t// in\ntag_21:\n    /* \"#utility.yul\":931:1086   */\n  swap2\n  pop\n    /* \"#utility.yul\":1103:1106   */\n  dup2\n    /* \"#utility.yul\":1096:1106   */\n  swap1\n  pop\n    /* \"#utility.yul\":731:1112   */\n  swap2\n  swap1\n  pop\n  jump\t// out\n    /* \"#utility.yul\":1118:1281   */\ntag_12:\n    /* \"#utility.yul\":1258:1273   */\n  0x4261636b20696e20426c61636b00000000000000000000000000000000000000\n    /* \"#utility.yul\":1254:1255   */\n  0x00\n    /* \"#utility.yul\":1246:1252   */\n  dup3\n    /* \"#utility.yul\":1242:1256   */\n  add\n    /* \"#utility.yul\":1235:1274   */\n  mstore\n    /* \"#utility.yul\":1118:1281   */\n  pop\n  jump\t// out\n    /* \"#utility.yul\":1287:1689   */\ntag_13:\n    /* \"#utility.yul\":1447:1450   */\n  0x00\n    /* \"#utility.yul\":1468:1553   */\n  tag_24\n    /* \"#utility.yul\":1550:1552   */\n  0x0d\n    /* \"#utility.yul\":1545:1548   */\n  dup4\n    /* \"#utility.yul\":1468:1553   */\n  tag_9\n  jump\t// in\ntag_24:\n    /* \"#utility.yul\":1461:1553   */\n  swap2\n  pop\n    /* \"#utility.yul\":1562:1655   */\n  tag_25\n    /* \"#utility.yul\":1651:1654   */\n  dup3\n    /* \"#utility.yul\":1562:1655   */\n  tag_12\n  jump\t// in\ntag_25:\n    /* \"#utility.yul\":1680:1682   */\n  0x0d\n    /* \"#utility.yul\":1675:1678   */\n  dup3\n    /* \"#utility.yul\":1671:1683   */\n  add\n    /* \"#utility.yul\":1664:1683   */\n  swap1\n  pop\n    /* \"#utility.yul\":1287:1689   */\n  swap2\n  swap1\n  pop\n  jump\t// out\n    /* \"#utility.yul\":1695:2076   */\ntag_7:\n    /* \"#utility.yul\":1880:1883   */\n  0x00\n    /* \"#utility.yul\":1902:2050   */\n  tag_27\n    /* \"#utility.yul\":2046:2049   */\n  dup3\n    /* \"#utility.yul\":1902:2050   */\n  tag_13\n  jump\t// in\ntag_27:\n    /* \"#utility.yul\":1895:2050   */\n  swap2\n  pop\n    /* \"#utility.yul\":2067:2070   */\n  dup2\n    /* \"#utility.yul\":2060:2070   */\n  swap1\n  pop\n    /* \"#utility.yul\":1695:2076   */\n  swap2\n  swap1\n  pop\n  jump\t// out\n    /* \"contracts/BaseLearn/FavoriteRecords3.sol\":68:1001  contract FavoriteRecords {... */\ntag_8:\n  dataSize(sub_0)\n  dup1\n  dataOffset(sub_0)\n  0x00\n  codecopy\n  0x00\n  return\nstop\n\nsub_0: assembly {\n        /* \"contracts/BaseLearn/FavoriteRecords3.sol\":68:1001  contract FavoriteRecords {... */\n      mstore(0x40, 0x80)\n      callvalue\n      dup1\n      iszero\n      tag_1\n      jumpi\n      0x00\n      dup1\n      revert\n    tag_1:\n      pop\n      jumpi(tag_2, lt(calldatasize, 0x04))\n      shr(0xe0, calldataload(0x00))\n      dup1\n      0xa2787d9e\n      eq\n      tag_3\n      jumpi\n      dup1\n      0xc75c333c\n      eq\n      tag_4\n      jumpi\n      dup1\n      0xd81aa8c4\n      eq\n      tag_5\n      jumpi\n    tag_2:\n      0x00\n      dup1\n      revert\n        /* \"contracts/BaseLearn/FavoriteRecords3.sol\":865:998  function obtienevaloralbum(string memory _albumName) public view returns (bool) {... */\n    tag_3:\n      tag_6\n      0x04\n      dup1\n      calldatasize\n      sub\n      dup2\n      add\n      swap1\n      tag_7\n      swap2\n      swap1\n      tag_8\n      jump\t// in\n    tag_7:\n      tag_9\n      jump\t// in\n    tag_6:\n      mload(0x40)\n      tag_10\n      swap2\n      swap1\n      tag_11\n      jump\t// in\n    tag_10:\n      mload(0x40)\n      dup1\n      swap2\n      sub\n      swap1\n      return\n        /* \"contracts/BaseLearn/FavoriteRecords3.sol\":280:344  mapping(address => mapping(string => bool)) public userFavorites */\n    tag_4:\n      tag_12\n      0x04\n      dup1\n      calldatasize\n      sub\n      dup2\n      add\n      swap1\n      tag_13\n      swap2\n      swap1\n      tag_14\n      jump\t// in\n    tag_13:\n      tag_15\n      jump\t// in\n    tag_12:\n      mload(0x40)\n      tag_16\n      swap2\n      swap1\n      tag_11\n      jump\t// in\n    tag_16:\n      mload(0x40)\n      dup1\n      swap2\n      sub\n      swap1\n      return\n        /* \"contracts/BaseLearn/FavoriteRecords3.sol\":606:797  function addRecord(string memory _albumName) public {... */\n    tag_5:\n      tag_17\n      0x04\n      dup1\n      calldatasize\n      sub\n      dup2\n      add\n      swap1\n      tag_18\n      swap2\n      swap1\n      tag_8\n      jump\t// in\n    tag_18:\n      tag_19\n      jump\t// in\n    tag_17:\n      stop\n        /* \"contracts/BaseLearn/FavoriteRecords3.sol\":865:998  function obtienevaloralbum(string memory _albumName) public view returns (bool) {... */\n    tag_9:\n        /* \"contracts/BaseLearn/FavoriteRecords3.sol\":939:943  bool */\n      0x00\n        /* \"contracts/BaseLearn/FavoriteRecords3.sol\":963:978  approvedRecords */\n      dup1\n        /* \"contracts/BaseLearn/FavoriteRecords3.sol\":979:989  _albumName */\n      dup3\n        /* \"contracts/BaseLearn/FavoriteRecords3.sol\":963:990  approvedRecords[_albumName] */\n      mload(0x40)\n      tag_21\n      swap2\n      swap1\n      tag_22\n      jump\t// in\n    tag_21:\n      swap1\n      dup2\n      mstore\n      0x20\n      add\n      mload(0x40)\n      dup1\n      swap2\n      sub\n      swap1\n      keccak256\n      0x00\n      swap1\n      sload\n      swap1\n      0x0100\n      exp\n      swap1\n      div\n      0xff\n      and\n        /* \"contracts/BaseLearn/FavoriteRecords3.sol\":956:990  return approvedRecords[_albumName] */\n      swap1\n      pop\n        /* \"contracts/BaseLearn/FavoriteRecords3.sol\":865:998  function obtienevaloralbum(string memory _albumName) public view returns (bool) {... */\n      swap2\n      swap1\n      pop\n      jump\t// out\n        /* \"contracts/BaseLearn/FavoriteRecords3.sol\":280:344  mapping(address => mapping(string => bool)) public userFavorites */\n    tag_15:\n      mstore(0x20, 0x01)\n      dup2\n      0x00\n      mstore\n      keccak256(0x00, 0x40)\n      dup2\n      dup1\n      mload\n      0x20\n      dup2\n      add\n      dup3\n      add\n      dup1\n      mload\n      dup5\n      dup3\n      mstore\n      0x20\n      dup4\n      add\n      0x20\n      dup6\n      add\n      keccak256\n      dup2\n      dup4\n      mstore\n      dup1\n      swap6\n      pop\n      pop\n      pop\n      pop\n      pop\n      pop\n      0x00\n      swap2\n      pop\n      swap2\n      pop\n      swap1\n      sload\n      swap1\n      0x0100\n      exp\n      swap1\n      div\n      0xff\n      and\n      dup2\n      jump\t// out\n        /* \"contracts/BaseLearn/FavoriteRecords3.sol\":606:797  function addRecord(string memory _albumName) public {... */\n    tag_19:\n        /* \"contracts/BaseLearn/FavoriteRecords3.sol\":677:692  approvedRecords */\n      0x00\n        /* \"contracts/BaseLearn/FavoriteRecords3.sol\":693:703  _albumName */\n      dup2\n        /* \"contracts/BaseLearn/FavoriteRecords3.sol\":677:704  approvedRecords[_albumName] */\n      mload(0x40)\n      tag_24\n      swap2\n      swap1\n      tag_22\n      jump\t// in\n    tag_24:\n      swap1\n      dup2\n      mstore\n      0x20\n      add\n      mload(0x40)\n      dup1\n      swap2\n      sub\n      swap1\n      keccak256\n      0x00\n      swap1\n      sload\n      swap1\n      0x0100\n      exp\n      swap1\n      div\n      0xff\n      and\n        /* \"contracts/BaseLearn/FavoriteRecords3.sol\":669:734  require(approvedRecords[_albumName], \"El album no esta aprobado\") */\n      tag_25\n      jumpi\n      mload(0x40)\n      0x08c379a000000000000000000000000000000000000000000000000000000000\n      dup2\n      mstore\n      0x04\n      add\n      tag_26\n      swap1\n      tag_27\n      jump\t// in\n    tag_26:\n      mload(0x40)\n      dup1\n      swap2\n      sub\n      swap1\n      revert\n    tag_25:\n        /* \"contracts/BaseLearn/FavoriteRecords3.sol\":785:789  true */\n      0x01\n        /* \"contracts/BaseLearn/FavoriteRecords3.sol\":745:758  userFavorites */\n      dup1\n        /* \"contracts/BaseLearn/FavoriteRecords3.sol\":745:770  userFavorites[msg.sender] */\n      0x00\n        /* \"contracts/BaseLearn/FavoriteRecords3.sol\":759:769  msg.sender */\n      caller\n        /* \"contracts/BaseLearn/FavoriteRecords3.sol\":745:770  userFavorites[msg.sender] */\n      0xffffffffffffffffffffffffffffffffffffffff\n      and\n      0xffffffffffffffffffffffffffffffffffffffff\n      and\n      dup2\n      mstore\n      0x20\n      add\n      swap1\n      dup2\n      mstore\n      0x20\n      add\n      0x00\n      keccak256\n        /* \"contracts/BaseLearn/FavoriteRecords3.sol\":771:781  _albumName */\n      dup3\n        /* \"contracts/BaseLearn/FavoriteRecords3.sol\":745:782  userFavorites[msg.sender][_albumName] */\n      mload(0x40)\n      tag_28\n      swap2\n      swap1\n      tag_22\n      jump\t// in\n    tag_28:\n      swap1\n      dup2\n      mstore\n      0x20\n      add\n      mload(0x40)\n      dup1\n      swap2\n      sub\n      swap1\n      keccak256\n      0x00\n        /* \"contracts/BaseLearn/FavoriteRecords3.sol\":745:789  userFavorites[msg.sender][_albumName] = true */\n      0x0100\n      exp\n      dup2\n      sload\n      dup2\n      0xff\n      mul\n      not\n      and\n      swap1\n      dup4\n      iszero\n      iszero\n      mul\n      or\n      swap1\n      sstore\n      pop\n        /* \"contracts/BaseLearn/FavoriteRecords3.sol\":606:797  function addRecord(string memory _albumName) public {... */\n      pop\n      jump\t// out\n        /* \"#utility.yul\":7:82   */\n    tag_29:\n        /* \"#utility.yul\":40:46   */\n      0x00\n        /* \"#utility.yul\":73:75   */\n      0x40\n        /* \"#utility.yul\":67:76   */\n      mload\n        /* \"#utility.yul\":57:76   */\n      swap1\n      pop\n        /* \"#utility.yul\":7:82   */\n      swap1\n      jump\t// out\n        /* \"#utility.yul\":88:205   */\n    tag_30:\n        /* \"#utility.yul\":197:198   */\n      0x00\n        /* \"#utility.yul\":194:195   */\n      dup1\n        /* \"#utility.yul\":187:199   */\n      revert\n        /* \"#utility.yul\":211:328   */\n    tag_31:\n        /* \"#utility.yul\":320:321   */\n      0x00\n        /* \"#utility.yul\":317:318   */\n      dup1\n        /* \"#utility.yul\":310:322   */\n      revert\n        /* \"#utility.yul\":334:451   */\n    tag_32:\n        /* \"#utility.yul\":443:444   */\n      0x00\n        /* \"#utility.yul\":440:441   */\n      dup1\n        /* \"#utility.yul\":433:445   */\n      revert\n        /* \"#utility.yul\":457:574   */\n    tag_33:\n        /* \"#utility.yul\":566:567   */\n      0x00\n        /* \"#utility.yul\":563:564   */\n      dup1\n        /* \"#utility.yul\":556:568   */\n      revert\n        /* \"#utility.yul\":580:682   */\n    tag_34:\n        /* \"#utility.yul\":621:627   */\n      0x00\n        /* \"#utility.yul\":672:674   */\n      0x1f\n        /* \"#utility.yul\":668:675   */\n      not\n        /* \"#utility.yul\":663:665   */\n      0x1f\n        /* \"#utility.yul\":656:661   */\n      dup4\n        /* \"#utility.yul\":652:666   */\n      add\n        /* \"#utility.yul\":648:676   */\n      and\n        /* \"#utility.yul\":638:676   */\n      swap1\n      pop\n        /* \"#utility.yul\":580:682   */\n      swap2\n      swap1\n      pop\n      jump\t// out\n        /* \"#utility.yul\":688:868   */\n    tag_35:\n        /* \"#utility.yul\":736:813   */\n      0x4e487b7100000000000000000000000000000000000000000000000000000000\n        /* \"#utility.yul\":733:734   */\n      0x00\n        /* \"#utility.yul\":726:814   */\n      mstore\n        /* \"#utility.yul\":833:837   */\n      0x41\n        /* \"#utility.yul\":830:831   */\n      0x04\n        /* \"#utility.yul\":823:838   */\n      mstore\n        /* \"#utility.yul\":857:861   */\n      0x24\n        /* \"#utility.yul\":854:855   */\n      0x00\n        /* \"#utility.yul\":847:862   */\n      revert\n        /* \"#utility.yul\":874:1155   */\n    tag_36:\n        /* \"#utility.yul\":957:984   */\n      tag_64\n        /* \"#utility.yul\":979:983   */\n      dup3\n        /* \"#utility.yul\":957:984   */\n      tag_34\n      jump\t// in\n    tag_64:\n        /* \"#utility.yul\":949:955   */\n      dup2\n        /* \"#utility.yul\":945:985   */\n      add\n        /* \"#utility.yul\":1087:1093   */\n      dup2\n        /* \"#utility.yul\":1075:1085   */\n      dup2\n        /* \"#utility.yul\":1072:1094   */\n      lt\n        /* \"#utility.yul\":1051:1069   */\n      0xffffffffffffffff\n        /* \"#utility.yul\":1039:1049   */\n      dup3\n        /* \"#utility.yul\":1036:1070   */\n      gt\n        /* \"#utility.yul\":1033:1095   */\n      or\n        /* \"#utility.yul\":1030:1118   */\n      iszero\n      tag_65\n      jumpi\n        /* \"#utility.yul\":1098:1116   */\n      tag_66\n      tag_35\n      jump\t// in\n    tag_66:\n        /* \"#utility.yul\":1030:1118   */\n    tag_65:\n        /* \"#utility.yul\":1138:1148   */\n      dup1\n        /* \"#utility.yul\":1134:1136   */\n      0x40\n        /* \"#utility.yul\":1127:1149   */\n      mstore\n        /* \"#utility.yul\":917:1155   */\n      pop\n        /* \"#utility.yul\":874:1155   */\n      pop\n      pop\n      jump\t// out\n        /* \"#utility.yul\":1161:1290   */\n    tag_37:\n        /* \"#utility.yul\":1195:1201   */\n      0x00\n        /* \"#utility.yul\":1222:1242   */\n      tag_68\n      tag_29\n      jump\t// in\n    tag_68:\n        /* \"#utility.yul\":1212:1242   */\n      swap1\n      pop\n        /* \"#utility.yul\":1251:1284   */\n      tag_69\n        /* \"#utility.yul\":1279:1283   */\n      dup3\n        /* \"#utility.yul\":1271:1277   */\n      dup3\n        /* \"#utility.yul\":1251:1284   */\n      tag_36\n      jump\t// in\n    tag_69:\n        /* \"#utility.yul\":1161:1290   */\n      swap2\n      swap1\n      pop\n      jump\t// out\n        /* \"#utility.yul\":1296:1604   */\n    tag_38:\n        /* \"#utility.yul\":1358:1362   */\n      0x00\n        /* \"#utility.yul\":1448:1466   */\n      0xffffffffffffffff\n        /* \"#utility.yul\":1440:1446   */\n      dup3\n        /* \"#utility.yul\":1437:1467   */\n      gt\n        /* \"#utility.yul\":1434:1490   */\n      iszero\n      tag_71\n      jumpi\n        /* \"#utility.yul\":1470:1488   */\n      tag_72\n      tag_35\n      jump\t// in\n    tag_72:\n        /* \"#utility.yul\":1434:1490   */\n    tag_71:\n        /* \"#utility.yul\":1508:1537   */\n      tag_73\n        /* \"#utility.yul\":1530:1536   */\n      dup3\n        /* \"#utility.yul\":1508:1537   */\n      tag_34\n      jump\t// in\n    tag_73:\n        /* \"#utility.yul\":1500:1537   */\n      swap1\n      pop\n        /* \"#utility.yul\":1592:1596   */\n      0x20\n        /* \"#utility.yul\":1586:1590   */\n      dup2\n        /* \"#utility.yul\":1582:1597   */\n      add\n        /* \"#utility.yul\":1574:1597   */\n      swap1\n      pop\n        /* \"#utility.yul\":1296:1604   */\n      swap2\n      swap1\n      pop\n      jump\t// out\n        /* \"#utility.yul\":1610:1758   */\n    tag_39:\n        /* \"#utility.yul\":1708:1714   */\n      dup3\n        /* \"#utility.yul\":1703:1706   */\n      dup2\n        /* \"#utility.yul\":1698:1701   */\n      dup4\n        /* \"#utility.yul\":1685:1715   */\n      calldatacopy\n        /* \"#utility.yul\":1749:1750   */\n      0x00\n        /* \"#utility.yul\":1740:1746   */\n      dup4\n        /* \"#utility.yul\":1735:1738   */\n      dup4\n        /* \"#utility.yul\":1731:1747   */\n      add\n        /* \"#utility.yul\":1724:1751   */\n      mstore\n        /* \"#utility.yul\":1610:1758   */\n      pop\n      pop\n      pop\n      jump\t// out\n        /* \"#utility.yul\":1764:2189   */\n    tag_40:\n        /* \"#utility.yul\":1842:1847   */\n      0x00\n        /* \"#utility.yul\":1867:1933   */\n      tag_76\n        /* \"#utility.yul\":1883:1932   */\n      tag_77\n        /* \"#utility.yul\":1925:1931   */\n      dup5\n        /* \"#utility.yul\":1883:1932   */\n      tag_38\n      jump\t// in\n    tag_77:\n        /* \"#utility.yul\":1867:1933   */\n      tag_37\n      jump\t// in\n    tag_76:\n        /* \"#utility.yul\":1858:1933   */\n      swap1\n      pop\n        /* \"#utility.yul\":1956:1962   */\n      dup3\n        /* \"#utility.yul\":1949:1954   */\n      dup2\n        /* \"#utility.yul\":1942:1963   */\n      mstore\n        /* \"#utility.yul\":1994:1998   */\n      0x20\n        /* \"#utility.yul\":1987:1992   */\n      dup2\n        /* \"#utility.yul\":1983:1999   */\n      add\n        /* \"#utility.yul\":2032:2035   */\n      dup5\n        /* \"#utility.yul\":2023:2029   */\n      dup5\n        /* \"#utility.yul\":2018:2021   */\n      dup5\n        /* \"#utility.yul\":2014:2030   */\n      add\n        /* \"#utility.yul\":2011:2036   */\n      gt\n        /* \"#utility.yul\":2008:2120   */\n      iszero\n      tag_78\n      jumpi\n        /* \"#utility.yul\":2039:2118   */\n      tag_79\n      tag_33\n      jump\t// in\n    tag_79:\n        /* \"#utility.yul\":2008:2120   */\n    tag_78:\n        /* \"#utility.yul\":2129:2183   */\n      tag_80\n        /* \"#utility.yul\":2176:2182   */\n      dup5\n        /* \"#utility.yul\":2171:2174   */\n      dup3\n        /* \"#utility.yul\":2166:2169   */\n      dup6\n        /* \"#utility.yul\":2129:2183   */\n      tag_39\n      jump\t// in\n    tag_80:\n        /* \"#utility.yul\":1848:2189   */\n      pop\n        /* \"#utility.yul\":1764:2189   */\n      swap4\n      swap3\n      pop\n      pop\n      pop\n      jump\t// out\n        /* \"#utility.yul\":2209:2549   */\n    tag_41:\n        /* \"#utility.yul\":2265:2270   */\n      0x00\n        /* \"#utility.yul\":2314:2317   */\n      dup3\n        /* \"#utility.yul\":2307:2311   */\n      0x1f\n        /* \"#utility.yul\":2299:2305   */\n      dup4\n        /* \"#utility.yul\":2295:2312   */\n      add\n        /* \"#utility.yul\":2291:2318   */\n      slt\n        /* \"#utility.yul\":2281:2403   */\n      tag_82\n      jumpi\n        /* \"#utility.yul\":2322:2401   */\n      tag_83\n      tag_32\n      jump\t// in\n    tag_83:\n        /* \"#utility.yul\":2281:2403   */\n    tag_82:\n        /* \"#utility.yul\":2439:2445   */\n      dup2\n        /* \"#utility.yul\":2426:2446   */\n      calldataload\n        /* \"#utility.yul\":2464:2543   */\n      tag_84\n        /* \"#utility.yul\":2539:2542   */\n      dup5\n        /* \"#utility.yul\":2531:2537   */\n      dup3\n        /* \"#utility.yul\":2524:2528   */\n      0x20\n        /* \"#utility.yul\":2516:2522   */\n      dup7\n        /* \"#utility.yul\":2512:2529   */\n      add\n        /* \"#utility.yul\":2464:2543   */\n      tag_40\n      jump\t// in\n    tag_84:\n        /* \"#utility.yul\":2455:2543   */\n      swap2\n      pop\n        /* \"#utility.yul\":2271:2549   */\n      pop\n        /* \"#utility.yul\":2209:2549   */\n      swap3\n      swap2\n      pop\n      pop\n      jump\t// out\n        /* \"#utility.yul\":2555:3064   */\n    tag_8:\n        /* \"#utility.yul\":2624:2630   */\n      0x00\n        /* \"#utility.yul\":2673:2675   */\n      0x20\n        /* \"#utility.yul\":2661:2670   */\n      dup3\n        /* \"#utility.yul\":2652:2659   */\n      dup5\n        /* \"#utility.yul\":2648:2671   */\n      sub\n        /* \"#utility.yul\":2644:2676   */\n      slt\n        /* \"#utility.yul\":2641:2760   */\n      iszero\n      tag_86\n      jumpi\n        /* \"#utility.yul\":2679:2758   */\n      tag_87\n      tag_30\n      jump\t// in\n    tag_87:\n        /* \"#utility.yul\":2641:2760   */\n    tag_86:\n        /* \"#utility.yul\":2827:2828   */\n      0x00\n        /* \"#utility.yul\":2816:2825   */\n      dup3\n        /* \"#utility.yul\":2812:2829   */\n      add\n        /* \"#utility.yul\":2799:2830   */\n      calldataload\n        /* \"#utility.yul\":2857:2875   */\n      0xffffffffffffffff\n        /* \"#utility.yul\":2849:2855   */\n      dup2\n        /* \"#utility.yul\":2846:2876   */\n      gt\n        /* \"#utility.yul\":2843:2960   */\n      iszero\n      tag_88\n      jumpi\n        /* \"#utility.yul\":2879:2958   */\n      tag_89\n      tag_31\n      jump\t// in\n    tag_89:\n        /* \"#utility.yul\":2843:2960   */\n    tag_88:\n        /* \"#utility.yul\":2984:3047   */\n      tag_90\n        /* \"#utility.yul\":3039:3046   */\n      dup5\n        /* \"#utility.yul\":3030:3036   */\n      dup3\n        /* \"#utility.yul\":3019:3028   */\n      dup6\n        /* \"#utility.yul\":3015:3037   */\n      add\n        /* \"#utility.yul\":2984:3047   */\n      tag_41\n      jump\t// in\n    tag_90:\n        /* \"#utility.yul\":2974:3047   */\n      swap2\n      pop\n        /* \"#utility.yul\":2770:3057   */\n      pop\n        /* \"#utility.yul\":2555:3064   */\n      swap3\n      swap2\n      pop\n      pop\n      jump\t// out\n        /* \"#utility.yul\":3070:3160   */\n    tag_42:\n        /* \"#utility.yul\":3104:3111   */\n      0x00\n        /* \"#utility.yul\":3147:3152   */\n      dup2\n        /* \"#utility.yul\":3140:3153   */\n      iszero\n        /* \"#utility.yul\":3133:3154   */\n      iszero\n        /* \"#utility.yul\":3122:3154   */\n      swap1\n      pop\n        /* \"#utility.yul\":3070:3160   */\n      swap2\n      swap1\n      pop\n      jump\t// out\n        /* \"#utility.yul\":3166:3275   */\n    tag_43:\n        /* \"#utility.yul\":3247:3268   */\n      tag_93\n        /* \"#utility.yul\":3262:3267   */\n      dup2\n        /* \"#utility.yul\":3247:3268   */\n      tag_42\n      jump\t// in\n    tag_93:\n        /* \"#utility.yul\":3242:3245   */\n      dup3\n        /* \"#utility.yul\":3235:3269   */\n      mstore\n        /* \"#utility.yul\":3166:3275   */\n      pop\n      pop\n      jump\t// out\n        /* \"#utility.yul\":3281:3491   */\n    tag_11:\n        /* \"#utility.yul\":3368:3372   */\n      0x00\n        /* \"#utility.yul\":3406:3408   */\n      0x20\n        /* \"#utility.yul\":3395:3404   */\n      dup3\n        /* \"#utility.yul\":3391:3409   */\n      add\n        /* \"#utility.yul\":3383:3409   */\n      swap1\n      pop\n        /* \"#utility.yul\":3419:3484   */\n      tag_95\n        /* \"#utility.yul\":3481:3482   */\n      0x00\n        /* \"#utility.yul\":3470:3479   */\n      dup4\n        /* \"#utility.yul\":3466:3483   */\n      add\n        /* \"#utility.yul\":3457:3463   */\n      dup5\n        /* \"#utility.yul\":3419:3484   */\n      tag_43\n      jump\t// in\n    tag_95:\n        /* \"#utility.yul\":3281:3491   */\n      swap3\n      swap2\n      pop\n      pop\n      jump\t// out\n        /* \"#utility.yul\":3497:3623   */\n    tag_44:\n        /* \"#utility.yul\":3534:3541   */\n      0x00\n        /* \"#utility.yul\":3574:3616   */\n      0xffffffffffffffffffffffffffffffffffffffff\n        /* \"#utility.yul\":3567:3572   */\n      dup3\n        /* \"#utility.yul\":3563:3617   */\n      and\n        /* \"#utility.yul\":3552:3617   */\n      swap1\n      pop\n        /* \"#utility.yul\":3497:3623   */\n      swap2\n      swap1\n      pop\n      jump\t// out\n        /* \"#utility.yul\":3629:3725   */\n    tag_45:\n        /* \"#utility.yul\":3666:3673   */\n      0x00\n        /* \"#utility.yul\":3695:3719   */\n      tag_98\n        /* \"#utility.yul\":3713:3718   */\n      dup3\n        /* \"#utility.yul\":3695:3719   */\n      tag_44\n      jump\t// in\n    tag_98:\n        /* \"#utility.yul\":3684:3719   */\n      swap1\n      pop\n        /* \"#utility.yul\":3629:3725   */\n      swap2\n      swap1\n      pop\n      jump\t// out\n        /* \"#utility.yul\":3731:3853   */\n    tag_46:\n        /* \"#utility.yul\":3804:3828   */\n      tag_100\n        /* \"#utility.yul\":3822:3827   */\n      dup2\n        /* \"#utility.yul\":3804:3828   */\n      tag_45\n      jump\t// in\n    tag_100:\n        /* \"#utility.yul\":3797:3802   */\n      dup2\n        /* \"#utility.yul\":3794:3829   */\n      eq\n        /* \"#utility.yul\":3784:3847   */\n      tag_101\n      jumpi\n        /* \"#utility.yul\":3843:3844   */\n      0x00\n        /* \"#utility.yul\":3840:3841   */\n      dup1\n        /* \"#utility.yul\":3833:3845   */\n      revert\n        /* \"#utility.yul\":3784:3847   */\n    tag_101:\n        /* \"#utility.yul\":3731:3853   */\n      pop\n      jump\t// out\n        /* \"#utility.yul\":3859:3998   */\n    tag_47:\n        /* \"#utility.yul\":3905:3910   */\n      0x00\n        /* \"#utility.yul\":3943:3949   */\n      dup2\n        /* \"#utility.yul\":3930:3950   */\n      calldataload\n        /* \"#utility.yul\":3921:3950   */\n      swap1\n      pop\n        /* \"#utility.yul\":3959:3992   */\n      tag_103\n        /* \"#utility.yul\":3986:3991   */\n      dup2\n        /* \"#utility.yul\":3959:3992   */\n      tag_46\n      jump\t// in\n    tag_103:\n        /* \"#utility.yul\":3859:3998   */\n      swap3\n      swap2\n      pop\n      pop\n      jump\t// out\n        /* \"#utility.yul\":4004:4658   */\n    tag_14:\n        /* \"#utility.yul\":4082:4088   */\n      0x00\n        /* \"#utility.yul\":4090:4096   */\n      dup1\n        /* \"#utility.yul\":4139:4141   */\n      0x40\n        /* \"#utility.yul\":4127:4136   */\n      dup4\n        /* \"#utility.yul\":4118:4125   */\n      dup6\n        /* \"#utility.yul\":4114:4137   */\n      sub\n        /* \"#utility.yul\":4110:4142   */\n      slt\n        /* \"#utility.yul\":4107:4226   */\n      iszero\n      tag_105\n      jumpi\n        /* \"#utility.yul\":4145:4224   */\n      tag_106\n      tag_30\n      jump\t// in\n    tag_106:\n        /* \"#utility.yul\":4107:4226   */\n    tag_105:\n        /* \"#utility.yul\":4265:4266   */\n      0x00\n        /* \"#utility.yul\":4290:4343   */\n      tag_107\n        /* \"#utility.yul\":4335:4342   */\n      dup6\n        /* \"#utility.yul\":4326:4332   */\n      dup3\n        /* \"#utility.yul\":4315:4324   */\n      dup7\n        /* \"#utility.yul\":4311:4333   */\n      add\n        /* \"#utility.yul\":4290:4343   */\n      tag_47\n      jump\t// in\n    tag_107:\n        /* \"#utility.yul\":4280:4343   */\n      swap3\n      pop\n        /* \"#utility.yul\":4236:4353   */\n      pop\n        /* \"#utility.yul\":4420:4422   */\n      0x20\n        /* \"#utility.yul\":4409:4418   */\n      dup4\n        /* \"#utility.yul\":4405:4423   */\n      add\n        /* \"#utility.yul\":4392:4424   */\n      calldataload\n        /* \"#utility.yul\":4451:4469   */\n      0xffffffffffffffff\n        /* \"#utility.yul\":4443:4449   */\n      dup2\n        /* \"#utility.yul\":4440:4470   */\n      gt\n        /* \"#utility.yul\":4437:4554   */\n      iszero\n      tag_108\n      jumpi\n        /* \"#utility.yul\":4473:4552   */\n      tag_109\n      tag_31\n      jump\t// in\n    tag_109:\n        /* \"#utility.yul\":4437:4554   */\n    tag_108:\n        /* \"#utility.yul\":4578:4641   */\n      tag_110\n        /* \"#utility.yul\":4633:4640   */\n      dup6\n        /* \"#utility.yul\":4624:4630   */\n      dup3\n        /* \"#utility.yul\":4613:4622   */\n      dup7\n        /* \"#utility.yul\":4609:4631   */\n      add\n        /* \"#utility.yul\":4578:4641   */\n      tag_41\n      jump\t// in\n    tag_110:\n        /* \"#utility.yul\":4568:4641   */\n      swap2\n      pop\n        /* \"#utility.yul\":4363:4651   */\n      pop\n        /* \"#utility.yul\":4004:4658   */\n      swap3\n      pop\n      swap3\n      swap1\n      pop\n      jump\t// out\n        /* \"#utility.yul\":4664:4763   */\n    tag_48:\n        /* \"#utility.yul\":4716:4722   */\n      0x00\n        /* \"#utility.yul\":4750:4755   */\n      dup2\n        /* \"#utility.yul\":4744:4756   */\n      mload\n        /* \"#utility.yul\":4734:4756   */\n      swap1\n      pop\n        /* \"#utility.yul\":4664:4763   */\n      swap2\n      swap1\n      pop\n      jump\t// out\n        /* \"#utility.yul\":4769:4917   */\n    tag_49:\n        /* \"#utility.yul\":4871:4882   */\n      0x00\n        /* \"#utility.yul\":4908:4911   */\n      dup2\n        /* \"#utility.yul\":4893:4911   */\n      swap1\n      pop\n        /* \"#utility.yul\":4769:4917   */\n      swap3\n      swap2\n      pop\n      pop\n      jump\t// out\n        /* \"#utility.yul\":4923:5062   */\n    tag_50:\n        /* \"#utility.yul\":5012:5018   */\n      dup3\n        /* \"#utility.yul\":5007:5010   */\n      dup2\n        /* \"#utility.yul\":5002:5005   */\n      dup4\n        /* \"#utility.yul\":4996:5019   */\n      mcopy\n        /* \"#utility.yul\":5053:5054   */\n      0x00\n        /* \"#utility.yul\":5044:5050   */\n      dup4\n        /* \"#utility.yul\":5039:5042   */\n      dup4\n        /* \"#utility.yul\":5035:5051   */\n      add\n        /* \"#utility.yul\":5028:5055   */\n      mstore\n        /* \"#utility.yul\":4923:5062   */\n      pop\n      pop\n      pop\n      jump\t// out\n        /* \"#utility.yul\":5068:5458   */\n    tag_51:\n        /* \"#utility.yul\":5174:5177   */\n      0x00\n        /* \"#utility.yul\":5202:5241   */\n      tag_115\n        /* \"#utility.yul\":5235:5240   */\n      dup3\n        /* \"#utility.yul\":5202:5241   */\n      tag_48\n      jump\t// in\n    tag_115:\n        /* \"#utility.yul\":5257:5346   */\n      tag_116\n        /* \"#utility.yul\":5339:5345   */\n      dup2\n        /* \"#utility.yul\":5334:5337   */\n      dup6\n        /* \"#utility.yul\":5257:5346   */\n      tag_49\n      jump\t// in\n    tag_116:\n        /* \"#utility.yul\":5250:5346   */\n      swap4\n      pop\n        /* \"#utility.yul\":5355:5420   */\n      tag_117\n        /* \"#utility.yul\":5413:5419   */\n      dup2\n        /* \"#utility.yul\":5408:5411   */\n      dup6\n        /* \"#utility.yul\":5401:5405   */\n      0x20\n        /* \"#utility.yul\":5394:5399   */\n      dup7\n        /* \"#utility.yul\":5390:5406   */\n      add\n        /* \"#utility.yul\":5355:5420   */\n      tag_50\n      jump\t// in\n    tag_117:\n        /* \"#utility.yul\":5445:5451   */\n      dup1\n        /* \"#utility.yul\":5440:5443   */\n      dup5\n        /* \"#utility.yul\":5436:5452   */\n      add\n        /* \"#utility.yul\":5429:5452   */\n      swap2\n      pop\n        /* \"#utility.yul\":5178:5458   */\n      pop\n        /* \"#utility.yul\":5068:5458   */\n      swap3\n      swap2\n      pop\n      pop\n      jump\t// out\n        /* \"#utility.yul\":5464:5739   */\n    tag_22:\n        /* \"#utility.yul\":5596:5599   */\n      0x00\n        /* \"#utility.yul\":5618:5713   */\n      tag_119\n        /* \"#utility.yul\":5709:5712   */\n      dup3\n        /* \"#utility.yul\":5700:5706   */\n      dup5\n        /* \"#utility.yul\":5618:5713   */\n      tag_51\n      jump\t// in\n    tag_119:\n        /* \"#utility.yul\":5611:5713   */\n      swap2\n      pop\n        /* \"#utility.yul\":5730:5733   */\n      dup2\n        /* \"#utility.yul\":5723:5733   */\n      swap1\n      pop\n        /* \"#utility.yul\":5464:5739   */\n      swap3\n      swap2\n      pop\n      pop\n      jump\t// out\n        /* \"#utility.yul\":5745:5914   */\n    tag_52:\n        /* \"#utility.yul\":5829:5840   */\n      0x00\n        /* \"#utility.yul\":5863:5869   */\n      dup3\n        /* \"#utility.yul\":5858:5861   */\n      dup3\n        /* \"#utility.yul\":5851:5870   */\n      mstore\n        /* \"#utility.yul\":5903:5907   */\n      0x20\n        /* \"#utility.yul\":5898:5901   */\n      dup3\n        /* \"#utility.yul\":5894:5908   */\n      add\n        /* \"#utility.yul\":5879:5908   */\n      swap1\n      pop\n        /* \"#utility.yul\":5745:5914   */\n      swap3\n      swap2\n      pop\n      pop\n      jump\t// out\n        /* \"#utility.yul\":5920:6095   */\n    tag_53:\n        /* \"#utility.yul\":6060:6087   */\n      0x456c20616c62756d206e6f2065737461206170726f6261646f00000000000000\n        /* \"#utility.yul\":6056:6057   */\n      0x00\n        /* \"#utility.yul\":6048:6054   */\n      dup3\n        /* \"#utility.yul\":6044:6058   */\n      add\n        /* \"#utility.yul\":6037:6088   */\n      mstore\n        /* \"#utility.yul\":5920:6095   */\n      pop\n      jump\t// out\n        /* \"#utility.yul\":6101:6467   */\n    tag_54:\n        /* \"#utility.yul\":6243:6246   */\n      0x00\n        /* \"#utility.yul\":6264:6331   */\n      tag_123\n        /* \"#utility.yul\":6328:6330   */\n      0x19\n        /* \"#utility.yul\":6323:6326   */\n      dup4\n        /* \"#utility.yul\":6264:6331   */\n      tag_52\n      jump\t// in\n    tag_123:\n        /* \"#utility.yul\":6257:6331   */\n      swap2\n      pop\n        /* \"#utility.yul\":6340:6433   */\n      tag_124\n        /* \"#utility.yul\":6429:6432   */\n      dup3\n        /* \"#utility.yul\":6340:6433   */\n      tag_53\n      jump\t// in\n    tag_124:\n        /* \"#utility.yul\":6458:6460   */\n      0x20\n        /* \"#utility.yul\":6453:6456   */\n      dup3\n        /* \"#utility.yul\":6449:6461   */\n      add\n        /* \"#utility.yul\":6442:6461   */\n      swap1\n      pop\n        /* \"#utility.yul\":6101:6467   */\n      swap2\n      swap1\n      pop\n      jump\t// out\n        /* \"#utility.yul\":6473:6892   */\n    tag_27:\n        /* \"#utility.yul\":6639:6643   */\n      0x00\n        /* \"#utility.yul\":6677:6679   */\n      0x20\n        /* \"#utility.yul\":6666:6675   */\n      dup3\n        /* \"#utility.yul\":6662:6680   */\n      add\n        /* \"#utility.yul\":6654:6680   */\n      swap1\n      pop\n        /* \"#utility.yul\":6726:6735   */\n      dup2\n        /* \"#utility.yul\":6720:6724   */\n      dup2\n        /* \"#utility.yul\":6716:6736   */\n      sub\n        /* \"#utility.yul\":6712:6713   */\n      0x00\n        /* \"#utility.yul\":6701:6710   */\n      dup4\n        /* \"#utility.yul\":6697:6714   */\n      add\n        /* \"#utility.yul\":6690:6737   */\n      mstore\n        /* \"#utility.yul\":6754:6885   */\n      tag_126\n        /* \"#utility.yul\":6880:6884   */\n      dup2\n        /* \"#utility.yul\":6754:6885   */\n      tag_54\n      jump\t// in\n    tag_126:\n        /* \"#utility.yul\":6746:6885   */\n      swap1\n      pop\n        /* \"#utility.yul\":6473:6892   */\n      swap2\n      swap1\n      pop\n      jump\t// out\n\n    auxdata: 0xa26469706673582212204b8a618cc60bf48d44912d23b3cdc7a446e130299a221c5b288f8f5e54e7381264736f6c634300081a0033\n}\n",
				"bytecode": {
					"linkReferences": {},
					"object": "608060405234801561000f575f80fd5b5060015f60405161001f906100cf565b90815260200160405180910390205f6101000a81548160ff02191690831515021790555060015f6040516100529061012d565b90815260200160405180910390205f6101000a81548160ff021916908315150217905550610141565b5f81905092915050565b7f546872696c6c65720000000000000000000000000000000000000000000000005f82015250565b5f6100b960088361007b565b91506100c482610085565b600882019050919050565b5f6100d9826100ad565b9150819050919050565b7f4261636b20696e20426c61636b000000000000000000000000000000000000005f82015250565b5f610117600d8361007b565b9150610122826100e3565b600d82019050919050565b5f6101378261010b565b9150819050919050565b6105a08061014e5f395ff3fe608060405234801561000f575f80fd5b506004361061003f575f3560e01c8063a2787d9e14610043578063c75c333c14610073578063d81aa8c4146100a3575b5f80fd5b61005d6004803603810190610058919061035c565b6100bf565b60405161006a91906103bd565b60405180910390f35b61008d60048036038101906100889190610430565b6100f1565b60405161009a91906103bd565b60405180910390f35b6100bd60048036038101906100b8919061035c565b610133565b005b5f80826040516100cf91906104dc565b90815260200160405180910390205f9054906101000a900460ff169050919050565b6001602052815f5260405f20818051602081018201805184825260208301602085012081835280955050505050505f915091509054906101000a900460ff1681565b5f8160405161014291906104dc565b90815260200160405180910390205f9054906101000a900460ff1661019c576040517f08c379a00000000000000000000000000000000000000000000000000000000081526004016101939061054c565b60405180910390fd5b6001805f3373ffffffffffffffffffffffffffffffffffffffff1673ffffffffffffffffffffffffffffffffffffffff1681526020019081526020015f20826040516101e891906104dc565b90815260200160405180910390205f6101000a81548160ff02191690831515021790555050565b5f604051905090565b5f80fd5b5f80fd5b5f80fd5b5f80fd5b5f601f19601f8301169050919050565b7f4e487b71000000000000000000000000000000000000000000000000000000005f52604160045260245ffd5b61026e82610228565b810181811067ffffffffffffffff8211171561028d5761028c610238565b5b80604052505050565b5f61029f61020f565b90506102ab8282610265565b919050565b5f67ffffffffffffffff8211156102ca576102c9610238565b5b6102d382610228565b9050602081019050919050565b828183375f83830152505050565b5f6103006102fb846102b0565b610296565b90508281526020810184848401111561031c5761031b610224565b5b6103278482856102e0565b509392505050565b5f82601f83011261034357610342610220565b5b81356103538482602086016102ee565b91505092915050565b5f6020828403121561037157610370610218565b5b5f82013567ffffffffffffffff81111561038e5761038d61021c565b5b61039a8482850161032f565b91505092915050565b5f8115159050919050565b6103b7816103a3565b82525050565b5f6020820190506103d05f8301846103ae565b92915050565b5f73ffffffffffffffffffffffffffffffffffffffff82169050919050565b5f6103ff826103d6565b9050919050565b61040f816103f5565b8114610419575f80fd5b50565b5f8135905061042a81610406565b92915050565b5f806040838503121561044657610445610218565b5b5f6104538582860161041c565b925050602083013567ffffffffffffffff8111156104745761047361021c565b5b6104808582860161032f565b9150509250929050565b5f81519050919050565b5f81905092915050565b8281835e5f83830152505050565b5f6104b68261048a565b6104c08185610494565b93506104d081856020860161049e565b80840191505092915050565b5f6104e782846104ac565b915081905092915050565b5f82825260208201905092915050565b7f456c20616c62756d206e6f2065737461206170726f6261646f000000000000005f82015250565b5f6105366019836104f2565b915061054182610502565b602082019050919050565b5f6020820190508181035f8301526105638161052a565b905091905056fea26469706673582212204b8a618cc60bf48d44912d23b3cdc7a446e130299a221c5b288f8f5e54e7381264736f6c634300081a0033",
					"opcodes": "PUSH1 0x80 PUSH1 0x40 MSTORE CALLVALUE DUP1 ISZERO PUSH2 0xF JUMPI PUSH0 DUP1 REVERT JUMPDEST POP PUSH1 0x1 PUSH0 PUSH1 0x40 MLOAD PUSH2 0x1F SWAP1 PUSH2 0xCF JUMP JUMPDEST SWAP1 DUP2 MSTORE PUSH1 0x20 ADD PUSH1 0x40 MLOAD DUP1 SWAP2 SUB SWAP1 KECCAK256 PUSH0 PUSH2 0x100 EXP DUP2 SLOAD DUP2 PUSH1 0xFF MUL NOT AND SWAP1 DUP4 ISZERO ISZERO MUL OR SWAP1 SSTORE POP PUSH1 0x1 PUSH0 PUSH1 0x40 MLOAD PUSH2 0x52 SWAP1 PUSH2 0x12D JUMP JUMPDEST SWAP1 DUP2 MSTORE PUSH1 0x20 ADD PUSH1 0x40 MLOAD DUP1 SWAP2 SUB SWAP1 KECCAK256 PUSH0 PUSH2 0x100 EXP DUP2 SLOAD DUP2 PUSH1 0xFF MUL NOT AND SWAP1 DUP4 ISZERO ISZERO MUL OR SWAP1 SSTORE POP PUSH2 0x141 JUMP JUMPDEST PUSH0 DUP2 SWAP1 POP SWAP3 SWAP2 POP POP JUMP JUMPDEST PUSH32 0x546872696C6C6572000000000000000000000000000000000000000000000000 PUSH0 DUP3 ADD MSTORE POP JUMP JUMPDEST PUSH0 PUSH2 0xB9 PUSH1 0x8 DUP4 PUSH2 0x7B JUMP JUMPDEST SWAP2 POP PUSH2 0xC4 DUP3 PUSH2 0x85 JUMP JUMPDEST PUSH1 0x8 DUP3 ADD SWAP1 POP SWAP2 SWAP1 POP JUMP JUMPDEST PUSH0 PUSH2 0xD9 DUP3 PUSH2 0xAD JUMP JUMPDEST SWAP2 POP DUP2 SWAP1 POP SWAP2 SWAP1 POP JUMP JUMPDEST PUSH32 0x4261636B20696E20426C61636B00000000000000000000000000000000000000 PUSH0 DUP3 ADD MSTORE POP JUMP JUMPDEST PUSH0 PUSH2 0x117 PUSH1 0xD DUP4 PUSH2 0x7B JUMP JUMPDEST SWAP2 POP PUSH2 0x122 DUP3 PUSH2 0xE3 JUMP JUMPDEST PUSH1 0xD DUP3 ADD SWAP1 POP SWAP2 SWAP1 POP JUMP JUMPDEST PUSH0 PUSH2 0x137 DUP3 PUSH2 0x10B JUMP JUMPDEST SWAP2 POP DUP2 SWAP1 POP SWAP2 SWAP1 POP JUMP JUMPDEST PUSH2 0x5A0 DUP1 PUSH2 0x14E PUSH0 CODECOPY PUSH0 RETURN INVALID PUSH1 0x80 PUSH1 0x40 MSTORE CALLVALUE DUP1 ISZERO PUSH2 0xF JUMPI PUSH0 DUP1 REVERT JUMPDEST POP PUSH1 0x4 CALLDATASIZE LT PUSH2 0x3F JUMPI PUSH0 CALLDATALOAD PUSH1 0xE0 SHR DUP1 PUSH4 0xA2787D9E EQ PUSH2 0x43 JUMPI DUP1 PUSH4 0xC75C333C EQ PUSH2 0x73 JUMPI DUP1 PUSH4 0xD81AA8C4 EQ PUSH2 0xA3 JUMPI JUMPDEST PUSH0 DUP1 REVERT JUMPDEST PUSH2 0x5D PUSH1 0x4 DUP1 CALLDATASIZE SUB DUP2 ADD SWAP1 PUSH2 0x58 SWAP2 SWAP1 PUSH2 0x35C JUMP JUMPDEST PUSH2 0xBF JUMP JUMPDEST PUSH1 0x40 MLOAD PUSH2 0x6A SWAP2 SWAP1 PUSH2 0x3BD JUMP JUMPDEST PUSH1 0x40 MLOAD DUP1 SWAP2 SUB SWAP1 RETURN JUMPDEST PUSH2 0x8D PUSH1 0x4 DUP1 CALLDATASIZE SUB DUP2 ADD SWAP1 PUSH2 0x88 SWAP2 SWAP1 PUSH2 0x430 JUMP JUMPDEST PUSH2 0xF1 JUMP JUMPDEST PUSH1 0x40 MLOAD PUSH2 0x9A SWAP2 SWAP1 PUSH2 0x3BD JUMP JUMPDEST PUSH1 0x40 MLOAD DUP1 SWAP2 SUB SWAP1 RETURN JUMPDEST PUSH2 0xBD PUSH1 0x4 DUP1 CALLDATASIZE SUB DUP2 ADD SWAP1 PUSH2 0xB8 SWAP2 SWAP1 PUSH2 0x35C JUMP JUMPDEST PUSH2 0x133 JUMP JUMPDEST STOP JUMPDEST PUSH0 DUP1 DUP3 PUSH1 0x40 MLOAD PUSH2 0xCF SWAP2 SWAP1 PUSH2 0x4DC JUMP JUMPDEST SWAP1 DUP2 MSTORE PUSH1 0x20 ADD PUSH1 0x40 MLOAD DUP1 SWAP2 SUB SWAP1 KECCAK256 PUSH0 SWAP1 SLOAD SWAP1 PUSH2 0x100 EXP SWAP1 DIV PUSH1 0xFF AND SWAP1 POP SWAP2 SWAP1 POP JUMP JUMPDEST PUSH1 0x1 PUSH1 0x20 MSTORE DUP2 PUSH0 MSTORE PUSH1 0x40 PUSH0 KECCAK256 DUP2 DUP1 MLOAD PUSH1 0x20 DUP2 ADD DUP3 ADD DUP1 MLOAD DUP5 DUP3 MSTORE PUSH1 0x20 DUP4 ADD PUSH1 0x20 DUP6 ADD KECCAK256 DUP2 DUP4 MSTORE DUP1 SWAP6 POP POP POP POP POP POP PUSH0 SWAP2 POP SWAP2 POP SWAP1 SLOAD SWAP1 PUSH2 0x100 EXP SWAP1 DIV PUSH1 0xFF AND DUP2 JUMP JUMPDEST PUSH0 DUP2 PUSH1 0x40 MLOAD PUSH2 0x142 SWAP2 SWAP1 PUSH2 0x4DC JUMP JUMPDEST SWAP1 DUP2 MSTORE PUSH1 0x20 ADD PUSH1 0x40 MLOAD DUP1 SWAP2 SUB SWAP1 KECCAK256 PUSH0 SWAP1 SLOAD SWAP1 PUSH2 0x100 EXP SWAP1 DIV PUSH1 0xFF AND PUSH2 0x19C JUMPI PUSH1 0x40 MLOAD PUSH32 0x8C379A000000000000000000000000000000000000000000000000000000000 DUP2 MSTORE PUSH1 0x4 ADD PUSH2 0x193 SWAP1 PUSH2 0x54C JUMP JUMPDEST PUSH1 0x40 MLOAD DUP1 SWAP2 SUB SWAP1 REVERT JUMPDEST PUSH1 0x1 DUP1 PUSH0 CALLER PUSH20 0xFFFFFFFFFFFFFFFFFFFFFFFFFFFFFFFFFFFFFFFF AND PUSH20 0xFFFFFFFFFFFFFFFFFFFFFFFFFFFFFFFFFFFFFFFF AND DUP2 MSTORE PUSH1 0x20 ADD SWAP1 DUP2 MSTORE PUSH1 0x20 ADD PUSH0 KECCAK256 DUP3 PUSH1 0x40 MLOAD PUSH2 0x1E8 SWAP2 SWAP1 PUSH2 0x4DC JUMP JUMPDEST SWAP1 DUP2 MSTORE PUSH1 0x20 ADD PUSH1 0x40 MLOAD DUP1 SWAP2 SUB SWAP1 KECCAK256 PUSH0 PUSH2 0x100 EXP DUP2 SLOAD DUP2 PUSH1 0xFF MUL NOT AND SWAP1 DUP4 ISZERO ISZERO MUL OR SWAP1 SSTORE POP POP JUMP JUMPDEST PUSH0 PUSH1 0x40 MLOAD SWAP1 POP SWAP1 JUMP JUMPDEST PUSH0 DUP1 REVERT JUMPDEST PUSH0 DUP1 REVERT JUMPDEST PUSH0 DUP1 REVERT JUMPDEST PUSH0 DUP1 REVERT JUMPDEST PUSH0 PUSH1 0x1F NOT PUSH1 0x1F DUP4 ADD AND SWAP1 POP SWAP2 SWAP1 POP JUMP JUMPDEST PUSH32 0x4E487B7100000000000000000000000000000000000000000000000000000000 PUSH0 MSTORE PUSH1 0x41 PUSH1 0x4 MSTORE PUSH1 0x24 PUSH0 REVERT JUMPDEST PUSH2 0x26E DUP3 PUSH2 0x228 JUMP JUMPDEST DUP2 ADD DUP2 DUP2 LT PUSH8 0xFFFFFFFFFFFFFFFF DUP3 GT OR ISZERO PUSH2 0x28D JUMPI PUSH2 0x28C PUSH2 0x238 JUMP JUMPDEST JUMPDEST DUP1 PUSH1 0x40 MSTORE POP POP POP JUMP JUMPDEST PUSH0 PUSH2 0x29F PUSH2 0x20F JUMP JUMPDEST SWAP1 POP PUSH2 0x2AB DUP3 DUP3 PUSH2 0x265 JUMP JUMPDEST SWAP2 SWAP1 POP JUMP JUMPDEST PUSH0 PUSH8 0xFFFFFFFFFFFFFFFF DUP3 GT ISZERO PUSH2 0x2CA JUMPI PUSH2 0x2C9 PUSH2 0x238 JUMP JUMPDEST JUMPDEST PUSH2 0x2D3 DUP3 PUSH2 0x228 JUMP JUMPDEST SWAP1 POP PUSH1 0x20 DUP2 ADD SWAP1 POP SWAP2 SWAP1 POP JUMP JUMPDEST DUP3 DUP2 DUP4 CALLDATACOPY PUSH0 DUP4 DUP4 ADD MSTORE POP POP POP JUMP JUMPDEST PUSH0 PUSH2 0x300 PUSH2 0x2FB DUP5 PUSH2 0x2B0 JUMP JUMPDEST PUSH2 0x296 JUMP JUMPDEST SWAP1 POP DUP3 DUP2 MSTORE PUSH1 0x20 DUP2 ADD DUP5 DUP5 DUP5 ADD GT ISZERO PUSH2 0x31C JUMPI PUSH2 0x31B PUSH2 0x224 JUMP JUMPDEST JUMPDEST PUSH2 0x327 DUP5 DUP3 DUP6 PUSH2 0x2E0 JUMP JUMPDEST POP SWAP4 SWAP3 POP POP POP JUMP JUMPDEST PUSH0 DUP3 PUSH1 0x1F DUP4 ADD SLT PUSH2 0x343 JUMPI PUSH2 0x342 PUSH2 0x220 JUMP JUMPDEST JUMPDEST DUP2 CALLDATALOAD PUSH2 0x353 DUP5 DUP3 PUSH1 0x20 DUP7 ADD PUSH2 0x2EE JUMP JUMPDEST SWAP2 POP POP SWAP3 SWAP2 POP POP JUMP JUMPDEST PUSH0 PUSH1 0x20 DUP3 DUP5 SUB SLT ISZERO PUSH2 0x371 JUMPI PUSH2 0x370 PUSH2 0x218 JUMP JUMPDEST JUMPDEST PUSH0 DUP3 ADD CALLDATALOAD PUSH8 0xFFFFFFFFFFFFFFFF DUP2 GT ISZERO PUSH2 0x38E JUMPI PUSH2 0x38D PUSH2 0x21C JUMP JUMPDEST JUMPDEST PUSH2 0x39A DUP5 DUP3 DUP6 ADD PUSH2 0x32F JUMP JUMPDEST SWAP2 POP POP SWAP3 SWAP2 POP POP JUMP JUMPDEST PUSH0 DUP2 ISZERO ISZERO SWAP1 POP SWAP2 SWAP1 POP JUMP JUMPDEST PUSH2 0x3B7 DUP2 PUSH2 0x3A3 JUMP JUMPDEST DUP3 MSTORE POP POP JUMP JUMPDEST PUSH0 PUSH1 0x20 DUP3 ADD SWAP1 POP PUSH2 0x3D0 PUSH0 DUP4 ADD DUP5 PUSH2 0x3AE JUMP JUMPDEST SWAP3 SWAP2 POP POP JUMP JUMPDEST PUSH0 PUSH20 0xFFFFFFFFFFFFFFFFFFFFFFFFFFFFFFFFFFFFFFFF DUP3 AND SWAP1 POP SWAP2 SWAP1 POP JUMP JUMPDEST PUSH0 PUSH2 0x3FF DUP3 PUSH2 0x3D6 JUMP JUMPDEST SWAP1 POP SWAP2 SWAP1 POP JUMP JUMPDEST PUSH2 0x40F DUP2 PUSH2 0x3F5 JUMP JUMPDEST DUP2 EQ PUSH2 0x419 JUMPI PUSH0 DUP1 REVERT JUMPDEST POP JUMP JUMPDEST PUSH0 DUP2 CALLDATALOAD SWAP1 POP PUSH2 0x42A DUP2 PUSH2 0x406 JUMP JUMPDEST SWAP3 SWAP2 POP POP JUMP JUMPDEST PUSH0 DUP1 PUSH1 0x40 DUP4 DUP6 SUB SLT ISZERO PUSH2 0x446 JUMPI PUSH2 0x445 PUSH2 0x218 JUMP JUMPDEST JUMPDEST PUSH0 PUSH2 0x453 DUP6 DUP3 DUP7 ADD PUSH2 0x41C JUMP JUMPDEST SWAP3 POP POP PUSH1 0x20 DUP4 ADD CALLDATALOAD PUSH8 0xFFFFFFFFFFFFFFFF DUP2 GT ISZERO PUSH2 0x474 JUMPI PUSH2 0x473 PUSH2 0x21C JUMP JUMPDEST JUMPDEST PUSH2 0x480 DUP6 DUP3 DUP7 ADD PUSH2 0x32F JUMP JUMPDEST SWAP2 POP POP SWAP3 POP SWAP3 SWAP1 POP JUMP JUMPDEST PUSH0 DUP2 MLOAD SWAP1 POP SWAP2 SWAP1 POP JUMP JUMPDEST PUSH0 DUP2 SWAP1 POP SWAP3 SWAP2 POP POP JUMP JUMPDEST DUP3 DUP2 DUP4 MCOPY PUSH0 DUP4 DUP4 ADD MSTORE POP POP POP JUMP JUMPDEST PUSH0 PUSH2 0x4B6 DUP3 PUSH2 0x48A JUMP JUMPDEST PUSH2 0x4C0 DUP2 DUP6 PUSH2 0x494 JUMP JUMPDEST SWAP4 POP PUSH2 0x4D0 DUP2 DUP6 PUSH1 0x20 DUP7 ADD PUSH2 0x49E JUMP JUMPDEST DUP1 DUP5 ADD SWAP2 POP POP SWAP3 SWAP2 POP POP JUMP JUMPDEST PUSH0 PUSH2 0x4E7 DUP3 DUP5 PUSH2 0x4AC JUMP JUMPDEST SWAP2 POP DUP2 SWAP1 POP SWAP3 SWAP2 POP POP JUMP JUMPDEST PUSH0 DUP3 DUP3 MSTORE PUSH1 0x20 DUP3 ADD SWAP1 POP SWAP3 SWAP2 POP POP JUMP JUMPDEST PUSH32 0x456C20616C62756D206E6F2065737461206170726F6261646F00000000000000 PUSH0 DUP3 ADD MSTORE POP JUMP JUMPDEST PUSH0 PUSH2 0x536 PUSH1 0x19 DUP4 PUSH2 0x4F2 JUMP JUMPDEST SWAP2 POP PUSH2 0x541 DUP3 PUSH2 0x502 JUMP JUMPDEST PUSH1 0x20 DUP3 ADD SWAP1 POP SWAP2 SWAP1 POP JUMP JUMPDEST PUSH0 PUSH1 0x20 DUP3 ADD SWAP1 POP DUP2 DUP2 SUB PUSH0 DUP4 ADD MSTORE PUSH2 0x563 DUP2 PUSH2 0x52A JUMP JUMPDEST SWAP1 POP SWAP2 SWAP1 POP JUMP INVALID LOG2 PUSH5 0x6970667358 0x22 SLT KECCAK256 0x4B DUP11 PUSH2 0x8CC6 SIGNEXTEND DELEGATECALL DUP14 PREVRANDAO SWAP2 0x2D 0x23 0xB3 0xCD 0xC7 LOG4 CHAINID 0xE1 ADDRESS 0x29 SWAP11 0x22 SHR JUMPDEST 0x28 DUP16 DUP16 MCOPY SLOAD 0xE7 CODESIZE SLT PUSH5 0x736F6C6343 STOP ADDMOD BYTE STOP CALLER "
				},
				"gasEstimates": {
					"creation": {
						"codeDepositCost": "288000",
						"executionCost": "infinite",
						"totalCost": "infinite"
					},
					"external": {
						"addRecord(string)": "infinite",
						"obtienevaloralbum(string)": "infinite",
						"userFavorites(address,string)": "infinite"
					}
				},
				"methodIdentifiers": {
					"addRecord(string)": "d81aa8c4",
					"obtienevaloralbum(string)": "a2787d9e",
					"userFavorites(address,string)": "c75c333c"
				}
			},
			"storageLayout": {
				"storage": [
					{
						"astId": 5,
						"contract": "contracts/BaseLearn/FavoriteRecords3.sol:FavoriteRecords",
						"label": "approvedRecords",
						"offset": 0,
						"slot": "0",
						"type": "t_mapping(t_string_memory_ptr,t_bool)"
					},
					{
						"astId": 11,
						"contract": "contracts/BaseLearn/FavoriteRecords3.sol:FavoriteRecords",
						"label": "userFavorites",
						"offset": 0,
						"slot": "1",
						"type": "t_mapping(t_address,t_mapping(t_string_memory_ptr,t_bool))"
					}
				],
				"types": {
					"t_address": {
						"encoding": "inplace",
						"label": "address",
						"numberOfBytes": "20"
					},
					"t_bool": {
						"encoding": "inplace",
						"label": "bool",
						"numberOfBytes": "1"
					},
					"t_mapping(t_address,t_mapping(t_string_memory_ptr,t_bool))": {
						"encoding": "mapping",
						"key": "t_address",
						"label": "mapping(address => mapping(string => bool))",
						"numberOfBytes": "32",
						"value": "t_mapping(t_string_memory_ptr,t_bool)"
					},
					"t_mapping(t_string_memory_ptr,t_bool)": {
						"encoding": "mapping",
						"key": "t_string_memory_ptr",
						"label": "mapping(string => bool)",
						"numberOfBytes": "32",
						"value": "t_bool"
					},
					"t_string_memory_ptr": {
						"encoding": "bytes",
						"label": "string",
						"numberOfBytes": "32"
					}
				}
			},
			"userdoc": {
				"kind": "user",
				"methods": {},
				"version": 1
			}
		}
	}
}