{
	"contracts/BaseLearn/UnburnableToken.sol": {
		"UnburnableToken": {
			"abi": [
				{
					"inputs": [],
					"stateMutability": "nonpayable",
					"type": "constructor"
				},
				{
					"inputs": [],
					"name": "AllTokensClaimed",
					"type": "error"
				},
				{
					"inputs": [],
					"name": "TokensClaimed",
					"type": "error"
				},
				{
					"inputs": [
						{
							"internalType": "address",
							"name": "_direccion",
							"type": "address"
						}
					],
					"name": "UnsafeTransfer",
					"type": "error"
				},
				{
					"inputs": [
						{
							"internalType": "address",
							"name": "",
							"type": "address"
						}
					],
					"name": "balances",
					"outputs": [
						{
							"internalType": "uint256",
							"name": "",
							"type": "uint256"
						}
					],
					"stateMutability": "view",
					"type": "function"
				},
				{
					"inputs": [],
					"name": "claim",
					"outputs": [],
					"stateMutability": "nonpayable",
					"type": "function"
				},
				{
					"inputs": [],
					"name": "getAllBalances",
					"outputs": [
						{
							"internalType": "address[]",
							"name": "",
							"type": "address[]"
						},
						{
							"internalType": "uint256[]",
							"name": "",
							"type": "uint256[]"
						}
					],
					"stateMutability": "view",
					"type": "function"
				},
				{
					"inputs": [
						{
							"internalType": "address",
							"name": "_to",
							"type": "address"
						},
						{
							"internalType": "uint256",
							"name": "_amount",
							"type": "uint256"
						}
					],
					"name": "safeTransfer",
					"outputs": [],
					"stateMutability": "nonpayable",
					"type": "function"
				},
				{
					"inputs": [],
					"name": "totalClaimed",
					"outputs": [
						{
							"internalType": "uint256",
							"name": "",
							"type": "uint256"
						}
					],
					"stateMutability": "view",
					"type": "function"
				},
				{
					"inputs": [],
					"name": "totalSupply",
					"outputs": [
						{
							"internalType": "uint256",
							"name": "",
							"type": "uint256"
						}
					],
					"stateMutability": "view",
					"type": "function"
				}
			],
			"devdoc": {
				"details": "Contrato que gestiona un token que no puede ser quemado,      permitiendo a los usuarios reclamar tokens y transferirlos de manera segura.",
				"kind": "dev",
				"methods": {
					"claim()": {
						"details": "Permite a un usuario reclamar una cantidad fija de tokens."
					},
					"constructor": {
						"details": "Constructor que inicializa el suministro total del token."
					},
					"getAllBalances()": {
						"details": "Obtiene todas las direcciones con saldo y sus respectivos valores.",
						"returns": {
							"_0": "Un arreglo con las direcciones y otro con los saldos correspondientes."
						}
					},
					"safeTransfer(address,uint256)": {
						"details": "Realiza una transferencia segura de tokens entre usuarios.",
						"params": {
							"_amount": "Cantidad de tokens a transferir.",
							"_to": "Dirección del destinatario."
						}
					}
				},
				"title": "UnburnableToken",
				"version": 1
			},
			"evm": {
				"assembly": "    /* \"contracts/BaseLearn/UnburnableToken.sol\":249:3933  contract UnburnableToken {... */\n  mstore(0x40, 0x80)\n    /* \"contracts/BaseLearn/UnburnableToken.sol\":928:932  1000 */\n  0x03e8\n    /* \"contracts/BaseLearn/UnburnableToken.sol\":898:932  uint256 private claimAmount = 1000 */\n  0x03\n  sstore\n    /* \"contracts/BaseLearn/UnburnableToken.sol\":1173:1224  constructor() {... */\n  callvalue\n  dup1\n  iszero\n  tag_1\n  jumpi\n  0x00\n  dup1\n  revert\ntag_1:\n  pop\n    /* \"contracts/BaseLearn/UnburnableToken.sol\":1211:1217  100000 */\n  0x0186a0\n    /* \"contracts/BaseLearn/UnburnableToken.sol\":1197:1208  totalSupply */\n  0x01\n    /* \"contracts/BaseLearn/UnburnableToken.sol\":1197:1217  totalSupply = 100000 */\n  dup2\n  swap1\n  sstore\n  pop\n    /* \"contracts/BaseLearn/UnburnableToken.sol\":249:3933  contract UnburnableToken {... */\n  dataSize(sub_0)\n  dup1\n  dataOffset(sub_0)\n  0x00\n  codecopy\n  0x00\n  return\nstop\n\nsub_0: assembly {\n        /* \"contracts/BaseLearn/UnburnableToken.sol\":249:3933  contract UnburnableToken {... */\n      mstore(0x40, 0x80)\n      callvalue\n      dup1\n      iszero\n      tag_1\n      jumpi\n      0x00\n      dup1\n      revert\n    tag_1:\n      pop\n      jumpi(tag_2, lt(calldatasize, 0x04))\n      shr(0xe0, calldataload(0x00))\n      dup1\n      0x18160ddd\n      eq\n      tag_3\n      jumpi\n      dup1\n      0x27e235e3\n      eq\n      tag_4\n      jumpi\n      dup1\n      0x423f6cef\n      eq\n      tag_5\n      jumpi\n      dup1\n      0x4e71d92d\n      eq\n      tag_6\n      jumpi\n      dup1\n      0x867e7c27\n      eq\n      tag_7\n      jumpi\n      dup1\n      0xd54ad2a1\n      eq\n      tag_8\n      jumpi\n    tag_2:\n      0x00\n      dup1\n      revert\n        /* \"contracts/BaseLearn/UnburnableToken.sol\":765:791  uint256 public totalSupply */\n    tag_3:\n      tag_9\n      tag_10\n      jump\t// in\n    tag_9:\n      mload(0x40)\n      tag_11\n      swap2\n      swap1\n      tag_12\n      jump\t// in\n    tag_11:\n      mload(0x40)\n      dup1\n      swap2\n      sub\n      swap1\n      return\n        /* \"contracts/BaseLearn/UnburnableToken.sol\":715:758  mapping(address => uint256) public balances */\n    tag_4:\n      tag_13\n      0x04\n      dup1\n      calldatasize\n      sub\n      dup2\n      add\n      swap1\n      tag_14\n      swap2\n      swap1\n      tag_15\n      jump\t// in\n    tag_14:\n      tag_16\n      jump\t// in\n    tag_13:\n      mload(0x40)\n      tag_17\n      swap2\n      swap1\n      tag_12\n      jump\t// in\n    tag_17:\n      mload(0x40)\n      dup1\n      swap2\n      sub\n      swap1\n      return\n        /* \"contracts/BaseLearn/UnburnableToken.sol\":2941:3931  function safeTransfer(address _to, uint256 _amount) public {... */\n    tag_5:\n      tag_18\n      0x04\n      dup1\n      calldatasize\n      sub\n      dup2\n      add\n      swap1\n      tag_19\n      swap2\n      swap1\n      tag_20\n      jump\t// in\n    tag_19:\n      tag_21\n      jump\t// in\n    tag_18:\n      stop\n        /* \"contracts/BaseLearn/UnburnableToken.sol\":1467:2022  function claim() external {... */\n    tag_6:\n      tag_22\n      tag_23\n      jump\t// in\n    tag_22:\n      stop\n        /* \"contracts/BaseLearn/UnburnableToken.sol\":2209:2663  function getAllBalances()... */\n    tag_7:\n      tag_24\n      tag_25\n      jump\t// in\n    tag_24:\n      mload(0x40)\n      tag_26\n      swap3\n      swap2\n      swap1\n      tag_27\n      jump\t// in\n    tag_26:\n      mload(0x40)\n      dup1\n      swap2\n      sub\n      swap1\n      return\n        /* \"contracts/BaseLearn/UnburnableToken.sol\":827:854  uint256 public totalClaimed */\n    tag_8:\n      tag_28\n      tag_29\n      jump\t// in\n    tag_28:\n      mload(0x40)\n      tag_30\n      swap2\n      swap1\n      tag_12\n      jump\t// in\n    tag_30:\n      mload(0x40)\n      dup1\n      swap2\n      sub\n      swap1\n      return\n        /* \"contracts/BaseLearn/UnburnableToken.sol\":765:791  uint256 public totalSupply */\n    tag_10:\n      sload(0x01)\n      dup2\n      jump\t// out\n        /* \"contracts/BaseLearn/UnburnableToken.sol\":715:758  mapping(address => uint256) public balances */\n    tag_16:\n      mstore(0x20, 0x00)\n      dup1\n      0x00\n      mstore\n      keccak256(0x00, 0x40)\n      0x00\n      swap2\n      pop\n      swap1\n      pop\n      sload\n      dup2\n      jump\t// out\n        /* \"contracts/BaseLearn/UnburnableToken.sol\":2941:3931  function safeTransfer(address _to, uint256 _amount) public {... */\n    tag_21:\n        /* \"contracts/BaseLearn/UnburnableToken.sol\":3142:3149  _amount */\n      dup1\n        /* \"contracts/BaseLearn/UnburnableToken.sol\":3119:3127  balances */\n      0x00\n        /* \"contracts/BaseLearn/UnburnableToken.sol\":3119:3139  balances[msg.sender] */\n      dup1\n        /* \"contracts/BaseLearn/UnburnableToken.sol\":3128:3138  msg.sender */\n      caller\n        /* \"contracts/BaseLearn/UnburnableToken.sol\":3119:3139  balances[msg.sender] */\n      0xffffffffffffffffffffffffffffffffffffffff\n      and\n      0xffffffffffffffffffffffffffffffffffffffff\n      and\n      dup2\n      mstore\n      0x20\n      add\n      swap1\n      dup2\n      mstore\n      0x20\n      add\n      0x00\n      keccak256\n      sload\n        /* \"contracts/BaseLearn/UnburnableToken.sol\":3119:3149  balances[msg.sender] < _amount */\n      lt\n        /* \"contracts/BaseLearn/UnburnableToken.sol\":3119:3170  balances[msg.sender] < _amount || _to == address(0) */\n      dup1\n      tag_32\n      jumpi\n      pop\n        /* \"contracts/BaseLearn/UnburnableToken.sol\":3168:3169  0 */\n      0x00\n        /* \"contracts/BaseLearn/UnburnableToken.sol\":3153:3170  _to == address(0) */\n      0xffffffffffffffffffffffffffffffffffffffff\n      and\n        /* \"contracts/BaseLearn/UnburnableToken.sol\":3153:3156  _to */\n      dup3\n        /* \"contracts/BaseLearn/UnburnableToken.sol\":3153:3170  _to == address(0) */\n      0xffffffffffffffffffffffffffffffffffffffff\n      and\n      eq\n        /* \"contracts/BaseLearn/UnburnableToken.sol\":3119:3170  balances[msg.sender] < _amount || _to == address(0) */\n    tag_32:\n        /* \"contracts/BaseLearn/UnburnableToken.sol\":3115:3224  if (balances[msg.sender] < _amount || _to == address(0))... */\n      iszero\n      tag_33\n      jumpi\n        /* \"contracts/BaseLearn/UnburnableToken.sol\":3219:3222  _to */\n      dup2\n        /* \"contracts/BaseLearn/UnburnableToken.sol\":3191:3224  UnsafeTransfer({_direccion: _to}) */\n      mload(0x40)\n      0x6a86d24c00000000000000000000000000000000000000000000000000000000\n      dup2\n      mstore\n      0x04\n      add\n      tag_34\n      swap2\n      swap1\n      tag_35\n      jump\t// in\n    tag_34:\n      mload(0x40)\n      dup1\n      swap2\n      sub\n      swap1\n      revert\n        /* \"contracts/BaseLearn/UnburnableToken.sol\":3115:3224  if (balances[msg.sender] < _amount || _to == address(0))... */\n    tag_33:\n        /* \"contracts/BaseLearn/UnburnableToken.sol\":3332:3333  0 */\n      0x00\n        /* \"contracts/BaseLearn/UnburnableToken.sol\":3317:3320  _to */\n      dup3\n        /* \"contracts/BaseLearn/UnburnableToken.sol\":3317:3328  _to.balance */\n      0xffffffffffffffffffffffffffffffffffffffff\n      and\n      balance\n        /* \"contracts/BaseLearn/UnburnableToken.sol\":3317:3333  _to.balance == 0 */\n      sub\n        /* \"contracts/BaseLearn/UnburnableToken.sol\":3313:3375  if (_to.balance == 0) revert UnsafeTransfer({_direccion: _to}) */\n      tag_36\n      jumpi\n        /* \"contracts/BaseLearn/UnburnableToken.sol\":3370:3373  _to */\n      dup2\n        /* \"contracts/BaseLearn/UnburnableToken.sol\":3342:3375  UnsafeTransfer({_direccion: _to}) */\n      mload(0x40)\n      0x6a86d24c00000000000000000000000000000000000000000000000000000000\n      dup2\n      mstore\n      0x04\n      add\n      tag_37\n      swap2\n      swap1\n      tag_35\n      jump\t// in\n    tag_37:\n      mload(0x40)\n      dup1\n      swap2\n      sub\n      swap1\n      revert\n        /* \"contracts/BaseLearn/UnburnableToken.sol\":3313:3375  if (_to.balance == 0) revert UnsafeTransfer({_direccion: _to}) */\n    tag_36:\n        /* \"contracts/BaseLearn/UnburnableToken.sol\":3456:3463  _amount */\n      dup1\n        /* \"contracts/BaseLearn/UnburnableToken.sol\":3432:3440  balances */\n      0x00\n        /* \"contracts/BaseLearn/UnburnableToken.sol\":3432:3452  balances[msg.sender] */\n      dup1\n        /* \"contracts/BaseLearn/UnburnableToken.sol\":3441:3451  msg.sender */\n      caller\n        /* \"contracts/BaseLearn/UnburnableToken.sol\":3432:3452  balances[msg.sender] */\n      0xffffffffffffffffffffffffffffffffffffffff\n      and\n      0xffffffffffffffffffffffffffffffffffffffff\n      and\n      dup2\n      mstore\n      0x20\n      add\n      swap1\n      dup2\n      mstore\n      0x20\n      add\n      0x00\n      keccak256\n      0x00\n        /* \"contracts/BaseLearn/UnburnableToken.sol\":3432:3463  balances[msg.sender] -= _amount */\n      dup3\n      dup3\n      sload\n      tag_38\n      swap2\n      swap1\n      tag_39\n      jump\t// in\n    tag_38:\n      swap3\n      pop\n      pop\n      dup2\n      swap1\n      sstore\n      pop\n        /* \"contracts/BaseLearn/UnburnableToken.sol\":3490:3497  _amount */\n      dup1\n        /* \"contracts/BaseLearn/UnburnableToken.sol\":3473:3481  balances */\n      0x00\n        /* \"contracts/BaseLearn/UnburnableToken.sol\":3473:3486  balances[_to] */\n      dup1\n        /* \"contracts/BaseLearn/UnburnableToken.sol\":3482:3485  _to */\n      dup5\n        /* \"contracts/BaseLearn/UnburnableToken.sol\":3473:3486  balances[_to] */\n      0xffffffffffffffffffffffffffffffffffffffff\n      and\n      0xffffffffffffffffffffffffffffffffffffffff\n      and\n      dup2\n      mstore\n      0x20\n      add\n      swap1\n      dup2\n      mstore\n      0x20\n      add\n      0x00\n      keccak256\n      0x00\n        /* \"contracts/BaseLearn/UnburnableToken.sol\":3473:3497  balances[_to] += _amount */\n      dup3\n      dup3\n      sload\n      tag_40\n      swap2\n      swap1\n      tag_41\n      jump\t// in\n    tag_40:\n      swap3\n      pop\n      pop\n      dup2\n      swap1\n      sstore\n      pop\n        /* \"contracts/BaseLearn/UnburnableToken.sol\":3577:3588  bool existe */\n      0x00\n        /* \"contracts/BaseLearn/UnburnableToken.sol\":3603:3612  uint256 i */\n      dup1\n        /* \"contracts/BaseLearn/UnburnableToken.sol\":3615:3616  0 */\n      0x00\n        /* \"contracts/BaseLearn/UnburnableToken.sol\":3603:3616  uint256 i = 0 */\n      swap1\n      pop\n        /* \"contracts/BaseLearn/UnburnableToken.sol\":3598:3818  for (uint256 i = 0; i < balancesarray.length; i++) {... */\n    tag_42:\n        /* \"contracts/BaseLearn/UnburnableToken.sol\":3622:3635  balancesarray */\n      0x04\n        /* \"contracts/BaseLearn/UnburnableToken.sol\":3622:3642  balancesarray.length */\n      dup1\n      sload\n      swap1\n      pop\n        /* \"contracts/BaseLearn/UnburnableToken.sol\":3618:3619  i */\n      dup2\n        /* \"contracts/BaseLearn/UnburnableToken.sol\":3618:3642  i < balancesarray.length */\n      lt\n        /* \"contracts/BaseLearn/UnburnableToken.sol\":3598:3818  for (uint256 i = 0; i < balancesarray.length; i++) {... */\n      iszero\n      tag_43\n      jumpi\n        /* \"contracts/BaseLearn/UnburnableToken.sol\":3687:3690  _to */\n      dup4\n        /* \"contracts/BaseLearn/UnburnableToken.sol\":3667:3690  balancesarray[i] == _to */\n      0xffffffffffffffffffffffffffffffffffffffff\n      and\n        /* \"contracts/BaseLearn/UnburnableToken.sol\":3667:3680  balancesarray */\n      0x04\n        /* \"contracts/BaseLearn/UnburnableToken.sol\":3681:3682  i */\n      dup3\n        /* \"contracts/BaseLearn/UnburnableToken.sol\":3667:3683  balancesarray[i] */\n      dup2\n      sload\n      dup2\n      lt\n      tag_45\n      jumpi\n      tag_46\n      tag_47\n      jump\t// in\n    tag_46:\n    tag_45:\n      swap1\n      0x00\n      mstore\n      keccak256(0x00, 0x20)\n      add\n      0x00\n      swap1\n      sload\n      swap1\n      0x0100\n      exp\n      swap1\n      div\n      0xffffffffffffffffffffffffffffffffffffffff\n      and\n        /* \"contracts/BaseLearn/UnburnableToken.sol\":3667:3690  balancesarray[i] == _to */\n      0xffffffffffffffffffffffffffffffffffffffff\n      and\n      sub\n        /* \"contracts/BaseLearn/UnburnableToken.sol\":3663:3808  if (balancesarray[i] == _to) {... */\n      tag_49\n      jumpi\n        /* \"contracts/BaseLearn/UnburnableToken.sol\":3719:3723  true */\n      0x01\n        /* \"contracts/BaseLearn/UnburnableToken.sol\":3710:3723  existe = true */\n      swap2\n      pop\n        /* \"contracts/BaseLearn/UnburnableToken.sol\":3741:3746  break */\n      jump(tag_43)\n        /* \"contracts/BaseLearn/UnburnableToken.sol\":3663:3808  if (balancesarray[i] == _to) {... */\n    tag_49:\n        /* \"contracts/BaseLearn/UnburnableToken.sol\":3644:3647  i++ */\n      dup1\n      dup1\n      0x01\n      add\n      swap2\n      pop\n      pop\n        /* \"contracts/BaseLearn/UnburnableToken.sol\":3598:3818  for (uint256 i = 0; i < balancesarray.length; i++) {... */\n      jump(tag_42)\n    tag_43:\n      pop\n        /* \"contracts/BaseLearn/UnburnableToken.sol\":3893:3899  existe */\n      dup1\n        /* \"contracts/BaseLearn/UnburnableToken.sol\":3888:3924  if (!existe) balancesarray.push(_to) */\n      tag_50\n      jumpi\n        /* \"contracts/BaseLearn/UnburnableToken.sol\":3901:3914  balancesarray */\n      0x04\n        /* \"contracts/BaseLearn/UnburnableToken.sol\":3920:3923  _to */\n      dup4\n        /* \"contracts/BaseLearn/UnburnableToken.sol\":3901:3924  balancesarray.push(_to) */\n      swap1\n      dup1\n      0x01\n      dup2\n      sload\n      add\n      dup1\n      dup3\n      sstore\n      dup1\n      swap2\n      pop\n      pop\n      0x01\n      swap1\n      sub\n      swap1\n      0x00\n      mstore\n      keccak256(0x00, 0x20)\n      add\n      0x00\n      swap1\n      swap2\n      swap1\n      swap2\n      swap1\n      swap2\n      0x0100\n      exp\n      dup2\n      sload\n      dup2\n      0xffffffffffffffffffffffffffffffffffffffff\n      mul\n      not\n      and\n      swap1\n      dup4\n      0xffffffffffffffffffffffffffffffffffffffff\n      and\n      mul\n      or\n      swap1\n      sstore\n      pop\n        /* \"contracts/BaseLearn/UnburnableToken.sol\":3888:3924  if (!existe) balancesarray.push(_to) */\n    tag_50:\n        /* \"contracts/BaseLearn/UnburnableToken.sol\":3000:3931  {... */\n      pop\n        /* \"contracts/BaseLearn/UnburnableToken.sol\":2941:3931  function safeTransfer(address _to, uint256 _amount) public {... */\n      pop\n      pop\n      jump\t// out\n        /* \"contracts/BaseLearn/UnburnableToken.sol\":1467:2022  function claim() external {... */\n    tag_23:\n        /* \"contracts/BaseLearn/UnburnableToken.sol\":1538:1549  totalSupply */\n      sload(0x01)\n        /* \"contracts/BaseLearn/UnburnableToken.sol\":1523:1534  claimAmount */\n      sload(0x03)\n        /* \"contracts/BaseLearn/UnburnableToken.sol\":1508:1520  totalClaimed */\n      sload(0x02)\n        /* \"contracts/BaseLearn/UnburnableToken.sol\":1508:1534  totalClaimed + claimAmount */\n      tag_53\n      swap2\n      swap1\n      tag_41\n      jump\t// in\n    tag_53:\n        /* \"contracts/BaseLearn/UnburnableToken.sol\":1507:1549  (totalClaimed + claimAmount) > totalSupply */\n      gt\n        /* \"contracts/BaseLearn/UnburnableToken.sol\":1503:1653  if ((totalClaimed + claimAmount) > totalSupply) {... */\n      iszero\n      tag_54\n      jumpi\n        /* \"contracts/BaseLearn/UnburnableToken.sol\":1572:1590  AllTokensClaimed() */\n      mload(0x40)\n      0xcbe2483100000000000000000000000000000000000000000000000000000000\n      dup2\n      mstore\n      0x04\n      add\n      mload(0x40)\n      dup1\n      swap2\n      sub\n      swap1\n      revert\n        /* \"contracts/BaseLearn/UnburnableToken.sol\":1503:1653  if ((totalClaimed + claimAmount) > totalSupply) {... */\n    tag_54:\n        /* \"contracts/BaseLearn/UnburnableToken.sol\":1690:1691  0 */\n      0x00\n        /* \"contracts/BaseLearn/UnburnableToken.sol\":1667:1675  balances */\n      dup1\n        /* \"contracts/BaseLearn/UnburnableToken.sol\":1667:1687  balances[msg.sender] */\n      0x00\n        /* \"contracts/BaseLearn/UnburnableToken.sol\":1676:1686  msg.sender */\n      caller\n        /* \"contracts/BaseLearn/UnburnableToken.sol\":1667:1687  balances[msg.sender] */\n      0xffffffffffffffffffffffffffffffffffffffff\n      and\n      0xffffffffffffffffffffffffffffffffffffffff\n      and\n      dup2\n      mstore\n      0x20\n      add\n      swap1\n      dup2\n      mstore\n      0x20\n      add\n      0x00\n      keccak256\n      sload\n        /* \"contracts/BaseLearn/UnburnableToken.sol\":1667:1691  balances[msg.sender] > 0 */\n      gt\n        /* \"contracts/BaseLearn/UnburnableToken.sol\":1663:1727  if (balances[msg.sender] > 0)... */\n      iszero\n      tag_55\n      jumpi\n        /* \"contracts/BaseLearn/UnburnableToken.sol\":1712:1727  TokensClaimed() */\n      mload(0x40)\n      0x0b1327a600000000000000000000000000000000000000000000000000000000\n      dup2\n      mstore\n      0x04\n      add\n      mload(0x40)\n      dup1\n      swap2\n      sub\n      swap1\n      revert\n        /* \"contracts/BaseLearn/UnburnableToken.sol\":1663:1727  if (balances[msg.sender] > 0)... */\n    tag_55:\n        /* \"contracts/BaseLearn/UnburnableToken.sol\":1802:1813  claimAmount */\n      sload(0x03)\n        /* \"contracts/BaseLearn/UnburnableToken.sol\":1786:1798  totalClaimed */\n      0x02\n      0x00\n        /* \"contracts/BaseLearn/UnburnableToken.sol\":1786:1813  totalClaimed += claimAmount */\n      dup3\n      dup3\n      sload\n      tag_56\n      swap2\n      swap1\n      tag_41\n      jump\t// in\n    tag_56:\n      swap3\n      pop\n      pop\n      dup2\n      swap1\n      sstore\n      pop\n        /* \"contracts/BaseLearn/UnburnableToken.sol\":1870:1883  balancesarray */\n      0x04\n        /* \"contracts/BaseLearn/UnburnableToken.sol\":1889:1899  msg.sender */\n      caller\n        /* \"contracts/BaseLearn/UnburnableToken.sol\":1870:1900  balancesarray.push(msg.sender) */\n      swap1\n      dup1\n      0x01\n      dup2\n      sload\n      add\n      dup1\n      dup3\n      sstore\n      dup1\n      swap2\n      pop\n      pop\n      0x01\n      swap1\n      sub\n      swap1\n      0x00\n      mstore\n      keccak256(0x00, 0x20)\n      add\n      0x00\n      swap1\n      swap2\n      swap1\n      swap2\n      swap1\n      swap2\n      0x0100\n      exp\n      dup2\n      sload\n      dup2\n      0xffffffffffffffffffffffffffffffffffffffff\n      mul\n      not\n      and\n      swap1\n      dup4\n      0xffffffffffffffffffffffffffffffffffffffff\n      and\n      mul\n      or\n      swap1\n      sstore\n      pop\n        /* \"contracts/BaseLearn/UnburnableToken.sol\":1972:1983  claimAmount */\n      sload(0x03)\n        /* \"contracts/BaseLearn/UnburnableToken.sol\":1948:1956  balances */\n      0x00\n        /* \"contracts/BaseLearn/UnburnableToken.sol\":1948:1968  balances[msg.sender] */\n      dup1\n        /* \"contracts/BaseLearn/UnburnableToken.sol\":1957:1967  msg.sender */\n      caller\n        /* \"contracts/BaseLearn/UnburnableToken.sol\":1948:1968  balances[msg.sender] */\n      0xffffffffffffffffffffffffffffffffffffffff\n      and\n      0xffffffffffffffffffffffffffffffffffffffff\n      and\n      dup2\n      mstore\n      0x20\n      add\n      swap1\n      dup2\n      mstore\n      0x20\n      add\n      0x00\n      keccak256\n      0x00\n        /* \"contracts/BaseLearn/UnburnableToken.sol\":1948:1983  balances[msg.sender] += claimAmount */\n      dup3\n      dup3\n      sload\n      tag_58\n      swap2\n      swap1\n      tag_41\n      jump\t// in\n    tag_58:\n      swap3\n      pop\n      pop\n      dup2\n      swap1\n      sstore\n      pop\n        /* \"contracts/BaseLearn/UnburnableToken.sol\":1467:2022  function claim() external {... */\n      jump\t// out\n        /* \"contracts/BaseLearn/UnburnableToken.sol\":2209:2663  function getAllBalances()... */\n    tag_25:\n        /* \"contracts/BaseLearn/UnburnableToken.sol\":2282:2298  address[] memory */\n      0x60\n        /* \"contracts/BaseLearn/UnburnableToken.sol\":2300:2316  uint256[] memory */\n      dup1\n        /* \"contracts/BaseLearn/UnburnableToken.sol\":2332:2346  uint256 length */\n      0x00\n        /* \"contracts/BaseLearn/UnburnableToken.sol\":2349:2362  balancesarray */\n      0x04\n        /* \"contracts/BaseLearn/UnburnableToken.sol\":2349:2369  balancesarray.length */\n      dup1\n      sload\n      swap1\n      pop\n        /* \"contracts/BaseLearn/UnburnableToken.sol\":2332:2369  uint256 length = balancesarray.length */\n      swap1\n      pop\n        /* \"contracts/BaseLearn/UnburnableToken.sol\":2379:2407  uint256[] memory allBalances */\n      0x00\n        /* \"contracts/BaseLearn/UnburnableToken.sol\":2424:2430  length */\n      dup2\n        /* \"contracts/BaseLearn/UnburnableToken.sol\":2410:2431  new uint256[](length) */\n      0xffffffffffffffff\n      dup2\n      gt\n      iszero\n      tag_60\n      jumpi\n      tag_61\n      tag_62\n      jump\t// in\n    tag_61:\n    tag_60:\n      mload(0x40)\n      swap1\n      dup1\n      dup3\n      mstore\n      dup1\n      0x20\n      mul\n      0x20\n      add\n      dup3\n      add\n      0x40\n      mstore\n      dup1\n      iszero\n      tag_63\n      jumpi\n      dup2\n      0x20\n      add\n      0x20\n      dup3\n      mul\n      dup1\n      calldatasize\n      dup4\n      calldatacopy\n      dup1\n      dup3\n      add\n      swap2\n      pop\n      pop\n      swap1\n      pop\n    tag_63:\n      pop\n        /* \"contracts/BaseLearn/UnburnableToken.sol\":2379:2431  uint256[] memory allBalances = new uint256[](length) */\n      swap1\n      pop\n        /* \"contracts/BaseLearn/UnburnableToken.sol\":2511:2520  uint256 i */\n      0x00\n        /* \"contracts/BaseLearn/UnburnableToken.sol\":2506:2611  for (uint256 i = 0; i < length; i++) {... */\n    tag_64:\n        /* \"contracts/BaseLearn/UnburnableToken.sol\":2530:2536  length */\n      dup3\n        /* \"contracts/BaseLearn/UnburnableToken.sol\":2526:2527  i */\n      dup2\n        /* \"contracts/BaseLearn/UnburnableToken.sol\":2526:2536  i < length */\n      lt\n        /* \"contracts/BaseLearn/UnburnableToken.sol\":2506:2611  for (uint256 i = 0; i < length; i++) {... */\n      iszero\n      tag_65\n      jumpi\n        /* \"contracts/BaseLearn/UnburnableToken.sol\":2574:2582  balances */\n      0x00\n        /* \"contracts/BaseLearn/UnburnableToken.sol\":2574:2600  balances[balancesarray[i]] */\n      dup1\n        /* \"contracts/BaseLearn/UnburnableToken.sol\":2583:2596  balancesarray */\n      0x04\n        /* \"contracts/BaseLearn/UnburnableToken.sol\":2597:2598  i */\n      dup4\n        /* \"contracts/BaseLearn/UnburnableToken.sol\":2583:2599  balancesarray[i] */\n      dup2\n      sload\n      dup2\n      lt\n      tag_67\n      jumpi\n      tag_68\n      tag_47\n      jump\t// in\n    tag_68:\n    tag_67:\n      swap1\n      0x00\n      mstore\n      keccak256(0x00, 0x20)\n      add\n      0x00\n      swap1\n      sload\n      swap1\n      0x0100\n      exp\n      swap1\n      div\n      0xffffffffffffffffffffffffffffffffffffffff\n      and\n        /* \"contracts/BaseLearn/UnburnableToken.sol\":2574:2600  balances[balancesarray[i]] */\n      0xffffffffffffffffffffffffffffffffffffffff\n      and\n      0xffffffffffffffffffffffffffffffffffffffff\n      and\n      dup2\n      mstore\n      0x20\n      add\n      swap1\n      dup2\n      mstore\n      0x20\n      add\n      0x00\n      keccak256\n      sload\n        /* \"contracts/BaseLearn/UnburnableToken.sol\":2557:2568  allBalances */\n      dup3\n        /* \"contracts/BaseLearn/UnburnableToken.sol\":2569:2570  i */\n      dup3\n        /* \"contracts/BaseLearn/UnburnableToken.sol\":2557:2571  allBalances[i] */\n      dup2\n      mload\n      dup2\n      lt\n      tag_70\n      jumpi\n      tag_71\n      tag_47\n      jump\t// in\n    tag_71:\n    tag_70:\n      0x20\n      mul\n      0x20\n      add\n      add\n        /* \"contracts/BaseLearn/UnburnableToken.sol\":2557:2600  allBalances[i] = balances[balancesarray[i]] */\n      dup2\n      dup2\n      mstore\n      pop\n      pop\n        /* \"contracts/BaseLearn/UnburnableToken.sol\":2538:2541  i++ */\n      dup1\n      dup1\n      0x01\n      add\n      swap2\n      pop\n      pop\n        /* \"contracts/BaseLearn/UnburnableToken.sol\":2506:2611  for (uint256 i = 0; i < length; i++) {... */\n      jump(tag_64)\n    tag_65:\n      pop\n        /* \"contracts/BaseLearn/UnburnableToken.sol\":2629:2642  balancesarray */\n      0x04\n        /* \"contracts/BaseLearn/UnburnableToken.sol\":2644:2655  allBalances */\n      dup2\n        /* \"contracts/BaseLearn/UnburnableToken.sol\":2621:2656  return (balancesarray, allBalances) */\n      dup2\n      dup1\n      sload\n      dup1\n      0x20\n      mul\n      0x20\n      add\n      mload(0x40)\n      swap1\n      dup2\n      add\n      0x40\n      mstore\n      dup1\n      swap3\n      swap2\n      swap1\n      dup2\n      dup2\n      mstore\n      0x20\n      add\n      dup3\n      dup1\n      sload\n      dup1\n      iszero\n      tag_72\n      jumpi\n      0x20\n      mul\n      dup3\n      add\n      swap2\n      swap1\n      0x00\n      mstore\n      keccak256(0x00, 0x20)\n      swap1\n    tag_73:\n      dup2\n      0x00\n      swap1\n      sload\n      swap1\n      0x0100\n      exp\n      swap1\n      div\n      0xffffffffffffffffffffffffffffffffffffffff\n      and\n      0xffffffffffffffffffffffffffffffffffffffff\n      and\n      dup2\n      mstore\n      0x20\n      add\n      swap1\n      0x01\n      add\n      swap1\n      dup1\n      dup4\n      gt\n      tag_73\n      jumpi\n    tag_72:\n      pop\n      pop\n      pop\n      pop\n      pop\n      swap2\n      pop\n      swap4\n      pop\n      swap4\n      pop\n      pop\n      pop\n        /* \"contracts/BaseLearn/UnburnableToken.sol\":2209:2663  function getAllBalances()... */\n      swap1\n      swap2\n      jump\t// out\n        /* \"contracts/BaseLearn/UnburnableToken.sol\":827:854  uint256 public totalClaimed */\n    tag_29:\n      sload(0x02)\n      dup2\n      jump\t// out\n        /* \"#utility.yul\":7:84   */\n    tag_74:\n        /* \"#utility.yul\":44:51   */\n      0x00\n        /* \"#utility.yul\":73:78   */\n      dup2\n        /* \"#utility.yul\":62:78   */\n      swap1\n      pop\n        /* \"#utility.yul\":7:84   */\n      swap2\n      swap1\n      pop\n      jump\t// out\n        /* \"#utility.yul\":90:208   */\n    tag_75:\n        /* \"#utility.yul\":177:201   */\n      tag_104\n        /* \"#utility.yul\":195:200   */\n      dup2\n        /* \"#utility.yul\":177:201   */\n      tag_74\n      jump\t// in\n    tag_104:\n        /* \"#utility.yul\":172:175   */\n      dup3\n        /* \"#utility.yul\":165:202   */\n      mstore\n        /* \"#utility.yul\":90:208   */\n      pop\n      pop\n      jump\t// out\n        /* \"#utility.yul\":214:436   */\n    tag_12:\n        /* \"#utility.yul\":307:311   */\n      0x00\n        /* \"#utility.yul\":345:347   */\n      0x20\n        /* \"#utility.yul\":334:343   */\n      dup3\n        /* \"#utility.yul\":330:348   */\n      add\n        /* \"#utility.yul\":322:348   */\n      swap1\n      pop\n        /* \"#utility.yul\":358:429   */\n      tag_106\n        /* \"#utility.yul\":426:427   */\n      0x00\n        /* \"#utility.yul\":415:424   */\n      dup4\n        /* \"#utility.yul\":411:428   */\n      add\n        /* \"#utility.yul\":402:408   */\n      dup5\n        /* \"#utility.yul\":358:429   */\n      tag_75\n      jump\t// in\n    tag_106:\n        /* \"#utility.yul\":214:436   */\n      swap3\n      swap2\n      pop\n      pop\n      jump\t// out\n        /* \"#utility.yul\":523:640   */\n    tag_77:\n        /* \"#utility.yul\":632:633   */\n      0x00\n        /* \"#utility.yul\":629:630   */\n      dup1\n        /* \"#utility.yul\":622:634   */\n      revert\n        /* \"#utility.yul\":769:895   */\n    tag_79:\n        /* \"#utility.yul\":806:813   */\n      0x00\n        /* \"#utility.yul\":846:888   */\n      0xffffffffffffffffffffffffffffffffffffffff\n        /* \"#utility.yul\":839:844   */\n      dup3\n        /* \"#utility.yul\":835:889   */\n      and\n        /* \"#utility.yul\":824:889   */\n      swap1\n      pop\n        /* \"#utility.yul\":769:895   */\n      swap2\n      swap1\n      pop\n      jump\t// out\n        /* \"#utility.yul\":901:997   */\n    tag_80:\n        /* \"#utility.yul\":938:945   */\n      0x00\n        /* \"#utility.yul\":967:991   */\n      tag_112\n        /* \"#utility.yul\":985:990   */\n      dup3\n        /* \"#utility.yul\":967:991   */\n      tag_79\n      jump\t// in\n    tag_112:\n        /* \"#utility.yul\":956:991   */\n      swap1\n      pop\n        /* \"#utility.yul\":901:997   */\n      swap2\n      swap1\n      pop\n      jump\t// out\n        /* \"#utility.yul\":1003:1125   */\n    tag_81:\n        /* \"#utility.yul\":1076:1100   */\n      tag_114\n        /* \"#utility.yul\":1094:1099   */\n      dup2\n        /* \"#utility.yul\":1076:1100   */\n      tag_80\n      jump\t// in\n    tag_114:\n        /* \"#utility.yul\":1069:1074   */\n      dup2\n        /* \"#utility.yul\":1066:1101   */\n      eq\n        /* \"#utility.yul\":1056:1119   */\n      tag_115\n      jumpi\n        /* \"#utility.yul\":1115:1116   */\n      0x00\n        /* \"#utility.yul\":1112:1113   */\n      dup1\n        /* \"#utility.yul\":1105:1117   */\n      revert\n        /* \"#utility.yul\":1056:1119   */\n    tag_115:\n        /* \"#utility.yul\":1003:1125   */\n      pop\n      jump\t// out\n        /* \"#utility.yul\":1131:1270   */\n    tag_82:\n        /* \"#utility.yul\":1177:1182   */\n      0x00\n        /* \"#utility.yul\":1215:1221   */\n      dup2\n        /* \"#utility.yul\":1202:1222   */\n      calldataload\n        /* \"#utility.yul\":1193:1222   */\n      swap1\n      pop\n        /* \"#utility.yul\":1231:1264   */\n      tag_117\n        /* \"#utility.yul\":1258:1263   */\n      dup2\n        /* \"#utility.yul\":1231:1264   */\n      tag_81\n      jump\t// in\n    tag_117:\n        /* \"#utility.yul\":1131:1270   */\n      swap3\n      swap2\n      pop\n      pop\n      jump\t// out\n        /* \"#utility.yul\":1276:1605   */\n    tag_15:\n        /* \"#utility.yul\":1335:1341   */\n      0x00\n        /* \"#utility.yul\":1384:1386   */\n      0x20\n        /* \"#utility.yul\":1372:1381   */\n      dup3\n        /* \"#utility.yul\":1363:1370   */\n      dup5\n        /* \"#utility.yul\":1359:1382   */\n      sub\n        /* \"#utility.yul\":1355:1387   */\n      slt\n        /* \"#utility.yul\":1352:1471   */\n      iszero\n      tag_119\n      jumpi\n        /* \"#utility.yul\":1390:1469   */\n      tag_120\n      tag_77\n      jump\t// in\n    tag_120:\n        /* \"#utility.yul\":1352:1471   */\n    tag_119:\n        /* \"#utility.yul\":1510:1511   */\n      0x00\n        /* \"#utility.yul\":1535:1588   */\n      tag_121\n        /* \"#utility.yul\":1580:1587   */\n      dup5\n        /* \"#utility.yul\":1571:1577   */\n      dup3\n        /* \"#utility.yul\":1560:1569   */\n      dup6\n        /* \"#utility.yul\":1556:1578   */\n      add\n        /* \"#utility.yul\":1535:1588   */\n      tag_82\n      jump\t// in\n    tag_121:\n        /* \"#utility.yul\":1525:1588   */\n      swap2\n      pop\n        /* \"#utility.yul\":1481:1598   */\n      pop\n        /* \"#utility.yul\":1276:1605   */\n      swap3\n      swap2\n      pop\n      pop\n      jump\t// out\n        /* \"#utility.yul\":1611:1733   */\n    tag_83:\n        /* \"#utility.yul\":1684:1708   */\n      tag_123\n        /* \"#utility.yul\":1702:1707   */\n      dup2\n        /* \"#utility.yul\":1684:1708   */\n      tag_74\n      jump\t// in\n    tag_123:\n        /* \"#utility.yul\":1677:1682   */\n      dup2\n        /* \"#utility.yul\":1674:1709   */\n      eq\n        /* \"#utility.yul\":1664:1727   */\n      tag_124\n      jumpi\n        /* \"#utility.yul\":1723:1724   */\n      0x00\n        /* \"#utility.yul\":1720:1721   */\n      dup1\n        /* \"#utility.yul\":1713:1725   */\n      revert\n        /* \"#utility.yul\":1664:1727   */\n    tag_124:\n        /* \"#utility.yul\":1611:1733   */\n      pop\n      jump\t// out\n        /* \"#utility.yul\":1739:1878   */\n    tag_84:\n        /* \"#utility.yul\":1785:1790   */\n      0x00\n        /* \"#utility.yul\":1823:1829   */\n      dup2\n        /* \"#utility.yul\":1810:1830   */\n      calldataload\n        /* \"#utility.yul\":1801:1830   */\n      swap1\n      pop\n        /* \"#utility.yul\":1839:1872   */\n      tag_126\n        /* \"#utility.yul\":1866:1871   */\n      dup2\n        /* \"#utility.yul\":1839:1872   */\n      tag_83\n      jump\t// in\n    tag_126:\n        /* \"#utility.yul\":1739:1878   */\n      swap3\n      swap2\n      pop\n      pop\n      jump\t// out\n        /* \"#utility.yul\":1884:2358   */\n    tag_20:\n        /* \"#utility.yul\":1952:1958   */\n      0x00\n        /* \"#utility.yul\":1960:1966   */\n      dup1\n        /* \"#utility.yul\":2009:2011   */\n      0x40\n        /* \"#utility.yul\":1997:2006   */\n      dup4\n        /* \"#utility.yul\":1988:1995   */\n      dup6\n        /* \"#utility.yul\":1984:2007   */\n      sub\n        /* \"#utility.yul\":1980:2012   */\n      slt\n        /* \"#utility.yul\":1977:2096   */\n      iszero\n      tag_128\n      jumpi\n        /* \"#utility.yul\":2015:2094   */\n      tag_129\n      tag_77\n      jump\t// in\n    tag_129:\n        /* \"#utility.yul\":1977:2096   */\n    tag_128:\n        /* \"#utility.yul\":2135:2136   */\n      0x00\n        /* \"#utility.yul\":2160:2213   */\n      tag_130\n        /* \"#utility.yul\":2205:2212   */\n      dup6\n        /* \"#utility.yul\":2196:2202   */\n      dup3\n        /* \"#utility.yul\":2185:2194   */\n      dup7\n        /* \"#utility.yul\":2181:2203   */\n      add\n        /* \"#utility.yul\":2160:2213   */\n      tag_82\n      jump\t// in\n    tag_130:\n        /* \"#utility.yul\":2150:2213   */\n      swap3\n      pop\n        /* \"#utility.yul\":2106:2223   */\n      pop\n        /* \"#utility.yul\":2262:2264   */\n      0x20\n        /* \"#utility.yul\":2288:2341   */\n      tag_131\n        /* \"#utility.yul\":2333:2340   */\n      dup6\n        /* \"#utility.yul\":2324:2330   */\n      dup3\n        /* \"#utility.yul\":2313:2322   */\n      dup7\n        /* \"#utility.yul\":2309:2331   */\n      add\n        /* \"#utility.yul\":2288:2341   */\n      tag_84\n      jump\t// in\n    tag_131:\n        /* \"#utility.yul\":2278:2341   */\n      swap2\n      pop\n        /* \"#utility.yul\":2233:2351   */\n      pop\n        /* \"#utility.yul\":1884:2358   */\n      swap3\n      pop\n      swap3\n      swap1\n      pop\n      jump\t// out\n        /* \"#utility.yul\":2364:2478   */\n    tag_85:\n        /* \"#utility.yul\":2431:2437   */\n      0x00\n        /* \"#utility.yul\":2465:2470   */\n      dup2\n        /* \"#utility.yul\":2459:2471   */\n      mload\n        /* \"#utility.yul\":2449:2471   */\n      swap1\n      pop\n        /* \"#utility.yul\":2364:2478   */\n      swap2\n      swap1\n      pop\n      jump\t// out\n        /* \"#utility.yul\":2484:2668   */\n    tag_86:\n        /* \"#utility.yul\":2583:2594   */\n      0x00\n        /* \"#utility.yul\":2617:2623   */\n      dup3\n        /* \"#utility.yul\":2612:2615   */\n      dup3\n        /* \"#utility.yul\":2605:2624   */\n      mstore\n        /* \"#utility.yul\":2657:2661   */\n      0x20\n        /* \"#utility.yul\":2652:2655   */\n      dup3\n        /* \"#utility.yul\":2648:2662   */\n      add\n        /* \"#utility.yul\":2633:2662   */\n      swap1\n      pop\n        /* \"#utility.yul\":2484:2668   */\n      swap3\n      swap2\n      pop\n      pop\n      jump\t// out\n        /* \"#utility.yul\":2674:2806   */\n    tag_87:\n        /* \"#utility.yul\":2741:2745   */\n      0x00\n        /* \"#utility.yul\":2764:2767   */\n      dup2\n        /* \"#utility.yul\":2756:2767   */\n      swap1\n      pop\n        /* \"#utility.yul\":2794:2798   */\n      0x20\n        /* \"#utility.yul\":2789:2792   */\n      dup3\n        /* \"#utility.yul\":2785:2799   */\n      add\n        /* \"#utility.yul\":2777:2799   */\n      swap1\n      pop\n        /* \"#utility.yul\":2674:2806   */\n      swap2\n      swap1\n      pop\n      jump\t// out\n        /* \"#utility.yul\":2812:2920   */\n    tag_88:\n        /* \"#utility.yul\":2889:2913   */\n      tag_136\n        /* \"#utility.yul\":2907:2912   */\n      dup2\n        /* \"#utility.yul\":2889:2913   */\n      tag_80\n      jump\t// in\n    tag_136:\n        /* \"#utility.yul\":2884:2887   */\n      dup3\n        /* \"#utility.yul\":2877:2914   */\n      mstore\n        /* \"#utility.yul\":2812:2920   */\n      pop\n      pop\n      jump\t// out\n        /* \"#utility.yul\":2926:3105   */\n    tag_89:\n        /* \"#utility.yul\":2995:3005   */\n      0x00\n        /* \"#utility.yul\":3016:3062   */\n      tag_138\n        /* \"#utility.yul\":3058:3061   */\n      dup4\n        /* \"#utility.yul\":3050:3056   */\n      dup4\n        /* \"#utility.yul\":3016:3062   */\n      tag_88\n      jump\t// in\n    tag_138:\n        /* \"#utility.yul\":3094:3098   */\n      0x20\n        /* \"#utility.yul\":3089:3092   */\n      dup4\n        /* \"#utility.yul\":3085:3099   */\n      add\n        /* \"#utility.yul\":3071:3099   */\n      swap1\n      pop\n        /* \"#utility.yul\":2926:3105   */\n      swap3\n      swap2\n      pop\n      pop\n      jump\t// out\n        /* \"#utility.yul\":3111:3224   */\n    tag_90:\n        /* \"#utility.yul\":3181:3185   */\n      0x00\n        /* \"#utility.yul\":3213:3217   */\n      0x20\n        /* \"#utility.yul\":3208:3211   */\n      dup3\n        /* \"#utility.yul\":3204:3218   */\n      add\n        /* \"#utility.yul\":3196:3218   */\n      swap1\n      pop\n        /* \"#utility.yul\":3111:3224   */\n      swap2\n      swap1\n      pop\n      jump\t// out\n        /* \"#utility.yul\":3260:3992   */\n    tag_91:\n        /* \"#utility.yul\":3379:3382   */\n      0x00\n        /* \"#utility.yul\":3408:3462   */\n      tag_141\n        /* \"#utility.yul\":3456:3461   */\n      dup3\n        /* \"#utility.yul\":3408:3462   */\n      tag_85\n      jump\t// in\n    tag_141:\n        /* \"#utility.yul\":3478:3564   */\n      tag_142\n        /* \"#utility.yul\":3557:3563   */\n      dup2\n        /* \"#utility.yul\":3552:3555   */\n      dup6\n        /* \"#utility.yul\":3478:3564   */\n      tag_86\n      jump\t// in\n    tag_142:\n        /* \"#utility.yul\":3471:3564   */\n      swap4\n      pop\n        /* \"#utility.yul\":3588:3644   */\n      tag_143\n        /* \"#utility.yul\":3638:3643   */\n      dup4\n        /* \"#utility.yul\":3588:3644   */\n      tag_87\n      jump\t// in\n    tag_143:\n        /* \"#utility.yul\":3667:3674   */\n      dup1\n        /* \"#utility.yul\":3698:3699   */\n      0x00\n        /* \"#utility.yul\":3683:3967   */\n    tag_144:\n        /* \"#utility.yul\":3708:3714   */\n      dup4\n        /* \"#utility.yul\":3705:3706   */\n      dup2\n        /* \"#utility.yul\":3702:3715   */\n      lt\n        /* \"#utility.yul\":3683:3967   */\n      iszero\n      tag_146\n      jumpi\n        /* \"#utility.yul\":3784:3790   */\n      dup2\n        /* \"#utility.yul\":3778:3791   */\n      mload\n        /* \"#utility.yul\":3811:3874   */\n      tag_147\n        /* \"#utility.yul\":3870:3873   */\n      dup9\n        /* \"#utility.yul\":3855:3868   */\n      dup3\n        /* \"#utility.yul\":3811:3874   */\n      tag_89\n      jump\t// in\n    tag_147:\n        /* \"#utility.yul\":3804:3874   */\n      swap8\n      pop\n        /* \"#utility.yul\":3897:3957   */\n      tag_148\n        /* \"#utility.yul\":3950:3956   */\n      dup4\n        /* \"#utility.yul\":3897:3957   */\n      tag_90\n      jump\t// in\n    tag_148:\n        /* \"#utility.yul\":3887:3957   */\n      swap3\n      pop\n        /* \"#utility.yul\":3743:3967   */\n      pop\n        /* \"#utility.yul\":3730:3731   */\n      0x01\n        /* \"#utility.yul\":3727:3728   */\n      dup2\n        /* \"#utility.yul\":3723:3732   */\n      add\n        /* \"#utility.yul\":3718:3732   */\n      swap1\n      pop\n        /* \"#utility.yul\":3683:3967   */\n      jump(tag_144)\n    tag_146:\n        /* \"#utility.yul\":3687:3701   */\n      pop\n        /* \"#utility.yul\":3983:3986   */\n      dup6\n        /* \"#utility.yul\":3976:3986   */\n      swap4\n      pop\n        /* \"#utility.yul\":3384:3992   */\n      pop\n      pop\n      pop\n        /* \"#utility.yul\":3260:3992   */\n      swap3\n      swap2\n      pop\n      pop\n      jump\t// out\n        /* \"#utility.yul\":3998:4112   */\n    tag_92:\n        /* \"#utility.yul\":4065:4071   */\n      0x00\n        /* \"#utility.yul\":4099:4104   */\n      dup2\n        /* \"#utility.yul\":4093:4105   */\n      mload\n        /* \"#utility.yul\":4083:4105   */\n      swap1\n      pop\n        /* \"#utility.yul\":3998:4112   */\n      swap2\n      swap1\n      pop\n      jump\t// out\n        /* \"#utility.yul\":4118:4302   */\n    tag_93:\n        /* \"#utility.yul\":4217:4228   */\n      0x00\n        /* \"#utility.yul\":4251:4257   */\n      dup3\n        /* \"#utility.yul\":4246:4249   */\n      dup3\n        /* \"#utility.yul\":4239:4258   */\n      mstore\n        /* \"#utility.yul\":4291:4295   */\n      0x20\n        /* \"#utility.yul\":4286:4289   */\n      dup3\n        /* \"#utility.yul\":4282:4296   */\n      add\n        /* \"#utility.yul\":4267:4296   */\n      swap1\n      pop\n        /* \"#utility.yul\":4118:4302   */\n      swap3\n      swap2\n      pop\n      pop\n      jump\t// out\n        /* \"#utility.yul\":4308:4440   */\n    tag_94:\n        /* \"#utility.yul\":4375:4379   */\n      0x00\n        /* \"#utility.yul\":4398:4401   */\n      dup2\n        /* \"#utility.yul\":4390:4401   */\n      swap1\n      pop\n        /* \"#utility.yul\":4428:4432   */\n      0x20\n        /* \"#utility.yul\":4423:4426   */\n      dup3\n        /* \"#utility.yul\":4419:4433   */\n      add\n        /* \"#utility.yul\":4411:4433   */\n      swap1\n      pop\n        /* \"#utility.yul\":4308:4440   */\n      swap2\n      swap1\n      pop\n      jump\t// out\n        /* \"#utility.yul\":4446:4554   */\n    tag_95:\n        /* \"#utility.yul\":4523:4547   */\n      tag_153\n        /* \"#utility.yul\":4541:4546   */\n      dup2\n        /* \"#utility.yul\":4523:4547   */\n      tag_74\n      jump\t// in\n    tag_153:\n        /* \"#utility.yul\":4518:4521   */\n      dup3\n        /* \"#utility.yul\":4511:4548   */\n      mstore\n        /* \"#utility.yul\":4446:4554   */\n      pop\n      pop\n      jump\t// out\n        /* \"#utility.yul\":4560:4739   */\n    tag_96:\n        /* \"#utility.yul\":4629:4639   */\n      0x00\n        /* \"#utility.yul\":4650:4696   */\n      tag_155\n        /* \"#utility.yul\":4692:4695   */\n      dup4\n        /* \"#utility.yul\":4684:4690   */\n      dup4\n        /* \"#utility.yul\":4650:4696   */\n      tag_95\n      jump\t// in\n    tag_155:\n        /* \"#utility.yul\":4728:4732   */\n      0x20\n        /* \"#utility.yul\":4723:4726   */\n      dup4\n        /* \"#utility.yul\":4719:4733   */\n      add\n        /* \"#utility.yul\":4705:4733   */\n      swap1\n      pop\n        /* \"#utility.yul\":4560:4739   */\n      swap3\n      swap2\n      pop\n      pop\n      jump\t// out\n        /* \"#utility.yul\":4745:4858   */\n    tag_97:\n        /* \"#utility.yul\":4815:4819   */\n      0x00\n        /* \"#utility.yul\":4847:4851   */\n      0x20\n        /* \"#utility.yul\":4842:4845   */\n      dup3\n        /* \"#utility.yul\":4838:4852   */\n      add\n        /* \"#utility.yul\":4830:4852   */\n      swap1\n      pop\n        /* \"#utility.yul\":4745:4858   */\n      swap2\n      swap1\n      pop\n      jump\t// out\n        /* \"#utility.yul\":4894:5626   */\n    tag_98:\n        /* \"#utility.yul\":5013:5016   */\n      0x00\n        /* \"#utility.yul\":5042:5096   */\n      tag_158\n        /* \"#utility.yul\":5090:5095   */\n      dup3\n        /* \"#utility.yul\":5042:5096   */\n      tag_92\n      jump\t// in\n    tag_158:\n        /* \"#utility.yul\":5112:5198   */\n      tag_159\n        /* \"#utility.yul\":5191:5197   */\n      dup2\n        /* \"#utility.yul\":5186:5189   */\n      dup6\n        /* \"#utility.yul\":5112:5198   */\n      tag_93\n      jump\t// in\n    tag_159:\n        /* \"#utility.yul\":5105:5198   */\n      swap4\n      pop\n        /* \"#utility.yul\":5222:5278   */\n      tag_160\n        /* \"#utility.yul\":5272:5277   */\n      dup4\n        /* \"#utility.yul\":5222:5278   */\n      tag_94\n      jump\t// in\n    tag_160:\n        /* \"#utility.yul\":5301:5308   */\n      dup1\n        /* \"#utility.yul\":5332:5333   */\n      0x00\n        /* \"#utility.yul\":5317:5601   */\n    tag_161:\n        /* \"#utility.yul\":5342:5348   */\n      dup4\n        /* \"#utility.yul\":5339:5340   */\n      dup2\n        /* \"#utility.yul\":5336:5349   */\n      lt\n        /* \"#utility.yul\":5317:5601   */\n      iszero\n      tag_163\n      jumpi\n        /* \"#utility.yul\":5418:5424   */\n      dup2\n        /* \"#utility.yul\":5412:5425   */\n      mload\n        /* \"#utility.yul\":5445:5508   */\n      tag_164\n        /* \"#utility.yul\":5504:5507   */\n      dup9\n        /* \"#utility.yul\":5489:5502   */\n      dup3\n        /* \"#utility.yul\":5445:5508   */\n      tag_96\n      jump\t// in\n    tag_164:\n        /* \"#utility.yul\":5438:5508   */\n      swap8\n      pop\n        /* \"#utility.yul\":5531:5591   */\n      tag_165\n        /* \"#utility.yul\":5584:5590   */\n      dup4\n        /* \"#utility.yul\":5531:5591   */\n      tag_97\n      jump\t// in\n    tag_165:\n        /* \"#utility.yul\":5521:5591   */\n      swap3\n      pop\n        /* \"#utility.yul\":5377:5601   */\n      pop\n        /* \"#utility.yul\":5364:5365   */\n      0x01\n        /* \"#utility.yul\":5361:5362   */\n      dup2\n        /* \"#utility.yul\":5357:5366   */\n      add\n        /* \"#utility.yul\":5352:5366   */\n      swap1\n      pop\n        /* \"#utility.yul\":5317:5601   */\n      jump(tag_161)\n    tag_163:\n        /* \"#utility.yul\":5321:5335   */\n      pop\n        /* \"#utility.yul\":5617:5620   */\n      dup6\n        /* \"#utility.yul\":5610:5620   */\n      swap4\n      pop\n        /* \"#utility.yul\":5018:5626   */\n      pop\n      pop\n      pop\n        /* \"#utility.yul\":4894:5626   */\n      swap3\n      swap2\n      pop\n      pop\n      jump\t// out\n        /* \"#utility.yul\":5632:6266   */\n    tag_27:\n        /* \"#utility.yul\":5853:5857   */\n      0x00\n        /* \"#utility.yul\":5891:5893   */\n      0x40\n        /* \"#utility.yul\":5880:5889   */\n      dup3\n        /* \"#utility.yul\":5876:5894   */\n      add\n        /* \"#utility.yul\":5868:5894   */\n      swap1\n      pop\n        /* \"#utility.yul\":5940:5949   */\n      dup2\n        /* \"#utility.yul\":5934:5938   */\n      dup2\n        /* \"#utility.yul\":5930:5950   */\n      sub\n        /* \"#utility.yul\":5926:5927   */\n      0x00\n        /* \"#utility.yul\":5915:5924   */\n      dup4\n        /* \"#utility.yul\":5911:5928   */\n      add\n        /* \"#utility.yul\":5904:5951   */\n      mstore\n        /* \"#utility.yul\":5968:6076   */\n      tag_167\n        /* \"#utility.yul\":6071:6075   */\n      dup2\n        /* \"#utility.yul\":6062:6068   */\n      dup6\n        /* \"#utility.yul\":5968:6076   */\n      tag_91\n      jump\t// in\n    tag_167:\n        /* \"#utility.yul\":5960:6076   */\n      swap1\n      pop\n        /* \"#utility.yul\":6123:6132   */\n      dup2\n        /* \"#utility.yul\":6117:6121   */\n      dup2\n        /* \"#utility.yul\":6113:6133   */\n      sub\n        /* \"#utility.yul\":6108:6110   */\n      0x20\n        /* \"#utility.yul\":6097:6106   */\n      dup4\n        /* \"#utility.yul\":6093:6111   */\n      add\n        /* \"#utility.yul\":6086:6134   */\n      mstore\n        /* \"#utility.yul\":6151:6259   */\n      tag_168\n        /* \"#utility.yul\":6254:6258   */\n      dup2\n        /* \"#utility.yul\":6245:6251   */\n      dup5\n        /* \"#utility.yul\":6151:6259   */\n      tag_98\n      jump\t// in\n    tag_168:\n        /* \"#utility.yul\":6143:6259   */\n      swap1\n      pop\n        /* \"#utility.yul\":5632:6266   */\n      swap4\n      swap3\n      pop\n      pop\n      pop\n      jump\t// out\n        /* \"#utility.yul\":6272:6390   */\n    tag_99:\n        /* \"#utility.yul\":6359:6383   */\n      tag_170\n        /* \"#utility.yul\":6377:6382   */\n      dup2\n        /* \"#utility.yul\":6359:6383   */\n      tag_80\n      jump\t// in\n    tag_170:\n        /* \"#utility.yul\":6354:6357   */\n      dup3\n        /* \"#utility.yul\":6347:6384   */\n      mstore\n        /* \"#utility.yul\":6272:6390   */\n      pop\n      pop\n      jump\t// out\n        /* \"#utility.yul\":6396:6618   */\n    tag_35:\n        /* \"#utility.yul\":6489:6493   */\n      0x00\n        /* \"#utility.yul\":6527:6529   */\n      0x20\n        /* \"#utility.yul\":6516:6525   */\n      dup3\n        /* \"#utility.yul\":6512:6530   */\n      add\n        /* \"#utility.yul\":6504:6530   */\n      swap1\n      pop\n        /* \"#utility.yul\":6540:6611   */\n      tag_172\n        /* \"#utility.yul\":6608:6609   */\n      0x00\n        /* \"#utility.yul\":6597:6606   */\n      dup4\n        /* \"#utility.yul\":6593:6610   */\n      add\n        /* \"#utility.yul\":6584:6590   */\n      dup5\n        /* \"#utility.yul\":6540:6611   */\n      tag_99\n      jump\t// in\n    tag_172:\n        /* \"#utility.yul\":6396:6618   */\n      swap3\n      swap2\n      pop\n      pop\n      jump\t// out\n        /* \"#utility.yul\":6624:6804   */\n    tag_100:\n        /* \"#utility.yul\":6672:6749   */\n      0x4e487b7100000000000000000000000000000000000000000000000000000000\n        /* \"#utility.yul\":6669:6670   */\n      0x00\n        /* \"#utility.yul\":6662:6750   */\n      mstore\n        /* \"#utility.yul\":6769:6773   */\n      0x11\n        /* \"#utility.yul\":6766:6767   */\n      0x04\n        /* \"#utility.yul\":6759:6774   */\n      mstore\n        /* \"#utility.yul\":6793:6797   */\n      0x24\n        /* \"#utility.yul\":6790:6791   */\n      0x00\n        /* \"#utility.yul\":6783:6798   */\n      revert\n        /* \"#utility.yul\":6810:7004   */\n    tag_39:\n        /* \"#utility.yul\":6850:6854   */\n      0x00\n        /* \"#utility.yul\":6870:6890   */\n      tag_175\n        /* \"#utility.yul\":6888:6889   */\n      dup3\n        /* \"#utility.yul\":6870:6890   */\n      tag_74\n      jump\t// in\n    tag_175:\n        /* \"#utility.yul\":6865:6890   */\n      swap2\n      pop\n        /* \"#utility.yul\":6904:6924   */\n      tag_176\n        /* \"#utility.yul\":6922:6923   */\n      dup4\n        /* \"#utility.yul\":6904:6924   */\n      tag_74\n      jump\t// in\n    tag_176:\n        /* \"#utility.yul\":6899:6924   */\n      swap3\n      pop\n        /* \"#utility.yul\":6948:6949   */\n      dup3\n        /* \"#utility.yul\":6945:6946   */\n      dup3\n        /* \"#utility.yul\":6941:6950   */\n      sub\n        /* \"#utility.yul\":6933:6950   */\n      swap1\n      pop\n        /* \"#utility.yul\":6972:6973   */\n      dup2\n        /* \"#utility.yul\":6966:6970   */\n      dup2\n        /* \"#utility.yul\":6963:6974   */\n      gt\n        /* \"#utility.yul\":6960:6997   */\n      iszero\n      tag_177\n      jumpi\n        /* \"#utility.yul\":6977:6995   */\n      tag_178\n      tag_100\n      jump\t// in\n    tag_178:\n        /* \"#utility.yul\":6960:6997   */\n    tag_177:\n        /* \"#utility.yul\":6810:7004   */\n      swap3\n      swap2\n      pop\n      pop\n      jump\t// out\n        /* \"#utility.yul\":7010:7201   */\n    tag_41:\n        /* \"#utility.yul\":7050:7053   */\n      0x00\n        /* \"#utility.yul\":7069:7089   */\n      tag_180\n        /* \"#utility.yul\":7087:7088   */\n      dup3\n        /* \"#utility.yul\":7069:7089   */\n      tag_74\n      jump\t// in\n    tag_180:\n        /* \"#utility.yul\":7064:7089   */\n      swap2\n      pop\n        /* \"#utility.yul\":7103:7123   */\n      tag_181\n        /* \"#utility.yul\":7121:7122   */\n      dup4\n        /* \"#utility.yul\":7103:7123   */\n      tag_74\n      jump\t// in\n    tag_181:\n        /* \"#utility.yul\":7098:7123   */\n      swap3\n      pop\n        /* \"#utility.yul\":7146:7147   */\n      dup3\n        /* \"#utility.yul\":7143:7144   */\n      dup3\n        /* \"#utility.yul\":7139:7148   */\n      add\n        /* \"#utility.yul\":7132:7148   */\n      swap1\n      pop\n        /* \"#utility.yul\":7167:7170   */\n      dup1\n        /* \"#utility.yul\":7164:7165   */\n      dup3\n        /* \"#utility.yul\":7161:7171   */\n      gt\n        /* \"#utility.yul\":7158:7194   */\n      iszero\n      tag_182\n      jumpi\n        /* \"#utility.yul\":7174:7192   */\n      tag_183\n      tag_100\n      jump\t// in\n    tag_183:\n        /* \"#utility.yul\":7158:7194   */\n    tag_182:\n        /* \"#utility.yul\":7010:7201   */\n      swap3\n      swap2\n      pop\n      pop\n      jump\t// out\n        /* \"#utility.yul\":7207:7387   */\n    tag_47:\n        /* \"#utility.yul\":7255:7332   */\n      0x4e487b7100000000000000000000000000000000000000000000000000000000\n        /* \"#utility.yul\":7252:7253   */\n      0x00\n        /* \"#utility.yul\":7245:7333   */\n      mstore\n        /* \"#utility.yul\":7352:7356   */\n      0x32\n        /* \"#utility.yul\":7349:7350   */\n      0x04\n        /* \"#utility.yul\":7342:7357   */\n      mstore\n        /* \"#utility.yul\":7376:7380   */\n      0x24\n        /* \"#utility.yul\":7373:7374   */\n      0x00\n        /* \"#utility.yul\":7366:7381   */\n      revert\n        /* \"#utility.yul\":7393:7573   */\n    tag_62:\n        /* \"#utility.yul\":7441:7518   */\n      0x4e487b7100000000000000000000000000000000000000000000000000000000\n        /* \"#utility.yul\":7438:7439   */\n      0x00\n        /* \"#utility.yul\":7431:7519   */\n      mstore\n        /* \"#utility.yul\":7538:7542   */\n      0x41\n        /* \"#utility.yul\":7535:7536   */\n      0x04\n        /* \"#utility.yul\":7528:7543   */\n      mstore\n        /* \"#utility.yul\":7562:7566   */\n      0x24\n        /* \"#utility.yul\":7559:7560   */\n      0x00\n        /* \"#utility.yul\":7552:7567   */\n      revert\n\n    auxdata: 0xa2646970667358221220e08a4a9c16ab42322d2c2764e7b1d34cb5c7d66dc33d1ce2a5a01b773531ec3f64736f6c634300081a0033\n}\n",
				"bytecode": {
					"linkReferences": {},
					"object": "60806040526103e86003553480156014575f80fd5b50620186a0600181905550610b288061002c5f395ff3fe608060405234801561000f575f80fd5b5060043610610060575f3560e01c806318160ddd1461006457806327e235e314610082578063423f6cef146100b25780634e71d92d146100ce578063867e7c27146100d8578063d54ad2a1146100f7575b5f80fd5b61006c610115565b6040516100799190610730565b60405180910390f35b61009c600480360381019061009791906107a7565b61011b565b6040516100a99190610730565b60405180910390f35b6100cc60048036038101906100c791906107fc565b61012f565b005b6100d66103e8565b005b6100e0610579565b6040516100ee9291906109a8565b60405180910390f35b6100ff610712565b60405161010c9190610730565b60405180910390f35b60015481565b5f602052805f5260405f205f915090505481565b805f803373ffffffffffffffffffffffffffffffffffffffff1673ffffffffffffffffffffffffffffffffffffffff1681526020019081526020015f205410806101a457505f73ffffffffffffffffffffffffffffffffffffffff168273ffffffffffffffffffffffffffffffffffffffff16145b156101e657816040517f6a86d24c0000000000000000000000000000000000000000000000000000000081526004016101dd91906109ec565b60405180910390fd5b5f8273ffffffffffffffffffffffffffffffffffffffff16310361024157816040517f6a86d24c00000000000000000000000000000000000000000000000000000000815260040161023891906109ec565b60405180910390fd5b805f803373ffffffffffffffffffffffffffffffffffffffff1673ffffffffffffffffffffffffffffffffffffffff1681526020019081526020015f205f82825461028c9190610a32565b92505081905550805f808473ffffffffffffffffffffffffffffffffffffffff1673ffffffffffffffffffffffffffffffffffffffff1681526020019081526020015f205f8282546102de9190610a65565b925050819055505f805f90505b60048054905081101561037c578373ffffffffffffffffffffffffffffffffffffffff166004828154811061032357610322610a98565b5b905f5260205f20015f9054906101000a900473ffffffffffffffffffffffffffffffffffffffff1673ffffffffffffffffffffffffffffffffffffffff160361036f576001915061037c565b80806001019150506102eb565b50806103e357600483908060018154018082558091505060019003905f5260205f20015f9091909190916101000a81548173ffffffffffffffffffffffffffffffffffffffff021916908373ffffffffffffffffffffffffffffffffffffffff1602179055505b505050565b6001546003546002546103fb9190610a65565b1115610433576040517fcbe2483100000000000000000000000000000000000000000000000000000000815260040160405180910390fd5b5f805f3373ffffffffffffffffffffffffffffffffffffffff1673ffffffffffffffffffffffffffffffffffffffff1681526020019081526020015f205411156104a9576040517f0b1327a600000000000000000000000000000000000000000000000000000000815260040160405180910390fd5b60035460025f8282546104bc9190610a65565b92505081905550600433908060018154018082558091505060019003905f5260205f20015f9091909190916101000a81548173ffffffffffffffffffffffffffffffffffffffff021916908373ffffffffffffffffffffffffffffffffffffffff1602179055506003545f803373ffffffffffffffffffffffffffffffffffffffff1673ffffffffffffffffffffffffffffffffffffffff1681526020019081526020015f205f8282546105709190610a65565b92505081905550565b6060805f60048054905090505f8167ffffffffffffffff8111156105a05761059f610ac5565b5b6040519080825280602002602001820160405280156105ce5781602001602082028036833780820191505090505b5090505f5b8281101561067f575f80600483815481106105f1576105f0610a98565b5b905f5260205f20015f9054906101000a900473ffffffffffffffffffffffffffffffffffffffff1673ffffffffffffffffffffffffffffffffffffffff1673ffffffffffffffffffffffffffffffffffffffff1681526020019081526020015f205482828151811061066657610665610a98565b5b60200260200101818152505080806001019150506105d3565b506004818180548060200260200160405190810160405280929190818152602001828054801561070157602002820191905f5260205f20905b815f9054906101000a900473ffffffffffffffffffffffffffffffffffffffff1673ffffffffffffffffffffffffffffffffffffffff16815260200190600101908083116106b8575b505050505091509350935050509091565b60025481565b5f819050919050565b61072a81610718565b82525050565b5f6020820190506107435f830184610721565b92915050565b5f80fd5b5f73ffffffffffffffffffffffffffffffffffffffff82169050919050565b5f6107768261074d565b9050919050565b6107868161076c565b8114610790575f80fd5b50565b5f813590506107a18161077d565b92915050565b5f602082840312156107bc576107bb610749565b5b5f6107c984828501610793565b91505092915050565b6107db81610718565b81146107e5575f80fd5b50565b5f813590506107f6816107d2565b92915050565b5f806040838503121561081257610811610749565b5b5f61081f85828601610793565b9250506020610830858286016107e8565b9150509250929050565b5f81519050919050565b5f82825260208201905092915050565b5f819050602082019050919050565b61086c8161076c565b82525050565b5f61087d8383610863565b60208301905092915050565b5f602082019050919050565b5f61089f8261083a565b6108a98185610844565b93506108b483610854565b805f5b838110156108e45781516108cb8882610872565b97506108d683610889565b9250506001810190506108b7565b5085935050505092915050565b5f81519050919050565b5f82825260208201905092915050565b5f819050602082019050919050565b61092381610718565b82525050565b5f610934838361091a565b60208301905092915050565b5f602082019050919050565b5f610956826108f1565b61096081856108fb565b935061096b8361090b565b805f5b8381101561099b5781516109828882610929565b975061098d83610940565b92505060018101905061096e565b5085935050505092915050565b5f6040820190508181035f8301526109c08185610895565b905081810360208301526109d4818461094c565b90509392505050565b6109e68161076c565b82525050565b5f6020820190506109ff5f8301846109dd565b92915050565b7f4e487b71000000000000000000000000000000000000000000000000000000005f52601160045260245ffd5b5f610a3c82610718565b9150610a4783610718565b9250828203905081811115610a5f57610a5e610a05565b5b92915050565b5f610a6f82610718565b9150610a7a83610718565b9250828201905080821115610a9257610a91610a05565b5b92915050565b7f4e487b71000000000000000000000000000000000000000000000000000000005f52603260045260245ffd5b7f4e487b71000000000000000000000000000000000000000000000000000000005f52604160045260245ffdfea2646970667358221220e08a4a9c16ab42322d2c2764e7b1d34cb5c7d66dc33d1ce2a5a01b773531ec3f64736f6c634300081a0033",
					"opcodes": "PUSH1 0x80 PUSH1 0x40 MSTORE PUSH2 0x3E8 PUSH1 0x3 SSTORE CALLVALUE DUP1 ISZERO PUSH1 0x14 JUMPI PUSH0 DUP1 REVERT JUMPDEST POP PUSH3 0x186A0 PUSH1 0x1 DUP2 SWAP1 SSTORE POP PUSH2 0xB28 DUP1 PUSH2 0x2C PUSH0 CODECOPY PUSH0 RETURN INVALID PUSH1 0x80 PUSH1 0x40 MSTORE CALLVALUE DUP1 ISZERO PUSH2 0xF JUMPI PUSH0 DUP1 REVERT JUMPDEST POP PUSH1 0x4 CALLDATASIZE LT PUSH2 0x60 JUMPI PUSH0 CALLDATALOAD PUSH1 0xE0 SHR DUP1 PUSH4 0x18160DDD EQ PUSH2 0x64 JUMPI DUP1 PUSH4 0x27E235E3 EQ PUSH2 0x82 JUMPI DUP1 PUSH4 0x423F6CEF EQ PUSH2 0xB2 JUMPI DUP1 PUSH4 0x4E71D92D EQ PUSH2 0xCE JUMPI DUP1 PUSH4 0x867E7C27 EQ PUSH2 0xD8 JUMPI DUP1 PUSH4 0xD54AD2A1 EQ PUSH2 0xF7 JUMPI JUMPDEST PUSH0 DUP1 REVERT JUMPDEST PUSH2 0x6C PUSH2 0x115 JUMP JUMPDEST PUSH1 0x40 MLOAD PUSH2 0x79 SWAP2 SWAP1 PUSH2 0x730 JUMP JUMPDEST PUSH1 0x40 MLOAD DUP1 SWAP2 SUB SWAP1 RETURN JUMPDEST PUSH2 0x9C PUSH1 0x4 DUP1 CALLDATASIZE SUB DUP2 ADD SWAP1 PUSH2 0x97 SWAP2 SWAP1 PUSH2 0x7A7 JUMP JUMPDEST PUSH2 0x11B JUMP JUMPDEST PUSH1 0x40 MLOAD PUSH2 0xA9 SWAP2 SWAP1 PUSH2 0x730 JUMP JUMPDEST PUSH1 0x40 MLOAD DUP1 SWAP2 SUB SWAP1 RETURN JUMPDEST PUSH2 0xCC PUSH1 0x4 DUP1 CALLDATASIZE SUB DUP2 ADD SWAP1 PUSH2 0xC7 SWAP2 SWAP1 PUSH2 0x7FC JUMP JUMPDEST PUSH2 0x12F JUMP JUMPDEST STOP JUMPDEST PUSH2 0xD6 PUSH2 0x3E8 JUMP JUMPDEST STOP JUMPDEST PUSH2 0xE0 PUSH2 0x579 JUMP JUMPDEST PUSH1 0x40 MLOAD PUSH2 0xEE SWAP3 SWAP2 SWAP1 PUSH2 0x9A8 JUMP JUMPDEST PUSH1 0x40 MLOAD DUP1 SWAP2 SUB SWAP1 RETURN JUMPDEST PUSH2 0xFF PUSH2 0x712 JUMP JUMPDEST PUSH1 0x40 MLOAD PUSH2 0x10C SWAP2 SWAP1 PUSH2 0x730 JUMP JUMPDEST PUSH1 0x40 MLOAD DUP1 SWAP2 SUB SWAP1 RETURN JUMPDEST PUSH1 0x1 SLOAD DUP2 JUMP JUMPDEST PUSH0 PUSH1 0x20 MSTORE DUP1 PUSH0 MSTORE PUSH1 0x40 PUSH0 KECCAK256 PUSH0 SWAP2 POP SWAP1 POP SLOAD DUP2 JUMP JUMPDEST DUP1 PUSH0 DUP1 CALLER PUSH20 0xFFFFFFFFFFFFFFFFFFFFFFFFFFFFFFFFFFFFFFFF AND PUSH20 0xFFFFFFFFFFFFFFFFFFFFFFFFFFFFFFFFFFFFFFFF AND DUP2 MSTORE PUSH1 0x20 ADD SWAP1 DUP2 MSTORE PUSH1 0x20 ADD PUSH0 KECCAK256 SLOAD LT DUP1 PUSH2 0x1A4 JUMPI POP PUSH0 PUSH20 0xFFFFFFFFFFFFFFFFFFFFFFFFFFFFFFFFFFFFFFFF AND DUP3 PUSH20 0xFFFFFFFFFFFFFFFFFFFFFFFFFFFFFFFFFFFFFFFF AND EQ JUMPDEST ISZERO PUSH2 0x1E6 JUMPI DUP2 PUSH1 0x40 MLOAD PUSH32 0x6A86D24C00000000000000000000000000000000000000000000000000000000 DUP2 MSTORE PUSH1 0x4 ADD PUSH2 0x1DD SWAP2 SWAP1 PUSH2 0x9EC JUMP JUMPDEST PUSH1 0x40 MLOAD DUP1 SWAP2 SUB SWAP1 REVERT JUMPDEST PUSH0 DUP3 PUSH20 0xFFFFFFFFFFFFFFFFFFFFFFFFFFFFFFFFFFFFFFFF AND BALANCE SUB PUSH2 0x241 JUMPI DUP2 PUSH1 0x40 MLOAD PUSH32 0x6A86D24C00000000000000000000000000000000000000000000000000000000 DUP2 MSTORE PUSH1 0x4 ADD PUSH2 0x238 SWAP2 SWAP1 PUSH2 0x9EC JUMP JUMPDEST PUSH1 0x40 MLOAD DUP1 SWAP2 SUB SWAP1 REVERT JUMPDEST DUP1 PUSH0 DUP1 CALLER PUSH20 0xFFFFFFFFFFFFFFFFFFFFFFFFFFFFFFFFFFFFFFFF AND PUSH20 0xFFFFFFFFFFFFFFFFFFFFFFFFFFFFFFFFFFFFFFFF AND DUP2 MSTORE PUSH1 0x20 ADD SWAP1 DUP2 MSTORE PUSH1 0x20 ADD PUSH0 KECCAK256 PUSH0 DUP3 DUP3 SLOAD PUSH2 0x28C SWAP2 SWAP1 PUSH2 0xA32 JUMP JUMPDEST SWAP3 POP POP DUP2 SWAP1 SSTORE POP DUP1 PUSH0 DUP1 DUP5 PUSH20 0xFFFFFFFFFFFFFFFFFFFFFFFFFFFFFFFFFFFFFFFF AND PUSH20 0xFFFFFFFFFFFFFFFFFFFFFFFFFFFFFFFFFFFFFFFF AND DUP2 MSTORE PUSH1 0x20 ADD SWAP1 DUP2 MSTORE PUSH1 0x20 ADD PUSH0 KECCAK256 PUSH0 DUP3 DUP3 SLOAD PUSH2 0x2DE SWAP2 SWAP1 PUSH2 0xA65 JUMP JUMPDEST SWAP3 POP POP DUP2 SWAP1 SSTORE POP PUSH0 DUP1 PUSH0 SWAP1 POP JUMPDEST PUSH1 0x4 DUP1 SLOAD SWAP1 POP DUP2 LT ISZERO PUSH2 0x37C JUMPI DUP4 PUSH20 0xFFFFFFFFFFFFFFFFFFFFFFFFFFFFFFFFFFFFFFFF AND PUSH1 0x4 DUP3 DUP2 SLOAD DUP2 LT PUSH2 0x323 JUMPI PUSH2 0x322 PUSH2 0xA98 JUMP JUMPDEST JUMPDEST SWAP1 PUSH0 MSTORE PUSH1 0x20 PUSH0 KECCAK256 ADD PUSH0 SWAP1 SLOAD SWAP1 PUSH2 0x100 EXP SWAP1 DIV PUSH20 0xFFFFFFFFFFFFFFFFFFFFFFFFFFFFFFFFFFFFFFFF AND PUSH20 0xFFFFFFFFFFFFFFFFFFFFFFFFFFFFFFFFFFFFFFFF AND SUB PUSH2 0x36F JUMPI PUSH1 0x1 SWAP2 POP PUSH2 0x37C JUMP JUMPDEST DUP1 DUP1 PUSH1 0x1 ADD SWAP2 POP POP PUSH2 0x2EB JUMP JUMPDEST POP DUP1 PUSH2 0x3E3 JUMPI PUSH1 0x4 DUP4 SWAP1 DUP1 PUSH1 0x1 DUP2 SLOAD ADD DUP1 DUP3 SSTORE DUP1 SWAP2 POP POP PUSH1 0x1 SWAP1 SUB SWAP1 PUSH0 MSTORE PUSH1 0x20 PUSH0 KECCAK256 ADD PUSH0 SWAP1 SWAP2 SWAP1 SWAP2 SWAP1 SWAP2 PUSH2 0x100 EXP DUP2 SLOAD DUP2 PUSH20 0xFFFFFFFFFFFFFFFFFFFFFFFFFFFFFFFFFFFFFFFF MUL NOT AND SWAP1 DUP4 PUSH20 0xFFFFFFFFFFFFFFFFFFFFFFFFFFFFFFFFFFFFFFFF AND MUL OR SWAP1 SSTORE POP JUMPDEST POP POP POP JUMP JUMPDEST PUSH1 0x1 SLOAD PUSH1 0x3 SLOAD PUSH1 0x2 SLOAD PUSH2 0x3FB SWAP2 SWAP1 PUSH2 0xA65 JUMP JUMPDEST GT ISZERO PUSH2 0x433 JUMPI PUSH1 0x40 MLOAD PUSH32 0xCBE2483100000000000000000000000000000000000000000000000000000000 DUP2 MSTORE PUSH1 0x4 ADD PUSH1 0x40 MLOAD DUP1 SWAP2 SUB SWAP1 REVERT JUMPDEST PUSH0 DUP1 PUSH0 CALLER PUSH20 0xFFFFFFFFFFFFFFFFFFFFFFFFFFFFFFFFFFFFFFFF AND PUSH20 0xFFFFFFFFFFFFFFFFFFFFFFFFFFFFFFFFFFFFFFFF AND DUP2 MSTORE PUSH1 0x20 ADD SWAP1 DUP2 MSTORE PUSH1 0x20 ADD PUSH0 KECCAK256 SLOAD GT ISZERO PUSH2 0x4A9 JUMPI PUSH1 0x40 MLOAD PUSH32 0xB1327A600000000000000000000000000000000000000000000000000000000 DUP2 MSTORE PUSH1 0x4 ADD PUSH1 0x40 MLOAD DUP1 SWAP2 SUB SWAP1 REVERT JUMPDEST PUSH1 0x3 SLOAD PUSH1 0x2 PUSH0 DUP3 DUP3 SLOAD PUSH2 0x4BC SWAP2 SWAP1 PUSH2 0xA65 JUMP JUMPDEST SWAP3 POP POP DUP2 SWAP1 SSTORE POP PUSH1 0x4 CALLER SWAP1 DUP1 PUSH1 0x1 DUP2 SLOAD ADD DUP1 DUP3 SSTORE DUP1 SWAP2 POP POP PUSH1 0x1 SWAP1 SUB SWAP1 PUSH0 MSTORE PUSH1 0x20 PUSH0 KECCAK256 ADD PUSH0 SWAP1 SWAP2 SWAP1 SWAP2 SWAP1 SWAP2 PUSH2 0x100 EXP DUP2 SLOAD DUP2 PUSH20 0xFFFFFFFFFFFFFFFFFFFFFFFFFFFFFFFFFFFFFFFF MUL NOT AND SWAP1 DUP4 PUSH20 0xFFFFFFFFFFFFFFFFFFFFFFFFFFFFFFFFFFFFFFFF AND MUL OR SWAP1 SSTORE POP PUSH1 0x3 SLOAD PUSH0 DUP1 CALLER PUSH20 0xFFFFFFFFFFFFFFFFFFFFFFFFFFFFFFFFFFFFFFFF AND PUSH20 0xFFFFFFFFFFFFFFFFFFFFFFFFFFFFFFFFFFFFFFFF AND DUP2 MSTORE PUSH1 0x20 ADD SWAP1 DUP2 MSTORE PUSH1 0x20 ADD PUSH0 KECCAK256 PUSH0 DUP3 DUP3 SLOAD PUSH2 0x570 SWAP2 SWAP1 PUSH2 0xA65 JUMP JUMPDEST SWAP3 POP POP DUP2 SWAP1 SSTORE POP JUMP JUMPDEST PUSH1 0x60 DUP1 PUSH0 PUSH1 0x4 DUP1 SLOAD SWAP1 POP SWAP1 POP PUSH0 DUP2 PUSH8 0xFFFFFFFFFFFFFFFF DUP2 GT ISZERO PUSH2 0x5A0 JUMPI PUSH2 0x59F PUSH2 0xAC5 JUMP JUMPDEST JUMPDEST PUSH1 0x40 MLOAD SWAP1 DUP1 DUP3 MSTORE DUP1 PUSH1 0x20 MUL PUSH1 0x20 ADD DUP3 ADD PUSH1 0x40 MSTORE DUP1 ISZERO PUSH2 0x5CE JUMPI DUP2 PUSH1 0x20 ADD PUSH1 0x20 DUP3 MUL DUP1 CALLDATASIZE DUP4 CALLDATACOPY DUP1 DUP3 ADD SWAP2 POP POP SWAP1 POP JUMPDEST POP SWAP1 POP PUSH0 JUMPDEST DUP3 DUP2 LT ISZERO PUSH2 0x67F JUMPI PUSH0 DUP1 PUSH1 0x4 DUP4 DUP2 SLOAD DUP2 LT PUSH2 0x5F1 JUMPI PUSH2 0x5F0 PUSH2 0xA98 JUMP JUMPDEST JUMPDEST SWAP1 PUSH0 MSTORE PUSH1 0x20 PUSH0 KECCAK256 ADD PUSH0 SWAP1 SLOAD SWAP1 PUSH2 0x100 EXP SWAP1 DIV PUSH20 0xFFFFFFFFFFFFFFFFFFFFFFFFFFFFFFFFFFFFFFFF AND PUSH20 0xFFFFFFFFFFFFFFFFFFFFFFFFFFFFFFFFFFFFFFFF AND PUSH20 0xFFFFFFFFFFFFFFFFFFFFFFFFFFFFFFFFFFFFFFFF AND DUP2 MSTORE PUSH1 0x20 ADD SWAP1 DUP2 MSTORE PUSH1 0x20 ADD PUSH0 KECCAK256 SLOAD DUP3 DUP3 DUP2 MLOAD DUP2 LT PUSH2 0x666 JUMPI PUSH2 0x665 PUSH2 0xA98 JUMP JUMPDEST JUMPDEST PUSH1 0x20 MUL PUSH1 0x20 ADD ADD DUP2 DUP2 MSTORE POP POP DUP1 DUP1 PUSH1 0x1 ADD SWAP2 POP POP PUSH2 0x5D3 JUMP JUMPDEST POP PUSH1 0x4 DUP2 DUP2 DUP1 SLOAD DUP1 PUSH1 0x20 MUL PUSH1 0x20 ADD PUSH1 0x40 MLOAD SWAP1 DUP2 ADD PUSH1 0x40 MSTORE DUP1 SWAP3 SWAP2 SWAP1 DUP2 DUP2 MSTORE PUSH1 0x20 ADD DUP3 DUP1 SLOAD DUP1 ISZERO PUSH2 0x701 JUMPI PUSH1 0x20 MUL DUP3 ADD SWAP2 SWAP1 PUSH0 MSTORE PUSH1 0x20 PUSH0 KECCAK256 SWAP1 JUMPDEST DUP2 PUSH0 SWAP1 SLOAD SWAP1 PUSH2 0x100 EXP SWAP1 DIV PUSH20 0xFFFFFFFFFFFFFFFFFFFFFFFFFFFFFFFFFFFFFFFF AND PUSH20 0xFFFFFFFFFFFFFFFFFFFFFFFFFFFFFFFFFFFFFFFF AND DUP2 MSTORE PUSH1 0x20 ADD SWAP1 PUSH1 0x1 ADD SWAP1 DUP1 DUP4 GT PUSH2 0x6B8 JUMPI JUMPDEST POP POP POP POP POP SWAP2 POP SWAP4 POP SWAP4 POP POP POP SWAP1 SWAP2 JUMP JUMPDEST PUSH1 0x2 SLOAD DUP2 JUMP JUMPDEST PUSH0 DUP2 SWAP1 POP SWAP2 SWAP1 POP JUMP JUMPDEST PUSH2 0x72A DUP2 PUSH2 0x718 JUMP JUMPDEST DUP3 MSTORE POP POP JUMP JUMPDEST PUSH0 PUSH1 0x20 DUP3 ADD SWAP1 POP PUSH2 0x743 PUSH0 DUP4 ADD DUP5 PUSH2 0x721 JUMP JUMPDEST SWAP3 SWAP2 POP POP JUMP JUMPDEST PUSH0 DUP1 REVERT JUMPDEST PUSH0 PUSH20 0xFFFFFFFFFFFFFFFFFFFFFFFFFFFFFFFFFFFFFFFF DUP3 AND SWAP1 POP SWAP2 SWAP1 POP JUMP JUMPDEST PUSH0 PUSH2 0x776 DUP3 PUSH2 0x74D JUMP JUMPDEST SWAP1 POP SWAP2 SWAP1 POP JUMP JUMPDEST PUSH2 0x786 DUP2 PUSH2 0x76C JUMP JUMPDEST DUP2 EQ PUSH2 0x790 JUMPI PUSH0 DUP1 REVERT JUMPDEST POP JUMP JUMPDEST PUSH0 DUP2 CALLDATALOAD SWAP1 POP PUSH2 0x7A1 DUP2 PUSH2 0x77D JUMP JUMPDEST SWAP3 SWAP2 POP POP JUMP JUMPDEST PUSH0 PUSH1 0x20 DUP3 DUP5 SUB SLT ISZERO PUSH2 0x7BC JUMPI PUSH2 0x7BB PUSH2 0x749 JUMP JUMPDEST JUMPDEST PUSH0 PUSH2 0x7C9 DUP5 DUP3 DUP6 ADD PUSH2 0x793 JUMP JUMPDEST SWAP2 POP POP SWAP3 SWAP2 POP POP JUMP JUMPDEST PUSH2 0x7DB DUP2 PUSH2 0x718 JUMP JUMPDEST DUP2 EQ PUSH2 0x7E5 JUMPI PUSH0 DUP1 REVERT JUMPDEST POP JUMP JUMPDEST PUSH0 DUP2 CALLDATALOAD SWAP1 POP PUSH2 0x7F6 DUP2 PUSH2 0x7D2 JUMP JUMPDEST SWAP3 SWAP2 POP POP JUMP JUMPDEST PUSH0 DUP1 PUSH1 0x40 DUP4 DUP6 SUB SLT ISZERO PUSH2 0x812 JUMPI PUSH2 0x811 PUSH2 0x749 JUMP JUMPDEST JUMPDEST PUSH0 PUSH2 0x81F DUP6 DUP3 DUP7 ADD PUSH2 0x793 JUMP JUMPDEST SWAP3 POP POP PUSH1 0x20 PUSH2 0x830 DUP6 DUP3 DUP7 ADD PUSH2 0x7E8 JUMP JUMPDEST SWAP2 POP POP SWAP3 POP SWAP3 SWAP1 POP JUMP JUMPDEST PUSH0 DUP2 MLOAD SWAP1 POP SWAP2 SWAP1 POP JUMP JUMPDEST PUSH0 DUP3 DUP3 MSTORE PUSH1 0x20 DUP3 ADD SWAP1 POP SWAP3 SWAP2 POP POP JUMP JUMPDEST PUSH0 DUP2 SWAP1 POP PUSH1 0x20 DUP3 ADD SWAP1 POP SWAP2 SWAP1 POP JUMP JUMPDEST PUSH2 0x86C DUP2 PUSH2 0x76C JUMP JUMPDEST DUP3 MSTORE POP POP JUMP JUMPDEST PUSH0 PUSH2 0x87D DUP4 DUP4 PUSH2 0x863 JUMP JUMPDEST PUSH1 0x20 DUP4 ADD SWAP1 POP SWAP3 SWAP2 POP POP JUMP JUMPDEST PUSH0 PUSH1 0x20 DUP3 ADD SWAP1 POP SWAP2 SWAP1 POP JUMP JUMPDEST PUSH0 PUSH2 0x89F DUP3 PUSH2 0x83A JUMP JUMPDEST PUSH2 0x8A9 DUP2 DUP6 PUSH2 0x844 JUMP JUMPDEST SWAP4 POP PUSH2 0x8B4 DUP4 PUSH2 0x854 JUMP JUMPDEST DUP1 PUSH0 JUMPDEST DUP4 DUP2 LT ISZERO PUSH2 0x8E4 JUMPI DUP2 MLOAD PUSH2 0x8CB DUP9 DUP3 PUSH2 0x872 JUMP JUMPDEST SWAP8 POP PUSH2 0x8D6 DUP4 PUSH2 0x889 JUMP JUMPDEST SWAP3 POP POP PUSH1 0x1 DUP2 ADD SWAP1 POP PUSH2 0x8B7 JUMP JUMPDEST POP DUP6 SWAP4 POP POP POP POP SWAP3 SWAP2 POP POP JUMP JUMPDEST PUSH0 DUP2 MLOAD SWAP1 POP SWAP2 SWAP1 POP JUMP JUMPDEST PUSH0 DUP3 DUP3 MSTORE PUSH1 0x20 DUP3 ADD SWAP1 POP SWAP3 SWAP2 POP POP JUMP JUMPDEST PUSH0 DUP2 SWAP1 POP PUSH1 0x20 DUP3 ADD SWAP1 POP SWAP2 SWAP1 POP JUMP JUMPDEST PUSH2 0x923 DUP2 PUSH2 0x718 JUMP JUMPDEST DUP3 MSTORE POP POP JUMP JUMPDEST PUSH0 PUSH2 0x934 DUP4 DUP4 PUSH2 0x91A JUMP JUMPDEST PUSH1 0x20 DUP4 ADD SWAP1 POP SWAP3 SWAP2 POP POP JUMP JUMPDEST PUSH0 PUSH1 0x20 DUP3 ADD SWAP1 POP SWAP2 SWAP1 POP JUMP JUMPDEST PUSH0 PUSH2 0x956 DUP3 PUSH2 0x8F1 JUMP JUMPDEST PUSH2 0x960 DUP2 DUP6 PUSH2 0x8FB JUMP JUMPDEST SWAP4 POP PUSH2 0x96B DUP4 PUSH2 0x90B JUMP JUMPDEST DUP1 PUSH0 JUMPDEST DUP4 DUP2 LT ISZERO PUSH2 0x99B JUMPI DUP2 MLOAD PUSH2 0x982 DUP9 DUP3 PUSH2 0x929 JUMP JUMPDEST SWAP8 POP PUSH2 0x98D DUP4 PUSH2 0x940 JUMP JUMPDEST SWAP3 POP POP PUSH1 0x1 DUP2 ADD SWAP1 POP PUSH2 0x96E JUMP JUMPDEST POP DUP6 SWAP4 POP POP POP POP SWAP3 SWAP2 POP POP JUMP JUMPDEST PUSH0 PUSH1 0x40 DUP3 ADD SWAP1 POP DUP2 DUP2 SUB PUSH0 DUP4 ADD MSTORE PUSH2 0x9C0 DUP2 DUP6 PUSH2 0x895 JUMP JUMPDEST SWAP1 POP DUP2 DUP2 SUB PUSH1 0x20 DUP4 ADD MSTORE PUSH2 0x9D4 DUP2 DUP5 PUSH2 0x94C JUMP JUMPDEST SWAP1 POP SWAP4 SWAP3 POP POP POP JUMP JUMPDEST PUSH2 0x9E6 DUP2 PUSH2 0x76C JUMP JUMPDEST DUP3 MSTORE POP POP JUMP JUMPDEST PUSH0 PUSH1 0x20 DUP3 ADD SWAP1 POP PUSH2 0x9FF PUSH0 DUP4 ADD DUP5 PUSH2 0x9DD JUMP JUMPDEST SWAP3 SWAP2 POP POP JUMP JUMPDEST PUSH32 0x4E487B7100000000000000000000000000000000000000000000000000000000 PUSH0 MSTORE PUSH1 0x11 PUSH1 0x4 MSTORE PUSH1 0x24 PUSH0 REVERT JUMPDEST PUSH0 PUSH2 0xA3C DUP3 PUSH2 0x718 JUMP JUMPDEST SWAP2 POP PUSH2 0xA47 DUP4 PUSH2 0x718 JUMP JUMPDEST SWAP3 POP DUP3 DUP3 SUB SWAP1 POP DUP2 DUP2 GT ISZERO PUSH2 0xA5F JUMPI PUSH2 0xA5E PUSH2 0xA05 JUMP JUMPDEST JUMPDEST SWAP3 SWAP2 POP POP JUMP JUMPDEST PUSH0 PUSH2 0xA6F DUP3 PUSH2 0x718 JUMP JUMPDEST SWAP2 POP PUSH2 0xA7A DUP4 PUSH2 0x718 JUMP JUMPDEST SWAP3 POP DUP3 DUP3 ADD SWAP1 POP DUP1 DUP3 GT ISZERO PUSH2 0xA92 JUMPI PUSH2 0xA91 PUSH2 0xA05 JUMP JUMPDEST JUMPDEST SWAP3 SWAP2 POP POP JUMP JUMPDEST PUSH32 0x4E487B7100000000000000000000000000000000000000000000000000000000 PUSH0 MSTORE PUSH1 0x32 PUSH1 0x4 MSTORE PUSH1 0x24 PUSH0 REVERT JUMPDEST PUSH32 0x4E487B7100000000000000000000000000000000000000000000000000000000 PUSH0 MSTORE PUSH1 0x41 PUSH1 0x4 MSTORE PUSH1 0x24 PUSH0 REVERT INVALID LOG2 PUSH5 0x6970667358 0x22 SLT KECCAK256 0xE0 DUP11 BLOBBASEFEE SWAP13 AND 0xAB TIMESTAMP ORIGIN 0x2D 0x2C 0x27 PUSH5 0xE7B1D34CB5 0xC7 0xD6 PUSH14 0xC33D1CE2A5A01B773531EC3F6473 PUSH16 0x6C634300081A00330000000000000000 "
				},
				"gasEstimates": {
					"creation": {
						"codeDepositCost": "571200",
						"executionCost": "44824",
						"totalCost": "616024"
					},
					"external": {
						"balances(address)": "2801",
						"claim()": "infinite",
						"getAllBalances()": "infinite",
						"safeTransfer(address,uint256)": "infinite",
						"totalClaimed()": "2513",
						"totalSupply()": "2403"
					}
				},
				"methodIdentifiers": {
					"balances(address)": "27e235e3",
					"claim()": "4e71d92d",
					"getAllBalances()": "867e7c27",
					"safeTransfer(address,uint256)": "423f6cef",
					"totalClaimed()": "d54ad2a1",
					"totalSupply()": "18160ddd"
				}
			},
			"storageLayout": {
				"storage": [
					{
						"astId": 14,
						"contract": "contracts/BaseLearn/UnburnableToken.sol:UnburnableToken",
						"label": "balances",
						"offset": 0,
						"slot": "0",
						"type": "t_mapping(t_address,t_uint256)"
					},
					{
						"astId": 16,
						"contract": "contracts/BaseLearn/UnburnableToken.sol:UnburnableToken",
						"label": "totalSupply",
						"offset": 0,
						"slot": "1",
						"type": "t_uint256"
					},
					{
						"astId": 18,
						"contract": "contracts/BaseLearn/UnburnableToken.sol:UnburnableToken",
						"label": "totalClaimed",
						"offset": 0,
						"slot": "2",
						"type": "t_uint256"
					},
					{
						"astId": 21,
						"contract": "contracts/BaseLearn/UnburnableToken.sol:UnburnableToken",
						"label": "claimAmount",
						"offset": 0,
						"slot": "3",
						"type": "t_uint256"
					},
					{
						"astId": 24,
						"contract": "contracts/BaseLearn/UnburnableToken.sol:UnburnableToken",
						"label": "balancesarray",
						"offset": 0,
						"slot": "4",
						"type": "t_array(t_address)dyn_storage"
					}
				],
				"types": {
					"t_address": {
						"encoding": "inplace",
						"label": "address",
						"numberOfBytes": "20"
					},
					"t_array(t_address)dyn_storage": {
						"base": "t_address",
						"encoding": "dynamic_array",
						"label": "address[]",
						"numberOfBytes": "32"
					},
					"t_mapping(t_address,t_uint256)": {
						"encoding": "mapping",
						"key": "t_address",
						"label": "mapping(address => uint256)",
						"numberOfBytes": "32",
						"value": "t_uint256"
					},
					"t_uint256": {
						"encoding": "inplace",
						"label": "uint256",
						"numberOfBytes": "32"
					}
				}
			},
			"userdoc": {
				"kind": "user",
				"methods": {
					"claim()": {
						"notice": "Cada usuario solo puede reclamar una vez.No se pueden reclamar más tokens si el suministro total ha sido distribuido."
					},
					"safeTransfer(address,uint256)": {
						"notice": "La transferencia debe cumplir con ciertas condiciones de seguridad."
					}
				},
				"version": 1
			}
		}
	}
}