{
	"contracts/BaseLearn/FavoriteRecords.sol": {
		"FavoriteRecords": {
			"abi": [
				{
					"inputs": [],
					"stateMutability": "nonpayable",
					"type": "constructor"
				},
				{
					"inputs": [
						{
							"internalType": "string",
							"name": "_albumName",
							"type": "string"
						}
					],
					"name": "NotApproved",
					"type": "error"
				},
				{
					"inputs": [
						{
							"internalType": "string",
							"name": "_albumName",
							"type": "string"
						}
					],
					"name": "addRecord",
					"outputs": [],
					"stateMutability": "nonpayable",
					"type": "function"
				},
				{
					"inputs": [],
					"name": "getApprovedRecords",
					"outputs": [
						{
							"internalType": "string[]",
							"name": "",
							"type": "string[]"
						}
					],
					"stateMutability": "view",
					"type": "function"
				},
				{
					"inputs": [
						{
							"internalType": "address",
							"name": "_address",
							"type": "address"
						}
					],
					"name": "getUserFavorites",
					"outputs": [
						{
							"internalType": "string[]",
							"name": "",
							"type": "string[]"
						}
					],
					"stateMutability": "view",
					"type": "function"
				},
				{
					"inputs": [],
					"name": "resetUserFavorites",
					"outputs": [],
					"stateMutability": "nonpayable",
					"type": "function"
				},
				{
					"inputs": [
						{
							"internalType": "address",
							"name": "",
							"type": "address"
						},
						{
							"internalType": "string",
							"name": "",
							"type": "string"
						}
					],
					"name": "userFavorites",
					"outputs": [
						{
							"internalType": "bool",
							"name": "",
							"type": "bool"
						}
					],
					"stateMutability": "view",
					"type": "function"
				}
			],
			"devdoc": {
				"errors": {
					"NotApproved(string)": [
						{
							"details": "Custom error to handle unapproved records",
							"params": {
								"_albumName": "Nombre del album con error"
							}
						}
					]
				},
				"kind": "dev",
				"methods": {
					"addRecord(string)": {
						"details": "Funcion para agregar registros de albunes de usuarios",
						"params": {
							"_albumName": "El nombre del album a agregar"
						}
					},
					"resetUserFavorites()": {
						"details": "Funcion para resetear albunes favoritos"
					}
				},
				"version": 1
			},
			"evm": {
				"assembly": "    /* \"contracts/BaseLearn/FavoriteRecords.sol\":96:3284  contract FavoriteRecords {... */\n  mstore(0x40, 0x80)\n    /* \"contracts/BaseLearn/FavoriteRecords.sol\":668:1077  constructor() {... */\n  callvalue\n  dup1\n  iszero\n  tag_1\n  jumpi\n  0x00\n  dup1\n  revert\ntag_1:\n  pop\n    /* \"contracts/BaseLearn/FavoriteRecords.sol\":692:717  agregaInicial(\"Thriller\") */\n  tag_4\n  mload(0x40)\n  dup1\n  0x40\n  add\n  0x40\n  mstore\n  dup1\n  0x08\n  dup2\n  mstore\n  0x20\n  add\n  0x546872696c6c6572000000000000000000000000000000000000000000000000\n  dup2\n  mstore\n  pop\n    /* \"contracts/BaseLearn/FavoriteRecords.sol\":692:705  agregaInicial */\n  shl(0x20, tag_5)\n    /* \"contracts/BaseLearn/FavoriteRecords.sol\":692:717  agregaInicial(\"Thriller\") */\n  0x20\n  shr\n  jump\t// in\ntag_4:\n    /* \"contracts/BaseLearn/FavoriteRecords.sol\":727:757  agregaInicial(\"Back in Black\") */\n  tag_6\n  mload(0x40)\n  dup1\n  0x40\n  add\n  0x40\n  mstore\n  dup1\n  0x0d\n  dup2\n  mstore\n  0x20\n  add\n  0x4261636b20696e20426c61636b00000000000000000000000000000000000000\n  dup2\n  mstore\n  pop\n    /* \"contracts/BaseLearn/FavoriteRecords.sol\":727:740  agregaInicial */\n  shl(0x20, tag_5)\n    /* \"contracts/BaseLearn/FavoriteRecords.sol\":727:757  agregaInicial(\"Back in Black\") */\n  0x20\n  shr\n  jump\t// in\ntag_6:\n    /* \"contracts/BaseLearn/FavoriteRecords.sol\":767:797  agregaInicial(\"The Bodyguard\") */\n  tag_7\n  mload(0x40)\n  dup1\n  0x40\n  add\n  0x40\n  mstore\n  dup1\n  0x0d\n  dup2\n  mstore\n  0x20\n  add\n  0x54686520426f6479677561726400000000000000000000000000000000000000\n  dup2\n  mstore\n  pop\n    /* \"contracts/BaseLearn/FavoriteRecords.sol\":767:780  agregaInicial */\n  shl(0x20, tag_5)\n    /* \"contracts/BaseLearn/FavoriteRecords.sol\":767:797  agregaInicial(\"The Bodyguard\") */\n  0x20\n  shr\n  jump\t// in\ntag_7:\n    /* \"contracts/BaseLearn/FavoriteRecords.sol\":807:849  agregaInicial(\"The Dark Side of the Moon\") */\n  tag_8\n  mload(0x40)\n  dup1\n  0x40\n  add\n  0x40\n  mstore\n  dup1\n  0x19\n  dup2\n  mstore\n  0x20\n  add\n  0x546865204461726b2053696465206f6620746865204d6f6f6e00000000000000\n  dup2\n  mstore\n  pop\n    /* \"contracts/BaseLearn/FavoriteRecords.sol\":807:820  agregaInicial */\n  shl(0x20, tag_5)\n    /* \"contracts/BaseLearn/FavoriteRecords.sol\":807:849  agregaInicial(\"The Dark Side of the Moon\") */\n  0x20\n  shr\n  jump\t// in\ntag_8:\n    /* \"contracts/BaseLearn/FavoriteRecords.sol\":859:907  agregaInicial(\"Their Greatest Hits (1971-1975)\") */\n  tag_9\n  mload(0x40)\n  dup1\n  0x40\n  add\n  0x40\n  mstore\n  dup1\n  0x1f\n  dup2\n  mstore\n  0x20\n  add\n  0x546865697220477265617465737420486974732028313937312d313937352900\n  dup2\n  mstore\n  pop\n    /* \"contracts/BaseLearn/FavoriteRecords.sol\":859:872  agregaInicial */\n  shl(0x20, tag_5)\n    /* \"contracts/BaseLearn/FavoriteRecords.sol\":859:907  agregaInicial(\"Their Greatest Hits (1971-1975)\") */\n  0x20\n  shr\n  jump\t// in\ntag_9:\n    /* \"contracts/BaseLearn/FavoriteRecords.sol\":917:950  agregaInicial(\"Hotel California\") */\n  tag_10\n  mload(0x40)\n  dup1\n  0x40\n  add\n  0x40\n  mstore\n  dup1\n  0x10\n  dup2\n  mstore\n  0x20\n  add\n  0x486f74656c2043616c69666f726e696100000000000000000000000000000000\n  dup2\n  mstore\n  pop\n    /* \"contracts/BaseLearn/FavoriteRecords.sol\":917:930  agregaInicial */\n  shl(0x20, tag_5)\n    /* \"contracts/BaseLearn/FavoriteRecords.sol\":917:950  agregaInicial(\"Hotel California\") */\n  0x20\n  shr\n  jump\t// in\ntag_10:\n    /* \"contracts/BaseLearn/FavoriteRecords.sol\":960:989  agregaInicial(\"Come On Over\") */\n  tag_11\n  mload(0x40)\n  dup1\n  0x40\n  add\n  0x40\n  mstore\n  dup1\n  0x0c\n  dup2\n  mstore\n  0x20\n  add\n  0x436f6d65204f6e204f7665720000000000000000000000000000000000000000\n  dup2\n  mstore\n  pop\n    /* \"contracts/BaseLearn/FavoriteRecords.sol\":960:973  agregaInicial */\n  shl(0x20, tag_5)\n    /* \"contracts/BaseLearn/FavoriteRecords.sol\":960:989  agregaInicial(\"Come On Over\") */\n  0x20\n  shr\n  jump\t// in\ntag_11:\n    /* \"contracts/BaseLearn/FavoriteRecords.sol\":999:1023  agregaInicial(\"Rumours\") */\n  tag_12\n  mload(0x40)\n  dup1\n  0x40\n  add\n  0x40\n  mstore\n  dup1\n  0x07\n  dup2\n  mstore\n  0x20\n  add\n  0x52756d6f75727300000000000000000000000000000000000000000000000000\n  dup2\n  mstore\n  pop\n    /* \"contracts/BaseLearn/FavoriteRecords.sol\":999:1012  agregaInicial */\n  shl(0x20, tag_5)\n    /* \"contracts/BaseLearn/FavoriteRecords.sol\":999:1023  agregaInicial(\"Rumours\") */\n  0x20\n  shr\n  jump\t// in\ntag_12:\n    /* \"contracts/BaseLearn/FavoriteRecords.sol\":1033:1070  agregaInicial(\"Saturday Night Fever\") */\n  tag_13\n  mload(0x40)\n  dup1\n  0x40\n  add\n  0x40\n  mstore\n  dup1\n  0x14\n  dup2\n  mstore\n  0x20\n  add\n  0x5361747572646179204e69676874204665766572000000000000000000000000\n  dup2\n  mstore\n  pop\n    /* \"contracts/BaseLearn/FavoriteRecords.sol\":1033:1046  agregaInicial */\n  shl(0x20, tag_5)\n    /* \"contracts/BaseLearn/FavoriteRecords.sol\":1033:1070  agregaInicial(\"Saturday Night Fever\") */\n  0x20\n  shr\n  jump\t// in\ntag_13:\n    /* \"contracts/BaseLearn/FavoriteRecords.sol\":96:3284  contract FavoriteRecords {... */\n  jump(tag_14)\n    /* \"contracts/BaseLearn/FavoriteRecords.sol\":1216:1390  function agregaInicial(string memory _albumName) private {... */\ntag_5:\n    /* \"contracts/BaseLearn/FavoriteRecords.sol\":1317:1321  true */\n  0x01\n    /* \"contracts/BaseLearn/FavoriteRecords.sol\":1287:1302  approvedRecords */\n  0x00\n    /* \"contracts/BaseLearn/FavoriteRecords.sol\":1303:1313  _albumName */\n  dup3\n    /* \"contracts/BaseLearn/FavoriteRecords.sol\":1287:1314  approvedRecords[_albumName] */\n  mload(0x40)\n  tag_16\n  swap2\n  swap1\n  tag_17\n  jump\t// in\ntag_16:\n  swap1\n  dup2\n  mstore\n  0x20\n  add\n  mload(0x40)\n  dup1\n  swap2\n  sub\n  swap1\n  keccak256\n  0x00\n    /* \"contracts/BaseLearn/FavoriteRecords.sol\":1287:1321  approvedRecords[_albumName] = true */\n  0x0100\n  exp\n  dup2\n  sload\n  dup2\n  0xff\n  mul\n  not\n  and\n  swap1\n  dup4\n  iszero\n  iszero\n  mul\n  or\n  swap1\n  sstore\n  pop\n    /* \"contracts/BaseLearn/FavoriteRecords.sol\":1335:1357  approvedRecordsIndices */\n  0x01\n    /* \"contracts/BaseLearn/FavoriteRecords.sol\":1363:1373  _albumName */\n  dup2\n    /* \"contracts/BaseLearn/FavoriteRecords.sol\":1335:1374  approvedRecordsIndices.push(_albumName) */\n  swap1\n  dup1\n  0x01\n  dup2\n  sload\n  add\n  dup1\n  dup3\n  sstore\n  dup1\n  swap2\n  pop\n  pop\n  0x01\n  swap1\n  sub\n  swap1\n  0x00\n  mstore\n  keccak256(0x00, 0x20)\n  add\n  0x00\n  swap1\n  swap2\n  swap1\n  swap2\n  swap1\n  swap2\n  pop\n  swap1\n  dup2\n  tag_19\n  swap2\n  swap1\n  tag_20\n  jump\t// in\ntag_19:\n  pop\n    /* \"contracts/BaseLearn/FavoriteRecords.sol\":1216:1390  function agregaInicial(string memory _albumName) private {... */\n  pop\n  jump\t// out\n    /* \"#utility.yul\":7:106   */\ntag_21:\n    /* \"#utility.yul\":59:65   */\n  0x00\n    /* \"#utility.yul\":93:98   */\n  dup2\n    /* \"#utility.yul\":87:99   */\n  mload\n    /* \"#utility.yul\":77:99   */\n  swap1\n  pop\n    /* \"#utility.yul\":7:106   */\n  swap2\n  swap1\n  pop\n  jump\t// out\n    /* \"#utility.yul\":112:260   */\ntag_22:\n    /* \"#utility.yul\":214:225   */\n  0x00\n    /* \"#utility.yul\":251:254   */\n  dup2\n    /* \"#utility.yul\":236:254   */\n  swap1\n  pop\n    /* \"#utility.yul\":112:260   */\n  swap3\n  swap2\n  pop\n  pop\n  jump\t// out\n    /* \"#utility.yul\":266:405   */\ntag_23:\n    /* \"#utility.yul\":355:361   */\n  dup3\n    /* \"#utility.yul\":350:353   */\n  dup2\n    /* \"#utility.yul\":345:348   */\n  dup4\n    /* \"#utility.yul\":339:362   */\n  mcopy\n    /* \"#utility.yul\":396:397   */\n  0x00\n    /* \"#utility.yul\":387:393   */\n  dup4\n    /* \"#utility.yul\":382:385   */\n  dup4\n    /* \"#utility.yul\":378:394   */\n  add\n    /* \"#utility.yul\":371:398   */\n  mstore\n    /* \"#utility.yul\":266:405   */\n  pop\n  pop\n  pop\n  jump\t// out\n    /* \"#utility.yul\":411:801   */\ntag_24:\n    /* \"#utility.yul\":517:520   */\n  0x00\n    /* \"#utility.yul\":545:584   */\n  tag_49\n    /* \"#utility.yul\":578:583   */\n  dup3\n    /* \"#utility.yul\":545:584   */\n  tag_21\n  jump\t// in\ntag_49:\n    /* \"#utility.yul\":600:689   */\n  tag_50\n    /* \"#utility.yul\":682:688   */\n  dup2\n    /* \"#utility.yul\":677:680   */\n  dup6\n    /* \"#utility.yul\":600:689   */\n  tag_22\n  jump\t// in\ntag_50:\n    /* \"#utility.yul\":593:689   */\n  swap4\n  pop\n    /* \"#utility.yul\":698:763   */\n  tag_51\n    /* \"#utility.yul\":756:762   */\n  dup2\n    /* \"#utility.yul\":751:754   */\n  dup6\n    /* \"#utility.yul\":744:748   */\n  0x20\n    /* \"#utility.yul\":737:742   */\n  dup7\n    /* \"#utility.yul\":733:749   */\n  add\n    /* \"#utility.yul\":698:763   */\n  tag_23\n  jump\t// in\ntag_51:\n    /* \"#utility.yul\":788:794   */\n  dup1\n    /* \"#utility.yul\":783:786   */\n  dup5\n    /* \"#utility.yul\":779:795   */\n  add\n    /* \"#utility.yul\":772:795   */\n  swap2\n  pop\n    /* \"#utility.yul\":521:801   */\n  pop\n    /* \"#utility.yul\":411:801   */\n  swap3\n  swap2\n  pop\n  pop\n  jump\t// out\n    /* \"#utility.yul\":807:1082   */\ntag_17:\n    /* \"#utility.yul\":939:942   */\n  0x00\n    /* \"#utility.yul\":961:1056   */\n  tag_53\n    /* \"#utility.yul\":1052:1055   */\n  dup3\n    /* \"#utility.yul\":1043:1049   */\n  dup5\n    /* \"#utility.yul\":961:1056   */\n  tag_24\n  jump\t// in\ntag_53:\n    /* \"#utility.yul\":954:1056   */\n  swap2\n  pop\n    /* \"#utility.yul\":1073:1076   */\n  dup2\n    /* \"#utility.yul\":1066:1076   */\n  swap1\n  pop\n    /* \"#utility.yul\":807:1082   */\n  swap3\n  swap2\n  pop\n  pop\n  jump\t// out\n    /* \"#utility.yul\":1088:1268   */\ntag_25:\n    /* \"#utility.yul\":1136:1213   */\n  0x4e487b7100000000000000000000000000000000000000000000000000000000\n    /* \"#utility.yul\":1133:1134   */\n  0x00\n    /* \"#utility.yul\":1126:1214   */\n  mstore\n    /* \"#utility.yul\":1233:1237   */\n  0x41\n    /* \"#utility.yul\":1230:1231   */\n  0x04\n    /* \"#utility.yul\":1223:1238   */\n  mstore\n    /* \"#utility.yul\":1257:1261   */\n  0x24\n    /* \"#utility.yul\":1254:1255   */\n  0x00\n    /* \"#utility.yul\":1247:1262   */\n  revert\n    /* \"#utility.yul\":1274:1454   */\ntag_26:\n    /* \"#utility.yul\":1322:1399   */\n  0x4e487b7100000000000000000000000000000000000000000000000000000000\n    /* \"#utility.yul\":1319:1320   */\n  0x00\n    /* \"#utility.yul\":1312:1400   */\n  mstore\n    /* \"#utility.yul\":1419:1423   */\n  0x22\n    /* \"#utility.yul\":1416:1417   */\n  0x04\n    /* \"#utility.yul\":1409:1424   */\n  mstore\n    /* \"#utility.yul\":1443:1447   */\n  0x24\n    /* \"#utility.yul\":1440:1441   */\n  0x00\n    /* \"#utility.yul\":1433:1448   */\n  revert\n    /* \"#utility.yul\":1460:1780   */\ntag_27:\n    /* \"#utility.yul\":1504:1510   */\n  0x00\n    /* \"#utility.yul\":1541:1542   */\n  0x02\n    /* \"#utility.yul\":1535:1539   */\n  dup3\n    /* \"#utility.yul\":1531:1543   */\n  div\n    /* \"#utility.yul\":1521:1543   */\n  swap1\n  pop\n    /* \"#utility.yul\":1588:1589   */\n  0x01\n    /* \"#utility.yul\":1582:1586   */\n  dup3\n    /* \"#utility.yul\":1578:1590   */\n  and\n    /* \"#utility.yul\":1609:1627   */\n  dup1\n    /* \"#utility.yul\":1599:1680   */\n  tag_57\n  jumpi\n    /* \"#utility.yul\":1665:1669   */\n  0x7f\n    /* \"#utility.yul\":1657:1663   */\n  dup3\n    /* \"#utility.yul\":1653:1670   */\n  and\n    /* \"#utility.yul\":1643:1670   */\n  swap2\n  pop\n    /* \"#utility.yul\":1599:1680   */\ntag_57:\n    /* \"#utility.yul\":1727:1729   */\n  0x20\n    /* \"#utility.yul\":1719:1725   */\n  dup3\n    /* \"#utility.yul\":1716:1730   */\n  lt\n    /* \"#utility.yul\":1696:1714   */\n  dup2\n    /* \"#utility.yul\":1693:1731   */\n  sub\n    /* \"#utility.yul\":1690:1774   */\n  tag_58\n  jumpi\n    /* \"#utility.yul\":1746:1764   */\n  tag_59\n  tag_26\n  jump\t// in\ntag_59:\n    /* \"#utility.yul\":1690:1774   */\ntag_58:\n    /* \"#utility.yul\":1511:1780   */\n  pop\n    /* \"#utility.yul\":1460:1780   */\n  swap2\n  swap1\n  pop\n  jump\t// out\n    /* \"#utility.yul\":1786:1927   */\ntag_28:\n    /* \"#utility.yul\":1835:1839   */\n  0x00\n    /* \"#utility.yul\":1858:1861   */\n  dup2\n    /* \"#utility.yul\":1850:1861   */\n  swap1\n  pop\n    /* \"#utility.yul\":1881:1884   */\n  dup2\n    /* \"#utility.yul\":1878:1879   */\n  0x00\n    /* \"#utility.yul\":1871:1885   */\n  mstore\n    /* \"#utility.yul\":1915:1919   */\n  0x20\n    /* \"#utility.yul\":1912:1913   */\n  0x00\n    /* \"#utility.yul\":1902:1920   */\n  keccak256\n    /* \"#utility.yul\":1894:1920   */\n  swap1\n  pop\n    /* \"#utility.yul\":1786:1927   */\n  swap2\n  swap1\n  pop\n  jump\t// out\n    /* \"#utility.yul\":1933:2026   */\ntag_29:\n    /* \"#utility.yul\":1970:1976   */\n  0x00\n    /* \"#utility.yul\":2017:2019   */\n  0x20\n    /* \"#utility.yul\":2012:2014   */\n  0x1f\n    /* \"#utility.yul\":2005:2010   */\n  dup4\n    /* \"#utility.yul\":2001:2015   */\n  add\n    /* \"#utility.yul\":1997:2020   */\n  div\n    /* \"#utility.yul\":1987:2020   */\n  swap1\n  pop\n    /* \"#utility.yul\":1933:2026   */\n  swap2\n  swap1\n  pop\n  jump\t// out\n    /* \"#utility.yul\":2032:2139   */\ntag_30:\n    /* \"#utility.yul\":2076:2084   */\n  0x00\n    /* \"#utility.yul\":2126:2131   */\n  dup3\n    /* \"#utility.yul\":2120:2124   */\n  dup3\n    /* \"#utility.yul\":2116:2132   */\n  shl\n    /* \"#utility.yul\":2095:2132   */\n  swap1\n  pop\n    /* \"#utility.yul\":2032:2139   */\n  swap3\n  swap2\n  pop\n  pop\n  jump\t// out\n    /* \"#utility.yul\":2145:2538   */\ntag_31:\n    /* \"#utility.yul\":2214:2220   */\n  0x00\n    /* \"#utility.yul\":2264:2265   */\n  0x08\n    /* \"#utility.yul\":2252:2262   */\n  dup4\n    /* \"#utility.yul\":2248:2266   */\n  mul\n    /* \"#utility.yul\":2287:2384   */\n  tag_64\n    /* \"#utility.yul\":2317:2383   */\n  0xffffffffffffffffffffffffffffffffffffffffffffffffffffffffffffffff\n    /* \"#utility.yul\":2306:2315   */\n  dup3\n    /* \"#utility.yul\":2287:2384   */\n  tag_30\n  jump\t// in\ntag_64:\n    /* \"#utility.yul\":2405:2444   */\n  tag_65\n    /* \"#utility.yul\":2435:2443   */\n  dup7\n    /* \"#utility.yul\":2424:2433   */\n  dup4\n    /* \"#utility.yul\":2405:2444   */\n  tag_30\n  jump\t// in\ntag_65:\n    /* \"#utility.yul\":2393:2444   */\n  swap6\n  pop\n    /* \"#utility.yul\":2477:2481   */\n  dup1\n    /* \"#utility.yul\":2473:2482   */\n  not\n    /* \"#utility.yul\":2466:2471   */\n  dup5\n    /* \"#utility.yul\":2462:2483   */\n  and\n    /* \"#utility.yul\":2453:2483   */\n  swap4\n  pop\n    /* \"#utility.yul\":2526:2530   */\n  dup1\n    /* \"#utility.yul\":2516:2524   */\n  dup7\n    /* \"#utility.yul\":2512:2531   */\n  and\n    /* \"#utility.yul\":2505:2510   */\n  dup5\n    /* \"#utility.yul\":2502:2532   */\n  or\n    /* \"#utility.yul\":2492:2532   */\n  swap3\n  pop\n    /* \"#utility.yul\":2221:2538   */\n  pop\n  pop\n    /* \"#utility.yul\":2145:2538   */\n  swap4\n  swap3\n  pop\n  pop\n  pop\n  jump\t// out\n    /* \"#utility.yul\":2544:2621   */\ntag_32:\n    /* \"#utility.yul\":2581:2588   */\n  0x00\n    /* \"#utility.yul\":2610:2615   */\n  dup2\n    /* \"#utility.yul\":2599:2615   */\n  swap1\n  pop\n    /* \"#utility.yul\":2544:2621   */\n  swap2\n  swap1\n  pop\n  jump\t// out\n    /* \"#utility.yul\":2627:2687   */\ntag_33:\n    /* \"#utility.yul\":2655:2658   */\n  0x00\n    /* \"#utility.yul\":2676:2681   */\n  dup2\n    /* \"#utility.yul\":2669:2681   */\n  swap1\n  pop\n    /* \"#utility.yul\":2627:2687   */\n  swap2\n  swap1\n  pop\n  jump\t// out\n    /* \"#utility.yul\":2693:2835   */\ntag_34:\n    /* \"#utility.yul\":2743:2752   */\n  0x00\n    /* \"#utility.yul\":2776:2829   */\n  tag_69\n    /* \"#utility.yul\":2794:2828   */\n  tag_70\n    /* \"#utility.yul\":2803:2827   */\n  tag_71\n    /* \"#utility.yul\":2821:2826   */\n  dup5\n    /* \"#utility.yul\":2803:2827   */\n  tag_32\n  jump\t// in\ntag_71:\n    /* \"#utility.yul\":2794:2828   */\n  tag_33\n  jump\t// in\ntag_70:\n    /* \"#utility.yul\":2776:2829   */\n  tag_32\n  jump\t// in\ntag_69:\n    /* \"#utility.yul\":2763:2829   */\n  swap1\n  pop\n    /* \"#utility.yul\":2693:2835   */\n  swap2\n  swap1\n  pop\n  jump\t// out\n    /* \"#utility.yul\":2841:2916   */\ntag_35:\n    /* \"#utility.yul\":2884:2887   */\n  0x00\n    /* \"#utility.yul\":2905:2910   */\n  dup2\n    /* \"#utility.yul\":2898:2910   */\n  swap1\n  pop\n    /* \"#utility.yul\":2841:2916   */\n  swap2\n  swap1\n  pop\n  jump\t// out\n    /* \"#utility.yul\":2922:3191   */\ntag_36:\n    /* \"#utility.yul\":3032:3071   */\n  tag_74\n    /* \"#utility.yul\":3063:3070   */\n  dup4\n    /* \"#utility.yul\":3032:3071   */\n  tag_34\n  jump\t// in\ntag_74:\n    /* \"#utility.yul\":3093:3184   */\n  tag_75\n    /* \"#utility.yul\":3142:3183   */\n  tag_76\n    /* \"#utility.yul\":3166:3182   */\n  dup3\n    /* \"#utility.yul\":3142:3183   */\n  tag_35\n  jump\t// in\ntag_76:\n    /* \"#utility.yul\":3134:3140   */\n  dup5\n    /* \"#utility.yul\":3127:3131   */\n  dup5\n    /* \"#utility.yul\":3121:3132   */\n  sload\n    /* \"#utility.yul\":3093:3184   */\n  tag_31\n  jump\t// in\ntag_75:\n    /* \"#utility.yul\":3087:3091   */\n  dup3\n    /* \"#utility.yul\":3080:3185   */\n  sstore\n    /* \"#utility.yul\":2998:3191   */\n  pop\n    /* \"#utility.yul\":2922:3191   */\n  pop\n  pop\n  pop\n  jump\t// out\n    /* \"#utility.yul\":3197:3270   */\ntag_37:\n    /* \"#utility.yul\":3242:3245   */\n  0x00\n    /* \"#utility.yul\":3197:3270   */\n  swap1\n  jump\t// out\n    /* \"#utility.yul\":3276:3465   */\ntag_38:\n    /* \"#utility.yul\":3353:3385   */\n  tag_79\n  tag_37\n  jump\t// in\ntag_79:\n    /* \"#utility.yul\":3394:3459   */\n  tag_80\n    /* \"#utility.yul\":3452:3458   */\n  dup2\n    /* \"#utility.yul\":3444:3450   */\n  dup5\n    /* \"#utility.yul\":3438:3442   */\n  dup5\n    /* \"#utility.yul\":3394:3459   */\n  tag_36\n  jump\t// in\ntag_80:\n    /* \"#utility.yul\":3329:3465   */\n  pop\n    /* \"#utility.yul\":3276:3465   */\n  pop\n  pop\n  jump\t// out\n    /* \"#utility.yul\":3471:3657   */\ntag_39:\n    /* \"#utility.yul\":3531:3651   */\ntag_82:\n    /* \"#utility.yul\":3548:3551   */\n  dup2\n    /* \"#utility.yul\":3541:3546   */\n  dup2\n    /* \"#utility.yul\":3538:3552   */\n  lt\n    /* \"#utility.yul\":3531:3651   */\n  iszero\n  tag_84\n  jumpi\n    /* \"#utility.yul\":3602:3641   */\n  tag_85\n    /* \"#utility.yul\":3639:3640   */\n  0x00\n    /* \"#utility.yul\":3632:3637   */\n  dup3\n    /* \"#utility.yul\":3602:3641   */\n  tag_38\n  jump\t// in\ntag_85:\n    /* \"#utility.yul\":3575:3576   */\n  0x01\n    /* \"#utility.yul\":3568:3573   */\n  dup2\n    /* \"#utility.yul\":3564:3577   */\n  add\n    /* \"#utility.yul\":3555:3577   */\n  swap1\n  pop\n    /* \"#utility.yul\":3531:3651   */\n  jump(tag_82)\ntag_84:\n    /* \"#utility.yul\":3471:3657   */\n  pop\n  pop\n  jump\t// out\n    /* \"#utility.yul\":3663:4206   */\ntag_40:\n    /* \"#utility.yul\":3764:3766   */\n  0x1f\n    /* \"#utility.yul\":3759:3762   */\n  dup3\n    /* \"#utility.yul\":3756:3767   */\n  gt\n    /* \"#utility.yul\":3753:4199   */\n  iszero\n  tag_87\n  jumpi\n    /* \"#utility.yul\":3798:3836   */\n  tag_88\n    /* \"#utility.yul\":3830:3835   */\n  dup2\n    /* \"#utility.yul\":3798:3836   */\n  tag_28\n  jump\t// in\ntag_88:\n    /* \"#utility.yul\":3882:3911   */\n  tag_89\n    /* \"#utility.yul\":3900:3910   */\n  dup5\n    /* \"#utility.yul\":3882:3911   */\n  tag_29\n  jump\t// in\ntag_89:\n    /* \"#utility.yul\":3872:3880   */\n  dup2\n    /* \"#utility.yul\":3868:3912   */\n  add\n    /* \"#utility.yul\":4065:4067   */\n  0x20\n    /* \"#utility.yul\":4053:4063   */\n  dup6\n    /* \"#utility.yul\":4050:4068   */\n  lt\n    /* \"#utility.yul\":4047:4096   */\n  iszero\n  tag_90\n  jumpi\n    /* \"#utility.yul\":4086:4094   */\n  dup2\n    /* \"#utility.yul\":4071:4094   */\n  swap1\n  pop\n    /* \"#utility.yul\":4047:4096   */\ntag_90:\n    /* \"#utility.yul\":4109:4189   */\n  tag_91\n    /* \"#utility.yul\":4165:4187   */\n  tag_92\n    /* \"#utility.yul\":4183:4186   */\n  dup6\n    /* \"#utility.yul\":4165:4187   */\n  tag_29\n  jump\t// in\ntag_92:\n    /* \"#utility.yul\":4155:4163   */\n  dup4\n    /* \"#utility.yul\":4151:4188   */\n  add\n    /* \"#utility.yul\":4138:4149   */\n  dup3\n    /* \"#utility.yul\":4109:4189   */\n  tag_39\n  jump\t// in\ntag_91:\n    /* \"#utility.yul\":3768:4199   */\n  pop\n  pop\n    /* \"#utility.yul\":3753:4199   */\ntag_87:\n    /* \"#utility.yul\":3663:4206   */\n  pop\n  pop\n  pop\n  jump\t// out\n    /* \"#utility.yul\":4212:4329   */\ntag_41:\n    /* \"#utility.yul\":4266:4274   */\n  0x00\n    /* \"#utility.yul\":4316:4321   */\n  dup3\n    /* \"#utility.yul\":4310:4314   */\n  dup3\n    /* \"#utility.yul\":4306:4322   */\n  shr\n    /* \"#utility.yul\":4285:4322   */\n  swap1\n  pop\n    /* \"#utility.yul\":4212:4329   */\n  swap3\n  swap2\n  pop\n  pop\n  jump\t// out\n    /* \"#utility.yul\":4335:4504   */\ntag_42:\n    /* \"#utility.yul\":4379:4385   */\n  0x00\n    /* \"#utility.yul\":4412:4463   */\n  tag_95\n    /* \"#utility.yul\":4460:4461   */\n  0x00\n    /* \"#utility.yul\":4456:4462   */\n  not\n    /* \"#utility.yul\":4448:4453   */\n  dup5\n    /* \"#utility.yul\":4445:4446   */\n  0x08\n    /* \"#utility.yul\":4441:4454   */\n  mul\n    /* \"#utility.yul\":4412:4463   */\n  tag_41\n  jump\t// in\ntag_95:\n    /* \"#utility.yul\":4408:4464   */\n  not\n    /* \"#utility.yul\":4493:4497   */\n  dup1\n    /* \"#utility.yul\":4487:4491   */\n  dup4\n    /* \"#utility.yul\":4483:4498   */\n  and\n    /* \"#utility.yul\":4473:4498   */\n  swap2\n  pop\n    /* \"#utility.yul\":4386:4504   */\n  pop\n    /* \"#utility.yul\":4335:4504   */\n  swap3\n  swap2\n  pop\n  pop\n  jump\t// out\n    /* \"#utility.yul\":4509:4804   */\ntag_43:\n    /* \"#utility.yul\":4585:4589   */\n  0x00\n    /* \"#utility.yul\":4731:4760   */\n  tag_97\n    /* \"#utility.yul\":4756:4759   */\n  dup4\n    /* \"#utility.yul\":4750:4754   */\n  dup4\n    /* \"#utility.yul\":4731:4760   */\n  tag_42\n  jump\t// in\ntag_97:\n    /* \"#utility.yul\":4723:4760   */\n  swap2\n  pop\n    /* \"#utility.yul\":4793:4796   */\n  dup3\n    /* \"#utility.yul\":4790:4791   */\n  0x02\n    /* \"#utility.yul\":4786:4797   */\n  mul\n    /* \"#utility.yul\":4780:4784   */\n  dup3\n    /* \"#utility.yul\":4777:4798   */\n  or\n    /* \"#utility.yul\":4769:4798   */\n  swap1\n  pop\n    /* \"#utility.yul\":4509:4804   */\n  swap3\n  swap2\n  pop\n  pop\n  jump\t// out\n    /* \"#utility.yul\":4809:6204   */\ntag_20:\n    /* \"#utility.yul\":4926:4963   */\n  tag_99\n    /* \"#utility.yul\":4959:4962   */\n  dup3\n    /* \"#utility.yul\":4926:4963   */\n  tag_21\n  jump\t// in\ntag_99:\n    /* \"#utility.yul\":5028:5046   */\n  0xffffffffffffffff\n    /* \"#utility.yul\":5020:5026   */\n  dup2\n    /* \"#utility.yul\":5017:5047   */\n  gt\n    /* \"#utility.yul\":5014:5070   */\n  iszero\n  tag_100\n  jumpi\n    /* \"#utility.yul\":5050:5068   */\n  tag_101\n  tag_25\n  jump\t// in\ntag_101:\n    /* \"#utility.yul\":5014:5070   */\ntag_100:\n    /* \"#utility.yul\":5094:5132   */\n  tag_102\n    /* \"#utility.yul\":5126:5130   */\n  dup3\n    /* \"#utility.yul\":5120:5131   */\n  sload\n    /* \"#utility.yul\":5094:5132   */\n  tag_27\n  jump\t// in\ntag_102:\n    /* \"#utility.yul\":5179:5246   */\n  tag_103\n    /* \"#utility.yul\":5239:5245   */\n  dup3\n    /* \"#utility.yul\":5231:5237   */\n  dup3\n    /* \"#utility.yul\":5225:5229   */\n  dup6\n    /* \"#utility.yul\":5179:5246   */\n  tag_40\n  jump\t// in\ntag_103:\n    /* \"#utility.yul\":5273:5274   */\n  0x00\n    /* \"#utility.yul\":5297:5301   */\n  0x20\n    /* \"#utility.yul\":5284:5301   */\n  swap1\n  pop\n    /* \"#utility.yul\":5329:5331   */\n  0x1f\n    /* \"#utility.yul\":5321:5327   */\n  dup4\n    /* \"#utility.yul\":5318:5332   */\n  gt\n    /* \"#utility.yul\":5346:5347   */\n  0x01\n    /* \"#utility.yul\":5341:5959   */\n  dup2\n  eq\n  tag_105\n  jumpi\n    /* \"#utility.yul\":6003:6004   */\n  0x00\n    /* \"#utility.yul\":6020:6026   */\n  dup5\n    /* \"#utility.yul\":6017:6094   */\n  iszero\n  tag_106\n  jumpi\n    /* \"#utility.yul\":6069:6078   */\n  dup3\n    /* \"#utility.yul\":6064:6067   */\n  dup8\n    /* \"#utility.yul\":6060:6079   */\n  add\n    /* \"#utility.yul\":6054:6080   */\n  mload\n    /* \"#utility.yul\":6045:6080   */\n  swap1\n  pop\n    /* \"#utility.yul\":6017:6094   */\ntag_106:\n    /* \"#utility.yul\":6120:6187   */\n  tag_107\n    /* \"#utility.yul\":6180:6186   */\n  dup6\n    /* \"#utility.yul\":6173:6178   */\n  dup3\n    /* \"#utility.yul\":6120:6187   */\n  tag_43\n  jump\t// in\ntag_107:\n    /* \"#utility.yul\":6114:6118   */\n  dup7\n    /* \"#utility.yul\":6107:6188   */\n  sstore\n    /* \"#utility.yul\":5976:6198   */\n  pop\n    /* \"#utility.yul\":5311:6198   */\n  jump(tag_104)\n    /* \"#utility.yul\":5341:5959   */\ntag_105:\n    /* \"#utility.yul\":5393:5397   */\n  0x1f\n    /* \"#utility.yul\":5389:5398   */\n  not\n    /* \"#utility.yul\":5381:5387   */\n  dup5\n    /* \"#utility.yul\":5377:5399   */\n  and\n    /* \"#utility.yul\":5427:5464   */\n  tag_108\n    /* \"#utility.yul\":5459:5463   */\n  dup7\n    /* \"#utility.yul\":5427:5464   */\n  tag_28\n  jump\t// in\ntag_108:\n    /* \"#utility.yul\":5486:5487   */\n  0x00\n    /* \"#utility.yul\":5500:5708   */\ntag_109:\n    /* \"#utility.yul\":5514:5521   */\n  dup3\n    /* \"#utility.yul\":5511:5512   */\n  dup2\n    /* \"#utility.yul\":5508:5522   */\n  lt\n    /* \"#utility.yul\":5500:5708   */\n  iszero\n  tag_111\n  jumpi\n    /* \"#utility.yul\":5593:5602   */\n  dup5\n    /* \"#utility.yul\":5588:5591   */\n  dup10\n    /* \"#utility.yul\":5584:5603   */\n  add\n    /* \"#utility.yul\":5578:5604   */\n  mload\n    /* \"#utility.yul\":5570:5576   */\n  dup3\n    /* \"#utility.yul\":5563:5605   */\n  sstore\n    /* \"#utility.yul\":5644:5645   */\n  0x01\n    /* \"#utility.yul\":5636:5642   */\n  dup3\n    /* \"#utility.yul\":5632:5646   */\n  add\n    /* \"#utility.yul\":5622:5646   */\n  swap2\n  pop\n    /* \"#utility.yul\":5691:5693   */\n  0x20\n    /* \"#utility.yul\":5680:5689   */\n  dup6\n    /* \"#utility.yul\":5676:5694   */\n  add\n    /* \"#utility.yul\":5663:5694   */\n  swap5\n  pop\n    /* \"#utility.yul\":5537:5541   */\n  0x20\n    /* \"#utility.yul\":5534:5535   */\n  dup2\n    /* \"#utility.yul\":5530:5542   */\n  add\n    /* \"#utility.yul\":5525:5542   */\n  swap1\n  pop\n    /* \"#utility.yul\":5500:5708   */\n  jump(tag_109)\ntag_111:\n    /* \"#utility.yul\":5736:5742   */\n  dup7\n    /* \"#utility.yul\":5727:5734   */\n  dup4\n    /* \"#utility.yul\":5724:5743   */\n  lt\n    /* \"#utility.yul\":5721:5900   */\n  iszero\n  tag_112\n  jumpi\n    /* \"#utility.yul\":5794:5803   */\n  dup5\n    /* \"#utility.yul\":5789:5792   */\n  dup10\n    /* \"#utility.yul\":5785:5804   */\n  add\n    /* \"#utility.yul\":5779:5805   */\n  mload\n    /* \"#utility.yul\":5837:5885   */\n  tag_113\n    /* \"#utility.yul\":5879:5883   */\n  0x1f\n    /* \"#utility.yul\":5871:5877   */\n  dup10\n    /* \"#utility.yul\":5867:5884   */\n  and\n    /* \"#utility.yul\":5856:5865   */\n  dup3\n    /* \"#utility.yul\":5837:5885   */\n  tag_42\n  jump\t// in\ntag_113:\n    /* \"#utility.yul\":5829:5835   */\n  dup4\n    /* \"#utility.yul\":5822:5886   */\n  sstore\n    /* \"#utility.yul\":5744:5900   */\n  pop\n    /* \"#utility.yul\":5721:5900   */\ntag_112:\n    /* \"#utility.yul\":5946:5947   */\n  0x01\n    /* \"#utility.yul\":5942:5943   */\n  0x02\n    /* \"#utility.yul\":5934:5940   */\n  dup9\n    /* \"#utility.yul\":5930:5944   */\n  mul\n    /* \"#utility.yul\":5926:5948   */\n  add\n    /* \"#utility.yul\":5920:5924   */\n  dup9\n    /* \"#utility.yul\":5913:5949   */\n  sstore\n    /* \"#utility.yul\":5348:5959   */\n  pop\n  pop\n  pop\n    /* \"#utility.yul\":5311:6198   */\ntag_104:\n  pop\n    /* \"#utility.yul\":4901:6204   */\n  pop\n  pop\n  pop\n    /* \"#utility.yul\":4809:6204   */\n  pop\n  pop\n  jump\t// out\n    /* \"contracts/BaseLearn/FavoriteRecords.sol\":96:3284  contract FavoriteRecords {... */\ntag_14:\n  dataSize(sub_0)\n  dup1\n  dataOffset(sub_0)\n  0x00\n  codecopy\n  0x00\n  return\nstop\n\nsub_0: assembly {\n        /* \"contracts/BaseLearn/FavoriteRecords.sol\":96:3284  contract FavoriteRecords {... */\n      mstore(0x40, 0x80)\n      callvalue\n      dup1\n      iszero\n      tag_1\n      jumpi\n      0x00\n      dup1\n      revert\n    tag_1:\n      pop\n      jumpi(tag_2, lt(calldatasize, 0x04))\n      shr(0xe0, calldataload(0x00))\n      dup1\n      0x1cf0830b\n      eq\n      tag_3\n      jumpi\n      dup1\n      0x837f8878\n      eq\n      tag_4\n      jumpi\n      dup1\n      0xc75c333c\n      eq\n      tag_5\n      jumpi\n      dup1\n      0xc7853148\n      eq\n      tag_6\n      jumpi\n      dup1\n      0xd81aa8c4\n      eq\n      tag_7\n      jumpi\n    tag_2:\n      0x00\n      dup1\n      revert\n        /* \"contracts/BaseLearn/FavoriteRecords.sol\":1533:1647  function getApprovedRecords() public view returns (string[] memory) {... */\n    tag_3:\n      tag_8\n      tag_9\n      jump\t// in\n    tag_8:\n      mload(0x40)\n      tag_10\n      swap2\n      swap1\n      tag_11\n      jump\t// in\n    tag_10:\n      mload(0x40)\n      dup1\n      swap2\n      sub\n      swap1\n      return\n        /* \"contracts/BaseLearn/FavoriteRecords.sol\":2659:3123  function resetUserFavorites() public {... */\n    tag_4:\n      tag_12\n      tag_13\n      jump\t// in\n    tag_12:\n      stop\n        /* \"contracts/BaseLearn/FavoriteRecords.sol\":402:466  mapping(address => mapping(string => bool)) public userFavorites */\n    tag_5:\n      tag_14\n      0x04\n      dup1\n      calldatasize\n      sub\n      dup2\n      add\n      swap1\n      tag_15\n      swap2\n      swap1\n      tag_16\n      jump\t// in\n    tag_15:\n      tag_17\n      jump\t// in\n    tag_14:\n      mload(0x40)\n      tag_18\n      swap2\n      swap1\n      tag_19\n      jump\t// in\n    tag_18:\n      mload(0x40)\n      dup1\n      swap2\n      sub\n      swap1\n      return\n        /* \"contracts/BaseLearn/FavoriteRecords.sol\":1788:1925  function getUserFavorites (address _address) public view returns (string[] memory) {... */\n    tag_6:\n      tag_20\n      0x04\n      dup1\n      calldatasize\n      sub\n      dup2\n      add\n      swap1\n      tag_21\n      swap2\n      swap1\n      tag_22\n      jump\t// in\n    tag_21:\n      tag_23\n      jump\t// in\n    tag_20:\n      mload(0x40)\n      tag_24\n      swap2\n      swap1\n      tag_11\n      jump\t// in\n    tag_24:\n      mload(0x40)\n      dup1\n      swap2\n      sub\n      swap1\n      return\n        /* \"contracts/BaseLearn/FavoriteRecords.sol\":2068:2585  function addRecord(string memory _albumName) public {... */\n    tag_7:\n      tag_25\n      0x04\n      dup1\n      calldatasize\n      sub\n      dup2\n      add\n      swap1\n      tag_26\n      swap2\n      swap1\n      tag_27\n      jump\t// in\n    tag_26:\n      tag_28\n      jump\t// in\n    tag_25:\n      stop\n        /* \"contracts/BaseLearn/FavoriteRecords.sol\":1533:1647  function getApprovedRecords() public view returns (string[] memory) {... */\n    tag_9:\n        /* \"contracts/BaseLearn/FavoriteRecords.sol\":1584:1599  string[] memory */\n      0x60\n        /* \"contracts/BaseLearn/FavoriteRecords.sol\":1618:1640  approvedRecordsIndices */\n      0x01\n        /* \"contracts/BaseLearn/FavoriteRecords.sol\":1611:1640  return approvedRecordsIndices */\n      dup1\n      sload\n      dup1\n      0x20\n      mul\n      0x20\n      add\n      mload(0x40)\n      swap1\n      dup2\n      add\n      0x40\n      mstore\n      dup1\n      swap3\n      swap2\n      swap1\n      dup2\n      dup2\n      mstore\n      0x20\n      add\n      0x00\n      swap1\n    tag_30:\n      dup3\n      dup3\n      lt\n      iszero\n      tag_31\n      jumpi\n      dup4\n      dup3\n      swap1\n      0x00\n      mstore\n      keccak256(0x00, 0x20)\n      add\n      dup1\n      sload\n      tag_33\n      swap1\n      tag_34\n      jump\t// in\n    tag_33:\n      dup1\n      0x1f\n      add\n      0x20\n      dup1\n      swap2\n      div\n      mul\n      0x20\n      add\n      mload(0x40)\n      swap1\n      dup2\n      add\n      0x40\n      mstore\n      dup1\n      swap3\n      swap2\n      swap1\n      dup2\n      dup2\n      mstore\n      0x20\n      add\n      dup3\n      dup1\n      sload\n      tag_35\n      swap1\n      tag_34\n      jump\t// in\n    tag_35:\n      dup1\n      iszero\n      tag_36\n      jumpi\n      dup1\n      0x1f\n      lt\n      tag_37\n      jumpi\n      0x0100\n      dup1\n      dup4\n      sload\n      div\n      mul\n      dup4\n      mstore\n      swap2\n      0x20\n      add\n      swap2\n      jump(tag_36)\n    tag_37:\n      dup3\n      add\n      swap2\n      swap1\n      0x00\n      mstore\n      keccak256(0x00, 0x20)\n      swap1\n    tag_38:\n      dup2\n      sload\n      dup2\n      mstore\n      swap1\n      0x01\n      add\n      swap1\n      0x20\n      add\n      dup1\n      dup4\n      gt\n      tag_38\n      jumpi\n      dup3\n      swap1\n      sub\n      0x1f\n      and\n      dup3\n      add\n      swap2\n    tag_36:\n      pop\n      pop\n      pop\n      pop\n      pop\n      dup2\n      mstore\n      0x20\n      add\n      swap1\n      0x01\n      add\n      swap1\n      jump(tag_30)\n    tag_31:\n      pop\n      pop\n      pop\n      pop\n      swap1\n      pop\n        /* \"contracts/BaseLearn/FavoriteRecords.sol\":1533:1647  function getApprovedRecords() public view returns (string[] memory) {... */\n      swap1\n      jump\t// out\n        /* \"contracts/BaseLearn/FavoriteRecords.sol\":2659:3123  function resetUserFavorites() public {... */\n    tag_13:\n        /* \"contracts/BaseLearn/FavoriteRecords.sol\":2766:2775  uint256 i */\n      0x00\n        /* \"contracts/BaseLearn/FavoriteRecords.sol\":2761:3023  for (uint256 i = 0; i < userFavoritesIndices[msg.sender].length; i++) {... */\n    tag_40:\n        /* \"contracts/BaseLearn/FavoriteRecords.sol\":2785:2805  userFavoritesIndices */\n      0x03\n        /* \"contracts/BaseLearn/FavoriteRecords.sol\":2785:2817  userFavoritesIndices[msg.sender] */\n      0x00\n        /* \"contracts/BaseLearn/FavoriteRecords.sol\":2806:2816  msg.sender */\n      caller\n        /* \"contracts/BaseLearn/FavoriteRecords.sol\":2785:2817  userFavoritesIndices[msg.sender] */\n      0xffffffffffffffffffffffffffffffffffffffff\n      and\n      0xffffffffffffffffffffffffffffffffffffffff\n      and\n      dup2\n      mstore\n      0x20\n      add\n      swap1\n      dup2\n      mstore\n      0x20\n      add\n      0x00\n      keccak256\n        /* \"contracts/BaseLearn/FavoriteRecords.sol\":2785:2824  userFavoritesIndices[msg.sender].length */\n      dup1\n      sload\n      swap1\n      pop\n        /* \"contracts/BaseLearn/FavoriteRecords.sol\":2781:2782  i */\n      dup2\n        /* \"contracts/BaseLearn/FavoriteRecords.sol\":2781:2824  i < userFavoritesIndices[msg.sender].length */\n      lt\n        /* \"contracts/BaseLearn/FavoriteRecords.sol\":2761:3023  for (uint256 i = 0; i < userFavoritesIndices[msg.sender].length; i++) {... */\n      iszero\n      tag_41\n      jumpi\n        /* \"contracts/BaseLearn/FavoriteRecords.sol\":2920:2933  userFavorites */\n      0x02\n        /* \"contracts/BaseLearn/FavoriteRecords.sol\":2920:2945  userFavorites[msg.sender] */\n      0x00\n        /* \"contracts/BaseLearn/FavoriteRecords.sol\":2934:2944  msg.sender */\n      caller\n        /* \"contracts/BaseLearn/FavoriteRecords.sol\":2920:2945  userFavorites[msg.sender] */\n      0xffffffffffffffffffffffffffffffffffffffff\n      and\n      0xffffffffffffffffffffffffffffffffffffffff\n      and\n      dup2\n      mstore\n      0x20\n      add\n      swap1\n      dup2\n      mstore\n      0x20\n      add\n      0x00\n      keccak256\n        /* \"contracts/BaseLearn/FavoriteRecords.sol\":2963:2983  userFavoritesIndices */\n      0x03\n        /* \"contracts/BaseLearn/FavoriteRecords.sol\":2963:2995  userFavoritesIndices[msg.sender] */\n      0x00\n        /* \"contracts/BaseLearn/FavoriteRecords.sol\":2984:2994  msg.sender */\n      caller\n        /* \"contracts/BaseLearn/FavoriteRecords.sol\":2963:2995  userFavoritesIndices[msg.sender] */\n      0xffffffffffffffffffffffffffffffffffffffff\n      and\n      0xffffffffffffffffffffffffffffffffffffffff\n      and\n      dup2\n      mstore\n      0x20\n      add\n      swap1\n      dup2\n      mstore\n      0x20\n      add\n      0x00\n      keccak256\n        /* \"contracts/BaseLearn/FavoriteRecords.sol\":2996:2997  i */\n      dup3\n        /* \"contracts/BaseLearn/FavoriteRecords.sol\":2963:2998  userFavoritesIndices[msg.sender][i] */\n      dup2\n      sload\n      dup2\n      lt\n      tag_43\n      jumpi\n      tag_44\n      tag_45\n      jump\t// in\n    tag_44:\n    tag_43:\n      swap1\n      0x00\n      mstore\n      keccak256(0x00, 0x20)\n      add\n        /* \"contracts/BaseLearn/FavoriteRecords.sol\":2920:3012  userFavorites[msg.sender][... */\n      mload(0x40)\n      tag_47\n      swap2\n      swap1\n      tag_48\n      jump\t// in\n    tag_47:\n      swap1\n      dup2\n      mstore\n      0x20\n      add\n      mload(0x40)\n      dup1\n      swap2\n      sub\n      swap1\n      keccak256\n      0x00\n        /* \"contracts/BaseLearn/FavoriteRecords.sol\":2913:3012  delete userFavorites[msg.sender][... */\n      0x0100\n      exp\n      dup2\n      sload\n      swap1\n      0xff\n      mul\n      not\n      and\n      swap1\n      sstore\n        /* \"contracts/BaseLearn/FavoriteRecords.sol\":2826:2829  i++ */\n      dup1\n      dup1\n      0x01\n      add\n      swap2\n      pop\n      pop\n        /* \"contracts/BaseLearn/FavoriteRecords.sol\":2761:3023  for (uint256 i = 0; i < userFavoritesIndices[msg.sender].length; i++) {... */\n      jump(tag_40)\n    tag_41:\n      pop\n        /* \"contracts/BaseLearn/FavoriteRecords.sol\":3084:3104  userFavoritesIndices */\n      0x03\n        /* \"contracts/BaseLearn/FavoriteRecords.sol\":3084:3116  userFavoritesIndices[msg.sender] */\n      0x00\n        /* \"contracts/BaseLearn/FavoriteRecords.sol\":3105:3115  msg.sender */\n      caller\n        /* \"contracts/BaseLearn/FavoriteRecords.sol\":3084:3116  userFavoritesIndices[msg.sender] */\n      0xffffffffffffffffffffffffffffffffffffffff\n      and\n      0xffffffffffffffffffffffffffffffffffffffff\n      and\n      dup2\n      mstore\n      0x20\n      add\n      swap1\n      dup2\n      mstore\n      0x20\n      add\n      0x00\n      keccak256\n      0x00\n        /* \"contracts/BaseLearn/FavoriteRecords.sol\":3077:3116  delete userFavoritesIndices[msg.sender] */\n      tag_49\n      swap2\n      swap1\n      tag_50\n      jump\t// in\n    tag_49:\n        /* \"contracts/BaseLearn/FavoriteRecords.sol\":2659:3123  function resetUserFavorites() public {... */\n      jump\t// out\n        /* \"contracts/BaseLearn/FavoriteRecords.sol\":402:466  mapping(address => mapping(string => bool)) public userFavorites */\n    tag_17:\n      mstore(0x20, 0x02)\n      dup2\n      0x00\n      mstore\n      keccak256(0x00, 0x40)\n      dup2\n      dup1\n      mload\n      0x20\n      dup2\n      add\n      dup3\n      add\n      dup1\n      mload\n      dup5\n      dup3\n      mstore\n      0x20\n      dup4\n      add\n      0x20\n      dup6\n      add\n      keccak256\n      dup2\n      dup4\n      mstore\n      dup1\n      swap6\n      pop\n      pop\n      pop\n      pop\n      pop\n      pop\n      0x00\n      swap2\n      pop\n      swap2\n      pop\n      swap1\n      sload\n      swap1\n      0x0100\n      exp\n      swap1\n      div\n      0xff\n      and\n      dup2\n      jump\t// out\n        /* \"contracts/BaseLearn/FavoriteRecords.sol\":1788:1925  function getUserFavorites (address _address) public view returns (string[] memory) {... */\n    tag_23:\n        /* \"contracts/BaseLearn/FavoriteRecords.sol\":1854:1869  string[] memory */\n      0x60\n        /* \"contracts/BaseLearn/FavoriteRecords.sol\":1888:1908  userFavoritesIndices */\n      0x03\n        /* \"contracts/BaseLearn/FavoriteRecords.sol\":1888:1918  userFavoritesIndices[_address] */\n      0x00\n        /* \"contracts/BaseLearn/FavoriteRecords.sol\":1909:1917  _address */\n      dup4\n        /* \"contracts/BaseLearn/FavoriteRecords.sol\":1888:1918  userFavoritesIndices[_address] */\n      0xffffffffffffffffffffffffffffffffffffffff\n      and\n      0xffffffffffffffffffffffffffffffffffffffff\n      and\n      dup2\n      mstore\n      0x20\n      add\n      swap1\n      dup2\n      mstore\n      0x20\n      add\n      0x00\n      keccak256\n        /* \"contracts/BaseLearn/FavoriteRecords.sol\":1881:1918  return userFavoritesIndices[_address] */\n      dup1\n      sload\n      dup1\n      0x20\n      mul\n      0x20\n      add\n      mload(0x40)\n      swap1\n      dup2\n      add\n      0x40\n      mstore\n      dup1\n      swap3\n      swap2\n      swap1\n      dup2\n      dup2\n      mstore\n      0x20\n      add\n      0x00\n      swap1\n    tag_52:\n      dup3\n      dup3\n      lt\n      iszero\n      tag_53\n      jumpi\n      dup4\n      dup3\n      swap1\n      0x00\n      mstore\n      keccak256(0x00, 0x20)\n      add\n      dup1\n      sload\n      tag_55\n      swap1\n      tag_34\n      jump\t// in\n    tag_55:\n      dup1\n      0x1f\n      add\n      0x20\n      dup1\n      swap2\n      div\n      mul\n      0x20\n      add\n      mload(0x40)\n      swap1\n      dup2\n      add\n      0x40\n      mstore\n      dup1\n      swap3\n      swap2\n      swap1\n      dup2\n      dup2\n      mstore\n      0x20\n      add\n      dup3\n      dup1\n      sload\n      tag_56\n      swap1\n      tag_34\n      jump\t// in\n    tag_56:\n      dup1\n      iszero\n      tag_57\n      jumpi\n      dup1\n      0x1f\n      lt\n      tag_58\n      jumpi\n      0x0100\n      dup1\n      dup4\n      sload\n      div\n      mul\n      dup4\n      mstore\n      swap2\n      0x20\n      add\n      swap2\n      jump(tag_57)\n    tag_58:\n      dup3\n      add\n      swap2\n      swap1\n      0x00\n      mstore\n      keccak256(0x00, 0x20)\n      swap1\n    tag_59:\n      dup2\n      sload\n      dup2\n      mstore\n      swap1\n      0x01\n      add\n      swap1\n      0x20\n      add\n      dup1\n      dup4\n      gt\n      tag_59\n      jumpi\n      dup3\n      swap1\n      sub\n      0x1f\n      and\n      dup3\n      add\n      swap2\n    tag_57:\n      pop\n      pop\n      pop\n      pop\n      pop\n      dup2\n      mstore\n      0x20\n      add\n      swap1\n      0x01\n      add\n      swap1\n      jump(tag_52)\n    tag_53:\n      pop\n      pop\n      pop\n      pop\n      swap1\n      pop\n        /* \"contracts/BaseLearn/FavoriteRecords.sol\":1788:1925  function getUserFavorites (address _address) public view returns (string[] memory) {... */\n      swap2\n      swap1\n      pop\n      jump\t// out\n        /* \"contracts/BaseLearn/FavoriteRecords.sol\":2068:2585  function addRecord(string memory _albumName) public {... */\n    tag_28:\n        /* \"contracts/BaseLearn/FavoriteRecords.sol\":2141:2156  approvedRecords */\n      0x00\n        /* \"contracts/BaseLearn/FavoriteRecords.sol\":2157:2167  _albumName */\n      dup2\n        /* \"contracts/BaseLearn/FavoriteRecords.sol\":2141:2168  approvedRecords[_albumName] */\n      mload(0x40)\n      tag_61\n      swap2\n      swap1\n      tag_62\n      jump\t// in\n    tag_61:\n      swap1\n      dup2\n      mstore\n      0x20\n      add\n      mload(0x40)\n      dup1\n      swap2\n      sub\n      swap1\n      keccak256\n      0x00\n      swap1\n      sload\n      swap1\n      0x0100\n      exp\n      swap1\n      div\n      0xff\n      and\n        /* \"contracts/BaseLearn/FavoriteRecords.sol\":2136:2252  if (!approvedRecords[_albumName]) {... */\n      tag_63\n      jumpi\n        /* \"contracts/BaseLearn/FavoriteRecords.sol\":2215:2225  _albumName */\n      dup1\n        /* \"contracts/BaseLearn/FavoriteRecords.sol\":2190:2227  NotApproved({_albumName: _albumName}) */\n      mload(0x40)\n      0x4f0ffc1b00000000000000000000000000000000000000000000000000000000\n      dup2\n      mstore\n      0x04\n      add\n      tag_64\n      swap2\n      swap1\n      tag_65\n      jump\t// in\n    tag_64:\n      mload(0x40)\n      dup1\n      swap2\n      sub\n      swap1\n      revert\n        /* \"contracts/BaseLearn/FavoriteRecords.sol\":2136:2252  if (!approvedRecords[_albumName]) {... */\n    tag_63:\n        /* \"contracts/BaseLearn/FavoriteRecords.sol\":2280:2293  userFavorites */\n      0x02\n        /* \"contracts/BaseLearn/FavoriteRecords.sol\":2280:2305  userFavorites[msg.sender] */\n      0x00\n        /* \"contracts/BaseLearn/FavoriteRecords.sol\":2294:2304  msg.sender */\n      caller\n        /* \"contracts/BaseLearn/FavoriteRecords.sol\":2280:2305  userFavorites[msg.sender] */\n      0xffffffffffffffffffffffffffffffffffffffff\n      and\n      0xffffffffffffffffffffffffffffffffffffffff\n      and\n      dup2\n      mstore\n      0x20\n      add\n      swap1\n      dup2\n      mstore\n      0x20\n      add\n      0x00\n      keccak256\n        /* \"contracts/BaseLearn/FavoriteRecords.sol\":2306:2316  _albumName */\n      dup2\n        /* \"contracts/BaseLearn/FavoriteRecords.sol\":2280:2317  userFavorites[msg.sender][_albumName] */\n      mload(0x40)\n      tag_66\n      swap2\n      swap1\n      tag_62\n      jump\t// in\n    tag_66:\n      swap1\n      dup2\n      mstore\n      0x20\n      add\n      mload(0x40)\n      dup1\n      swap2\n      sub\n      swap1\n      keccak256\n      0x00\n      swap1\n      sload\n      swap1\n      0x0100\n      exp\n      swap1\n      div\n      0xff\n      and\n        /* \"contracts/BaseLearn/FavoriteRecords.sol\":2275:2570  if (!userFavorites[msg.sender][_albumName]) {... */\n      tag_67\n      jumpi\n        /* \"contracts/BaseLearn/FavoriteRecords.sol\":2417:2421  true */\n      0x01\n        /* \"contracts/BaseLearn/FavoriteRecords.sol\":2377:2390  userFavorites */\n      0x02\n        /* \"contracts/BaseLearn/FavoriteRecords.sol\":2377:2402  userFavorites[msg.sender] */\n      0x00\n        /* \"contracts/BaseLearn/FavoriteRecords.sol\":2391:2401  msg.sender */\n      caller\n        /* \"contracts/BaseLearn/FavoriteRecords.sol\":2377:2402  userFavorites[msg.sender] */\n      0xffffffffffffffffffffffffffffffffffffffff\n      and\n      0xffffffffffffffffffffffffffffffffffffffff\n      and\n      dup2\n      mstore\n      0x20\n      add\n      swap1\n      dup2\n      mstore\n      0x20\n      add\n      0x00\n      keccak256\n        /* \"contracts/BaseLearn/FavoriteRecords.sol\":2403:2413  _albumName */\n      dup3\n        /* \"contracts/BaseLearn/FavoriteRecords.sol\":2377:2414  userFavorites[msg.sender][_albumName] */\n      mload(0x40)\n      tag_68\n      swap2\n      swap1\n      tag_62\n      jump\t// in\n    tag_68:\n      swap1\n      dup2\n      mstore\n      0x20\n      add\n      mload(0x40)\n      dup1\n      swap2\n      sub\n      swap1\n      keccak256\n      0x00\n        /* \"contracts/BaseLearn/FavoriteRecords.sol\":2377:2421  userFavorites[msg.sender][_albumName] = true */\n      0x0100\n      exp\n      dup2\n      sload\n      dup2\n      0xff\n      mul\n      not\n      and\n      swap1\n      dup4\n      iszero\n      iszero\n      mul\n      or\n      swap1\n      sstore\n      pop\n        /* \"contracts/BaseLearn/FavoriteRecords.sol\":2491:2511  userFavoritesIndices */\n      0x03\n        /* \"contracts/BaseLearn/FavoriteRecords.sol\":2491:2523  userFavoritesIndices[msg.sender] */\n      0x00\n        /* \"contracts/BaseLearn/FavoriteRecords.sol\":2512:2522  msg.sender */\n      caller\n        /* \"contracts/BaseLearn/FavoriteRecords.sol\":2491:2523  userFavoritesIndices[msg.sender] */\n      0xffffffffffffffffffffffffffffffffffffffff\n      and\n      0xffffffffffffffffffffffffffffffffffffffff\n      and\n      dup2\n      mstore\n      0x20\n      add\n      swap1\n      dup2\n      mstore\n      0x20\n      add\n      0x00\n      keccak256\n        /* \"contracts/BaseLearn/FavoriteRecords.sol\":2529:2539  _albumName */\n      dup2\n        /* \"contracts/BaseLearn/FavoriteRecords.sol\":2491:2540  userFavoritesIndices[msg.sender].push(_albumName) */\n      swap1\n      dup1\n      0x01\n      dup2\n      sload\n      add\n      dup1\n      dup3\n      sstore\n      dup1\n      swap2\n      pop\n      pop\n      0x01\n      swap1\n      sub\n      swap1\n      0x00\n      mstore\n      keccak256(0x00, 0x20)\n      add\n      0x00\n      swap1\n      swap2\n      swap1\n      swap2\n      swap1\n      swap2\n      pop\n      swap1\n      dup2\n      tag_70\n      swap2\n      swap1\n      tag_71\n      jump\t// in\n    tag_70:\n      pop\n        /* \"contracts/BaseLearn/FavoriteRecords.sol\":2275:2570  if (!userFavorites[msg.sender][_albumName]) {... */\n    tag_67:\n        /* \"contracts/BaseLearn/FavoriteRecords.sol\":2068:2585  function addRecord(string memory _albumName) public {... */\n      pop\n      jump\t// out\n    tag_50:\n      pop\n      dup1\n      sload\n      0x00\n      dup3\n      sstore\n      swap1\n      0x00\n      mstore\n      keccak256(0x00, 0x20)\n      swap1\n      dup2\n      add\n      swap1\n      tag_73\n      swap2\n      swap1\n      tag_74\n      jump\t// in\n    tag_73:\n      pop\n      jump\t// out\n    tag_74:\n    tag_75:\n      dup1\n      dup3\n      gt\n      iszero\n      tag_76\n      jumpi\n      0x00\n      dup2\n      dup2\n      tag_77\n      swap2\n      swap1\n      tag_78\n      jump\t// in\n    tag_77:\n      pop\n      0x01\n      add\n      jump(tag_75)\n    tag_76:\n      pop\n      swap1\n      jump\t// out\n    tag_78:\n      pop\n      dup1\n      sload\n      tag_79\n      swap1\n      tag_34\n      jump\t// in\n    tag_79:\n      0x00\n      dup3\n      sstore\n      dup1\n      0x1f\n      lt\n      tag_81\n      jumpi\n      pop\n      jump(tag_80)\n    tag_81:\n      0x1f\n      add\n      0x20\n      swap1\n      div\n      swap1\n      0x00\n      mstore\n      keccak256(0x00, 0x20)\n      swap1\n      dup2\n      add\n      swap1\n      tag_82\n      swap2\n      swap1\n      tag_83\n      jump\t// in\n    tag_82:\n    tag_80:\n      pop\n      jump\t// out\n    tag_83:\n    tag_84:\n      dup1\n      dup3\n      gt\n      iszero\n      tag_85\n      jumpi\n      0x00\n      dup2\n      0x00\n      swap1\n      sstore\n      pop\n      0x01\n      add\n      jump(tag_84)\n    tag_85:\n      pop\n      swap1\n      jump\t// out\n        /* \"#utility.yul\":7:131   */\n    tag_86:\n        /* \"#utility.yul\":84:90   */\n      0x00\n        /* \"#utility.yul\":118:123   */\n      dup2\n        /* \"#utility.yul\":112:124   */\n      mload\n        /* \"#utility.yul\":102:124   */\n      swap1\n      pop\n        /* \"#utility.yul\":7:131   */\n      swap2\n      swap1\n      pop\n      jump\t// out\n        /* \"#utility.yul\":137:331   */\n    tag_87:\n        /* \"#utility.yul\":246:257   */\n      0x00\n        /* \"#utility.yul\":280:286   */\n      dup3\n        /* \"#utility.yul\":275:278   */\n      dup3\n        /* \"#utility.yul\":268:287   */\n      mstore\n        /* \"#utility.yul\":320:324   */\n      0x20\n        /* \"#utility.yul\":315:318   */\n      dup3\n        /* \"#utility.yul\":311:325   */\n      add\n        /* \"#utility.yul\":296:325   */\n      swap1\n      pop\n        /* \"#utility.yul\":137:331   */\n      swap3\n      swap2\n      pop\n      pop\n      jump\t// out\n        /* \"#utility.yul\":337:479   */\n    tag_88:\n        /* \"#utility.yul\":414:418   */\n      0x00\n        /* \"#utility.yul\":437:440   */\n      dup2\n        /* \"#utility.yul\":429:440   */\n      swap1\n      pop\n        /* \"#utility.yul\":467:471   */\n      0x20\n        /* \"#utility.yul\":462:465   */\n      dup3\n        /* \"#utility.yul\":458:472   */\n      add\n        /* \"#utility.yul\":450:472   */\n      swap1\n      pop\n        /* \"#utility.yul\":337:479   */\n      swap2\n      swap1\n      pop\n      jump\t// out\n        /* \"#utility.yul\":485:584   */\n    tag_89:\n        /* \"#utility.yul\":537:543   */\n      0x00\n        /* \"#utility.yul\":571:576   */\n      dup2\n        /* \"#utility.yul\":565:577   */\n      mload\n        /* \"#utility.yul\":555:577   */\n      swap1\n      pop\n        /* \"#utility.yul\":485:584   */\n      swap2\n      swap1\n      pop\n      jump\t// out\n        /* \"#utility.yul\":590:749   */\n    tag_90:\n        /* \"#utility.yul\":664:675   */\n      0x00\n        /* \"#utility.yul\":698:704   */\n      dup3\n        /* \"#utility.yul\":693:696   */\n      dup3\n        /* \"#utility.yul\":686:705   */\n      mstore\n        /* \"#utility.yul\":738:742   */\n      0x20\n        /* \"#utility.yul\":733:736   */\n      dup3\n        /* \"#utility.yul\":729:743   */\n      add\n        /* \"#utility.yul\":714:743   */\n      swap1\n      pop\n        /* \"#utility.yul\":590:749   */\n      swap3\n      swap2\n      pop\n      pop\n      jump\t// out\n        /* \"#utility.yul\":755:894   */\n    tag_91:\n        /* \"#utility.yul\":844:850   */\n      dup3\n        /* \"#utility.yul\":839:842   */\n      dup2\n        /* \"#utility.yul\":834:837   */\n      dup4\n        /* \"#utility.yul\":828:851   */\n      mcopy\n        /* \"#utility.yul\":885:886   */\n      0x00\n        /* \"#utility.yul\":876:882   */\n      dup4\n        /* \"#utility.yul\":871:874   */\n      dup4\n        /* \"#utility.yul\":867:883   */\n      add\n        /* \"#utility.yul\":860:887   */\n      mstore\n        /* \"#utility.yul\":755:894   */\n      pop\n      pop\n      pop\n      jump\t// out\n        /* \"#utility.yul\":900:1002   */\n    tag_92:\n        /* \"#utility.yul\":941:947   */\n      0x00\n        /* \"#utility.yul\":992:994   */\n      0x1f\n        /* \"#utility.yul\":988:995   */\n      not\n        /* \"#utility.yul\":983:985   */\n      0x1f\n        /* \"#utility.yul\":976:981   */\n      dup4\n        /* \"#utility.yul\":972:986   */\n      add\n        /* \"#utility.yul\":968:996   */\n      and\n        /* \"#utility.yul\":958:996   */\n      swap1\n      pop\n        /* \"#utility.yul\":900:1002   */\n      swap2\n      swap1\n      pop\n      jump\t// out\n        /* \"#utility.yul\":1008:1365   */\n    tag_93:\n        /* \"#utility.yul\":1086:1089   */\n      0x00\n        /* \"#utility.yul\":1114:1153   */\n      tag_146\n        /* \"#utility.yul\":1147:1152   */\n      dup3\n        /* \"#utility.yul\":1114:1153   */\n      tag_89\n      jump\t// in\n    tag_146:\n        /* \"#utility.yul\":1169:1230   */\n      tag_147\n        /* \"#utility.yul\":1223:1229   */\n      dup2\n        /* \"#utility.yul\":1218:1221   */\n      dup6\n        /* \"#utility.yul\":1169:1230   */\n      tag_90\n      jump\t// in\n    tag_147:\n        /* \"#utility.yul\":1162:1230   */\n      swap4\n      pop\n        /* \"#utility.yul\":1239:1304   */\n      tag_148\n        /* \"#utility.yul\":1297:1303   */\n      dup2\n        /* \"#utility.yul\":1292:1295   */\n      dup6\n        /* \"#utility.yul\":1285:1289   */\n      0x20\n        /* \"#utility.yul\":1278:1283   */\n      dup7\n        /* \"#utility.yul\":1274:1290   */\n      add\n        /* \"#utility.yul\":1239:1304   */\n      tag_91\n      jump\t// in\n    tag_148:\n        /* \"#utility.yul\":1329:1358   */\n      tag_149\n        /* \"#utility.yul\":1351:1357   */\n      dup2\n        /* \"#utility.yul\":1329:1358   */\n      tag_92\n      jump\t// in\n    tag_149:\n        /* \"#utility.yul\":1324:1327   */\n      dup5\n        /* \"#utility.yul\":1320:1359   */\n      add\n        /* \"#utility.yul\":1313:1359   */\n      swap2\n      pop\n        /* \"#utility.yul\":1090:1365   */\n      pop\n        /* \"#utility.yul\":1008:1365   */\n      swap3\n      swap2\n      pop\n      pop\n      jump\t// out\n        /* \"#utility.yul\":1371:1567   */\n    tag_94:\n        /* \"#utility.yul\":1460:1470   */\n      0x00\n        /* \"#utility.yul\":1495:1561   */\n      tag_151\n        /* \"#utility.yul\":1557:1560   */\n      dup4\n        /* \"#utility.yul\":1549:1555   */\n      dup4\n        /* \"#utility.yul\":1495:1561   */\n      tag_93\n      jump\t// in\n    tag_151:\n        /* \"#utility.yul\":1481:1561   */\n      swap1\n      pop\n        /* \"#utility.yul\":1371:1567   */\n      swap3\n      swap2\n      pop\n      pop\n      jump\t// out\n        /* \"#utility.yul\":1573:1696   */\n    tag_95:\n        /* \"#utility.yul\":1653:1657   */\n      0x00\n        /* \"#utility.yul\":1685:1689   */\n      0x20\n        /* \"#utility.yul\":1680:1683   */\n      dup3\n        /* \"#utility.yul\":1676:1690   */\n      add\n        /* \"#utility.yul\":1668:1690   */\n      swap1\n      pop\n        /* \"#utility.yul\":1573:1696   */\n      swap2\n      swap1\n      pop\n      jump\t// out\n        /* \"#utility.yul\":1730:2721   */\n    tag_96:\n        /* \"#utility.yul\":1869:1872   */\n      0x00\n        /* \"#utility.yul\":1898:1962   */\n      tag_154\n        /* \"#utility.yul\":1956:1961   */\n      dup3\n        /* \"#utility.yul\":1898:1962   */\n      tag_86\n      jump\t// in\n    tag_154:\n        /* \"#utility.yul\":1978:2074   */\n      tag_155\n        /* \"#utility.yul\":2067:2073   */\n      dup2\n        /* \"#utility.yul\":2062:2065   */\n      dup6\n        /* \"#utility.yul\":1978:2074   */\n      tag_87\n      jump\t// in\n    tag_155:\n        /* \"#utility.yul\":1971:2074   */\n      swap4\n      pop\n        /* \"#utility.yul\":2100:2103   */\n      dup4\n        /* \"#utility.yul\":2145:2149   */\n      0x20\n        /* \"#utility.yul\":2137:2143   */\n      dup3\n        /* \"#utility.yul\":2133:2150   */\n      mul\n        /* \"#utility.yul\":2128:2131   */\n      dup6\n        /* \"#utility.yul\":2124:2151   */\n      add\n        /* \"#utility.yul\":2175:2241   */\n      tag_156\n        /* \"#utility.yul\":2235:2240   */\n      dup6\n        /* \"#utility.yul\":2175:2241   */\n      tag_88\n      jump\t// in\n    tag_156:\n        /* \"#utility.yul\":2264:2271   */\n      dup1\n        /* \"#utility.yul\":2295:2296   */\n      0x00\n        /* \"#utility.yul\":2280:2676   */\n    tag_157:\n        /* \"#utility.yul\":2305:2311   */\n      dup6\n        /* \"#utility.yul\":2302:2303   */\n      dup2\n        /* \"#utility.yul\":2299:2312   */\n      lt\n        /* \"#utility.yul\":2280:2676   */\n      iszero\n      tag_159\n      jumpi\n        /* \"#utility.yul\":2376:2385   */\n      dup5\n        /* \"#utility.yul\":2370:2374   */\n      dup5\n        /* \"#utility.yul\":2366:2386   */\n      sub\n        /* \"#utility.yul\":2361:2364   */\n      dup10\n        /* \"#utility.yul\":2354:2387   */\n      mstore\n        /* \"#utility.yul\":2427:2433   */\n      dup2\n        /* \"#utility.yul\":2421:2434   */\n      mload\n        /* \"#utility.yul\":2455:2539   */\n      tag_160\n        /* \"#utility.yul\":2534:2538   */\n      dup6\n        /* \"#utility.yul\":2519:2532   */\n      dup3\n        /* \"#utility.yul\":2455:2539   */\n      tag_94\n      jump\t// in\n    tag_160:\n        /* \"#utility.yul\":2447:2539   */\n      swap5\n      pop\n        /* \"#utility.yul\":2562:2632   */\n      tag_161\n        /* \"#utility.yul\":2625:2631   */\n      dup4\n        /* \"#utility.yul\":2562:2632   */\n      tag_95\n      jump\t// in\n    tag_161:\n        /* \"#utility.yul\":2552:2632   */\n      swap3\n      pop\n        /* \"#utility.yul\":2661:2665   */\n      0x20\n        /* \"#utility.yul\":2656:2659   */\n      dup11\n        /* \"#utility.yul\":2652:2666   */\n      add\n        /* \"#utility.yul\":2645:2666   */\n      swap10\n      pop\n        /* \"#utility.yul\":2340:2676   */\n      pop\n        /* \"#utility.yul\":2327:2328   */\n      0x01\n        /* \"#utility.yul\":2324:2325   */\n      dup2\n        /* \"#utility.yul\":2320:2329   */\n      add\n        /* \"#utility.yul\":2315:2329   */\n      swap1\n      pop\n        /* \"#utility.yul\":2280:2676   */\n      jump(tag_157)\n    tag_159:\n        /* \"#utility.yul\":2284:2298   */\n      pop\n        /* \"#utility.yul\":2692:2696   */\n      dup3\n        /* \"#utility.yul\":2685:2696   */\n      swap8\n      pop\n        /* \"#utility.yul\":2712:2715   */\n      dup8\n        /* \"#utility.yul\":2705:2715   */\n      swap6\n      pop\n        /* \"#utility.yul\":1874:2721   */\n      pop\n      pop\n      pop\n      pop\n      pop\n        /* \"#utility.yul\":1730:2721   */\n      swap3\n      swap2\n      pop\n      pop\n      jump\t// out\n        /* \"#utility.yul\":2727:3140   */\n    tag_11:\n        /* \"#utility.yul\":2890:2894   */\n      0x00\n        /* \"#utility.yul\":2928:2930   */\n      0x20\n        /* \"#utility.yul\":2917:2926   */\n      dup3\n        /* \"#utility.yul\":2913:2931   */\n      add\n        /* \"#utility.yul\":2905:2931   */\n      swap1\n      pop\n        /* \"#utility.yul\":2977:2986   */\n      dup2\n        /* \"#utility.yul\":2971:2975   */\n      dup2\n        /* \"#utility.yul\":2967:2987   */\n      sub\n        /* \"#utility.yul\":2963:2964   */\n      0x00\n        /* \"#utility.yul\":2952:2961   */\n      dup4\n        /* \"#utility.yul\":2948:2965   */\n      add\n        /* \"#utility.yul\":2941:2988   */\n      mstore\n        /* \"#utility.yul\":3005:3133   */\n      tag_163\n        /* \"#utility.yul\":3128:3132   */\n      dup2\n        /* \"#utility.yul\":3119:3125   */\n      dup5\n        /* \"#utility.yul\":3005:3133   */\n      tag_96\n      jump\t// in\n    tag_163:\n        /* \"#utility.yul\":2997:3133   */\n      swap1\n      pop\n        /* \"#utility.yul\":2727:3140   */\n      swap3\n      swap2\n      pop\n      pop\n      jump\t// out\n        /* \"#utility.yul\":3146:3221   */\n    tag_97:\n        /* \"#utility.yul\":3179:3185   */\n      0x00\n        /* \"#utility.yul\":3212:3214   */\n      0x40\n        /* \"#utility.yul\":3206:3215   */\n      mload\n        /* \"#utility.yul\":3196:3215   */\n      swap1\n      pop\n        /* \"#utility.yul\":3146:3221   */\n      swap1\n      jump\t// out\n        /* \"#utility.yul\":3227:3344   */\n    tag_98:\n        /* \"#utility.yul\":3336:3337   */\n      0x00\n        /* \"#utility.yul\":3333:3334   */\n      dup1\n        /* \"#utility.yul\":3326:3338   */\n      revert\n        /* \"#utility.yul\":3350:3467   */\n    tag_99:\n        /* \"#utility.yul\":3459:3460   */\n      0x00\n        /* \"#utility.yul\":3456:3457   */\n      dup1\n        /* \"#utility.yul\":3449:3461   */\n      revert\n        /* \"#utility.yul\":3473:3599   */\n    tag_100:\n        /* \"#utility.yul\":3510:3517   */\n      0x00\n        /* \"#utility.yul\":3550:3592   */\n      0xffffffffffffffffffffffffffffffffffffffff\n        /* \"#utility.yul\":3543:3548   */\n      dup3\n        /* \"#utility.yul\":3539:3593   */\n      and\n        /* \"#utility.yul\":3528:3593   */\n      swap1\n      pop\n        /* \"#utility.yul\":3473:3599   */\n      swap2\n      swap1\n      pop\n      jump\t// out\n        /* \"#utility.yul\":3605:3701   */\n    tag_101:\n        /* \"#utility.yul\":3642:3649   */\n      0x00\n        /* \"#utility.yul\":3671:3695   */\n      tag_169\n        /* \"#utility.yul\":3689:3694   */\n      dup3\n        /* \"#utility.yul\":3671:3695   */\n      tag_100\n      jump\t// in\n    tag_169:\n        /* \"#utility.yul\":3660:3695   */\n      swap1\n      pop\n        /* \"#utility.yul\":3605:3701   */\n      swap2\n      swap1\n      pop\n      jump\t// out\n        /* \"#utility.yul\":3707:3829   */\n    tag_102:\n        /* \"#utility.yul\":3780:3804   */\n      tag_171\n        /* \"#utility.yul\":3798:3803   */\n      dup2\n        /* \"#utility.yul\":3780:3804   */\n      tag_101\n      jump\t// in\n    tag_171:\n        /* \"#utility.yul\":3773:3778   */\n      dup2\n        /* \"#utility.yul\":3770:3805   */\n      eq\n        /* \"#utility.yul\":3760:3823   */\n      tag_172\n      jumpi\n        /* \"#utility.yul\":3819:3820   */\n      0x00\n        /* \"#utility.yul\":3816:3817   */\n      dup1\n        /* \"#utility.yul\":3809:3821   */\n      revert\n        /* \"#utility.yul\":3760:3823   */\n    tag_172:\n        /* \"#utility.yul\":3707:3829   */\n      pop\n      jump\t// out\n        /* \"#utility.yul\":3835:3974   */\n    tag_103:\n        /* \"#utility.yul\":3881:3886   */\n      0x00\n        /* \"#utility.yul\":3919:3925   */\n      dup2\n        /* \"#utility.yul\":3906:3926   */\n      calldataload\n        /* \"#utility.yul\":3897:3926   */\n      swap1\n      pop\n        /* \"#utility.yul\":3935:3968   */\n      tag_174\n        /* \"#utility.yul\":3962:3967   */\n      dup2\n        /* \"#utility.yul\":3935:3968   */\n      tag_102\n      jump\t// in\n    tag_174:\n        /* \"#utility.yul\":3835:3974   */\n      swap3\n      swap2\n      pop\n      pop\n      jump\t// out\n        /* \"#utility.yul\":3980:4097   */\n    tag_104:\n        /* \"#utility.yul\":4089:4090   */\n      0x00\n        /* \"#utility.yul\":4086:4087   */\n      dup1\n        /* \"#utility.yul\":4079:4091   */\n      revert\n        /* \"#utility.yul\":4103:4220   */\n    tag_105:\n        /* \"#utility.yul\":4212:4213   */\n      0x00\n        /* \"#utility.yul\":4209:4210   */\n      dup1\n        /* \"#utility.yul\":4202:4214   */\n      revert\n        /* \"#utility.yul\":4226:4406   */\n    tag_106:\n        /* \"#utility.yul\":4274:4351   */\n      0x4e487b7100000000000000000000000000000000000000000000000000000000\n        /* \"#utility.yul\":4271:4272   */\n      0x00\n        /* \"#utility.yul\":4264:4352   */\n      mstore\n        /* \"#utility.yul\":4371:4375   */\n      0x41\n        /* \"#utility.yul\":4368:4369   */\n      0x04\n        /* \"#utility.yul\":4361:4376   */\n      mstore\n        /* \"#utility.yul\":4395:4399   */\n      0x24\n        /* \"#utility.yul\":4392:4393   */\n      0x00\n        /* \"#utility.yul\":4385:4400   */\n      revert\n        /* \"#utility.yul\":4412:4693   */\n    tag_107:\n        /* \"#utility.yul\":4495:4522   */\n      tag_179\n        /* \"#utility.yul\":4517:4521   */\n      dup3\n        /* \"#utility.yul\":4495:4522   */\n      tag_92\n      jump\t// in\n    tag_179:\n        /* \"#utility.yul\":4487:4493   */\n      dup2\n        /* \"#utility.yul\":4483:4523   */\n      add\n        /* \"#utility.yul\":4625:4631   */\n      dup2\n        /* \"#utility.yul\":4613:4623   */\n      dup2\n        /* \"#utility.yul\":4610:4632   */\n      lt\n        /* \"#utility.yul\":4589:4607   */\n      0xffffffffffffffff\n        /* \"#utility.yul\":4577:4587   */\n      dup3\n        /* \"#utility.yul\":4574:4608   */\n      gt\n        /* \"#utility.yul\":4571:4633   */\n      or\n        /* \"#utility.yul\":4568:4656   */\n      iszero\n      tag_180\n      jumpi\n        /* \"#utility.yul\":4636:4654   */\n      tag_181\n      tag_106\n      jump\t// in\n    tag_181:\n        /* \"#utility.yul\":4568:4656   */\n    tag_180:\n        /* \"#utility.yul\":4676:4686   */\n      dup1\n        /* \"#utility.yul\":4672:4674   */\n      0x40\n        /* \"#utility.yul\":4665:4687   */\n      mstore\n        /* \"#utility.yul\":4455:4693   */\n      pop\n        /* \"#utility.yul\":4412:4693   */\n      pop\n      pop\n      jump\t// out\n        /* \"#utility.yul\":4699:4828   */\n    tag_108:\n        /* \"#utility.yul\":4733:4739   */\n      0x00\n        /* \"#utility.yul\":4760:4780   */\n      tag_183\n      tag_97\n      jump\t// in\n    tag_183:\n        /* \"#utility.yul\":4750:4780   */\n      swap1\n      pop\n        /* \"#utility.yul\":4789:4822   */\n      tag_184\n        /* \"#utility.yul\":4817:4821   */\n      dup3\n        /* \"#utility.yul\":4809:4815   */\n      dup3\n        /* \"#utility.yul\":4789:4822   */\n      tag_107\n      jump\t// in\n    tag_184:\n        /* \"#utility.yul\":4699:4828   */\n      swap2\n      swap1\n      pop\n      jump\t// out\n        /* \"#utility.yul\":4834:5142   */\n    tag_109:\n        /* \"#utility.yul\":4896:4900   */\n      0x00\n        /* \"#utility.yul\":4986:5004   */\n      0xffffffffffffffff\n        /* \"#utility.yul\":4978:4984   */\n      dup3\n        /* \"#utility.yul\":4975:5005   */\n      gt\n        /* \"#utility.yul\":4972:5028   */\n      iszero\n      tag_186\n      jumpi\n        /* \"#utility.yul\":5008:5026   */\n      tag_187\n      tag_106\n      jump\t// in\n    tag_187:\n        /* \"#utility.yul\":4972:5028   */\n    tag_186:\n        /* \"#utility.yul\":5046:5075   */\n      tag_188\n        /* \"#utility.yul\":5068:5074   */\n      dup3\n        /* \"#utility.yul\":5046:5075   */\n      tag_92\n      jump\t// in\n    tag_188:\n        /* \"#utility.yul\":5038:5075   */\n      swap1\n      pop\n        /* \"#utility.yul\":5130:5134   */\n      0x20\n        /* \"#utility.yul\":5124:5128   */\n      dup2\n        /* \"#utility.yul\":5120:5135   */\n      add\n        /* \"#utility.yul\":5112:5135   */\n      swap1\n      pop\n        /* \"#utility.yul\":4834:5142   */\n      swap2\n      swap1\n      pop\n      jump\t// out\n        /* \"#utility.yul\":5148:5296   */\n    tag_110:\n        /* \"#utility.yul\":5246:5252   */\n      dup3\n        /* \"#utility.yul\":5241:5244   */\n      dup2\n        /* \"#utility.yul\":5236:5239   */\n      dup4\n        /* \"#utility.yul\":5223:5253   */\n      calldatacopy\n        /* \"#utility.yul\":5287:5288   */\n      0x00\n        /* \"#utility.yul\":5278:5284   */\n      dup4\n        /* \"#utility.yul\":5273:5276   */\n      dup4\n        /* \"#utility.yul\":5269:5285   */\n      add\n        /* \"#utility.yul\":5262:5289   */\n      mstore\n        /* \"#utility.yul\":5148:5296   */\n      pop\n      pop\n      pop\n      jump\t// out\n        /* \"#utility.yul\":5302:5727   */\n    tag_111:\n        /* \"#utility.yul\":5380:5385   */\n      0x00\n        /* \"#utility.yul\":5405:5471   */\n      tag_191\n        /* \"#utility.yul\":5421:5470   */\n      tag_192\n        /* \"#utility.yul\":5463:5469   */\n      dup5\n        /* \"#utility.yul\":5421:5470   */\n      tag_109\n      jump\t// in\n    tag_192:\n        /* \"#utility.yul\":5405:5471   */\n      tag_108\n      jump\t// in\n    tag_191:\n        /* \"#utility.yul\":5396:5471   */\n      swap1\n      pop\n        /* \"#utility.yul\":5494:5500   */\n      dup3\n        /* \"#utility.yul\":5487:5492   */\n      dup2\n        /* \"#utility.yul\":5480:5501   */\n      mstore\n        /* \"#utility.yul\":5532:5536   */\n      0x20\n        /* \"#utility.yul\":5525:5530   */\n      dup2\n        /* \"#utility.yul\":5521:5537   */\n      add\n        /* \"#utility.yul\":5570:5573   */\n      dup5\n        /* \"#utility.yul\":5561:5567   */\n      dup5\n        /* \"#utility.yul\":5556:5559   */\n      dup5\n        /* \"#utility.yul\":5552:5568   */\n      add\n        /* \"#utility.yul\":5549:5574   */\n      gt\n        /* \"#utility.yul\":5546:5658   */\n      iszero\n      tag_193\n      jumpi\n        /* \"#utility.yul\":5577:5656   */\n      tag_194\n      tag_105\n      jump\t// in\n    tag_194:\n        /* \"#utility.yul\":5546:5658   */\n    tag_193:\n        /* \"#utility.yul\":5667:5721   */\n      tag_195\n        /* \"#utility.yul\":5714:5720   */\n      dup5\n        /* \"#utility.yul\":5709:5712   */\n      dup3\n        /* \"#utility.yul\":5704:5707   */\n      dup6\n        /* \"#utility.yul\":5667:5721   */\n      tag_110\n      jump\t// in\n    tag_195:\n        /* \"#utility.yul\":5386:5727   */\n      pop\n        /* \"#utility.yul\":5302:5727   */\n      swap4\n      swap3\n      pop\n      pop\n      pop\n      jump\t// out\n        /* \"#utility.yul\":5747:6087   */\n    tag_112:\n        /* \"#utility.yul\":5803:5808   */\n      0x00\n        /* \"#utility.yul\":5852:5855   */\n      dup3\n        /* \"#utility.yul\":5845:5849   */\n      0x1f\n        /* \"#utility.yul\":5837:5843   */\n      dup4\n        /* \"#utility.yul\":5833:5850   */\n      add\n        /* \"#utility.yul\":5829:5856   */\n      slt\n        /* \"#utility.yul\":5819:5941   */\n      tag_197\n      jumpi\n        /* \"#utility.yul\":5860:5939   */\n      tag_198\n      tag_104\n      jump\t// in\n    tag_198:\n        /* \"#utility.yul\":5819:5941   */\n    tag_197:\n        /* \"#utility.yul\":5977:5983   */\n      dup2\n        /* \"#utility.yul\":5964:5984   */\n      calldataload\n        /* \"#utility.yul\":6002:6081   */\n      tag_199\n        /* \"#utility.yul\":6077:6080   */\n      dup5\n        /* \"#utility.yul\":6069:6075   */\n      dup3\n        /* \"#utility.yul\":6062:6066   */\n      0x20\n        /* \"#utility.yul\":6054:6060   */\n      dup7\n        /* \"#utility.yul\":6050:6067   */\n      add\n        /* \"#utility.yul\":6002:6081   */\n      tag_111\n      jump\t// in\n    tag_199:\n        /* \"#utility.yul\":5993:6081   */\n      swap2\n      pop\n        /* \"#utility.yul\":5809:6087   */\n      pop\n        /* \"#utility.yul\":5747:6087   */\n      swap3\n      swap2\n      pop\n      pop\n      jump\t// out\n        /* \"#utility.yul\":6093:6747   */\n    tag_16:\n        /* \"#utility.yul\":6171:6177   */\n      0x00\n        /* \"#utility.yul\":6179:6185   */\n      dup1\n        /* \"#utility.yul\":6228:6230   */\n      0x40\n        /* \"#utility.yul\":6216:6225   */\n      dup4\n        /* \"#utility.yul\":6207:6214   */\n      dup6\n        /* \"#utility.yul\":6203:6226   */\n      sub\n        /* \"#utility.yul\":6199:6231   */\n      slt\n        /* \"#utility.yul\":6196:6315   */\n      iszero\n      tag_201\n      jumpi\n        /* \"#utility.yul\":6234:6313   */\n      tag_202\n      tag_98\n      jump\t// in\n    tag_202:\n        /* \"#utility.yul\":6196:6315   */\n    tag_201:\n        /* \"#utility.yul\":6354:6355   */\n      0x00\n        /* \"#utility.yul\":6379:6432   */\n      tag_203\n        /* \"#utility.yul\":6424:6431   */\n      dup6\n        /* \"#utility.yul\":6415:6421   */\n      dup3\n        /* \"#utility.yul\":6404:6413   */\n      dup7\n        /* \"#utility.yul\":6400:6422   */\n      add\n        /* \"#utility.yul\":6379:6432   */\n      tag_103\n      jump\t// in\n    tag_203:\n        /* \"#utility.yul\":6369:6432   */\n      swap3\n      pop\n        /* \"#utility.yul\":6325:6442   */\n      pop\n        /* \"#utility.yul\":6509:6511   */\n      0x20\n        /* \"#utility.yul\":6498:6507   */\n      dup4\n        /* \"#utility.yul\":6494:6512   */\n      add\n        /* \"#utility.yul\":6481:6513   */\n      calldataload\n        /* \"#utility.yul\":6540:6558   */\n      0xffffffffffffffff\n        /* \"#utility.yul\":6532:6538   */\n      dup2\n        /* \"#utility.yul\":6529:6559   */\n      gt\n        /* \"#utility.yul\":6526:6643   */\n      iszero\n      tag_204\n      jumpi\n        /* \"#utility.yul\":6562:6641   */\n      tag_205\n      tag_99\n      jump\t// in\n    tag_205:\n        /* \"#utility.yul\":6526:6643   */\n    tag_204:\n        /* \"#utility.yul\":6667:6730   */\n      tag_206\n        /* \"#utility.yul\":6722:6729   */\n      dup6\n        /* \"#utility.yul\":6713:6719   */\n      dup3\n        /* \"#utility.yul\":6702:6711   */\n      dup7\n        /* \"#utility.yul\":6698:6720   */\n      add\n        /* \"#utility.yul\":6667:6730   */\n      tag_112\n      jump\t// in\n    tag_206:\n        /* \"#utility.yul\":6657:6730   */\n      swap2\n      pop\n        /* \"#utility.yul\":6452:6740   */\n      pop\n        /* \"#utility.yul\":6093:6747   */\n      swap3\n      pop\n      swap3\n      swap1\n      pop\n      jump\t// out\n        /* \"#utility.yul\":6753:6843   */\n    tag_113:\n        /* \"#utility.yul\":6787:6794   */\n      0x00\n        /* \"#utility.yul\":6830:6835   */\n      dup2\n        /* \"#utility.yul\":6823:6836   */\n      iszero\n        /* \"#utility.yul\":6816:6837   */\n      iszero\n        /* \"#utility.yul\":6805:6837   */\n      swap1\n      pop\n        /* \"#utility.yul\":6753:6843   */\n      swap2\n      swap1\n      pop\n      jump\t// out\n        /* \"#utility.yul\":6849:6958   */\n    tag_114:\n        /* \"#utility.yul\":6930:6951   */\n      tag_209\n        /* \"#utility.yul\":6945:6950   */\n      dup2\n        /* \"#utility.yul\":6930:6951   */\n      tag_113\n      jump\t// in\n    tag_209:\n        /* \"#utility.yul\":6925:6928   */\n      dup3\n        /* \"#utility.yul\":6918:6952   */\n      mstore\n        /* \"#utility.yul\":6849:6958   */\n      pop\n      pop\n      jump\t// out\n        /* \"#utility.yul\":6964:7174   */\n    tag_19:\n        /* \"#utility.yul\":7051:7055   */\n      0x00\n        /* \"#utility.yul\":7089:7091   */\n      0x20\n        /* \"#utility.yul\":7078:7087   */\n      dup3\n        /* \"#utility.yul\":7074:7092   */\n      add\n        /* \"#utility.yul\":7066:7092   */\n      swap1\n      pop\n        /* \"#utility.yul\":7102:7167   */\n      tag_211\n        /* \"#utility.yul\":7164:7165   */\n      0x00\n        /* \"#utility.yul\":7153:7162   */\n      dup4\n        /* \"#utility.yul\":7149:7166   */\n      add\n        /* \"#utility.yul\":7140:7146   */\n      dup5\n        /* \"#utility.yul\":7102:7167   */\n      tag_114\n      jump\t// in\n    tag_211:\n        /* \"#utility.yul\":6964:7174   */\n      swap3\n      swap2\n      pop\n      pop\n      jump\t// out\n        /* \"#utility.yul\":7180:7509   */\n    tag_22:\n        /* \"#utility.yul\":7239:7245   */\n      0x00\n        /* \"#utility.yul\":7288:7290   */\n      0x20\n        /* \"#utility.yul\":7276:7285   */\n      dup3\n        /* \"#utility.yul\":7267:7274   */\n      dup5\n        /* \"#utility.yul\":7263:7286   */\n      sub\n        /* \"#utility.yul\":7259:7291   */\n      slt\n        /* \"#utility.yul\":7256:7375   */\n      iszero\n      tag_213\n      jumpi\n        /* \"#utility.yul\":7294:7373   */\n      tag_214\n      tag_98\n      jump\t// in\n    tag_214:\n        /* \"#utility.yul\":7256:7375   */\n    tag_213:\n        /* \"#utility.yul\":7414:7415   */\n      0x00\n        /* \"#utility.yul\":7439:7492   */\n      tag_215\n        /* \"#utility.yul\":7484:7491   */\n      dup5\n        /* \"#utility.yul\":7475:7481   */\n      dup3\n        /* \"#utility.yul\":7464:7473   */\n      dup6\n        /* \"#utility.yul\":7460:7482   */\n      add\n        /* \"#utility.yul\":7439:7492   */\n      tag_103\n      jump\t// in\n    tag_215:\n        /* \"#utility.yul\":7429:7492   */\n      swap2\n      pop\n        /* \"#utility.yul\":7385:7502   */\n      pop\n        /* \"#utility.yul\":7180:7509   */\n      swap3\n      swap2\n      pop\n      pop\n      jump\t// out\n        /* \"#utility.yul\":7515:8024   */\n    tag_27:\n        /* \"#utility.yul\":7584:7590   */\n      0x00\n        /* \"#utility.yul\":7633:7635   */\n      0x20\n        /* \"#utility.yul\":7621:7630   */\n      dup3\n        /* \"#utility.yul\":7612:7619   */\n      dup5\n        /* \"#utility.yul\":7608:7631   */\n      sub\n        /* \"#utility.yul\":7604:7636   */\n      slt\n        /* \"#utility.yul\":7601:7720   */\n      iszero\n      tag_217\n      jumpi\n        /* \"#utility.yul\":7639:7718   */\n      tag_218\n      tag_98\n      jump\t// in\n    tag_218:\n        /* \"#utility.yul\":7601:7720   */\n    tag_217:\n        /* \"#utility.yul\":7787:7788   */\n      0x00\n        /* \"#utility.yul\":7776:7785   */\n      dup3\n        /* \"#utility.yul\":7772:7789   */\n      add\n        /* \"#utility.yul\":7759:7790   */\n      calldataload\n        /* \"#utility.yul\":7817:7835   */\n      0xffffffffffffffff\n        /* \"#utility.yul\":7809:7815   */\n      dup2\n        /* \"#utility.yul\":7806:7836   */\n      gt\n        /* \"#utility.yul\":7803:7920   */\n      iszero\n      tag_219\n      jumpi\n        /* \"#utility.yul\":7839:7918   */\n      tag_220\n      tag_99\n      jump\t// in\n    tag_220:\n        /* \"#utility.yul\":7803:7920   */\n    tag_219:\n        /* \"#utility.yul\":7944:8007   */\n      tag_221\n        /* \"#utility.yul\":7999:8006   */\n      dup5\n        /* \"#utility.yul\":7990:7996   */\n      dup3\n        /* \"#utility.yul\":7979:7988   */\n      dup6\n        /* \"#utility.yul\":7975:7997   */\n      add\n        /* \"#utility.yul\":7944:8007   */\n      tag_112\n      jump\t// in\n    tag_221:\n        /* \"#utility.yul\":7934:8007   */\n      swap2\n      pop\n        /* \"#utility.yul\":7730:8017   */\n      pop\n        /* \"#utility.yul\":7515:8024   */\n      swap3\n      swap2\n      pop\n      pop\n      jump\t// out\n        /* \"#utility.yul\":8030:8210   */\n    tag_115:\n        /* \"#utility.yul\":8078:8155   */\n      0x4e487b7100000000000000000000000000000000000000000000000000000000\n        /* \"#utility.yul\":8075:8076   */\n      0x00\n        /* \"#utility.yul\":8068:8156   */\n      mstore\n        /* \"#utility.yul\":8175:8179   */\n      0x22\n        /* \"#utility.yul\":8172:8173   */\n      0x04\n        /* \"#utility.yul\":8165:8180   */\n      mstore\n        /* \"#utility.yul\":8199:8203   */\n      0x24\n        /* \"#utility.yul\":8196:8197   */\n      0x00\n        /* \"#utility.yul\":8189:8204   */\n      revert\n        /* \"#utility.yul\":8216:8536   */\n    tag_34:\n        /* \"#utility.yul\":8260:8266   */\n      0x00\n        /* \"#utility.yul\":8297:8298   */\n      0x02\n        /* \"#utility.yul\":8291:8295   */\n      dup3\n        /* \"#utility.yul\":8287:8299   */\n      div\n        /* \"#utility.yul\":8277:8299   */\n      swap1\n      pop\n        /* \"#utility.yul\":8344:8345   */\n      0x01\n        /* \"#utility.yul\":8338:8342   */\n      dup3\n        /* \"#utility.yul\":8334:8346   */\n      and\n        /* \"#utility.yul\":8365:8383   */\n      dup1\n        /* \"#utility.yul\":8355:8436   */\n      tag_224\n      jumpi\n        /* \"#utility.yul\":8421:8425   */\n      0x7f\n        /* \"#utility.yul\":8413:8419   */\n      dup3\n        /* \"#utility.yul\":8409:8426   */\n      and\n        /* \"#utility.yul\":8399:8426   */\n      swap2\n      pop\n        /* \"#utility.yul\":8355:8436   */\n    tag_224:\n        /* \"#utility.yul\":8483:8485   */\n      0x20\n        /* \"#utility.yul\":8475:8481   */\n      dup3\n        /* \"#utility.yul\":8472:8486   */\n      lt\n        /* \"#utility.yul\":8452:8470   */\n      dup2\n        /* \"#utility.yul\":8449:8487   */\n      sub\n        /* \"#utility.yul\":8446:8530   */\n      tag_225\n      jumpi\n        /* \"#utility.yul\":8502:8520   */\n      tag_226\n      tag_115\n      jump\t// in\n    tag_226:\n        /* \"#utility.yul\":8446:8530   */\n    tag_225:\n        /* \"#utility.yul\":8267:8536   */\n      pop\n        /* \"#utility.yul\":8216:8536   */\n      swap2\n      swap1\n      pop\n      jump\t// out\n        /* \"#utility.yul\":8542:8722   */\n    tag_45:\n        /* \"#utility.yul\":8590:8667   */\n      0x4e487b7100000000000000000000000000000000000000000000000000000000\n        /* \"#utility.yul\":8587:8588   */\n      0x00\n        /* \"#utility.yul\":8580:8668   */\n      mstore\n        /* \"#utility.yul\":8687:8691   */\n      0x32\n        /* \"#utility.yul\":8684:8685   */\n      0x04\n        /* \"#utility.yul\":8677:8692   */\n      mstore\n        /* \"#utility.yul\":8711:8715   */\n      0x24\n        /* \"#utility.yul\":8708:8709   */\n      0x00\n        /* \"#utility.yul\":8701:8716   */\n      revert\n        /* \"#utility.yul\":8728:8876   */\n    tag_116:\n        /* \"#utility.yul\":8830:8841   */\n      0x00\n        /* \"#utility.yul\":8867:8870   */\n      dup2\n        /* \"#utility.yul\":8852:8870   */\n      swap1\n      pop\n        /* \"#utility.yul\":8728:8876   */\n      swap3\n      swap2\n      pop\n      pop\n      jump\t// out\n        /* \"#utility.yul\":8882:9023   */\n    tag_117:\n        /* \"#utility.yul\":8931:8935   */\n      0x00\n        /* \"#utility.yul\":8954:8957   */\n      dup2\n        /* \"#utility.yul\":8946:8957   */\n      swap1\n      pop\n        /* \"#utility.yul\":8977:8980   */\n      dup2\n        /* \"#utility.yul\":8974:8975   */\n      0x00\n        /* \"#utility.yul\":8967:8981   */\n      mstore\n        /* \"#utility.yul\":9011:9015   */\n      0x20\n        /* \"#utility.yul\":9008:9009   */\n      0x00\n        /* \"#utility.yul\":8998:9016   */\n      keccak256\n        /* \"#utility.yul\":8990:9016   */\n      swap1\n      pop\n        /* \"#utility.yul\":8882:9023   */\n      swap2\n      swap1\n      pop\n      jump\t// out\n        /* \"#utility.yul\":9053:9927   */\n    tag_118:\n        /* \"#utility.yul\":9156:9159   */\n      0x00\n        /* \"#utility.yul\":9193:9198   */\n      dup2\n        /* \"#utility.yul\":9187:9199   */\n      sload\n        /* \"#utility.yul\":9222:9258   */\n      tag_231\n        /* \"#utility.yul\":9248:9257   */\n      dup2\n        /* \"#utility.yul\":9222:9258   */\n      tag_34\n      jump\t// in\n    tag_231:\n        /* \"#utility.yul\":9274:9363   */\n      tag_232\n        /* \"#utility.yul\":9356:9362   */\n      dup2\n        /* \"#utility.yul\":9351:9354   */\n      dup7\n        /* \"#utility.yul\":9274:9363   */\n      tag_116\n      jump\t// in\n    tag_232:\n        /* \"#utility.yul\":9267:9363   */\n      swap5\n      pop\n        /* \"#utility.yul\":9394:9395   */\n      0x01\n        /* \"#utility.yul\":9383:9392   */\n      dup3\n        /* \"#utility.yul\":9379:9396   */\n      and\n        /* \"#utility.yul\":9410:9411   */\n      0x00\n        /* \"#utility.yul\":9405:9571   */\n      dup2\n      eq\n      tag_234\n      jumpi\n        /* \"#utility.yul\":9585:9586   */\n      0x01\n        /* \"#utility.yul\":9580:9921   */\n      dup2\n      eq\n      tag_235\n      jumpi\n        /* \"#utility.yul\":9372:9921   */\n      jump(tag_233)\n        /* \"#utility.yul\":9405:9571   */\n    tag_234:\n        /* \"#utility.yul\":9489:9493   */\n      0xff\n        /* \"#utility.yul\":9485:9494   */\n      not\n        /* \"#utility.yul\":9474:9483   */\n      dup4\n        /* \"#utility.yul\":9470:9495   */\n      and\n        /* \"#utility.yul\":9465:9468   */\n      dup7\n        /* \"#utility.yul\":9458:9496   */\n      mstore\n        /* \"#utility.yul\":9551:9557   */\n      dup2\n        /* \"#utility.yul\":9544:9558   */\n      iszero\n        /* \"#utility.yul\":9537:9559   */\n      iszero\n        /* \"#utility.yul\":9529:9535   */\n      dup3\n        /* \"#utility.yul\":9525:9560   */\n      mul\n        /* \"#utility.yul\":9520:9523   */\n      dup7\n        /* \"#utility.yul\":9516:9561   */\n      add\n        /* \"#utility.yul\":9509:9561   */\n      swap4\n      pop\n        /* \"#utility.yul\":9405:9571   */\n      jump(tag_233)\n        /* \"#utility.yul\":9580:9921   */\n    tag_235:\n        /* \"#utility.yul\":9647:9685   */\n      tag_236\n        /* \"#utility.yul\":9679:9684   */\n      dup6\n        /* \"#utility.yul\":9647:9685   */\n      tag_117\n      jump\t// in\n    tag_236:\n        /* \"#utility.yul\":9707:9708   */\n      0x00\n        /* \"#utility.yul\":9721:9875   */\n    tag_237:\n        /* \"#utility.yul\":9735:9741   */\n      dup4\n        /* \"#utility.yul\":9732:9733   */\n      dup2\n        /* \"#utility.yul\":9729:9742   */\n      lt\n        /* \"#utility.yul\":9721:9875   */\n      iszero\n      tag_239\n      jumpi\n        /* \"#utility.yul\":9809:9816   */\n      dup2\n        /* \"#utility.yul\":9803:9817   */\n      sload\n        /* \"#utility.yul\":9799:9800   */\n      dup2\n        /* \"#utility.yul\":9794:9797   */\n      dup10\n        /* \"#utility.yul\":9790:9801   */\n      add\n        /* \"#utility.yul\":9783:9818   */\n      mstore\n        /* \"#utility.yul\":9859:9860   */\n      0x01\n        /* \"#utility.yul\":9850:9857   */\n      dup3\n        /* \"#utility.yul\":9846:9861   */\n      add\n        /* \"#utility.yul\":9835:9861   */\n      swap2\n      pop\n        /* \"#utility.yul\":9757:9761   */\n      0x20\n        /* \"#utility.yul\":9754:9755   */\n      dup2\n        /* \"#utility.yul\":9750:9762   */\n      add\n        /* \"#utility.yul\":9745:9762   */\n      swap1\n      pop\n        /* \"#utility.yul\":9721:9875   */\n      jump(tag_237)\n    tag_239:\n        /* \"#utility.yul\":9904:9910   */\n      dup4\n        /* \"#utility.yul\":9899:9902   */\n      dup9\n        /* \"#utility.yul\":9895:9911   */\n      add\n        /* \"#utility.yul\":9888:9911   */\n      swap6\n      pop\n        /* \"#utility.yul\":9587:9921   */\n      pop\n      pop\n        /* \"#utility.yul\":9372:9921   */\n    tag_233:\n      pop\n        /* \"#utility.yul\":9160:9927   */\n      pop\n      pop\n        /* \"#utility.yul\":9053:9927   */\n      swap3\n      swap2\n      pop\n      pop\n      jump\t// out\n        /* \"#utility.yul\":9933:10202   */\n    tag_48:\n        /* \"#utility.yul\":10062:10065   */\n      0x00\n        /* \"#utility.yul\":10084:10176   */\n      tag_241\n        /* \"#utility.yul\":10172:10175   */\n      dup3\n        /* \"#utility.yul\":10163:10169   */\n      dup5\n        /* \"#utility.yul\":10084:10176   */\n      tag_118\n      jump\t// in\n    tag_241:\n        /* \"#utility.yul\":10077:10176   */\n      swap2\n      pop\n        /* \"#utility.yul\":10193:10196   */\n      dup2\n        /* \"#utility.yul\":10186:10196   */\n      swap1\n      pop\n        /* \"#utility.yul\":9933:10202   */\n      swap3\n      swap2\n      pop\n      pop\n      jump\t// out\n        /* \"#utility.yul\":10208:10598   */\n    tag_119:\n        /* \"#utility.yul\":10314:10317   */\n      0x00\n        /* \"#utility.yul\":10342:10381   */\n      tag_243\n        /* \"#utility.yul\":10375:10380   */\n      dup3\n        /* \"#utility.yul\":10342:10381   */\n      tag_89\n      jump\t// in\n    tag_243:\n        /* \"#utility.yul\":10397:10486   */\n      tag_244\n        /* \"#utility.yul\":10479:10485   */\n      dup2\n        /* \"#utility.yul\":10474:10477   */\n      dup6\n        /* \"#utility.yul\":10397:10486   */\n      tag_116\n      jump\t// in\n    tag_244:\n        /* \"#utility.yul\":10390:10486   */\n      swap4\n      pop\n        /* \"#utility.yul\":10495:10560   */\n      tag_245\n        /* \"#utility.yul\":10553:10559   */\n      dup2\n        /* \"#utility.yul\":10548:10551   */\n      dup6\n        /* \"#utility.yul\":10541:10545   */\n      0x20\n        /* \"#utility.yul\":10534:10539   */\n      dup7\n        /* \"#utility.yul\":10530:10546   */\n      add\n        /* \"#utility.yul\":10495:10560   */\n      tag_91\n      jump\t// in\n    tag_245:\n        /* \"#utility.yul\":10585:10591   */\n      dup1\n        /* \"#utility.yul\":10580:10583   */\n      dup5\n        /* \"#utility.yul\":10576:10592   */\n      add\n        /* \"#utility.yul\":10569:10592   */\n      swap2\n      pop\n        /* \"#utility.yul\":10318:10598   */\n      pop\n        /* \"#utility.yul\":10208:10598   */\n      swap3\n      swap2\n      pop\n      pop\n      jump\t// out\n        /* \"#utility.yul\":10604:10879   */\n    tag_62:\n        /* \"#utility.yul\":10736:10739   */\n      0x00\n        /* \"#utility.yul\":10758:10853   */\n      tag_247\n        /* \"#utility.yul\":10849:10852   */\n      dup3\n        /* \"#utility.yul\":10840:10846   */\n      dup5\n        /* \"#utility.yul\":10758:10853   */\n      tag_119\n      jump\t// in\n    tag_247:\n        /* \"#utility.yul\":10751:10853   */\n      swap2\n      pop\n        /* \"#utility.yul\":10870:10873   */\n      dup2\n        /* \"#utility.yul\":10863:10873   */\n      swap1\n      pop\n        /* \"#utility.yul\":10604:10879   */\n      swap3\n      swap2\n      pop\n      pop\n      jump\t// out\n        /* \"#utility.yul\":10885:11054   */\n    tag_120:\n        /* \"#utility.yul\":10969:10980   */\n      0x00\n        /* \"#utility.yul\":11003:11009   */\n      dup3\n        /* \"#utility.yul\":10998:11001   */\n      dup3\n        /* \"#utility.yul\":10991:11010   */\n      mstore\n        /* \"#utility.yul\":11043:11047   */\n      0x20\n        /* \"#utility.yul\":11038:11041   */\n      dup3\n        /* \"#utility.yul\":11034:11048   */\n      add\n        /* \"#utility.yul\":11019:11048   */\n      swap1\n      pop\n        /* \"#utility.yul\":10885:11054   */\n      swap3\n      swap2\n      pop\n      pop\n      jump\t// out\n        /* \"#utility.yul\":11060:11437   */\n    tag_121:\n        /* \"#utility.yul\":11148:11151   */\n      0x00\n        /* \"#utility.yul\":11176:11215   */\n      tag_250\n        /* \"#utility.yul\":11209:11214   */\n      dup3\n        /* \"#utility.yul\":11176:11215   */\n      tag_89\n      jump\t// in\n    tag_250:\n        /* \"#utility.yul\":11231:11302   */\n      tag_251\n        /* \"#utility.yul\":11295:11301   */\n      dup2\n        /* \"#utility.yul\":11290:11293   */\n      dup6\n        /* \"#utility.yul\":11231:11302   */\n      tag_120\n      jump\t// in\n    tag_251:\n        /* \"#utility.yul\":11224:11302   */\n      swap4\n      pop\n        /* \"#utility.yul\":11311:11376   */\n      tag_252\n        /* \"#utility.yul\":11369:11375   */\n      dup2\n        /* \"#utility.yul\":11364:11367   */\n      dup6\n        /* \"#utility.yul\":11357:11361   */\n      0x20\n        /* \"#utility.yul\":11350:11355   */\n      dup7\n        /* \"#utility.yul\":11346:11362   */\n      add\n        /* \"#utility.yul\":11311:11376   */\n      tag_91\n      jump\t// in\n    tag_252:\n        /* \"#utility.yul\":11401:11430   */\n      tag_253\n        /* \"#utility.yul\":11423:11429   */\n      dup2\n        /* \"#utility.yul\":11401:11430   */\n      tag_92\n      jump\t// in\n    tag_253:\n        /* \"#utility.yul\":11396:11399   */\n      dup5\n        /* \"#utility.yul\":11392:11431   */\n      add\n        /* \"#utility.yul\":11385:11431   */\n      swap2\n      pop\n        /* \"#utility.yul\":11152:11437   */\n      pop\n        /* \"#utility.yul\":11060:11437   */\n      swap3\n      swap2\n      pop\n      pop\n      jump\t// out\n        /* \"#utility.yul\":11443:11756   */\n    tag_65:\n        /* \"#utility.yul\":11556:11560   */\n      0x00\n        /* \"#utility.yul\":11594:11596   */\n      0x20\n        /* \"#utility.yul\":11583:11592   */\n      dup3\n        /* \"#utility.yul\":11579:11597   */\n      add\n        /* \"#utility.yul\":11571:11597   */\n      swap1\n      pop\n        /* \"#utility.yul\":11643:11652   */\n      dup2\n        /* \"#utility.yul\":11637:11641   */\n      dup2\n        /* \"#utility.yul\":11633:11653   */\n      sub\n        /* \"#utility.yul\":11629:11630   */\n      0x00\n        /* \"#utility.yul\":11618:11627   */\n      dup4\n        /* \"#utility.yul\":11614:11631   */\n      add\n        /* \"#utility.yul\":11607:11654   */\n      mstore\n        /* \"#utility.yul\":11671:11749   */\n      tag_255\n        /* \"#utility.yul\":11744:11748   */\n      dup2\n        /* \"#utility.yul\":11735:11741   */\n      dup5\n        /* \"#utility.yul\":11671:11749   */\n      tag_121\n      jump\t// in\n    tag_255:\n        /* \"#utility.yul\":11663:11749   */\n      swap1\n      pop\n        /* \"#utility.yul\":11443:11756   */\n      swap3\n      swap2\n      pop\n      pop\n      jump\t// out\n        /* \"#utility.yul\":11762:11855   */\n    tag_122:\n        /* \"#utility.yul\":11799:11805   */\n      0x00\n        /* \"#utility.yul\":11846:11848   */\n      0x20\n        /* \"#utility.yul\":11841:11843   */\n      0x1f\n        /* \"#utility.yul\":11834:11839   */\n      dup4\n        /* \"#utility.yul\":11830:11844   */\n      add\n        /* \"#utility.yul\":11826:11849   */\n      div\n        /* \"#utility.yul\":11816:11849   */\n      swap1\n      pop\n        /* \"#utility.yul\":11762:11855   */\n      swap2\n      swap1\n      pop\n      jump\t// out\n        /* \"#utility.yul\":11861:11968   */\n    tag_123:\n        /* \"#utility.yul\":11905:11913   */\n      0x00\n        /* \"#utility.yul\":11955:11960   */\n      dup3\n        /* \"#utility.yul\":11949:11953   */\n      dup3\n        /* \"#utility.yul\":11945:11961   */\n      shl\n        /* \"#utility.yul\":11924:11961   */\n      swap1\n      pop\n        /* \"#utility.yul\":11861:11968   */\n      swap3\n      swap2\n      pop\n      pop\n      jump\t// out\n        /* \"#utility.yul\":11974:12367   */\n    tag_124:\n        /* \"#utility.yul\":12043:12049   */\n      0x00\n        /* \"#utility.yul\":12093:12094   */\n      0x08\n        /* \"#utility.yul\":12081:12091   */\n      dup4\n        /* \"#utility.yul\":12077:12095   */\n      mul\n        /* \"#utility.yul\":12116:12213   */\n      tag_259\n        /* \"#utility.yul\":12146:12212   */\n      0xffffffffffffffffffffffffffffffffffffffffffffffffffffffffffffffff\n        /* \"#utility.yul\":12135:12144   */\n      dup3\n        /* \"#utility.yul\":12116:12213   */\n      tag_123\n      jump\t// in\n    tag_259:\n        /* \"#utility.yul\":12234:12273   */\n      tag_260\n        /* \"#utility.yul\":12264:12272   */\n      dup7\n        /* \"#utility.yul\":12253:12262   */\n      dup4\n        /* \"#utility.yul\":12234:12273   */\n      tag_123\n      jump\t// in\n    tag_260:\n        /* \"#utility.yul\":12222:12273   */\n      swap6\n      pop\n        /* \"#utility.yul\":12306:12310   */\n      dup1\n        /* \"#utility.yul\":12302:12311   */\n      not\n        /* \"#utility.yul\":12295:12300   */\n      dup5\n        /* \"#utility.yul\":12291:12312   */\n      and\n        /* \"#utility.yul\":12282:12312   */\n      swap4\n      pop\n        /* \"#utility.yul\":12355:12359   */\n      dup1\n        /* \"#utility.yul\":12345:12353   */\n      dup7\n        /* \"#utility.yul\":12341:12360   */\n      and\n        /* \"#utility.yul\":12334:12339   */\n      dup5\n        /* \"#utility.yul\":12331:12361   */\n      or\n        /* \"#utility.yul\":12321:12361   */\n      swap3\n      pop\n        /* \"#utility.yul\":12050:12367   */\n      pop\n      pop\n        /* \"#utility.yul\":11974:12367   */\n      swap4\n      swap3\n      pop\n      pop\n      pop\n      jump\t// out\n        /* \"#utility.yul\":12373:12450   */\n    tag_125:\n        /* \"#utility.yul\":12410:12417   */\n      0x00\n        /* \"#utility.yul\":12439:12444   */\n      dup2\n        /* \"#utility.yul\":12428:12444   */\n      swap1\n      pop\n        /* \"#utility.yul\":12373:12450   */\n      swap2\n      swap1\n      pop\n      jump\t// out\n        /* \"#utility.yul\":12456:12516   */\n    tag_126:\n        /* \"#utility.yul\":12484:12487   */\n      0x00\n        /* \"#utility.yul\":12505:12510   */\n      dup2\n        /* \"#utility.yul\":12498:12510   */\n      swap1\n      pop\n        /* \"#utility.yul\":12456:12516   */\n      swap2\n      swap1\n      pop\n      jump\t// out\n        /* \"#utility.yul\":12522:12664   */\n    tag_127:\n        /* \"#utility.yul\":12572:12581   */\n      0x00\n        /* \"#utility.yul\":12605:12658   */\n      tag_264\n        /* \"#utility.yul\":12623:12657   */\n      tag_265\n        /* \"#utility.yul\":12632:12656   */\n      tag_266\n        /* \"#utility.yul\":12650:12655   */\n      dup5\n        /* \"#utility.yul\":12632:12656   */\n      tag_125\n      jump\t// in\n    tag_266:\n        /* \"#utility.yul\":12623:12657   */\n      tag_126\n      jump\t// in\n    tag_265:\n        /* \"#utility.yul\":12605:12658   */\n      tag_125\n      jump\t// in\n    tag_264:\n        /* \"#utility.yul\":12592:12658   */\n      swap1\n      pop\n        /* \"#utility.yul\":12522:12664   */\n      swap2\n      swap1\n      pop\n      jump\t// out\n        /* \"#utility.yul\":12670:12745   */\n    tag_128:\n        /* \"#utility.yul\":12713:12716   */\n      0x00\n        /* \"#utility.yul\":12734:12739   */\n      dup2\n        /* \"#utility.yul\":12727:12739   */\n      swap1\n      pop\n        /* \"#utility.yul\":12670:12745   */\n      swap2\n      swap1\n      pop\n      jump\t// out\n        /* \"#utility.yul\":12751:13020   */\n    tag_129:\n        /* \"#utility.yul\":12861:12900   */\n      tag_269\n        /* \"#utility.yul\":12892:12899   */\n      dup4\n        /* \"#utility.yul\":12861:12900   */\n      tag_127\n      jump\t// in\n    tag_269:\n        /* \"#utility.yul\":12922:13013   */\n      tag_270\n        /* \"#utility.yul\":12971:13012   */\n      tag_271\n        /* \"#utility.yul\":12995:13011   */\n      dup3\n        /* \"#utility.yul\":12971:13012   */\n      tag_128\n      jump\t// in\n    tag_271:\n        /* \"#utility.yul\":12963:12969   */\n      dup5\n        /* \"#utility.yul\":12956:12960   */\n      dup5\n        /* \"#utility.yul\":12950:12961   */\n      sload\n        /* \"#utility.yul\":12922:13013   */\n      tag_124\n      jump\t// in\n    tag_270:\n        /* \"#utility.yul\":12916:12920   */\n      dup3\n        /* \"#utility.yul\":12909:13014   */\n      sstore\n        /* \"#utility.yul\":12827:13020   */\n      pop\n        /* \"#utility.yul\":12751:13020   */\n      pop\n      pop\n      pop\n      jump\t// out\n        /* \"#utility.yul\":13026:13099   */\n    tag_130:\n        /* \"#utility.yul\":13071:13074   */\n      0x00\n        /* \"#utility.yul\":13026:13099   */\n      swap1\n      jump\t// out\n        /* \"#utility.yul\":13105:13294   */\n    tag_131:\n        /* \"#utility.yul\":13182:13214   */\n      tag_274\n      tag_130\n      jump\t// in\n    tag_274:\n        /* \"#utility.yul\":13223:13288   */\n      tag_275\n        /* \"#utility.yul\":13281:13287   */\n      dup2\n        /* \"#utility.yul\":13273:13279   */\n      dup5\n        /* \"#utility.yul\":13267:13271   */\n      dup5\n        /* \"#utility.yul\":13223:13288   */\n      tag_129\n      jump\t// in\n    tag_275:\n        /* \"#utility.yul\":13158:13294   */\n      pop\n        /* \"#utility.yul\":13105:13294   */\n      pop\n      pop\n      jump\t// out\n        /* \"#utility.yul\":13300:13486   */\n    tag_132:\n        /* \"#utility.yul\":13360:13480   */\n    tag_277:\n        /* \"#utility.yul\":13377:13380   */\n      dup2\n        /* \"#utility.yul\":13370:13375   */\n      dup2\n        /* \"#utility.yul\":13367:13381   */\n      lt\n        /* \"#utility.yul\":13360:13480   */\n      iszero\n      tag_279\n      jumpi\n        /* \"#utility.yul\":13431:13470   */\n      tag_280\n        /* \"#utility.yul\":13468:13469   */\n      0x00\n        /* \"#utility.yul\":13461:13466   */\n      dup3\n        /* \"#utility.yul\":13431:13470   */\n      tag_131\n      jump\t// in\n    tag_280:\n        /* \"#utility.yul\":13404:13405   */\n      0x01\n        /* \"#utility.yul\":13397:13402   */\n      dup2\n        /* \"#utility.yul\":13393:13406   */\n      add\n        /* \"#utility.yul\":13384:13406   */\n      swap1\n      pop\n        /* \"#utility.yul\":13360:13480   */\n      jump(tag_277)\n    tag_279:\n        /* \"#utility.yul\":13300:13486   */\n      pop\n      pop\n      jump\t// out\n        /* \"#utility.yul\":13492:14035   */\n    tag_133:\n        /* \"#utility.yul\":13593:13595   */\n      0x1f\n        /* \"#utility.yul\":13588:13591   */\n      dup3\n        /* \"#utility.yul\":13585:13596   */\n      gt\n        /* \"#utility.yul\":13582:14028   */\n      iszero\n      tag_282\n      jumpi\n        /* \"#utility.yul\":13627:13665   */\n      tag_283\n        /* \"#utility.yul\":13659:13664   */\n      dup2\n        /* \"#utility.yul\":13627:13665   */\n      tag_117\n      jump\t// in\n    tag_283:\n        /* \"#utility.yul\":13711:13740   */\n      tag_284\n        /* \"#utility.yul\":13729:13739   */\n      dup5\n        /* \"#utility.yul\":13711:13740   */\n      tag_122\n      jump\t// in\n    tag_284:\n        /* \"#utility.yul\":13701:13709   */\n      dup2\n        /* \"#utility.yul\":13697:13741   */\n      add\n        /* \"#utility.yul\":13894:13896   */\n      0x20\n        /* \"#utility.yul\":13882:13892   */\n      dup6\n        /* \"#utility.yul\":13879:13897   */\n      lt\n        /* \"#utility.yul\":13876:13925   */\n      iszero\n      tag_285\n      jumpi\n        /* \"#utility.yul\":13915:13923   */\n      dup2\n        /* \"#utility.yul\":13900:13923   */\n      swap1\n      pop\n        /* \"#utility.yul\":13876:13925   */\n    tag_285:\n        /* \"#utility.yul\":13938:14018   */\n      tag_286\n        /* \"#utility.yul\":13994:14016   */\n      tag_287\n        /* \"#utility.yul\":14012:14015   */\n      dup6\n        /* \"#utility.yul\":13994:14016   */\n      tag_122\n      jump\t// in\n    tag_287:\n        /* \"#utility.yul\":13984:13992   */\n      dup4\n        /* \"#utility.yul\":13980:14017   */\n      add\n        /* \"#utility.yul\":13967:13978   */\n      dup3\n        /* \"#utility.yul\":13938:14018   */\n      tag_132\n      jump\t// in\n    tag_286:\n        /* \"#utility.yul\":13597:14028   */\n      pop\n      pop\n        /* \"#utility.yul\":13582:14028   */\n    tag_282:\n        /* \"#utility.yul\":13492:14035   */\n      pop\n      pop\n      pop\n      jump\t// out\n        /* \"#utility.yul\":14041:14158   */\n    tag_134:\n        /* \"#utility.yul\":14095:14103   */\n      0x00\n        /* \"#utility.yul\":14145:14150   */\n      dup3\n        /* \"#utility.yul\":14139:14143   */\n      dup3\n        /* \"#utility.yul\":14135:14151   */\n      shr\n        /* \"#utility.yul\":14114:14151   */\n      swap1\n      pop\n        /* \"#utility.yul\":14041:14158   */\n      swap3\n      swap2\n      pop\n      pop\n      jump\t// out\n        /* \"#utility.yul\":14164:14333   */\n    tag_135:\n        /* \"#utility.yul\":14208:14214   */\n      0x00\n        /* \"#utility.yul\":14241:14292   */\n      tag_290\n        /* \"#utility.yul\":14289:14290   */\n      0x00\n        /* \"#utility.yul\":14285:14291   */\n      not\n        /* \"#utility.yul\":14277:14282   */\n      dup5\n        /* \"#utility.yul\":14274:14275   */\n      0x08\n        /* \"#utility.yul\":14270:14283   */\n      mul\n        /* \"#utility.yul\":14241:14292   */\n      tag_134\n      jump\t// in\n    tag_290:\n        /* \"#utility.yul\":14237:14293   */\n      not\n        /* \"#utility.yul\":14322:14326   */\n      dup1\n        /* \"#utility.yul\":14316:14320   */\n      dup4\n        /* \"#utility.yul\":14312:14327   */\n      and\n        /* \"#utility.yul\":14302:14327   */\n      swap2\n      pop\n        /* \"#utility.yul\":14215:14333   */\n      pop\n        /* \"#utility.yul\":14164:14333   */\n      swap3\n      swap2\n      pop\n      pop\n      jump\t// out\n        /* \"#utility.yul\":14338:14633   */\n    tag_136:\n        /* \"#utility.yul\":14414:14418   */\n      0x00\n        /* \"#utility.yul\":14560:14589   */\n      tag_292\n        /* \"#utility.yul\":14585:14588   */\n      dup4\n        /* \"#utility.yul\":14579:14583   */\n      dup4\n        /* \"#utility.yul\":14560:14589   */\n      tag_135\n      jump\t// in\n    tag_292:\n        /* \"#utility.yul\":14552:14589   */\n      swap2\n      pop\n        /* \"#utility.yul\":14622:14625   */\n      dup3\n        /* \"#utility.yul\":14619:14620   */\n      0x02\n        /* \"#utility.yul\":14615:14626   */\n      mul\n        /* \"#utility.yul\":14609:14613   */\n      dup3\n        /* \"#utility.yul\":14606:14627   */\n      or\n        /* \"#utility.yul\":14598:14627   */\n      swap1\n      pop\n        /* \"#utility.yul\":14338:14633   */\n      swap3\n      swap2\n      pop\n      pop\n      jump\t// out\n        /* \"#utility.yul\":14638:16033   */\n    tag_71:\n        /* \"#utility.yul\":14755:14792   */\n      tag_294\n        /* \"#utility.yul\":14788:14791   */\n      dup3\n        /* \"#utility.yul\":14755:14792   */\n      tag_89\n      jump\t// in\n    tag_294:\n        /* \"#utility.yul\":14857:14875   */\n      0xffffffffffffffff\n        /* \"#utility.yul\":14849:14855   */\n      dup2\n        /* \"#utility.yul\":14846:14876   */\n      gt\n        /* \"#utility.yul\":14843:14899   */\n      iszero\n      tag_295\n      jumpi\n        /* \"#utility.yul\":14879:14897   */\n      tag_296\n      tag_106\n      jump\t// in\n    tag_296:\n        /* \"#utility.yul\":14843:14899   */\n    tag_295:\n        /* \"#utility.yul\":14923:14961   */\n      tag_297\n        /* \"#utility.yul\":14955:14959   */\n      dup3\n        /* \"#utility.yul\":14949:14960   */\n      sload\n        /* \"#utility.yul\":14923:14961   */\n      tag_34\n      jump\t// in\n    tag_297:\n        /* \"#utility.yul\":15008:15075   */\n      tag_298\n        /* \"#utility.yul\":15068:15074   */\n      dup3\n        /* \"#utility.yul\":15060:15066   */\n      dup3\n        /* \"#utility.yul\":15054:15058   */\n      dup6\n        /* \"#utility.yul\":15008:15075   */\n      tag_133\n      jump\t// in\n    tag_298:\n        /* \"#utility.yul\":15102:15103   */\n      0x00\n        /* \"#utility.yul\":15126:15130   */\n      0x20\n        /* \"#utility.yul\":15113:15130   */\n      swap1\n      pop\n        /* \"#utility.yul\":15158:15160   */\n      0x1f\n        /* \"#utility.yul\":15150:15156   */\n      dup4\n        /* \"#utility.yul\":15147:15161   */\n      gt\n        /* \"#utility.yul\":15175:15176   */\n      0x01\n        /* \"#utility.yul\":15170:15788   */\n      dup2\n      eq\n      tag_300\n      jumpi\n        /* \"#utility.yul\":15832:15833   */\n      0x00\n        /* \"#utility.yul\":15849:15855   */\n      dup5\n        /* \"#utility.yul\":15846:15923   */\n      iszero\n      tag_301\n      jumpi\n        /* \"#utility.yul\":15898:15907   */\n      dup3\n        /* \"#utility.yul\":15893:15896   */\n      dup8\n        /* \"#utility.yul\":15889:15908   */\n      add\n        /* \"#utility.yul\":15883:15909   */\n      mload\n        /* \"#utility.yul\":15874:15909   */\n      swap1\n      pop\n        /* \"#utility.yul\":15846:15923   */\n    tag_301:\n        /* \"#utility.yul\":15949:16016   */\n      tag_302\n        /* \"#utility.yul\":16009:16015   */\n      dup6\n        /* \"#utility.yul\":16002:16007   */\n      dup3\n        /* \"#utility.yul\":15949:16016   */\n      tag_136\n      jump\t// in\n    tag_302:\n        /* \"#utility.yul\":15943:15947   */\n      dup7\n        /* \"#utility.yul\":15936:16017   */\n      sstore\n        /* \"#utility.yul\":15805:16027   */\n      pop\n        /* \"#utility.yul\":15140:16027   */\n      jump(tag_299)\n        /* \"#utility.yul\":15170:15788   */\n    tag_300:\n        /* \"#utility.yul\":15222:15226   */\n      0x1f\n        /* \"#utility.yul\":15218:15227   */\n      not\n        /* \"#utility.yul\":15210:15216   */\n      dup5\n        /* \"#utility.yul\":15206:15228   */\n      and\n        /* \"#utility.yul\":15256:15293   */\n      tag_303\n        /* \"#utility.yul\":15288:15292   */\n      dup7\n        /* \"#utility.yul\":15256:15293   */\n      tag_117\n      jump\t// in\n    tag_303:\n        /* \"#utility.yul\":15315:15316   */\n      0x00\n        /* \"#utility.yul\":15329:15537   */\n    tag_304:\n        /* \"#utility.yul\":15343:15350   */\n      dup3\n        /* \"#utility.yul\":15340:15341   */\n      dup2\n        /* \"#utility.yul\":15337:15351   */\n      lt\n        /* \"#utility.yul\":15329:15537   */\n      iszero\n      tag_306\n      jumpi\n        /* \"#utility.yul\":15422:15431   */\n      dup5\n        /* \"#utility.yul\":15417:15420   */\n      dup10\n        /* \"#utility.yul\":15413:15432   */\n      add\n        /* \"#utility.yul\":15407:15433   */\n      mload\n        /* \"#utility.yul\":15399:15405   */\n      dup3\n        /* \"#utility.yul\":15392:15434   */\n      sstore\n        /* \"#utility.yul\":15473:15474   */\n      0x01\n        /* \"#utility.yul\":15465:15471   */\n      dup3\n        /* \"#utility.yul\":15461:15475   */\n      add\n        /* \"#utility.yul\":15451:15475   */\n      swap2\n      pop\n        /* \"#utility.yul\":15520:15522   */\n      0x20\n        /* \"#utility.yul\":15509:15518   */\n      dup6\n        /* \"#utility.yul\":15505:15523   */\n      add\n        /* \"#utility.yul\":15492:15523   */\n      swap5\n      pop\n        /* \"#utility.yul\":15366:15370   */\n      0x20\n        /* \"#utility.yul\":15363:15364   */\n      dup2\n        /* \"#utility.yul\":15359:15371   */\n      add\n        /* \"#utility.yul\":15354:15371   */\n      swap1\n      pop\n        /* \"#utility.yul\":15329:15537   */\n      jump(tag_304)\n    tag_306:\n        /* \"#utility.yul\":15565:15571   */\n      dup7\n        /* \"#utility.yul\":15556:15563   */\n      dup4\n        /* \"#utility.yul\":15553:15572   */\n      lt\n        /* \"#utility.yul\":15550:15729   */\n      iszero\n      tag_307\n      jumpi\n        /* \"#utility.yul\":15623:15632   */\n      dup5\n        /* \"#utility.yul\":15618:15621   */\n      dup10\n        /* \"#utility.yul\":15614:15633   */\n      add\n        /* \"#utility.yul\":15608:15634   */\n      mload\n        /* \"#utility.yul\":15666:15714   */\n      tag_308\n        /* \"#utility.yul\":15708:15712   */\n      0x1f\n        /* \"#utility.yul\":15700:15706   */\n      dup10\n        /* \"#utility.yul\":15696:15713   */\n      and\n        /* \"#utility.yul\":15685:15694   */\n      dup3\n        /* \"#utility.yul\":15666:15714   */\n      tag_135\n      jump\t// in\n    tag_308:\n        /* \"#utility.yul\":15658:15664   */\n      dup4\n        /* \"#utility.yul\":15651:15715   */\n      sstore\n        /* \"#utility.yul\":15573:15729   */\n      pop\n        /* \"#utility.yul\":15550:15729   */\n    tag_307:\n        /* \"#utility.yul\":15775:15776   */\n      0x01\n        /* \"#utility.yul\":15771:15772   */\n      0x02\n        /* \"#utility.yul\":15763:15769   */\n      dup9\n        /* \"#utility.yul\":15759:15773   */\n      mul\n        /* \"#utility.yul\":15755:15777   */\n      add\n        /* \"#utility.yul\":15749:15753   */\n      dup9\n        /* \"#utility.yul\":15742:15778   */\n      sstore\n        /* \"#utility.yul\":15177:15788   */\n      pop\n      pop\n      pop\n        /* \"#utility.yul\":15140:16027   */\n    tag_299:\n      pop\n        /* \"#utility.yul\":14730:16033   */\n      pop\n      pop\n      pop\n        /* \"#utility.yul\":14638:16033   */\n      pop\n      pop\n      jump\t// out\n\n    auxdata: 0xa2646970667358221220fa3746481d1c1863de975a97304f6b4b9c9bd1a98e913501a72353c81f9661e564736f6c634300081a0033\n}\n",
				"bytecode": {
					"linkReferences": {},
					"object": "608060405234801561000f575f80fd5b506100546040518060400160405280600881526020017f546872696c6c657200000000000000000000000000000000000000000000000081525061027960201b60201c565b6100986040518060400160405280600d81526020017f4261636b20696e20426c61636b0000000000000000000000000000000000000081525061027960201b60201c565b6100dc6040518060400160405280600d81526020017f54686520426f647967756172640000000000000000000000000000000000000081525061027960201b60201c565b6101206040518060400160405280601981526020017f546865204461726b2053696465206f6620746865204d6f6f6e0000000000000081525061027960201b60201c565b6101646040518060400160405280601f81526020017f546865697220477265617465737420486974732028313937312d31393735290081525061027960201b60201c565b6101a86040518060400160405280601081526020017f486f74656c2043616c69666f726e69610000000000000000000000000000000081525061027960201b60201c565b6101ec6040518060400160405280600c81526020017f436f6d65204f6e204f766572000000000000000000000000000000000000000081525061027960201b60201c565b6102306040518060400160405280600781526020017f52756d6f7572730000000000000000000000000000000000000000000000000081525061027960201b60201c565b6102746040518060400160405280601481526020017f5361747572646179204e6967687420466576657200000000000000000000000081525061027960201b60201c565b61064a565b60015f8260405161028a9190610335565b90815260200160405180910390205f6101000a81548160ff021916908315150217905550600181908060018154018082558091505060019003905f5260205f20015f9091909190915090816102df919061057b565b5050565b5f81519050919050565b5f81905092915050565b8281835e5f83830152505050565b5f61030f826102e3565b61031981856102ed565b93506103298185602086016102f7565b80840191505092915050565b5f6103408284610305565b915081905092915050565b7f4e487b71000000000000000000000000000000000000000000000000000000005f52604160045260245ffd5b7f4e487b71000000000000000000000000000000000000000000000000000000005f52602260045260245ffd5b5f60028204905060018216806103bc57607f821691505b6020821081036103cf576103ce610378565b5b50919050565b5f819050815f5260205f209050919050565b5f6020601f8301049050919050565b5f82821b905092915050565b5f600883026104317fffffffffffffffffffffffffffffffffffffffffffffffffffffffffffffffff826103f6565b61043b86836103f6565b95508019841693508086168417925050509392505050565b5f819050919050565b5f819050919050565b5f61047f61047a61047584610453565b61045c565b610453565b9050919050565b5f819050919050565b61049883610465565b6104ac6104a482610486565b848454610402565b825550505050565b5f90565b6104c06104b4565b6104cb81848461048f565b505050565b5b818110156104ee576104e35f826104b8565b6001810190506104d1565b5050565b601f82111561053357610504816103d5565b61050d846103e7565b8101602085101561051c578190505b610530610528856103e7565b8301826104d0565b50505b505050565b5f82821c905092915050565b5f6105535f1984600802610538565b1980831691505092915050565b5f61056b8383610544565b9150826002028217905092915050565b610584826102e3565b67ffffffffffffffff81111561059d5761059c61034b565b5b6105a782546103a5565b6105b28282856104f2565b5f60209050601f8311600181146105e3575f84156105d1578287015190505b6105db8582610560565b865550610642565b601f1984166105f1866103d5565b5f5b82811015610618578489015182556001820191506020850194506020810190506105f3565b868310156106355784890151610631601f891682610544565b8355505b6001600288020188555050505b505050505050565b610f38806106575f395ff3fe608060405234801561000f575f80fd5b5060043610610055575f3560e01c80631cf0830b14610059578063837f887814610077578063c75c333c14610081578063c7853148146100b1578063d81aa8c4146100e1575b5f80fd5b6100616100fd565b60405161006e91906107ff565b60405180910390f35b61007f6101d1565b005b61009b600480360381019061009691906109b6565b610331565b6040516100a89190610a2a565b60405180910390f35b6100cb60048036038101906100c69190610a43565b610373565b6040516100d891906107ff565b60405180910390f35b6100fb60048036038101906100f69190610a6e565b610484565b005b60606001805480602002602001604051908101604052809291908181526020015f905b828210156101c8578382905f5260205f2001805461013d90610ae2565b80601f016020809104026020016040519081016040528092919081815260200182805461016990610ae2565b80156101b45780601f1061018b576101008083540402835291602001916101b4565b820191905f5260205f20905b81548152906001019060200180831161019757829003601f168201915b505050505081526020019060010190610120565b50505050905090565b5f5b60035f3373ffffffffffffffffffffffffffffffffffffffff1673ffffffffffffffffffffffffffffffffffffffff1681526020019081526020015f20805490508110156102e65760025f3373ffffffffffffffffffffffffffffffffffffffff1673ffffffffffffffffffffffffffffffffffffffff1681526020019081526020015f2060035f3373ffffffffffffffffffffffffffffffffffffffff1673ffffffffffffffffffffffffffffffffffffffff1681526020019081526020015f2082815481106102a7576102a6610b12565b5b905f5260205f20016040516102bc9190610bdb565b90815260200160405180910390205f6101000a81549060ff021916905580806001019150506101d3565b5060035f3373ffffffffffffffffffffffffffffffffffffffff1673ffffffffffffffffffffffffffffffffffffffff1681526020019081526020015f205f61032f919061063b565b565b6002602052815f5260405f20818051602081018201805184825260208301602085012081835280955050505050505f915091509054906101000a900460ff1681565b606060035f8373ffffffffffffffffffffffffffffffffffffffff1673ffffffffffffffffffffffffffffffffffffffff1681526020019081526020015f20805480602002602001604051908101604052809291908181526020015f905b82821015610479578382905f5260205f200180546103ee90610ae2565b80601f016020809104026020016040519081016040528092919081815260200182805461041a90610ae2565b80156104655780601f1061043c57610100808354040283529160200191610465565b820191905f5260205f20905b81548152906001019060200180831161044857829003601f168201915b5050505050815260200190600101906103d1565b505050509050919050565b5f816040516104939190610c21565b90815260200160405180910390205f9054906101000a900460ff166104ef57806040517f4f0ffc1b0000000000000000000000000000000000000000000000000000000081526004016104e69190610c7f565b60405180910390fd5b60025f3373ffffffffffffffffffffffffffffffffffffffff1673ffffffffffffffffffffffffffffffffffffffff1681526020019081526020015f208160405161053a9190610c21565b90815260200160405180910390205f9054906101000a900460ff1661063857600160025f3373ffffffffffffffffffffffffffffffffffffffff1673ffffffffffffffffffffffffffffffffffffffff1681526020019081526020015f20826040516105a69190610c21565b90815260200160405180910390205f6101000a81548160ff02191690831515021790555060035f3373ffffffffffffffffffffffffffffffffffffffff1673ffffffffffffffffffffffffffffffffffffffff1681526020019081526020015f2081908060018154018082558091505060019003905f5260205f20015f9091909190915090816106369190610e33565b505b50565b5080545f8255905f5260205f20908101906106569190610659565b50565b5b80821115610678575f818161066f919061067c565b5060010161065a565b5090565b50805461068890610ae2565b5f825580601f1061069957506106b6565b601f0160209004905f5260205f20908101906106b591906106b9565b5b50565b5b808211156106d0575f815f9055506001016106ba565b5090565b5f81519050919050565b5f82825260208201905092915050565b5f819050602082019050919050565b5f81519050919050565b5f82825260208201905092915050565b8281835e5f83830152505050565b5f601f19601f8301169050919050565b5f61073f826106fd565b6107498185610707565b9350610759818560208601610717565b61076281610725565b840191505092915050565b5f6107788383610735565b905092915050565b5f602082019050919050565b5f610796826106d4565b6107a081856106de565b9350836020820285016107b2856106ee565b805f5b858110156107ed57848403895281516107ce858261076d565b94506107d983610780565b925060208a019950506001810190506107b5565b50829750879550505050505092915050565b5f6020820190508181035f830152610817818461078c565b905092915050565b5f604051905090565b5f80fd5b5f80fd5b5f73ffffffffffffffffffffffffffffffffffffffff82169050919050565b5f61085982610830565b9050919050565b6108698161084f565b8114610873575f80fd5b50565b5f8135905061088481610860565b92915050565b5f80fd5b5f80fd5b7f4e487b71000000000000000000000000000000000000000000000000000000005f52604160045260245ffd5b6108c882610725565b810181811067ffffffffffffffff821117156108e7576108e6610892565b5b80604052505050565b5f6108f961081f565b905061090582826108bf565b919050565b5f67ffffffffffffffff82111561092457610923610892565b5b61092d82610725565b9050602081019050919050565b828183375f83830152505050565b5f61095a6109558461090a565b6108f0565b9050828152602081018484840111156109765761097561088e565b5b61098184828561093a565b509392505050565b5f82601f83011261099d5761099c61088a565b5b81356109ad848260208601610948565b91505092915050565b5f80604083850312156109cc576109cb610828565b5b5f6109d985828601610876565b925050602083013567ffffffffffffffff8111156109fa576109f961082c565b5b610a0685828601610989565b9150509250929050565b5f8115159050919050565b610a2481610a10565b82525050565b5f602082019050610a3d5f830184610a1b565b92915050565b5f60208284031215610a5857610a57610828565b5b5f610a6584828501610876565b91505092915050565b5f60208284031215610a8357610a82610828565b5b5f82013567ffffffffffffffff811115610aa057610a9f61082c565b5b610aac84828501610989565b91505092915050565b7f4e487b71000000000000000000000000000000000000000000000000000000005f52602260045260245ffd5b5f6002820490506001821680610af957607f821691505b602082108103610b0c57610b0b610ab5565b5b50919050565b7f4e487b71000000000000000000000000000000000000000000000000000000005f52603260045260245ffd5b5f81905092915050565b5f819050815f5260205f209050919050565b5f8154610b6781610ae2565b610b718186610b3f565b9450600182165f8114610b8b5760018114610ba057610bd2565b60ff1983168652811515820286019350610bd2565b610ba985610b49565b5f5b83811015610bca57815481890152600182019150602081019050610bab565b838801955050505b50505092915050565b5f610be68284610b5b565b915081905092915050565b5f610bfb826106fd565b610c058185610b3f565b9350610c15818560208601610717565b80840191505092915050565b5f610c2c8284610bf1565b915081905092915050565b5f82825260208201905092915050565b5f610c51826106fd565b610c5b8185610c37565b9350610c6b818560208601610717565b610c7481610725565b840191505092915050565b5f6020820190508181035f830152610c978184610c47565b905092915050565b5f6020601f8301049050919050565b5f82821b905092915050565b5f60088302610ce97fffffffffffffffffffffffffffffffffffffffffffffffffffffffffffffffff82610cae565b610cf38683610cae565b95508019841693508086168417925050509392505050565b5f819050919050565b5f819050919050565b5f610d37610d32610d2d84610d0b565b610d14565b610d0b565b9050919050565b5f819050919050565b610d5083610d1d565b610d64610d5c82610d3e565b848454610cba565b825550505050565b5f90565b610d78610d6c565b610d83818484610d47565b505050565b5b81811015610da657610d9b5f82610d70565b600181019050610d89565b5050565b601f821115610deb57610dbc81610b49565b610dc584610c9f565b81016020851015610dd4578190505b610de8610de085610c9f565b830182610d88565b50505b505050565b5f82821c905092915050565b5f610e0b5f1984600802610df0565b1980831691505092915050565b5f610e238383610dfc565b9150826002028217905092915050565b610e3c826106fd565b67ffffffffffffffff811115610e5557610e54610892565b5b610e5f8254610ae2565b610e6a828285610daa565b5f60209050601f831160018114610e9b575f8415610e89578287015190505b610e938582610e18565b865550610efa565b601f198416610ea986610b49565b5f5b82811015610ed057848901518255600182019150602085019450602081019050610eab565b86831015610eed5784890151610ee9601f891682610dfc565b8355505b6001600288020188555050505b50505050505056fea2646970667358221220fa3746481d1c1863de975a97304f6b4b9c9bd1a98e913501a72353c81f9661e564736f6c634300081a0033",
					"opcodes": "PUSH1 0x80 PUSH1 0x40 MSTORE CALLVALUE DUP1 ISZERO PUSH2 0xF JUMPI PUSH0 DUP1 REVERT JUMPDEST POP PUSH2 0x54 PUSH1 0x40 MLOAD DUP1 PUSH1 0x40 ADD PUSH1 0x40 MSTORE DUP1 PUSH1 0x8 DUP2 MSTORE PUSH1 0x20 ADD PUSH32 0x546872696C6C6572000000000000000000000000000000000000000000000000 DUP2 MSTORE POP PUSH2 0x279 PUSH1 0x20 SHL PUSH1 0x20 SHR JUMP JUMPDEST PUSH2 0x98 PUSH1 0x40 MLOAD DUP1 PUSH1 0x40 ADD PUSH1 0x40 MSTORE DUP1 PUSH1 0xD DUP2 MSTORE PUSH1 0x20 ADD PUSH32 0x4261636B20696E20426C61636B00000000000000000000000000000000000000 DUP2 MSTORE POP PUSH2 0x279 PUSH1 0x20 SHL PUSH1 0x20 SHR JUMP JUMPDEST PUSH2 0xDC PUSH1 0x40 MLOAD DUP1 PUSH1 0x40 ADD PUSH1 0x40 MSTORE DUP1 PUSH1 0xD DUP2 MSTORE PUSH1 0x20 ADD PUSH32 0x54686520426F6479677561726400000000000000000000000000000000000000 DUP2 MSTORE POP PUSH2 0x279 PUSH1 0x20 SHL PUSH1 0x20 SHR JUMP JUMPDEST PUSH2 0x120 PUSH1 0x40 MLOAD DUP1 PUSH1 0x40 ADD PUSH1 0x40 MSTORE DUP1 PUSH1 0x19 DUP2 MSTORE PUSH1 0x20 ADD PUSH32 0x546865204461726B2053696465206F6620746865204D6F6F6E00000000000000 DUP2 MSTORE POP PUSH2 0x279 PUSH1 0x20 SHL PUSH1 0x20 SHR JUMP JUMPDEST PUSH2 0x164 PUSH1 0x40 MLOAD DUP1 PUSH1 0x40 ADD PUSH1 0x40 MSTORE DUP1 PUSH1 0x1F DUP2 MSTORE PUSH1 0x20 ADD PUSH32 0x546865697220477265617465737420486974732028313937312D313937352900 DUP2 MSTORE POP PUSH2 0x279 PUSH1 0x20 SHL PUSH1 0x20 SHR JUMP JUMPDEST PUSH2 0x1A8 PUSH1 0x40 MLOAD DUP1 PUSH1 0x40 ADD PUSH1 0x40 MSTORE DUP1 PUSH1 0x10 DUP2 MSTORE PUSH1 0x20 ADD PUSH32 0x486F74656C2043616C69666F726E696100000000000000000000000000000000 DUP2 MSTORE POP PUSH2 0x279 PUSH1 0x20 SHL PUSH1 0x20 SHR JUMP JUMPDEST PUSH2 0x1EC PUSH1 0x40 MLOAD DUP1 PUSH1 0x40 ADD PUSH1 0x40 MSTORE DUP1 PUSH1 0xC DUP2 MSTORE PUSH1 0x20 ADD PUSH32 0x436F6D65204F6E204F7665720000000000000000000000000000000000000000 DUP2 MSTORE POP PUSH2 0x279 PUSH1 0x20 SHL PUSH1 0x20 SHR JUMP JUMPDEST PUSH2 0x230 PUSH1 0x40 MLOAD DUP1 PUSH1 0x40 ADD PUSH1 0x40 MSTORE DUP1 PUSH1 0x7 DUP2 MSTORE PUSH1 0x20 ADD PUSH32 0x52756D6F75727300000000000000000000000000000000000000000000000000 DUP2 MSTORE POP PUSH2 0x279 PUSH1 0x20 SHL PUSH1 0x20 SHR JUMP JUMPDEST PUSH2 0x274 PUSH1 0x40 MLOAD DUP1 PUSH1 0x40 ADD PUSH1 0x40 MSTORE DUP1 PUSH1 0x14 DUP2 MSTORE PUSH1 0x20 ADD PUSH32 0x5361747572646179204E69676874204665766572000000000000000000000000 DUP2 MSTORE POP PUSH2 0x279 PUSH1 0x20 SHL PUSH1 0x20 SHR JUMP JUMPDEST PUSH2 0x64A JUMP JUMPDEST PUSH1 0x1 PUSH0 DUP3 PUSH1 0x40 MLOAD PUSH2 0x28A SWAP2 SWAP1 PUSH2 0x335 JUMP JUMPDEST SWAP1 DUP2 MSTORE PUSH1 0x20 ADD PUSH1 0x40 MLOAD DUP1 SWAP2 SUB SWAP1 KECCAK256 PUSH0 PUSH2 0x100 EXP DUP2 SLOAD DUP2 PUSH1 0xFF MUL NOT AND SWAP1 DUP4 ISZERO ISZERO MUL OR SWAP1 SSTORE POP PUSH1 0x1 DUP2 SWAP1 DUP1 PUSH1 0x1 DUP2 SLOAD ADD DUP1 DUP3 SSTORE DUP1 SWAP2 POP POP PUSH1 0x1 SWAP1 SUB SWAP1 PUSH0 MSTORE PUSH1 0x20 PUSH0 KECCAK256 ADD PUSH0 SWAP1 SWAP2 SWAP1 SWAP2 SWAP1 SWAP2 POP SWAP1 DUP2 PUSH2 0x2DF SWAP2 SWAP1 PUSH2 0x57B JUMP JUMPDEST POP POP JUMP JUMPDEST PUSH0 DUP2 MLOAD SWAP1 POP SWAP2 SWAP1 POP JUMP JUMPDEST PUSH0 DUP2 SWAP1 POP SWAP3 SWAP2 POP POP JUMP JUMPDEST DUP3 DUP2 DUP4 MCOPY PUSH0 DUP4 DUP4 ADD MSTORE POP POP POP JUMP JUMPDEST PUSH0 PUSH2 0x30F DUP3 PUSH2 0x2E3 JUMP JUMPDEST PUSH2 0x319 DUP2 DUP6 PUSH2 0x2ED JUMP JUMPDEST SWAP4 POP PUSH2 0x329 DUP2 DUP6 PUSH1 0x20 DUP7 ADD PUSH2 0x2F7 JUMP JUMPDEST DUP1 DUP5 ADD SWAP2 POP POP SWAP3 SWAP2 POP POP JUMP JUMPDEST PUSH0 PUSH2 0x340 DUP3 DUP5 PUSH2 0x305 JUMP JUMPDEST SWAP2 POP DUP2 SWAP1 POP SWAP3 SWAP2 POP POP JUMP JUMPDEST PUSH32 0x4E487B7100000000000000000000000000000000000000000000000000000000 PUSH0 MSTORE PUSH1 0x41 PUSH1 0x4 MSTORE PUSH1 0x24 PUSH0 REVERT JUMPDEST PUSH32 0x4E487B7100000000000000000000000000000000000000000000000000000000 PUSH0 MSTORE PUSH1 0x22 PUSH1 0x4 MSTORE PUSH1 0x24 PUSH0 REVERT JUMPDEST PUSH0 PUSH1 0x2 DUP3 DIV SWAP1 POP PUSH1 0x1 DUP3 AND DUP1 PUSH2 0x3BC JUMPI PUSH1 0x7F DUP3 AND SWAP2 POP JUMPDEST PUSH1 0x20 DUP3 LT DUP2 SUB PUSH2 0x3CF JUMPI PUSH2 0x3CE PUSH2 0x378 JUMP JUMPDEST JUMPDEST POP SWAP2 SWAP1 POP JUMP JUMPDEST PUSH0 DUP2 SWAP1 POP DUP2 PUSH0 MSTORE PUSH1 0x20 PUSH0 KECCAK256 SWAP1 POP SWAP2 SWAP1 POP JUMP JUMPDEST PUSH0 PUSH1 0x20 PUSH1 0x1F DUP4 ADD DIV SWAP1 POP SWAP2 SWAP1 POP JUMP JUMPDEST PUSH0 DUP3 DUP3 SHL SWAP1 POP SWAP3 SWAP2 POP POP JUMP JUMPDEST PUSH0 PUSH1 0x8 DUP4 MUL PUSH2 0x431 PUSH32 0xFFFFFFFFFFFFFFFFFFFFFFFFFFFFFFFFFFFFFFFFFFFFFFFFFFFFFFFFFFFFFFFF DUP3 PUSH2 0x3F6 JUMP JUMPDEST PUSH2 0x43B DUP7 DUP4 PUSH2 0x3F6 JUMP JUMPDEST SWAP6 POP DUP1 NOT DUP5 AND SWAP4 POP DUP1 DUP7 AND DUP5 OR SWAP3 POP POP POP SWAP4 SWAP3 POP POP POP JUMP JUMPDEST PUSH0 DUP2 SWAP1 POP SWAP2 SWAP1 POP JUMP JUMPDEST PUSH0 DUP2 SWAP1 POP SWAP2 SWAP1 POP JUMP JUMPDEST PUSH0 PUSH2 0x47F PUSH2 0x47A PUSH2 0x475 DUP5 PUSH2 0x453 JUMP JUMPDEST PUSH2 0x45C JUMP JUMPDEST PUSH2 0x453 JUMP JUMPDEST SWAP1 POP SWAP2 SWAP1 POP JUMP JUMPDEST PUSH0 DUP2 SWAP1 POP SWAP2 SWAP1 POP JUMP JUMPDEST PUSH2 0x498 DUP4 PUSH2 0x465 JUMP JUMPDEST PUSH2 0x4AC PUSH2 0x4A4 DUP3 PUSH2 0x486 JUMP JUMPDEST DUP5 DUP5 SLOAD PUSH2 0x402 JUMP JUMPDEST DUP3 SSTORE POP POP POP POP JUMP JUMPDEST PUSH0 SWAP1 JUMP JUMPDEST PUSH2 0x4C0 PUSH2 0x4B4 JUMP JUMPDEST PUSH2 0x4CB DUP2 DUP5 DUP5 PUSH2 0x48F JUMP JUMPDEST POP POP POP JUMP JUMPDEST JUMPDEST DUP2 DUP2 LT ISZERO PUSH2 0x4EE JUMPI PUSH2 0x4E3 PUSH0 DUP3 PUSH2 0x4B8 JUMP JUMPDEST PUSH1 0x1 DUP2 ADD SWAP1 POP PUSH2 0x4D1 JUMP JUMPDEST POP POP JUMP JUMPDEST PUSH1 0x1F DUP3 GT ISZERO PUSH2 0x533 JUMPI PUSH2 0x504 DUP2 PUSH2 0x3D5 JUMP JUMPDEST PUSH2 0x50D DUP5 PUSH2 0x3E7 JUMP JUMPDEST DUP2 ADD PUSH1 0x20 DUP6 LT ISZERO PUSH2 0x51C JUMPI DUP2 SWAP1 POP JUMPDEST PUSH2 0x530 PUSH2 0x528 DUP6 PUSH2 0x3E7 JUMP JUMPDEST DUP4 ADD DUP3 PUSH2 0x4D0 JUMP JUMPDEST POP POP JUMPDEST POP POP POP JUMP JUMPDEST PUSH0 DUP3 DUP3 SHR SWAP1 POP SWAP3 SWAP2 POP POP JUMP JUMPDEST PUSH0 PUSH2 0x553 PUSH0 NOT DUP5 PUSH1 0x8 MUL PUSH2 0x538 JUMP JUMPDEST NOT DUP1 DUP4 AND SWAP2 POP POP SWAP3 SWAP2 POP POP JUMP JUMPDEST PUSH0 PUSH2 0x56B DUP4 DUP4 PUSH2 0x544 JUMP JUMPDEST SWAP2 POP DUP3 PUSH1 0x2 MUL DUP3 OR SWAP1 POP SWAP3 SWAP2 POP POP JUMP JUMPDEST PUSH2 0x584 DUP3 PUSH2 0x2E3 JUMP JUMPDEST PUSH8 0xFFFFFFFFFFFFFFFF DUP2 GT ISZERO PUSH2 0x59D JUMPI PUSH2 0x59C PUSH2 0x34B JUMP JUMPDEST JUMPDEST PUSH2 0x5A7 DUP3 SLOAD PUSH2 0x3A5 JUMP JUMPDEST PUSH2 0x5B2 DUP3 DUP3 DUP6 PUSH2 0x4F2 JUMP JUMPDEST PUSH0 PUSH1 0x20 SWAP1 POP PUSH1 0x1F DUP4 GT PUSH1 0x1 DUP2 EQ PUSH2 0x5E3 JUMPI PUSH0 DUP5 ISZERO PUSH2 0x5D1 JUMPI DUP3 DUP8 ADD MLOAD SWAP1 POP JUMPDEST PUSH2 0x5DB DUP6 DUP3 PUSH2 0x560 JUMP JUMPDEST DUP7 SSTORE POP PUSH2 0x642 JUMP JUMPDEST PUSH1 0x1F NOT DUP5 AND PUSH2 0x5F1 DUP7 PUSH2 0x3D5 JUMP JUMPDEST PUSH0 JUMPDEST DUP3 DUP2 LT ISZERO PUSH2 0x618 JUMPI DUP5 DUP10 ADD MLOAD DUP3 SSTORE PUSH1 0x1 DUP3 ADD SWAP2 POP PUSH1 0x20 DUP6 ADD SWAP5 POP PUSH1 0x20 DUP2 ADD SWAP1 POP PUSH2 0x5F3 JUMP JUMPDEST DUP7 DUP4 LT ISZERO PUSH2 0x635 JUMPI DUP5 DUP10 ADD MLOAD PUSH2 0x631 PUSH1 0x1F DUP10 AND DUP3 PUSH2 0x544 JUMP JUMPDEST DUP4 SSTORE POP JUMPDEST PUSH1 0x1 PUSH1 0x2 DUP9 MUL ADD DUP9 SSTORE POP POP POP JUMPDEST POP POP POP POP POP POP JUMP JUMPDEST PUSH2 0xF38 DUP1 PUSH2 0x657 PUSH0 CODECOPY PUSH0 RETURN INVALID PUSH1 0x80 PUSH1 0x40 MSTORE CALLVALUE DUP1 ISZERO PUSH2 0xF JUMPI PUSH0 DUP1 REVERT JUMPDEST POP PUSH1 0x4 CALLDATASIZE LT PUSH2 0x55 JUMPI PUSH0 CALLDATALOAD PUSH1 0xE0 SHR DUP1 PUSH4 0x1CF0830B EQ PUSH2 0x59 JUMPI DUP1 PUSH4 0x837F8878 EQ PUSH2 0x77 JUMPI DUP1 PUSH4 0xC75C333C EQ PUSH2 0x81 JUMPI DUP1 PUSH4 0xC7853148 EQ PUSH2 0xB1 JUMPI DUP1 PUSH4 0xD81AA8C4 EQ PUSH2 0xE1 JUMPI JUMPDEST PUSH0 DUP1 REVERT JUMPDEST PUSH2 0x61 PUSH2 0xFD JUMP JUMPDEST PUSH1 0x40 MLOAD PUSH2 0x6E SWAP2 SWAP1 PUSH2 0x7FF JUMP JUMPDEST PUSH1 0x40 MLOAD DUP1 SWAP2 SUB SWAP1 RETURN JUMPDEST PUSH2 0x7F PUSH2 0x1D1 JUMP JUMPDEST STOP JUMPDEST PUSH2 0x9B PUSH1 0x4 DUP1 CALLDATASIZE SUB DUP2 ADD SWAP1 PUSH2 0x96 SWAP2 SWAP1 PUSH2 0x9B6 JUMP JUMPDEST PUSH2 0x331 JUMP JUMPDEST PUSH1 0x40 MLOAD PUSH2 0xA8 SWAP2 SWAP1 PUSH2 0xA2A JUMP JUMPDEST PUSH1 0x40 MLOAD DUP1 SWAP2 SUB SWAP1 RETURN JUMPDEST PUSH2 0xCB PUSH1 0x4 DUP1 CALLDATASIZE SUB DUP2 ADD SWAP1 PUSH2 0xC6 SWAP2 SWAP1 PUSH2 0xA43 JUMP JUMPDEST PUSH2 0x373 JUMP JUMPDEST PUSH1 0x40 MLOAD PUSH2 0xD8 SWAP2 SWAP1 PUSH2 0x7FF JUMP JUMPDEST PUSH1 0x40 MLOAD DUP1 SWAP2 SUB SWAP1 RETURN JUMPDEST PUSH2 0xFB PUSH1 0x4 DUP1 CALLDATASIZE SUB DUP2 ADD SWAP1 PUSH2 0xF6 SWAP2 SWAP1 PUSH2 0xA6E JUMP JUMPDEST PUSH2 0x484 JUMP JUMPDEST STOP JUMPDEST PUSH1 0x60 PUSH1 0x1 DUP1 SLOAD DUP1 PUSH1 0x20 MUL PUSH1 0x20 ADD PUSH1 0x40 MLOAD SWAP1 DUP2 ADD PUSH1 0x40 MSTORE DUP1 SWAP3 SWAP2 SWAP1 DUP2 DUP2 MSTORE PUSH1 0x20 ADD PUSH0 SWAP1 JUMPDEST DUP3 DUP3 LT ISZERO PUSH2 0x1C8 JUMPI DUP4 DUP3 SWAP1 PUSH0 MSTORE PUSH1 0x20 PUSH0 KECCAK256 ADD DUP1 SLOAD PUSH2 0x13D SWAP1 PUSH2 0xAE2 JUMP JUMPDEST DUP1 PUSH1 0x1F ADD PUSH1 0x20 DUP1 SWAP2 DIV MUL PUSH1 0x20 ADD PUSH1 0x40 MLOAD SWAP1 DUP2 ADD PUSH1 0x40 MSTORE DUP1 SWAP3 SWAP2 SWAP1 DUP2 DUP2 MSTORE PUSH1 0x20 ADD DUP3 DUP1 SLOAD PUSH2 0x169 SWAP1 PUSH2 0xAE2 JUMP JUMPDEST DUP1 ISZERO PUSH2 0x1B4 JUMPI DUP1 PUSH1 0x1F LT PUSH2 0x18B JUMPI PUSH2 0x100 DUP1 DUP4 SLOAD DIV MUL DUP4 MSTORE SWAP2 PUSH1 0x20 ADD SWAP2 PUSH2 0x1B4 JUMP JUMPDEST DUP3 ADD SWAP2 SWAP1 PUSH0 MSTORE PUSH1 0x20 PUSH0 KECCAK256 SWAP1 JUMPDEST DUP2 SLOAD DUP2 MSTORE SWAP1 PUSH1 0x1 ADD SWAP1 PUSH1 0x20 ADD DUP1 DUP4 GT PUSH2 0x197 JUMPI DUP3 SWAP1 SUB PUSH1 0x1F AND DUP3 ADD SWAP2 JUMPDEST POP POP POP POP POP DUP2 MSTORE PUSH1 0x20 ADD SWAP1 PUSH1 0x1 ADD SWAP1 PUSH2 0x120 JUMP JUMPDEST POP POP POP POP SWAP1 POP SWAP1 JUMP JUMPDEST PUSH0 JUMPDEST PUSH1 0x3 PUSH0 CALLER PUSH20 0xFFFFFFFFFFFFFFFFFFFFFFFFFFFFFFFFFFFFFFFF AND PUSH20 0xFFFFFFFFFFFFFFFFFFFFFFFFFFFFFFFFFFFFFFFF AND DUP2 MSTORE PUSH1 0x20 ADD SWAP1 DUP2 MSTORE PUSH1 0x20 ADD PUSH0 KECCAK256 DUP1 SLOAD SWAP1 POP DUP2 LT ISZERO PUSH2 0x2E6 JUMPI PUSH1 0x2 PUSH0 CALLER PUSH20 0xFFFFFFFFFFFFFFFFFFFFFFFFFFFFFFFFFFFFFFFF AND PUSH20 0xFFFFFFFFFFFFFFFFFFFFFFFFFFFFFFFFFFFFFFFF AND DUP2 MSTORE PUSH1 0x20 ADD SWAP1 DUP2 MSTORE PUSH1 0x20 ADD PUSH0 KECCAK256 PUSH1 0x3 PUSH0 CALLER PUSH20 0xFFFFFFFFFFFFFFFFFFFFFFFFFFFFFFFFFFFFFFFF AND PUSH20 0xFFFFFFFFFFFFFFFFFFFFFFFFFFFFFFFFFFFFFFFF AND DUP2 MSTORE PUSH1 0x20 ADD SWAP1 DUP2 MSTORE PUSH1 0x20 ADD PUSH0 KECCAK256 DUP3 DUP2 SLOAD DUP2 LT PUSH2 0x2A7 JUMPI PUSH2 0x2A6 PUSH2 0xB12 JUMP JUMPDEST JUMPDEST SWAP1 PUSH0 MSTORE PUSH1 0x20 PUSH0 KECCAK256 ADD PUSH1 0x40 MLOAD PUSH2 0x2BC SWAP2 SWAP1 PUSH2 0xBDB JUMP JUMPDEST SWAP1 DUP2 MSTORE PUSH1 0x20 ADD PUSH1 0x40 MLOAD DUP1 SWAP2 SUB SWAP1 KECCAK256 PUSH0 PUSH2 0x100 EXP DUP2 SLOAD SWAP1 PUSH1 0xFF MUL NOT AND SWAP1 SSTORE DUP1 DUP1 PUSH1 0x1 ADD SWAP2 POP POP PUSH2 0x1D3 JUMP JUMPDEST POP PUSH1 0x3 PUSH0 CALLER PUSH20 0xFFFFFFFFFFFFFFFFFFFFFFFFFFFFFFFFFFFFFFFF AND PUSH20 0xFFFFFFFFFFFFFFFFFFFFFFFFFFFFFFFFFFFFFFFF AND DUP2 MSTORE PUSH1 0x20 ADD SWAP1 DUP2 MSTORE PUSH1 0x20 ADD PUSH0 KECCAK256 PUSH0 PUSH2 0x32F SWAP2 SWAP1 PUSH2 0x63B JUMP JUMPDEST JUMP JUMPDEST PUSH1 0x2 PUSH1 0x20 MSTORE DUP2 PUSH0 MSTORE PUSH1 0x40 PUSH0 KECCAK256 DUP2 DUP1 MLOAD PUSH1 0x20 DUP2 ADD DUP3 ADD DUP1 MLOAD DUP5 DUP3 MSTORE PUSH1 0x20 DUP4 ADD PUSH1 0x20 DUP6 ADD KECCAK256 DUP2 DUP4 MSTORE DUP1 SWAP6 POP POP POP POP POP POP PUSH0 SWAP2 POP SWAP2 POP SWAP1 SLOAD SWAP1 PUSH2 0x100 EXP SWAP1 DIV PUSH1 0xFF AND DUP2 JUMP JUMPDEST PUSH1 0x60 PUSH1 0x3 PUSH0 DUP4 PUSH20 0xFFFFFFFFFFFFFFFFFFFFFFFFFFFFFFFFFFFFFFFF AND PUSH20 0xFFFFFFFFFFFFFFFFFFFFFFFFFFFFFFFFFFFFFFFF AND DUP2 MSTORE PUSH1 0x20 ADD SWAP1 DUP2 MSTORE PUSH1 0x20 ADD PUSH0 KECCAK256 DUP1 SLOAD DUP1 PUSH1 0x20 MUL PUSH1 0x20 ADD PUSH1 0x40 MLOAD SWAP1 DUP2 ADD PUSH1 0x40 MSTORE DUP1 SWAP3 SWAP2 SWAP1 DUP2 DUP2 MSTORE PUSH1 0x20 ADD PUSH0 SWAP1 JUMPDEST DUP3 DUP3 LT ISZERO PUSH2 0x479 JUMPI DUP4 DUP3 SWAP1 PUSH0 MSTORE PUSH1 0x20 PUSH0 KECCAK256 ADD DUP1 SLOAD PUSH2 0x3EE SWAP1 PUSH2 0xAE2 JUMP JUMPDEST DUP1 PUSH1 0x1F ADD PUSH1 0x20 DUP1 SWAP2 DIV MUL PUSH1 0x20 ADD PUSH1 0x40 MLOAD SWAP1 DUP2 ADD PUSH1 0x40 MSTORE DUP1 SWAP3 SWAP2 SWAP1 DUP2 DUP2 MSTORE PUSH1 0x20 ADD DUP3 DUP1 SLOAD PUSH2 0x41A SWAP1 PUSH2 0xAE2 JUMP JUMPDEST DUP1 ISZERO PUSH2 0x465 JUMPI DUP1 PUSH1 0x1F LT PUSH2 0x43C JUMPI PUSH2 0x100 DUP1 DUP4 SLOAD DIV MUL DUP4 MSTORE SWAP2 PUSH1 0x20 ADD SWAP2 PUSH2 0x465 JUMP JUMPDEST DUP3 ADD SWAP2 SWAP1 PUSH0 MSTORE PUSH1 0x20 PUSH0 KECCAK256 SWAP1 JUMPDEST DUP2 SLOAD DUP2 MSTORE SWAP1 PUSH1 0x1 ADD SWAP1 PUSH1 0x20 ADD DUP1 DUP4 GT PUSH2 0x448 JUMPI DUP3 SWAP1 SUB PUSH1 0x1F AND DUP3 ADD SWAP2 JUMPDEST POP POP POP POP POP DUP2 MSTORE PUSH1 0x20 ADD SWAP1 PUSH1 0x1 ADD SWAP1 PUSH2 0x3D1 JUMP JUMPDEST POP POP POP POP SWAP1 POP SWAP2 SWAP1 POP JUMP JUMPDEST PUSH0 DUP2 PUSH1 0x40 MLOAD PUSH2 0x493 SWAP2 SWAP1 PUSH2 0xC21 JUMP JUMPDEST SWAP1 DUP2 MSTORE PUSH1 0x20 ADD PUSH1 0x40 MLOAD DUP1 SWAP2 SUB SWAP1 KECCAK256 PUSH0 SWAP1 SLOAD SWAP1 PUSH2 0x100 EXP SWAP1 DIV PUSH1 0xFF AND PUSH2 0x4EF JUMPI DUP1 PUSH1 0x40 MLOAD PUSH32 0x4F0FFC1B00000000000000000000000000000000000000000000000000000000 DUP2 MSTORE PUSH1 0x4 ADD PUSH2 0x4E6 SWAP2 SWAP1 PUSH2 0xC7F JUMP JUMPDEST PUSH1 0x40 MLOAD DUP1 SWAP2 SUB SWAP1 REVERT JUMPDEST PUSH1 0x2 PUSH0 CALLER PUSH20 0xFFFFFFFFFFFFFFFFFFFFFFFFFFFFFFFFFFFFFFFF AND PUSH20 0xFFFFFFFFFFFFFFFFFFFFFFFFFFFFFFFFFFFFFFFF AND DUP2 MSTORE PUSH1 0x20 ADD SWAP1 DUP2 MSTORE PUSH1 0x20 ADD PUSH0 KECCAK256 DUP2 PUSH1 0x40 MLOAD PUSH2 0x53A SWAP2 SWAP1 PUSH2 0xC21 JUMP JUMPDEST SWAP1 DUP2 MSTORE PUSH1 0x20 ADD PUSH1 0x40 MLOAD DUP1 SWAP2 SUB SWAP1 KECCAK256 PUSH0 SWAP1 SLOAD SWAP1 PUSH2 0x100 EXP SWAP1 DIV PUSH1 0xFF AND PUSH2 0x638 JUMPI PUSH1 0x1 PUSH1 0x2 PUSH0 CALLER PUSH20 0xFFFFFFFFFFFFFFFFFFFFFFFFFFFFFFFFFFFFFFFF AND PUSH20 0xFFFFFFFFFFFFFFFFFFFFFFFFFFFFFFFFFFFFFFFF AND DUP2 MSTORE PUSH1 0x20 ADD SWAP1 DUP2 MSTORE PUSH1 0x20 ADD PUSH0 KECCAK256 DUP3 PUSH1 0x40 MLOAD PUSH2 0x5A6 SWAP2 SWAP1 PUSH2 0xC21 JUMP JUMPDEST SWAP1 DUP2 MSTORE PUSH1 0x20 ADD PUSH1 0x40 MLOAD DUP1 SWAP2 SUB SWAP1 KECCAK256 PUSH0 PUSH2 0x100 EXP DUP2 SLOAD DUP2 PUSH1 0xFF MUL NOT AND SWAP1 DUP4 ISZERO ISZERO MUL OR SWAP1 SSTORE POP PUSH1 0x3 PUSH0 CALLER PUSH20 0xFFFFFFFFFFFFFFFFFFFFFFFFFFFFFFFFFFFFFFFF AND PUSH20 0xFFFFFFFFFFFFFFFFFFFFFFFFFFFFFFFFFFFFFFFF AND DUP2 MSTORE PUSH1 0x20 ADD SWAP1 DUP2 MSTORE PUSH1 0x20 ADD PUSH0 KECCAK256 DUP2 SWAP1 DUP1 PUSH1 0x1 DUP2 SLOAD ADD DUP1 DUP3 SSTORE DUP1 SWAP2 POP POP PUSH1 0x1 SWAP1 SUB SWAP1 PUSH0 MSTORE PUSH1 0x20 PUSH0 KECCAK256 ADD PUSH0 SWAP1 SWAP2 SWAP1 SWAP2 SWAP1 SWAP2 POP SWAP1 DUP2 PUSH2 0x636 SWAP2 SWAP1 PUSH2 0xE33 JUMP JUMPDEST POP JUMPDEST POP JUMP JUMPDEST POP DUP1 SLOAD PUSH0 DUP3 SSTORE SWAP1 PUSH0 MSTORE PUSH1 0x20 PUSH0 KECCAK256 SWAP1 DUP2 ADD SWAP1 PUSH2 0x656 SWAP2 SWAP1 PUSH2 0x659 JUMP JUMPDEST POP JUMP JUMPDEST JUMPDEST DUP1 DUP3 GT ISZERO PUSH2 0x678 JUMPI PUSH0 DUP2 DUP2 PUSH2 0x66F SWAP2 SWAP1 PUSH2 0x67C JUMP JUMPDEST POP PUSH1 0x1 ADD PUSH2 0x65A JUMP JUMPDEST POP SWAP1 JUMP JUMPDEST POP DUP1 SLOAD PUSH2 0x688 SWAP1 PUSH2 0xAE2 JUMP JUMPDEST PUSH0 DUP3 SSTORE DUP1 PUSH1 0x1F LT PUSH2 0x699 JUMPI POP PUSH2 0x6B6 JUMP JUMPDEST PUSH1 0x1F ADD PUSH1 0x20 SWAP1 DIV SWAP1 PUSH0 MSTORE PUSH1 0x20 PUSH0 KECCAK256 SWAP1 DUP2 ADD SWAP1 PUSH2 0x6B5 SWAP2 SWAP1 PUSH2 0x6B9 JUMP JUMPDEST JUMPDEST POP JUMP JUMPDEST JUMPDEST DUP1 DUP3 GT ISZERO PUSH2 0x6D0 JUMPI PUSH0 DUP2 PUSH0 SWAP1 SSTORE POP PUSH1 0x1 ADD PUSH2 0x6BA JUMP JUMPDEST POP SWAP1 JUMP JUMPDEST PUSH0 DUP2 MLOAD SWAP1 POP SWAP2 SWAP1 POP JUMP JUMPDEST PUSH0 DUP3 DUP3 MSTORE PUSH1 0x20 DUP3 ADD SWAP1 POP SWAP3 SWAP2 POP POP JUMP JUMPDEST PUSH0 DUP2 SWAP1 POP PUSH1 0x20 DUP3 ADD SWAP1 POP SWAP2 SWAP1 POP JUMP JUMPDEST PUSH0 DUP2 MLOAD SWAP1 POP SWAP2 SWAP1 POP JUMP JUMPDEST PUSH0 DUP3 DUP3 MSTORE PUSH1 0x20 DUP3 ADD SWAP1 POP SWAP3 SWAP2 POP POP JUMP JUMPDEST DUP3 DUP2 DUP4 MCOPY PUSH0 DUP4 DUP4 ADD MSTORE POP POP POP JUMP JUMPDEST PUSH0 PUSH1 0x1F NOT PUSH1 0x1F DUP4 ADD AND SWAP1 POP SWAP2 SWAP1 POP JUMP JUMPDEST PUSH0 PUSH2 0x73F DUP3 PUSH2 0x6FD JUMP JUMPDEST PUSH2 0x749 DUP2 DUP6 PUSH2 0x707 JUMP JUMPDEST SWAP4 POP PUSH2 0x759 DUP2 DUP6 PUSH1 0x20 DUP7 ADD PUSH2 0x717 JUMP JUMPDEST PUSH2 0x762 DUP2 PUSH2 0x725 JUMP JUMPDEST DUP5 ADD SWAP2 POP POP SWAP3 SWAP2 POP POP JUMP JUMPDEST PUSH0 PUSH2 0x778 DUP4 DUP4 PUSH2 0x735 JUMP JUMPDEST SWAP1 POP SWAP3 SWAP2 POP POP JUMP JUMPDEST PUSH0 PUSH1 0x20 DUP3 ADD SWAP1 POP SWAP2 SWAP1 POP JUMP JUMPDEST PUSH0 PUSH2 0x796 DUP3 PUSH2 0x6D4 JUMP JUMPDEST PUSH2 0x7A0 DUP2 DUP6 PUSH2 0x6DE JUMP JUMPDEST SWAP4 POP DUP4 PUSH1 0x20 DUP3 MUL DUP6 ADD PUSH2 0x7B2 DUP6 PUSH2 0x6EE JUMP JUMPDEST DUP1 PUSH0 JUMPDEST DUP6 DUP2 LT ISZERO PUSH2 0x7ED JUMPI DUP5 DUP5 SUB DUP10 MSTORE DUP2 MLOAD PUSH2 0x7CE DUP6 DUP3 PUSH2 0x76D JUMP JUMPDEST SWAP5 POP PUSH2 0x7D9 DUP4 PUSH2 0x780 JUMP JUMPDEST SWAP3 POP PUSH1 0x20 DUP11 ADD SWAP10 POP POP PUSH1 0x1 DUP2 ADD SWAP1 POP PUSH2 0x7B5 JUMP JUMPDEST POP DUP3 SWAP8 POP DUP8 SWAP6 POP POP POP POP POP POP SWAP3 SWAP2 POP POP JUMP JUMPDEST PUSH0 PUSH1 0x20 DUP3 ADD SWAP1 POP DUP2 DUP2 SUB PUSH0 DUP4 ADD MSTORE PUSH2 0x817 DUP2 DUP5 PUSH2 0x78C JUMP JUMPDEST SWAP1 POP SWAP3 SWAP2 POP POP JUMP JUMPDEST PUSH0 PUSH1 0x40 MLOAD SWAP1 POP SWAP1 JUMP JUMPDEST PUSH0 DUP1 REVERT JUMPDEST PUSH0 DUP1 REVERT JUMPDEST PUSH0 PUSH20 0xFFFFFFFFFFFFFFFFFFFFFFFFFFFFFFFFFFFFFFFF DUP3 AND SWAP1 POP SWAP2 SWAP1 POP JUMP JUMPDEST PUSH0 PUSH2 0x859 DUP3 PUSH2 0x830 JUMP JUMPDEST SWAP1 POP SWAP2 SWAP1 POP JUMP JUMPDEST PUSH2 0x869 DUP2 PUSH2 0x84F JUMP JUMPDEST DUP2 EQ PUSH2 0x873 JUMPI PUSH0 DUP1 REVERT JUMPDEST POP JUMP JUMPDEST PUSH0 DUP2 CALLDATALOAD SWAP1 POP PUSH2 0x884 DUP2 PUSH2 0x860 JUMP JUMPDEST SWAP3 SWAP2 POP POP JUMP JUMPDEST PUSH0 DUP1 REVERT JUMPDEST PUSH0 DUP1 REVERT JUMPDEST PUSH32 0x4E487B7100000000000000000000000000000000000000000000000000000000 PUSH0 MSTORE PUSH1 0x41 PUSH1 0x4 MSTORE PUSH1 0x24 PUSH0 REVERT JUMPDEST PUSH2 0x8C8 DUP3 PUSH2 0x725 JUMP JUMPDEST DUP2 ADD DUP2 DUP2 LT PUSH8 0xFFFFFFFFFFFFFFFF DUP3 GT OR ISZERO PUSH2 0x8E7 JUMPI PUSH2 0x8E6 PUSH2 0x892 JUMP JUMPDEST JUMPDEST DUP1 PUSH1 0x40 MSTORE POP POP POP JUMP JUMPDEST PUSH0 PUSH2 0x8F9 PUSH2 0x81F JUMP JUMPDEST SWAP1 POP PUSH2 0x905 DUP3 DUP3 PUSH2 0x8BF JUMP JUMPDEST SWAP2 SWAP1 POP JUMP JUMPDEST PUSH0 PUSH8 0xFFFFFFFFFFFFFFFF DUP3 GT ISZERO PUSH2 0x924 JUMPI PUSH2 0x923 PUSH2 0x892 JUMP JUMPDEST JUMPDEST PUSH2 0x92D DUP3 PUSH2 0x725 JUMP JUMPDEST SWAP1 POP PUSH1 0x20 DUP2 ADD SWAP1 POP SWAP2 SWAP1 POP JUMP JUMPDEST DUP3 DUP2 DUP4 CALLDATACOPY PUSH0 DUP4 DUP4 ADD MSTORE POP POP POP JUMP JUMPDEST PUSH0 PUSH2 0x95A PUSH2 0x955 DUP5 PUSH2 0x90A JUMP JUMPDEST PUSH2 0x8F0 JUMP JUMPDEST SWAP1 POP DUP3 DUP2 MSTORE PUSH1 0x20 DUP2 ADD DUP5 DUP5 DUP5 ADD GT ISZERO PUSH2 0x976 JUMPI PUSH2 0x975 PUSH2 0x88E JUMP JUMPDEST JUMPDEST PUSH2 0x981 DUP5 DUP3 DUP6 PUSH2 0x93A JUMP JUMPDEST POP SWAP4 SWAP3 POP POP POP JUMP JUMPDEST PUSH0 DUP3 PUSH1 0x1F DUP4 ADD SLT PUSH2 0x99D JUMPI PUSH2 0x99C PUSH2 0x88A JUMP JUMPDEST JUMPDEST DUP2 CALLDATALOAD PUSH2 0x9AD DUP5 DUP3 PUSH1 0x20 DUP7 ADD PUSH2 0x948 JUMP JUMPDEST SWAP2 POP POP SWAP3 SWAP2 POP POP JUMP JUMPDEST PUSH0 DUP1 PUSH1 0x40 DUP4 DUP6 SUB SLT ISZERO PUSH2 0x9CC JUMPI PUSH2 0x9CB PUSH2 0x828 JUMP JUMPDEST JUMPDEST PUSH0 PUSH2 0x9D9 DUP6 DUP3 DUP7 ADD PUSH2 0x876 JUMP JUMPDEST SWAP3 POP POP PUSH1 0x20 DUP4 ADD CALLDATALOAD PUSH8 0xFFFFFFFFFFFFFFFF DUP2 GT ISZERO PUSH2 0x9FA JUMPI PUSH2 0x9F9 PUSH2 0x82C JUMP JUMPDEST JUMPDEST PUSH2 0xA06 DUP6 DUP3 DUP7 ADD PUSH2 0x989 JUMP JUMPDEST SWAP2 POP POP SWAP3 POP SWAP3 SWAP1 POP JUMP JUMPDEST PUSH0 DUP2 ISZERO ISZERO SWAP1 POP SWAP2 SWAP1 POP JUMP JUMPDEST PUSH2 0xA24 DUP2 PUSH2 0xA10 JUMP JUMPDEST DUP3 MSTORE POP POP JUMP JUMPDEST PUSH0 PUSH1 0x20 DUP3 ADD SWAP1 POP PUSH2 0xA3D PUSH0 DUP4 ADD DUP5 PUSH2 0xA1B JUMP JUMPDEST SWAP3 SWAP2 POP POP JUMP JUMPDEST PUSH0 PUSH1 0x20 DUP3 DUP5 SUB SLT ISZERO PUSH2 0xA58 JUMPI PUSH2 0xA57 PUSH2 0x828 JUMP JUMPDEST JUMPDEST PUSH0 PUSH2 0xA65 DUP5 DUP3 DUP6 ADD PUSH2 0x876 JUMP JUMPDEST SWAP2 POP POP SWAP3 SWAP2 POP POP JUMP JUMPDEST PUSH0 PUSH1 0x20 DUP3 DUP5 SUB SLT ISZERO PUSH2 0xA83 JUMPI PUSH2 0xA82 PUSH2 0x828 JUMP JUMPDEST JUMPDEST PUSH0 DUP3 ADD CALLDATALOAD PUSH8 0xFFFFFFFFFFFFFFFF DUP2 GT ISZERO PUSH2 0xAA0 JUMPI PUSH2 0xA9F PUSH2 0x82C JUMP JUMPDEST JUMPDEST PUSH2 0xAAC DUP5 DUP3 DUP6 ADD PUSH2 0x989 JUMP JUMPDEST SWAP2 POP POP SWAP3 SWAP2 POP POP JUMP JUMPDEST PUSH32 0x4E487B7100000000000000000000000000000000000000000000000000000000 PUSH0 MSTORE PUSH1 0x22 PUSH1 0x4 MSTORE PUSH1 0x24 PUSH0 REVERT JUMPDEST PUSH0 PUSH1 0x2 DUP3 DIV SWAP1 POP PUSH1 0x1 DUP3 AND DUP1 PUSH2 0xAF9 JUMPI PUSH1 0x7F DUP3 AND SWAP2 POP JUMPDEST PUSH1 0x20 DUP3 LT DUP2 SUB PUSH2 0xB0C JUMPI PUSH2 0xB0B PUSH2 0xAB5 JUMP JUMPDEST JUMPDEST POP SWAP2 SWAP1 POP JUMP JUMPDEST PUSH32 0x4E487B7100000000000000000000000000000000000000000000000000000000 PUSH0 MSTORE PUSH1 0x32 PUSH1 0x4 MSTORE PUSH1 0x24 PUSH0 REVERT JUMPDEST PUSH0 DUP2 SWAP1 POP SWAP3 SWAP2 POP POP JUMP JUMPDEST PUSH0 DUP2 SWAP1 POP DUP2 PUSH0 MSTORE PUSH1 0x20 PUSH0 KECCAK256 SWAP1 POP SWAP2 SWAP1 POP JUMP JUMPDEST PUSH0 DUP2 SLOAD PUSH2 0xB67 DUP2 PUSH2 0xAE2 JUMP JUMPDEST PUSH2 0xB71 DUP2 DUP7 PUSH2 0xB3F JUMP JUMPDEST SWAP5 POP PUSH1 0x1 DUP3 AND PUSH0 DUP2 EQ PUSH2 0xB8B JUMPI PUSH1 0x1 DUP2 EQ PUSH2 0xBA0 JUMPI PUSH2 0xBD2 JUMP JUMPDEST PUSH1 0xFF NOT DUP4 AND DUP7 MSTORE DUP2 ISZERO ISZERO DUP3 MUL DUP7 ADD SWAP4 POP PUSH2 0xBD2 JUMP JUMPDEST PUSH2 0xBA9 DUP6 PUSH2 0xB49 JUMP JUMPDEST PUSH0 JUMPDEST DUP4 DUP2 LT ISZERO PUSH2 0xBCA JUMPI DUP2 SLOAD DUP2 DUP10 ADD MSTORE PUSH1 0x1 DUP3 ADD SWAP2 POP PUSH1 0x20 DUP2 ADD SWAP1 POP PUSH2 0xBAB JUMP JUMPDEST DUP4 DUP9 ADD SWAP6 POP POP POP JUMPDEST POP POP POP SWAP3 SWAP2 POP POP JUMP JUMPDEST PUSH0 PUSH2 0xBE6 DUP3 DUP5 PUSH2 0xB5B JUMP JUMPDEST SWAP2 POP DUP2 SWAP1 POP SWAP3 SWAP2 POP POP JUMP JUMPDEST PUSH0 PUSH2 0xBFB DUP3 PUSH2 0x6FD JUMP JUMPDEST PUSH2 0xC05 DUP2 DUP6 PUSH2 0xB3F JUMP JUMPDEST SWAP4 POP PUSH2 0xC15 DUP2 DUP6 PUSH1 0x20 DUP7 ADD PUSH2 0x717 JUMP JUMPDEST DUP1 DUP5 ADD SWAP2 POP POP SWAP3 SWAP2 POP POP JUMP JUMPDEST PUSH0 PUSH2 0xC2C DUP3 DUP5 PUSH2 0xBF1 JUMP JUMPDEST SWAP2 POP DUP2 SWAP1 POP SWAP3 SWAP2 POP POP JUMP JUMPDEST PUSH0 DUP3 DUP3 MSTORE PUSH1 0x20 DUP3 ADD SWAP1 POP SWAP3 SWAP2 POP POP JUMP JUMPDEST PUSH0 PUSH2 0xC51 DUP3 PUSH2 0x6FD JUMP JUMPDEST PUSH2 0xC5B DUP2 DUP6 PUSH2 0xC37 JUMP JUMPDEST SWAP4 POP PUSH2 0xC6B DUP2 DUP6 PUSH1 0x20 DUP7 ADD PUSH2 0x717 JUMP JUMPDEST PUSH2 0xC74 DUP2 PUSH2 0x725 JUMP JUMPDEST DUP5 ADD SWAP2 POP POP SWAP3 SWAP2 POP POP JUMP JUMPDEST PUSH0 PUSH1 0x20 DUP3 ADD SWAP1 POP DUP2 DUP2 SUB PUSH0 DUP4 ADD MSTORE PUSH2 0xC97 DUP2 DUP5 PUSH2 0xC47 JUMP JUMPDEST SWAP1 POP SWAP3 SWAP2 POP POP JUMP JUMPDEST PUSH0 PUSH1 0x20 PUSH1 0x1F DUP4 ADD DIV SWAP1 POP SWAP2 SWAP1 POP JUMP JUMPDEST PUSH0 DUP3 DUP3 SHL SWAP1 POP SWAP3 SWAP2 POP POP JUMP JUMPDEST PUSH0 PUSH1 0x8 DUP4 MUL PUSH2 0xCE9 PUSH32 0xFFFFFFFFFFFFFFFFFFFFFFFFFFFFFFFFFFFFFFFFFFFFFFFFFFFFFFFFFFFFFFFF DUP3 PUSH2 0xCAE JUMP JUMPDEST PUSH2 0xCF3 DUP7 DUP4 PUSH2 0xCAE JUMP JUMPDEST SWAP6 POP DUP1 NOT DUP5 AND SWAP4 POP DUP1 DUP7 AND DUP5 OR SWAP3 POP POP POP SWAP4 SWAP3 POP POP POP JUMP JUMPDEST PUSH0 DUP2 SWAP1 POP SWAP2 SWAP1 POP JUMP JUMPDEST PUSH0 DUP2 SWAP1 POP SWAP2 SWAP1 POP JUMP JUMPDEST PUSH0 PUSH2 0xD37 PUSH2 0xD32 PUSH2 0xD2D DUP5 PUSH2 0xD0B JUMP JUMPDEST PUSH2 0xD14 JUMP JUMPDEST PUSH2 0xD0B JUMP JUMPDEST SWAP1 POP SWAP2 SWAP1 POP JUMP JUMPDEST PUSH0 DUP2 SWAP1 POP SWAP2 SWAP1 POP JUMP JUMPDEST PUSH2 0xD50 DUP4 PUSH2 0xD1D JUMP JUMPDEST PUSH2 0xD64 PUSH2 0xD5C DUP3 PUSH2 0xD3E JUMP JUMPDEST DUP5 DUP5 SLOAD PUSH2 0xCBA JUMP JUMPDEST DUP3 SSTORE POP POP POP POP JUMP JUMPDEST PUSH0 SWAP1 JUMP JUMPDEST PUSH2 0xD78 PUSH2 0xD6C JUMP JUMPDEST PUSH2 0xD83 DUP2 DUP5 DUP5 PUSH2 0xD47 JUMP JUMPDEST POP POP POP JUMP JUMPDEST JUMPDEST DUP2 DUP2 LT ISZERO PUSH2 0xDA6 JUMPI PUSH2 0xD9B PUSH0 DUP3 PUSH2 0xD70 JUMP JUMPDEST PUSH1 0x1 DUP2 ADD SWAP1 POP PUSH2 0xD89 JUMP JUMPDEST POP POP JUMP JUMPDEST PUSH1 0x1F DUP3 GT ISZERO PUSH2 0xDEB JUMPI PUSH2 0xDBC DUP2 PUSH2 0xB49 JUMP JUMPDEST PUSH2 0xDC5 DUP5 PUSH2 0xC9F JUMP JUMPDEST DUP2 ADD PUSH1 0x20 DUP6 LT ISZERO PUSH2 0xDD4 JUMPI DUP2 SWAP1 POP JUMPDEST PUSH2 0xDE8 PUSH2 0xDE0 DUP6 PUSH2 0xC9F JUMP JUMPDEST DUP4 ADD DUP3 PUSH2 0xD88 JUMP JUMPDEST POP POP JUMPDEST POP POP POP JUMP JUMPDEST PUSH0 DUP3 DUP3 SHR SWAP1 POP SWAP3 SWAP2 POP POP JUMP JUMPDEST PUSH0 PUSH2 0xE0B PUSH0 NOT DUP5 PUSH1 0x8 MUL PUSH2 0xDF0 JUMP JUMPDEST NOT DUP1 DUP4 AND SWAP2 POP POP SWAP3 SWAP2 POP POP JUMP JUMPDEST PUSH0 PUSH2 0xE23 DUP4 DUP4 PUSH2 0xDFC JUMP JUMPDEST SWAP2 POP DUP3 PUSH1 0x2 MUL DUP3 OR SWAP1 POP SWAP3 SWAP2 POP POP JUMP JUMPDEST PUSH2 0xE3C DUP3 PUSH2 0x6FD JUMP JUMPDEST PUSH8 0xFFFFFFFFFFFFFFFF DUP2 GT ISZERO PUSH2 0xE55 JUMPI PUSH2 0xE54 PUSH2 0x892 JUMP JUMPDEST JUMPDEST PUSH2 0xE5F DUP3 SLOAD PUSH2 0xAE2 JUMP JUMPDEST PUSH2 0xE6A DUP3 DUP3 DUP6 PUSH2 0xDAA JUMP JUMPDEST PUSH0 PUSH1 0x20 SWAP1 POP PUSH1 0x1F DUP4 GT PUSH1 0x1 DUP2 EQ PUSH2 0xE9B JUMPI PUSH0 DUP5 ISZERO PUSH2 0xE89 JUMPI DUP3 DUP8 ADD MLOAD SWAP1 POP JUMPDEST PUSH2 0xE93 DUP6 DUP3 PUSH2 0xE18 JUMP JUMPDEST DUP7 SSTORE POP PUSH2 0xEFA JUMP JUMPDEST PUSH1 0x1F NOT DUP5 AND PUSH2 0xEA9 DUP7 PUSH2 0xB49 JUMP JUMPDEST PUSH0 JUMPDEST DUP3 DUP2 LT ISZERO PUSH2 0xED0 JUMPI DUP5 DUP10 ADD MLOAD DUP3 SSTORE PUSH1 0x1 DUP3 ADD SWAP2 POP PUSH1 0x20 DUP6 ADD SWAP5 POP PUSH1 0x20 DUP2 ADD SWAP1 POP PUSH2 0xEAB JUMP JUMPDEST DUP7 DUP4 LT ISZERO PUSH2 0xEED JUMPI DUP5 DUP10 ADD MLOAD PUSH2 0xEE9 PUSH1 0x1F DUP10 AND DUP3 PUSH2 0xDFC JUMP JUMPDEST DUP4 SSTORE POP JUMPDEST PUSH1 0x1 PUSH1 0x2 DUP9 MUL ADD DUP9 SSTORE POP POP POP JUMPDEST POP POP POP POP POP POP JUMP INVALID LOG2 PUSH5 0x6970667358 0x22 SLT KECCAK256 STATICCALL CALLDATACOPY CHAINID BASEFEE SAR SHR XOR PUSH4 0xDE975A97 ADDRESS 0x4F PUSH12 0x4B9C9BD1A98E913501A72353 0xC8 0x1F SWAP7 PUSH2 0xE564 PUSH20 0x6F6C634300081A00330000000000000000000000 "
				},
				"gasEstimates": {
					"creation": {
						"codeDepositCost": "779200",
						"executionCost": "infinite",
						"totalCost": "infinite"
					},
					"external": {
						"addRecord(string)": "infinite",
						"getApprovedRecords()": "infinite",
						"getUserFavorites(address)": "infinite",
						"resetUserFavorites()": "infinite",
						"userFavorites(address,string)": "infinite"
					},
					"internal": {
						"agregaInicial(string memory)": "infinite"
					}
				},
				"methodIdentifiers": {
					"addRecord(string)": "d81aa8c4",
					"getApprovedRecords()": "1cf0830b",
					"getUserFavorites(address)": "c7853148",
					"resetUserFavorites()": "837f8878",
					"userFavorites(address,string)": "c75c333c"
				}
			},
			"storageLayout": {
				"storage": [
					{
						"astId": 5,
						"contract": "contracts/BaseLearn/FavoriteRecords.sol:FavoriteRecords",
						"label": "approvedRecords",
						"offset": 0,
						"slot": "0",
						"type": "t_mapping(t_string_memory_ptr,t_bool)"
					},
					{
						"astId": 8,
						"contract": "contracts/BaseLearn/FavoriteRecords.sol:FavoriteRecords",
						"label": "approvedRecordsIndices",
						"offset": 0,
						"slot": "1",
						"type": "t_array(t_string_storage)dyn_storage"
					},
					{
						"astId": 14,
						"contract": "contracts/BaseLearn/FavoriteRecords.sol:FavoriteRecords",
						"label": "userFavorites",
						"offset": 0,
						"slot": "2",
						"type": "t_mapping(t_address,t_mapping(t_string_memory_ptr,t_bool))"
					},
					{
						"astId": 19,
						"contract": "contracts/BaseLearn/FavoriteRecords.sol:FavoriteRecords",
						"label": "userFavoritesIndices",
						"offset": 0,
						"slot": "3",
						"type": "t_mapping(t_address,t_array(t_string_storage)dyn_storage)"
					}
				],
				"types": {
					"t_address": {
						"encoding": "inplace",
						"label": "address",
						"numberOfBytes": "20"
					},
					"t_array(t_string_storage)dyn_storage": {
						"base": "t_string_storage",
						"encoding": "dynamic_array",
						"label": "string[]",
						"numberOfBytes": "32"
					},
					"t_bool": {
						"encoding": "inplace",
						"label": "bool",
						"numberOfBytes": "1"
					},
					"t_mapping(t_address,t_array(t_string_storage)dyn_storage)": {
						"encoding": "mapping",
						"key": "t_address",
						"label": "mapping(address => string[])",
						"numberOfBytes": "32",
						"value": "t_array(t_string_storage)dyn_storage"
					},
					"t_mapping(t_address,t_mapping(t_string_memory_ptr,t_bool))": {
						"encoding": "mapping",
						"key": "t_address",
						"label": "mapping(address => mapping(string => bool))",
						"numberOfBytes": "32",
						"value": "t_mapping(t_string_memory_ptr,t_bool)"
					},
					"t_mapping(t_string_memory_ptr,t_bool)": {
						"encoding": "mapping",
						"key": "t_string_memory_ptr",
						"label": "mapping(string => bool)",
						"numberOfBytes": "32",
						"value": "t_bool"
					},
					"t_string_memory_ptr": {
						"encoding": "bytes",
						"label": "string",
						"numberOfBytes": "32"
					},
					"t_string_storage": {
						"encoding": "bytes",
						"label": "string",
						"numberOfBytes": "32"
					}
				}
			},
			"userdoc": {
				"kind": "user",
				"methods": {},
				"version": 1
			}
		}
	}
}